:020000040800F2
:1000000000800120D5FA0008378200083D820008F0
:1000100043820008498200084F8200080000000067
:100020000000000000000000000000007D550008F6
:100030005582000800000000395500086954000886
:1000400025FB000825FB000825FB000825FB000810
:1000500025FB000825FB000825FB000825FB000800
:1000600025FB000825FB000825FB0008638200082B
:10007000CD1F000825FB000825FB000825FB000814
:10008000718200087F8200088D82000825FB00082D
:1000900025FB000825FB000825FB000825FB0008C0
:1000A00025FB00089D82000825FB000825FB0008B1
:1000B00025FB000825FB000825FB000825FB0008A0
:1000C00025FB000825FB000825FB000825FB000890
:1000D00025FB000825FB000825FB000825FB000880
:1000E00025FB000825FB000825FB000825FB000870
:1000F00025FB000825FB000825FB000825FB000860
:1001000025FB000825FB000825FB000825FB00084F
:1001100025FB000825FB000825FB000825FB00083F
:1001200025FB000825FB000825FB000825FB00082F
:1001300025FB000825FB000825FB000825FB00081F
:1001400025FB000825FB000825FB0008B1820008FC
:1001500025FB000825FB000825FB000825FB0008FF
:1001600025FB000825FB000825FB000825FB0008EF
:1001700025FB000825FB000825FB00080000000007
:0801800025FB000825FB000827
:1001880081F0004102E000BF83F0004330B54FEA40
:1001980041044FEA430594EA050F08BF90EA020FAD
:1001A8001FBF54EA000C55EA020C7FEA645C7FEA40
:1001B800655C00F0E2804FEA5454D4EB5555B8BF63
:1001C8006D420CDD2C4480EA020281EA030382EAD4
:1001D800000083EA010180EA020281EA0303362D66
:1001E80088BF30BD11F0004F4FEA01314FF4801C39
:1001F8004CEA113102D0404261EB410113F0004F4B
:100208004FEA03334CEA133302D0524263EB430301
:1002180094EA050F00F0A780A4F10104D5F1200E9F
:100228000DDB02FA0EFC22FA05F2801841F10001FA
:1002380003FA0EF2801843FA05F359410EE0A5F1CE
:1002480020050EF1200E012A03FA0EFC28BF4CF0FF
:10025800020C43FA05F3C01851EBE37101F00045B5
:1002680007D54FF0000EDCF1000C7EEB00006EEBC2
:100278000101B1F5801F1BD3B1F5001F0CD349084C
:100288005FEA30004FEA3C0C04F101044FEA4452A3
:1002980012F5800F80F09A80BCF1004F08BF5FEA2A
:1002A800500C50F1000041EB045141EA050130BD0A
:1002B8005FEA4C0C404141EB0101013C28BFB1F51C
:1002C800801FE9D291F0000F04BF01460020B1FA67
:1002D80081F308BF2033A3F10B03B3F120020CDA3A
:1002E8000C3208DD02F1140CC2F10C0201FA0CF018
:1002F80021FA02F10CE002F11402D8BFC2F1200C7D
:1003080001FA02F120FA0CFCDCBF41EA0C01904032
:10031800E41AA2BF01EB0451294330BD6FEA04047B
:100328001F3C1CDA0C340EDC04F11404C4F1200266
:1003380020FA04F001FA02F340EA030021FA04F378
:1003480045EA030130BDC4F10C04C4F1200220FACF
:1003580002F001FA04F340EA0300294630BD21FA0D
:1003680004F0294630BD94F0000F83F4801306BFD3
:1003780081F480110134013D4EE77FEA645C18BFC7
:100388007FEA655C29D094EA050F08BF90EA020F5E
:1003980005D054EA000C04BF1946104630BD91EA56
:1003A800030F1EBF0021002030BD5FEA545C05D159
:1003B8004000494128BF41F0004130BD14F5800498
:1003C8003CBF01F5801130BD01F0004545F0FE410C
:1003D80041F470014FF0000030BD7FEA645C1ABF41
:1003E800194610467FEA655C1CBF0B46024650EA78
:1003F800013406BF52EA033591EA030F41F40021A4
:1004080030BD00BF90F0000F04BF0021704730B529
:100418004FF4806404F132044FF000054FF00001FE
:1004280050E700BF90F0000F04BF0021704730B5BF
:100438004FF4806404F1320410F0004548BF404294
:100448004FF000013EE700BF42004FEAE2014FEAE9
:1004580031014FEA02701FBF12F07F4393F07F4FC4
:1004680081F06051704732F07F4208BF704793F0C7
:100478007F4F04BF41F40021704730B54FF46074DA
:1004880001F0004521F000411CE700BF50EA0102DD
:1004980008BF704730B54FF000050AE050EA010286
:1004A80008BF704730B511F0004502D5404261EBF6
:1004B80041014FF4806404F132045FEA915C3FF437
:1004C800D8AE4FF003025FEADC0C18BF03325FEAD4
:1004D800DC0C18BF033202EBDC02C2F1200300FA85
:1004E80003FC20FA02F001FA03FE40EA0E0021FAAA
:1004F80002F11444BDE600BF70B54FF0FF0C4CF498
:10050800E06C1CEA11541DBF1CEA135594EA0C0F49
:1005180095EA0C0F00F0DEF82C4481EA030621EA84
:100528004C5123EA4C5350EA013518BF52EA0335BF
:1005380041F4801143F4801338D0A0FB02CE4FF071
:100548000005E1FB02E506F00042E0FB03E54FF0A1
:100558000006E1FB03569CF0000F18BF4EF0010E99
:10056800A4F1FF04B6F5007F64F5407404D25FEA95
:100578004E0E6D4146EB060642EAC62141EA555148
:100588004FEAC52040EA5E504FEACE2EB4F1FD0C8A
:1005980088BFBCF5E06F1ED8BEF1004F08BF5FEA08
:1005A800500E50F1000041EB045170BD06F00046BA
:1005B80046EA010140EA020081EA0301B4EB5C0467
:1005C800C2BFD4EB0C0541EA045170BD41F480115F
:1005D8004FF0000E013C00F3AB8014F1360FDEBF84
:1005E800002001F0004170BDC4F10004203C35DA60
:1005F8000C341BDC04F11404C4F1200500FA05F3E3
:1006080020FA04F001FA05F240EA020001F0004283
:1006180021F0004110EBD37021FA04F642EB0601F9
:100628005EEA430E08BF20EAD37070BDC4F10C0423
:10063800C4F1200500FA04F320FA05F001FA04F2E7
:1006480040EA020001F0004110EBD37041F10001D3
:100658005EEA430E08BF20EAD37070BDC4F12005DE
:1006680000FA05F24EEA020E20FA04F301FA05F246
:1006780043EA020321FA04F001F0004121FA04F2EE
:1006880020EA020000EBD3705EEA430E08BF20EABE
:10069800D37070BD94F0000F0FD101F000464000F8
:1006A80041EB010111F4801F08BF013CF7D041EA7A
:1006B800060195F0000F18BF704703F0004652007E
:1006C80043EB030313F4801F08BF013DF7D043EA4F
:1006D8000603704794EA0C0F0CEA135518BF95EA05
:1006E8000C0F0CD050EA410618BF52EA4306D1D18C
:1006F80081EA030101F000414FF0000070BD50EAAB
:10070800410606BF1046194652EA430619D094EA34
:100718000C0F02D150EA013613D195EA0C0F05D11E
:1007280052EA03361CBF104619460AD181EA030172
:1007380001F0004141F0FE4141F470014FF000002A
:1007480070BD41F0FE4141F4780170BD70B54FF0C5
:10075800FF0C4CF4E06C1CEA11541DBF1CEA135545
:1007680094EA0C0F95EA0C0F00F0A7F8A4EB050427
:1007780081EA030E52EA03354FEA013100F088801E
:100788004FEA03334FF0805545EA131343EA1263E7
:100798004FEA022245EA111545EA10654FEA00269C
:1007A8000EF000419D4208BF964244F1FD0404F555
:1007B800407402D25B084FEA3202B61A65EB0305B1
:1007C8005B084FEA32024FF480104FF4002CB6EB6E
:1007D800020E75EB030E22BFB61A754640EA0C00EE
:1007E8005B084FEA3202B6EB020E75EB030E22BF2E
:1007F800B61A754640EA5C005B084FEA3202B6EB6F
:10080800020E75EB030E22BFB61A754640EA9C002D
:100818005B084FEA3202B6EB020E75EB030E22BFFD
:10082800B61A754640EADC0055EA060E18D04FEABB
:10083800051545EA16754FEA06164FEAC30343EA5B
:1008480052734FEAC2025FEA1C1CC0D111F4801F28
:100858000BD141EA00014FF000004FF0004CB6E721
:1008680011F4801F04BF01430020B4F1FD0C88BFC0
:10087800BCF5E06F3FF6AFAEB5EB030C04BFB6EBCB
:10088800020C5FEA500C50F1000041EB045170BDBE
:100898000EF0004E4EEA113114EB5C04C2BFD4EBEB
:1008A8000C0541EA045170BD41F480114FF0000E6F
:1008B800013C90E645EA060E8DE60CEA135594EAEB
:1008C8000C0F08BF95EA0C0F3FF43BAF94EA0C0FEE
:1008D8000AD150EA01347FF434AF95EA0C0F7FF463
:1008E80025AF104619462CE795EA0C0F06D152EAB7
:1008F80003353FF4FDAE1046194622E750EA41069B
:1009080018BF52EA43067FF4C5AE50EA41047FF4AB
:100918000DAF52EA43057FF4EBAE12E74FF0FF3C10
:1009280006E000BF4FF0010C02E000BF4FF0010CE1
:100938004DF804CD4FEA410C7FEA6C5C4FEA430C5A
:1009480018BF7FEA6C5C1BD001B050EA410C0CBFA9
:1009580052EA430C91EA030F02BF90EA020F00200B
:10096800704710F1000F91EA030F58BF994208BF72
:1009780090422CBFD8176FEAE37040F0010070472F
:100988004FEA410C7FEA6C5C02D150EA013C07D186
:100998004FEA430C7FEA6C5CD6D152EA033CD3D0D1
:1009A8005DF8040B704700BF8446104662468C46CB
:1009B8001946634600E000BF01B5FFF7B7FF0028FE
:1009C80048BF10F1000F01BD4DF808EDFFF7F4FF27
:1009D8000CBF012000205DF808FB00BF4DF808EDB2
:1009E800FFF7EAFF34BF012000205DF808FB00BFD5
:1009F8004DF808EDFFF7E0FF94BF012000205DF8F7
:100A080008FB00BF4DF808EDFFF7CEFF94BF0120AB
:100A180000205DF808FB00BF4DF808EDFFF7C4FFA4
:100A280034BF012000205DF808FB00BF4FEA410CED
:100A38007FEA6C5C02D150EA013C0AD14FEA430CD0
:100A48007FEA6C5C02D152EA033C02D14FF000000D
:100A580070474FF0010070474A0011D212F500129A
:100A680011D20DD56FF47873B3EB62520ED44FEAFE
:100A7800C12343F0004343EA505323FA02F070477E
:100A88004FF00000704750EA013002D14FF0FF30BC
:100A980070474FF0000070470348044B834202D070
:100AA800034B03B118477047B0020020B002002082
:100AB800000000000548064B1B1AD90F01EBA301E3
:100AC800491002D0034B03B118477047B002002009
:100AD800B00200200000000010B5064C237843B98E
:100AE800FFF7DAFF044B13B10448AFF3008001238A
:100AF800237010BDB00200200000000004010108AE
:100B080008B5054B1BB105490548AFF30080BDE8A2
:100B18000840FFF7CFBF00BF00000000B40200206C
:100B28000401010880B485B000AF78607B681B6859
:100B380003F06003FB60FB68002B04D17B681B6833
:100B480003F01003FB60FB6818461437BD465DF8D8
:100B5800047B704780B483B000AF78607B681B6B00
:100B680018460C37BD465DF8047B704780B483B0E7
:100B780000AF786039607B681A6A3B681A437B6803
:100B88001A6200BF0C37BD465DF8047B704780B41D
:100B980083B000AF786039607B681A6A3B68DB43D2
:100BA8001A407B681A6200BF0C37BD465DF8047BAB
:100BB800704780B483B000AF78607B685B6C43F4A7
:100BC80000427B685A6400BF0C37BD465DF8047B61
:100BD800704780B483B000AF78607B68DB6843F00F
:100BE80001027B68DA6000BF0C37BD465DF8047B04
:100BF800704780B483B000AF78607B68DB6823F00F
:100C080001027B68DA6000BF0C37BD465DF8047BE3
:100C1800704780B483B000AF78607B68DB6803F00E
:100C28000103012B01D1012300E0002318460C37F2
:100C3800BD465DF8047B704780B483B000AF786030
:100C48007B68DB6843F002027B68DA6000BF0C3720
:100C5800BD465DF8047B704780B483B000AF786010
:100C68007B68DB6823F002027B68DA6000BF0C3720
:100C7800BD465DF8047B704780B483B000AF7860F0
:100C88007B68DB6803F00203022B01D1012300E03B
:100C9800002318460C37BD465DF8047B704780B4C6
:100CA80083B000AF78607B68DB6843F004027B6840
:100CB800DA6000BF0C37BD465DF8047B704780B42E
:100CC80083B000AF78607B68DB6823F004027B6840
:100CD800DA6000BF0C37BD465DF8047B704780B40E
:100CE80083B000AF78607B68DB6803F00403042BF3
:100CF80001D1012300E0002318460C37BD465DF8FA
:100D0800047B704780B483B000AF78607B68DB6891
:100D180043F008027B68DA6000BF0C37BD465DF817
:100D2800047B704780B483B000AF78607B68DB6871
:100D380023F008027B68DA6000BF0C37BD465DF817
:100D4800047B704780B483B000AF78607B68DB6851
:100D580003F00803082B01D1012300E00023184603
:100D68000C37BD465DF8047B704780B483B000AF94
:100D780078607B68DB6843F010027B68DA6000BF4C
:100D88000C37BD465DF8047B704780B483B000AF74
:100D980078607B68DB6823F010027B68DA6000BF4C
:100DA8000C37BD465DF8047B704780B483B000AF54
:100DB80078607B68DB6803F01003102B01D10123F6
:100DC80000E0002318460C37BD465DF8047B7047E9
:100DD80080B483B000AF78607B68DB6843F02002A2
:100DE8007B68DA6000BF0C37BD465DF8047B70474E
:100DF80080B483B000AF78607B68DB6823F02002A2
:100E08007B68DA6000BF0C37BD465DF8047B70472D
:100E180080B483B000AF78607B68DB6803F02003A0
:100E2800202B01D1012300E0002318460C37BD46D2
:100E38005DF8047B704780B483B000AF78607B684E
:100E4800DB6843F040027B68DA6000BF0C37BD46C0
:100E58005DF8047B704780B483B000AF78607B682E
:100E6800DB6823F040027B68DA6000BF0C37BD46C0
:100E78005DF8047B704780B483B000AF78607B680E
:100E8800DB6803F04003402B01D1012300E000237D
:100E980018460C37BD465DF8047B704780B483B0B4
:100EA80000AF78607B68DB6843F080027B68DA60BB
:100EB80000BF0C37BD465DF8047B704780B483B033
:100EC80000AF78607B68DB6823F080027B68DA60BB
:100ED80000BF0C37BD465DF8047B704780B483B013
:100EE80000AF78607B68DB6803F08003802B01D15A
:100EF800012300E0002318460C37BD465DF8047B4B
:100F0800704780B582B000AF78600B467B807B88E5
:100F180003F00103002B0CD07B681B681846FFF711
:100F2800AAFF0346012B04D07B681B681846FFF70D
:100F380082FF7B8803F00203002B0CD07B681B68C0
:100F48001846FFF799FE0346012B04D07B681B68FF
:100F58001846FFF771FE7B8803F00403002B0CD0C2
:100F68007B681B681846FFF7BAFE0346012B04D0BE
:100F78007B681B681846FFF792FE7B8803F008031E
:100F8800002B0CD07B681B681846FFF7DBFE034676
:100F9800012B04D07B681B681846FFF7B3FE7B88DB
:100FA80003F01003002B0CD07B681B681846FFF772
:100FB800FCFE0346012B04D07B681B681846FFF72C
:100FC800D4FE7B8803F02003002B0CD07B681B68C1
:100FD8001846FFF71EFE0346012B04D07B681B68EA
:100FE8001846FFF7F6FD7B8803F04003002B0CD072
:100FF8007B681B681846FFF771FF0346012B04D076
:101008007B681B681846FFF749FF7B8803F080035D
:10101800002B0CD07B681B681846FFF7F9FE0346C7
:10102800012B04D07B681B681846FFF7D1FE00BF70
:101038000837BD4680BD80B582B000AF78600B46EA
:101048007B807B8803F00103002B0CD07B681B6836
:101058001846FFF710FF0346012B04D17B681B6875
:101068001846FFF7F8FE7B8803F00203002B0CD02C
:101078007B681B681846FFF7FFFD0346012B04D168
:101088007B681B681846FFF7E7FD7B8803F00403BD
:10109800002B0CD07B681B681846FFF720FE034620
:1010A800012B04D17B681B681846FFF708FE7B8874
:1010B80003F00803002B0CD07B681B681846FFF769
:1010C80041FE0346012B04D17B681B681846FFF7D5
:1010D80029FE7B8803F01003002B0CD07B681B686B
:1010E8001846FFF762FE0346012B04D17B681B6894
:1010F8001846FFF74AFE7B8803F02003002B0CD02C
:101108007B681B681846FFF784FD0346012B04D053
:101118007B681B681846FFF76CFD7B8803F040036B
:10112800002B0CD07B681B681846FFF7D7FE0346D8
:10113800012B04D17B681B681846FFF7BFFE7B882C
:1011480003F08003002B0CD07B681B681846FFF760
:101158005FFE0346012B04D17B681B681846FFF726
:1011680047FE00BF0837BD4680BD000080B582B08D
:1011780000AF78600B46FB70FB78022B06D17B68CA
:101188001B6801211846FFF7F1FC31E07B681B68FA
:10119800194A934213D07B681B68184A93420ED0B1
:1011A8007B681B68164A934209D07B681B68154AFE
:1011B800934204D07B681B68134A934218D1FB788A
:1011C800032B06D17B681B6804211846FFF7CEFC69
:1011D8000EE0FB78042B0BD17B681B6801211846B5
:1011E800FFF7C4FC7B681B6804211846FFF7BEFCA8
:1011F80000BF0837BD4680BD002C014000340140C7
:1012080000400140004401400048014080B582B0E0
:1012180000AF78600B46FB70FB78022B06D17B6829
:101228001B6801211846FFF7B2FC31E07B681B6898
:10123800194A934213D07B681B68184A93420ED010
:101248007B681B68164A934209D07B681B68154A5D
:10125800934204D07B681B68134A934218D1FB78E9
:10126800032B06D17B681B6804211846FFF78FFC07
:101278000EE0FB78042B0BD17B681B680121184614
:10128800FFF785FC7B681B6804211846FFF77FFC85
:1012980000BF0837BD4680BD002C01400034014026
:1012A80000400140004401400048014080B582B040
:1012B80000AF78600B46FB70FB78022B06D17B6889
:1012C8001B6810211846FFF751FC31E07B681B684A
:1012D800194A934213D07B681B68184A93420ED070
:1012E8007B681B68164A934209D07B681B68154ABD
:1012F800934204D07B681B68134A934218D1FB7849
:10130800032B06D17B681B6840211846FFF72EFC8B
:101318000EE0FB78042B0BD17B681B681021184664
:10132800FFF724FC7B681B6840211846FFF71EFC6A
:1013380000BF0837BD4680BD002C01400034014085
:1013480000400140004401400048014080B582B09F
:1013580000AF78600B46FB70FB78022B06D17B68E8
:101368001B6810211846FFF712FC31E07B681B68E8
:10137800194A934213D07B681B68184A93420ED0CF
:101388007B681B68164A934209D07B681B68154A1C
:10139800934204D07B681B68134A934218D1FB78A8
:1013A800032B06D17B681B6840211846FFF7EFFB2B
:1013B8000EE0FB78042B0BD17B681B6810211846C4
:1013C800FFF7E5FB7B681B6840211846FFF7DFFB4A
:1013D80000BF0837BD4680BD002C014000340140E5
:1013E80000400140004401400048014080B582B0FF
:1013F80000AF78600B46FB70FB78022B07D17B6847
:101408001B684FF480711846FFF7B0FB34E07B6827
:101418001B681B4A934213D07B681B68194A934286
:101428000ED07B681B68184A934209D07B681B68FA
:10143800164A934204D07B681B68154A93421BD115
:10144800FB78032B07D17B681B684FF48061184633
:10145800FFF78CFB10E0FB78042B0DD17B681B6831
:101468004FF480711846FFF781FB7B681B684FF4C7
:1014780080611846FFF77AFB00BF0837BD4680BD7C
:10148800002C01400034014000400140004401406C
:101498000048014080B582B000AF78600B46FB7011
:1014A800FB78022B07D17B681B684FF480711846C4
:1014B800FFF76DFB34E07B681B681B4A934213D02F
:1014C8007B681B68194A93420ED07B681B68184AD0
:1014D800934209D07B681B68164A934204D07B6804
:1014E8001B68154A93421BD1FB78032B07D17B68F5
:1014F8001B684FF480611846FFF749FB10E0FB7842
:10150800042B0DD17B681B684FF480711846FFF7D8
:101518003EFB7B681B684FF480611846FFF737FB7A
:1015280000BF0837BD4680BD002C01400034014093
:1015380000400140004401400048014080B582B0AD
:1015480000AF78600B46FB70FB78022B06D17B68F6
:101558001B684FF480511846FFF708FB00BF083797
:10156800BD4680BD80B582B000AF78600B46FB7089
:10157800FB78022B06D17B681B684FF48051184614
:10158800FFF705FB00BF0837BD4680BD80B584B0B6
:1015980000AF78600023FB607B681B68304A934289
:1015A80001D1304BFB607B681A68FB681A60FB68E6
:1015B8001B681846FFF7B6FAB860BB68002B06D060
:1015C800BB68102B03D0FB6801221A7102E0FB688C
:1015D80000221A71FB681B68234A934213D0FB68E8
:1015E8001B68224A93420ED0FB681B68204A93422C
:1015F80009D0FB681B681F4A934204D0FB681B682C
:101608001D4A934204D1FB681B681846FFF7D1FABC
:10161800FB681B68144A934213D0FB681B68134A83
:1016280093420ED0FB681B68114A934209D0FB68AD
:101638001B68104A934204D0FB681B680E4A934209
:1016480008D17B681B681846FFF784FA0346DAB2AC
:10165800FB685A71FB6818461037BD4680BD00BF4D
:1016680000040040CC020020002C0140003401405E
:1016780000400140004401400048014080B485B06A
:1016880000AF786039603B68FB603B68B3F5803F2A
:101698000CD37B681B68B3F1804F07D07B681B684D
:1016A800064A934202D04FF6FF73FB60FB68184668
:1016B8001437BD465DF8047B704700BF000C00403E
:1016C80080B485B000AF786039603B68002B03D1E7
:1016D8007B684033FB6001E0044BFB60FB68184605
:1016E8001437BD465DF8047B704700BF0C030450F7
:1016F80080B483B000AF78607B68DB6803F4406334
:10170800002B01D1012300E0002318460C37BD4609
:101718005DF8047B704780B483B000AF78603960AF
:101728007B681B6B23F00F023B681A437B681A63C4
:1017380000BF0C37BD465DF8047B704780B483B0AA
:1017480000AF786039607B68DB6823F003023B6890
:101758001A437B68DA6000BF0C37BD465DF8047B2E
:10176800704780B483B000AF78607B68DB6C03F0AF
:10177800C003002B01D1012300E0002318460C37D9
:10178800BD465DF8047B704780B483B000AF7860D5
:101798007B689B6823F0004323F03F0343F001027A
:1017A8007B689A6000BF0C37BD465DF8047B7047C4
:1017B80080B483B000AF78607B689B6823F00043F7
:1017C80023F03F0343F002027B689A6000BF0C37A6
:1017D800BD465DF8047B704780B483B000AF786085
:1017E8007B689B6803F00103012B01D1012300E012
:1017F800002318460C37BD465DF8047B704780B45B
:1018080083B000AF786039607B689B6823F0404301
:1018180023F03F033A6802F08042134343F000424A
:101828007B689A6000BF0C37BD465DF8047B704743
:1018380080B483B000AF78607B689B6803F0004396
:10184800B3F1004F01D1012300E0002318460C3703
:10185800BD465DF8047B704780B483B000AF786004
:101868007B689B6823F0004323F03F0343F00402A6
:101878007B689A6000BF0C37BD465DF8047B7047F3
:1018880080B483B000AF78607B689B6823F0004326
:1018980023F03F0343F008027B689A6000BF0C37CF
:1018A800BD465DF8047B704780B483B000AF7860B4
:1018B8007B681B6803F00803082B01D1012300E0B3
:1018C800002318460C37BD465DF8047B704780B48A
:1018D80083B000AF78607B681B6803F01003102B9F
:1018E80001D1012300E0002318460C37BD465DF8FE
:1018F800047B704780B483B000AF78607B681022A7
:101908001A6000BF0C37BD465DF8047B704780B491
:1019180083B000AF78607B685B6843F008027B683F
:101928005A6000BF0C37BD465DF8047B704780B431
:1019380083B000AF78607B685B6843F040027B68E7
:101948005A6000BF0C37BD465DF8047B704780B411
:1019580083B000AF78607B685B6823F008027B681F
:101968005A6000BF0C37BD465DF8047B704780B4F1
:1019780083B000AF78607B685B6823F010027B68F7
:101988005A6000BF0C37BD465DF8047B704780B4D1
:1019980083B000AF78607B685B6823F040027B68A7
:1019A8005A6000BF0C37BD465DF8047B704780B4B1
:1019B80083B000AF78607B685B6823F080027B6847
:1019C8005A6000BF0C37BD465DF8047B704780B491
:1019D80083B000AF78607B685B6803F01003102B5E
:1019E80001D1012300E0002318460C37BD465DF8FD
:1019F800047B704780B483B000AF78607B685B6815
:101A080003F08003802B01D1012300E00023184656
:101A18000C37BD465DF8047B7047000080B485B084
:101A280000AF786039607B68FB600C4A3B68134400
:101A38001B781A46FB6813441B6808493A680A442D
:101A480012781146FA680A4443F00103136000BF94
:101A58001437BD465DF8047B704700BF7401010868
:101A680080B485B000AF786039607B68FB600C4A51
:101A78003B6813441B781A46FB6813441B680849E3
:101A88003A680A4412781146FA680A4423F00103B6
:101A9800136000BF1437BD465DF8047B704700BF74
:101AA8007401010880B485B000AF786039607B6844
:101AB800FB60084A3B6813441B781A46FB681344CA
:101AC8001B6803F0200318461437BD465DF8047BF5
:101AD800704700BF7401010880B487B000AFF86098
:101AE800B9607A60FB687B610D4ABB6813441B7858
:101AF8001A467B6913445B681B0C1B040849BA68C7
:101B08000A44127811467A690A4411467A681343DE
:101B18004B6000BF1C37BD465DF8047B704700BFB3
:101B28007401010880B487B000AFF860B9607A60CA
:101B38003B60FB687B613B6A102B14D1174ABB687A
:101B480013441B781A467B6913441A467B68D36092
:101B5800124ABB6813441B781A467B6913441A4619
:101B68003B68936013E00D4ABB6813441B781A4620
:101B78007B6913441A467B689360084ABB68134420
:101B88001B781A467B6913441A463B68D36000BF2A
:101B98001C37BD465DF8047B704700BF740101081F
:101BA80080B487B000AFF860B9607A60FB687B6189
:101BB800074ABB6813441B781A467B6913441A46C4
:101BC8007B68936000BF1C37BD465DF8047B704797
:101BD8007401010880B483B000AF78607B681B682B
:101BE80003F02003202B01D1012300E00023184635
:101BF8000C37BD465DF8047B704780B483B000AFF6
:101C080078607B6820225A6000BF0C37BD465DF8BB
:101C1800047B704780B485B000AF786039607B681A
:101C2800FB600C4A3B6813441B781A46FB68134454
:101C38001B6808493A680A4412781146FA680A4447
:101C480043F00203136000BF1437BD465DF8047B00
:101C5800704700BF7401010880B485B000AF786098
:101C680039607B68FB600C4A3B6813441B781A4652
:101C7800FB6813441B6808493A680A4412781146FD
:101C8800FA680A4443F00803136000BF1437BD46DE
:101C98005DF8047B704700BF7401010880B485B00B
:101CA80000AF786039607B68FB600C4A3B6813447E
:101CB8001B781A46FB6813441B6808493A680A44AB
:101CC80012781146FA680A4423F00203136000BF31
:101CD8001437BD465DF8047B704700BF74010108E6
:101CE80080B485B000AF786039607B68FB600C4ACF
:101CF8003B6813441B781A46FB6813441B68084961
:101D08003A680A4412781146FA680A4423F0040330
:101D1800136000BF1437BD465DF8047B704700BFF1
:101D28007401010880B485B000AF786039607B68C1
:101D3800FB600C4A3B6813441B781A46FB68134443
:101D48001B6808493A680A4412781146FA680A4436
:101D580023F00803136000BF1437BD465DF8047B09
:101D6800704700BF7401010880B485B000AF786087
:101D780039607B68FB600A4A3B6813441B781A4643
:101D8800FB6813441B6803F00203022B01D10123F3
:101D980000E0002318461437BD465DF8047B704701
:101DA8007401010880B584B000AF78600123FB811D
:101DB8007B681B691846FFF79BFC0346002B2FD056
:101DC8007B685B7ADBB2022B11D07B685B7ADBB273
:101DD800042B0CD07B685B7ADBB2082B07D07B68BE
:101DE8001B691846FFF760FD0346012B18D1786878
:101DF80000F0F8F80346002B12D17B685B7ADBB25F
:101E0800082B03D17B6801225A7202E07B682022EA
:101E18005A727B681B691846FFF71EFD0023FB8179
:101E2800FB8918461037BD4680BD80B586B002AF25
:101E3800F860B9607A603B600021F868FFF740FC01
:101E480003461A467968B868FFF7AAFE0021F868C1
:101E5800FFF736FC02463B68002100917968B868B4
:101E6800FFF760FEBA697968B868FFF735FE7968E8
:101E7800B868FFF7CFFE7968B868FFF7EDFE7968B4
:101E8800B868FFF7CBFD00BF1037BD4680BD80B5F1
:101E980084B000AFF860B9607A607968B868FFF715
:101EA800DFFD7968B868FFF71BFF7968B868FFF746
:101EB80039FF7968B868FFF7F1FE00227968B868D9
:101EC800FFF70AFE00BF1037BD4680BD80B584B05D
:101ED80000AF786039600223FB737B68DB79012BE4
:101EE8000FD17B68DA687B681B685B00D118FB7BC5
:101EF8007A68126802FB03F31A4638680EF0F0F8A5
:101F08000AE07B68D968FB7B7A68126802FB03F3F6
:101F18001A4638680EF0E4F800BF1037BD4680BD99
:101F280080B586B000AFF860B9607A60FB685A691E
:101F3800FB689B7919461046FFF716FF0346DBB28C
:101F4800012B37D1FB685A69BB681046984703468E
:101F5800012B2FD1FB6804225A72FB685A697B68EF
:101F680010469847FB685A69FB689B7919461046E2
:101F7800FFF798FD0346002B19D1FB685A69FB68E7
:101F88009B7919461046FFF76BFDFB685869FB689B
:101F98009B791946FB681B681A46FFF79DFDFB688D
:101FA8005A69FB689B7919461046FFF737FD0123EC
:101FB800FB7501E00023FB75FB7D18461837BD460D
:101FC80080BD000080B500AF034A04490448FFF70C
:101FD800A7FF00BF80BD00BF031C0008DD1B000871
:101FE8005803002080B582B000AF78607B681B6919
:101FF8001846FFF76CFC0346DBB2012B07D17B6860
:102008001B691846FFF776FC7B6810225A727B68BA
:102018005B7ADBB2102B0CBF01230023DBB218461E
:102028000837BD4680BD80B582B000AF78600B46EA
:10203800FB70FB78012B0DD17B681B691846FFF7F5
:1020480057FB0346012B12D07B681B691846FFF724
:1020580003FC0CE07B681B691846FFF782FB03460C
:10206800012B04D07B681B691846FFF709FC00BFE9
:102078000837BD4680BD000090B589B002AFF86052
:10208800084611461A4603467B810B463B81134698
:10209800FB8000237B61FB681B693C4A934201D1AA
:1020A8003B4B7B617B69002B6BD0FB681A697B69B2
:1020B8001A617B690022DA71FB88012B61D03B89A8
:1020C800002B47D07B695B7ADBB2082B42D0FB68D8
:1020D800DA687B69DA60FB681A687B691A60FB68F2
:1020E8005A697B695A61FB689A797B699A71FB68BE
:1020F8001A797B691A717B691B69B96A1846FFF7F7
:102108000AFB7B89012B21D07B89042B16D17B69A3
:102118001B6903211846FFF711FB7B6918697B6966
:1021280059697B699B791C467B69DA687B691B68FE
:10213800009313462246FFF778FE07E07B89022BBF
:1021480004D17B691B691846FFF7E1FB7B6908220C
:102158005A7216E03B89002B13D17B699B7ADBB25C
:10216800082B0ED0FB685A797B695A717B89022B40
:1021780004D17B691B691846FFF7D9FB7B690822E4
:102188009A727B6918461C37BD4690BD0001045001
:102198005803002080B582B000AF78607B681B6967
:1021A8001846FFF719FB0346002B04D17B681B690F
:1021B8001846FFF7E9FA00BF0837BD4680BD80B56D
:1021C80086B000AFF8600B467A607B810123FB8202
:1021D800FB681B69002B46D07B89012B05D1F86869
:1021E800FFF7E0FD0346FB823DE07B89042B1FD10E
:1021F800FB681B691846FFF77BFA0346002B32D0B1
:10220800FB6801225A72FB681B691846FFF724FB1A
:1022180000BFFB685B7ADBB2042BFAD17968F868F7
:10222800FFF754FEFB6808225A720023FB821AE06B
:102238007B89022B17D1FB685B7ADBB2202B09D094
:10224800FB685B7ADBB2042B04D0FB685B7ADBB2F9
:10225800102B08D1FB6808225A727968F868FFF7D2
:1022680035FE0023FB82FB8A18461837BD4680BD21
:1022780080B582B000AF78600B467B8013463B8008
:102288007B681B691846FFF7A7FA0346002B04D0A2
:102298007B681B691846FFF78BFA7B681B69184631
:1022A800FFF7A8FB0346002B04D07B681B69184680
:1022B800FFF77DFB7B681B691846FFF788FB034621
:1022C800002B04D07B681B691846FFF750FB3B883E
:1022D800002B35D07B88012B1AD07B88022B05D1A7
:1022E8007B681B691846FFF732FB11E07B88042BDB
:1022F8000ED17B6818697B6859697B689B791A4697
:10230800FFF7C5FD7B681B6900211846FFF716FA21
:102318007B680022DA607B6800221A607B680022F2
:102328005A617B6800229A717B6800221A717B6867
:102338001A697B681B7919461046FFF7ECF90AE021
:102348007B6800225A717B88022B04D17B681B6949
:102358001846FFF71CFB00BF0837BD4680BD0000CC
:1023680080B584B000AF78600B46FB707B681B6952
:102378001846FFF731FA0346FB7397F90F30012B24
:1023880004D17B681B691846FFF712FAFB78002B0B
:102398000FD17B681B697F211846FFF730FA00BF11
:1023A8007B681B691846FFF743FA0346012BF7D0F1
:1023B80040E0FB78012B0FD17B681B692C4918463C
:1023C800FFF71DFA00BF7B681B691846FFF730FA54
:1023D8000346012BF7D02DE07B681B697F21184647
:1023E800FFF70DFA00BF7B681B691846FFF720FA54
:1023F8000346012BF7D00023BB8107E000BFBB8950
:102408001BB29BB201339BB21BB2BB81BB891BB20F
:102418009BB2032BF2D97B681B6915491846FFF755
:10242800EEF900BF7B681B691846FFF701FA0346FF
:10243800012BF7D00023BB8107E000BFBB891BB28B
:102448009BB201339BB21BB2BB81BB891BB29BB24F
:10245800032BF2D997F90F30012B04D17B681B6944
:102468001846FFF791F900BF1037BD4680BD00BF81
:1024780000007F4080B483B000AF78607B681B6841
:1024880043F001027B681A6000BF0C37BD465DF857
:10249800047B704780B483B000AF78607B681B68AA
:1024A80023F001027B681A6000BF0C37BD465DF857
:1024B800047B704780B483B000AF786039607B6874
:1024C8001B6823F004023B681A437B681A6000BF4C
:1024D8000C37BD465DF8047B704780B483B000AF0D
:1024E80078607B681B6803F0040318460C37BD4608
:1024F8005DF8047B704780B483B000AF78603960C2
:102508007B683A681A6300BF0C37BD465DF8047BE8
:10251800704780B483B000AF786039607B683A68F0
:102528005A6300BF0C37BD465DF8047B704780B422
:1025380083B000AF786039607B683A689A6300BFFF
:102548000C37BD465DF8047B704780B483B000AF9C
:10255800786039607B683A68DA6300BF0C37BD463B
:102568005DF8047B704780B483B000AF7860396051
:102578007B683A681A6400BF0C37BD465DF8047B77
:10258800704780B483B000AF78607B685B6B184697
:102598000C37BD465DF8047B704780B483B000AF4C
:1025A80078607B689B6B18460C37BD465DF8047BEA
:1025B800704780B483B000AF78607B68DB6B1846E7
:1025C8000C37BD465DF8047B704780B483B000AF1C
:1025D80078607B681B6C18460C37BD465DF8047B39
:1025E800704780B483B000AF78607B685B6943F064
:1025F80001027B685A6100BF0C37BD465DF8047B59
:10260800704780B483B000AF78607B681B69184658
:102618000C37BD465DF8047B704780B483B000AFCB
:10262800786039607B683A689A6100BF0C37BD46AC
:102638005DF8047B704780B483B000AF7860396080
:102648007B683A689A6200BF0C37BD465DF8047B28
:10265800704780B582B000AF786039607B681B68CE
:102668001846FFF78EFF02463B68934205D07B6809
:102678001B6839681846FFF74CFF00BF0837BD468E
:1026880080BD80B582B000AF786039607B681B6818
:102698001846FFF782FF02463B68934205D07B68E5
:1026A8001B6839681846FFF742FF00BF0837BD4668
:1026B80080BD80B582B000AF786039607B681B68E8
:1026C8001846FFF776FF02463B68934205D07B68C1
:1026D8001B6839681846FFF738FF00BF0837BD4642
:1026E80080BD80B582B000AF786039607B681B68B8
:1026F8001846FFF76AFF02463B68934205D07B689D
:102708001B6839681846FFF72EFF00BF0837BD461B
:1027180080BD000080B485B000AF78607B681B681E
:102728009A68074B1340FB60FB68062B0CBF01231C
:102738000023DBB218461437BD465DF8047B7047AA
:102748000700010080B584B000AF78600B46FB70CD
:102758007B681B681846FFF7C0FEF860FB78002B03
:102768001ED07B681B68324A934213D07B681B6873
:10277800304A93420ED07B681B682F4A934209D097
:102788007B681B682D4A934204D07B681B682C4ADF
:10279800934205D17B681B6800211846FFF7ABFE02
:1027A800FB68042B11D07B681B6804211846FFF7CF
:1027B80081FE7B681B681846FFF713FF7B681B6860
:1027C800F9681846FFF776FE04E07B681B68184630
:1027D800FFF707FF7B681B681846FFF74BFEFB787F
:1027E800002B20D07B681B68114A934213D07B686A
:1027F8001B68104A93420ED07B681B680E4A9342AE
:1028080009D07B681B680D4A934204D07B681B681B
:102818000B4A934207D17B681A687B685B79194633
:102828001046FFF768FE00BF1037BD4680BD00BFE9
:10283800002C0140003401400040014000440140A8
:102848000048014080B582B000AF78607B681B68A3
:102858001846FFF71FFE00BF0837BD4680BD80B48D
:1028680085B000AF786039607B68012283F8D82092
:102878003B68D3E900237968C1E902237B68012218
:102888001A600023FB600CE07B68D3E902237868B8
:10289800F9680231C9000144C1E90023FB6801332A
:1028A800FB60FB68182BEFDD00BF00BF1437BD4687
:1028B8005DF8047B704780B586B000AF87ED040BE8
:1028C800F860B9607A60BB68D3E902017B68D3E934
:1028D8000023FEF779F80346002B05D17B68D3E97E
:1028E8000023B968C1E90223F868BB681033C8221D
:1028F80019460DF0F5FBF968D7E90423C1E932233D
:10290800FB6803F1D000BB681033C02219460DF0F4
:10291800E7FBBB6803F11000FB68C833C8221946FF
:102928000DF0DEFB00BF1837BD4680BD80B485B012
:1029380000AF786039607B68012283F860203B68CB
:10294800D3E900237968C1E902237B6801221A6070
:102958000023FB600CE07B68D3E902237868F96800
:102968000231C9000144C1E90023FB680133FB605F
:10297800FB68092BEFDD00BF00BF1437BD465DF8CB
:10298800047B704780B586B000AF87ED040BF86014
:10299800B9607A60BB68D3E902017B68D3E9002398
:1029A800FEF712F80346002B05D17B68D3E9002314
:1029B800B968C1E90223F868BB6810335022194688
:1029C8000DF08EFBF968D7E90423C1E91423FB68ED
:1029D80003F15800BB681033482219460DF080FBFC
:1029E800BB6803F11000FB685033502219460DF004
:1029F80077FB00BF1837BD4680BD000080B584B0A6
:102A080000AF87ED000B38687B6823F000414FF07A
:102A180000022C4BFDF7E2FF0346002B42D04FF09B
:102A28000002294BD7E90001FDF7ECFF0346002B14
:102A380013D04FF00002244BD7E90001FDF7A6FBA5
:102A480002460B4643EC172BB0EE470AF0EE670A36
:102A58000DF04AF987ED020B28E04FF000021B4BFE
:102A6800D7E90001FDF7D8FF0346002B06D04FF049
:102A780000024FF00003C7E9022317E04FF00002FD
:102A8800114BD7E90001FDF77FFB02460B4643ECEB
:102A9800172BB0EE470AF0EE670A0DF09DF887EDA8
:102AA800020B03E0D7E90023C7E90223D7E9022391
:102AB80043EC172BB0EE470AF0EE670A1037BD4615
:102AC80080BD00BF000030430000E03F0000E0BFD1
:102AD80080B58CB002AF78607B6800221A727B6880
:102AE80001225A607B681033BB6100237B741A4B48
:102AF800FB611A4B3B620123BB74002387F8243027
:102B0800022387F825300923FB6009233B7407F16A
:102B18000C0008230093042301220421FFF7ACFAD8
:102B280002467B68DA607B68DB6802211846FFF79B
:102B380017FC7B68DB681846FFF72CFB7B68DB68B3
:102B480001211846FFF76FFA7B6801221A7200BF4D
:102B58002837BD4680BD00BF000104500000024078
:102B680080B5A6B000AF78601A4BBB6000233B73FA
:102B780000237B7307F108031846FEF707FD02469A
:102B88007B68DA607B68DB6800211846FEF7B9F9D4
:102B98007B68DB6802211846FEF728FC7B68DB6847
:102BA80002211846FEF7CAFC7B68DB681846FFF767
:102BB800B1FD034687F8973097F89730002B05D179
:102BC8007B68DB6800211846FFF7BCFD00BF98371B
:102BD800BD4680BD0004004080B5A6B000AF786057
:102BE8001A4BBB6000233B7300237B7307F1080378
:102BF8001846FEF7CBFC02467B68DA607B68DB6828
:102C080000211846FEF77DF97B68DB68022118462B
:102C1800FEF7ACFA7B68DB6802211846FEF746FB34
:102C28007B68DB681846FFF775FD034687F8973021
:102C380097F89730002B05D17B68DB680021184690
:102C4800FFF780FD00BF9837BD4680BD00040040F7
:102C5800B0B5B0B000AF0023C7F8943010E0944A84
:102C6800D7F894301A44002313709249D7F8942067
:102C7800002321F81230D7F894300133C7F8943084
:102C8800D7F89430072BEADD8B4A002313608B4A70
:102C9800002313608A4BDB688A4A04211846FFF731
:102CA8008EFA884BDB89884A1382864B1B88864AB2
:102CB800D383844B9B89844A5382824B5B88824AA4
:102CC8009383804B5B89804A93827E4B9B887E4AA4
:102CD80053837C4B1B897C4AD3827A4BDB887A4AA4
:102CE80013830023C7F894300FE0774AD7F894305D
:102CF800083332F813307449D7F8942021F8123089
:102D0800D7F894300133C7F89430D7F89430072BAC
:102D1800EBDD6D4B1B881846FDF774FB04460D462A
:102D28006A4A6B496B4845EC104BFFF7C4FD664B8C
:102D380003F5D863D3E900236349C1E918230023C5
:102D4800C7F894301EE0D7F8943001335E4AD83380
:102D5800DB001344D3E90023C7E922235A4BD3E904
:102D68001823D7E92201FDF757FE0346002B04D0AC
:102D78005549D7E92223C1E91823D7F894300133FC
:102D8800C7F89430D7F89430172BDCDD4E4B5B88AE
:102D98001846FDF737FB04460D464F4A4F49504841
:102DA80045EC104BFFF7EEFD474B03F55063D3E9B5
:102DB80000234549C1E91A230023C7F894301FE0CE
:102DC800D7F894300133404A03F5D073DB0013443D
:102DD800D3E90023C7E922233B4BD3E91A23D7E9D8
:102DE8002201FDF719FE0346002B04D03649D7E926
:102DF8002223C1E91A23D7F894300133C7F8943055
:102E0800D7F89430082BDBDD2F4B93ED1A7B354A2E
:102E180035493648B0EE470AF0EE670AFFF74BFD32
:102E2800294B03F57D63D3E90023C7E92623002353
:102E3800C7F894301DE0D7F894300133224A03F5DF
:102E4800FD73DB001344D3E90023C7E92223D7E944
:102E58002223D7E92601FDF7DFFD0346002B03D027
:102E6800D7E92223C7E92623D7F894300133C7F8D6
:102E78009430D7F89430172BDDDD134B9B88184618
:102E8800FDF7C0FA04460D46194A1A491A4845EC96
:102E9800104BFFF710FD0C4B03F50563D3E9002336
:102EA8000949C1E91A230023C7F8943046E000BF56
:102EB800E0030020940300208C03002090030020EE
:102EC80048150020A4030020E803002090000020FB
:102ED80028190020A80A0020B0000020A81C002003
:102EE800E8100020C8000020581E0020B813002059
:102EF80098000020081A0020380C0020D7F89430D9
:102F080001338D4A03F58573DB001344D3E90023AD
:102F1800C7E92223884BD3E91A23D7E92201FDF711
:102F28007BFD0346002B04D08349D7E92223C1E95E
:102F38001A23D7F894300133C7F89430D7F894306F
:102F4800172BDBDD7C4BDB881846FDF75BFA044664
:102F58000D467A4A7A497B4845EC104BFFF7ABFCA3
:102F6800754B03F5A663D3E900237349C1E91C2314
:102F78000023C7F894301EE0D7F8943001336E4A26
:102F8800A633DB001344D3E90023C7E922236A4BA5
:102F9800D3E91C23D7E92201FDF73EFD0346002BA8
:102FA80004D06549D7E92223C1E91C23D7F8943016
:102FB8000133C7F89430D7F89430172BDCDD5E4B1B
:102FC8001B891846FDF71EFA04460D465E4A5F49FE
:102FD8005F4845EC104BFFF76EFC574BD3E9E823ED
:102FE800C7E92E230023C7F894301CE0D7F89430A3
:102FF8000133514A7433DB001344D3E90023C7E992
:103008002223D7E92223D7E92E01FDF7E7FC03465F
:10301800002B03D0D7E92223C7E92E23D7F8943011
:103028000133C7F89430D7F89430172BDEDD424BC4
:103038005B891846FDF7E6F904460D46454A4649B8
:10304800464845EC104BFFF736FC3B4BD3E984234D
:10305800C7E92C230023C7F894301CE0D7F8943034
:103068000133354A4233DB001344D3E90023C7E96F
:103078002223D7E92223D7E92C01FDF7AFFC034629
:10308800002B03D0D7E92223C7E92C23D7F89430A3
:103098000133C7F89430D7F89430172BDEDD264B70
:1030A8009B891846FDF7AEF904460D462C4A2D4972
:1030B8002D4845EC104BFFF765FC1F4B03F55A6391
:1030C800D3E90023C7E92A230023C7F894301DE079
:1030D800D7F894300133184A03F5DA73DB00134448
:1030E800D3E90023C7E92223D7E92223D7E92A0114
:1030F800FDF774FC0346002B03D0D7E92223C7E968
:103108002A23D7F894300133C7F89430D7F894308D
:10311800082BDDDD154A1649164897ED2A0BFFF7EF
:10312800CAFB054B03F56463D3E90023C7E92823E9
:103138000023C7F894303DE0E80300208800002011
:103148004818002018090020800000206817002077
:10315800880700207800002088160020F805002045
:10316800B8000020101D002088110020C000002099
:10317800781D002028120020D7F894300133B84A6F
:1031880003F5E473DB001344D3E90023C7E92223E2
:10319800D7E92223D7E92801FDF73EFC0346002B97
:1031A80003D0D7E92223C7E92823D7F8943001337D
:1031B800C7F89430D7F89430172BDDDDA84BDB899E
:1031C8001846FDF71FF904460D46A64AA649A74822
:1031D80045EC104BFFF76FFBA14BD3E92023C7E960
:1031E8002A230023C7F894301CE0D7F89430013321
:1031F8009B4A1033DB001344D3E90023C7E9222399
:10320800D7E92223D7E92A01FDF7E8FB0346002B7B
:1032180003D0D7E92223C7E92A23D7F8943001330A
:10322800C7F89430D7F89430172BDEDD8C4B93ED2C
:10323800187BB0EE470AF0EE670A0CF055FDB0EEC9
:10324800407AF0EE607A9FED841BB0EE470AF0EE0C
:10325800670A0CF08BFC87ED220B4FF000024FF051
:103268000003D7E92201FDF7B9FB0346002B10D074
:10327800D7F88830BB67D7F88C3083F00043FB67FA
:10328800D7E91E01FDF7E8FB03469BB25B429BB200
:1032980005E0D7E92201FDF7DFFB03469BB2744A3C
:1032A800138097ED260B0CF01FFDB0EE407AF0EE80
:1032B800607A9FED691BB0EE470AF0EE670A0CF0E2
:1032C80055FC87ED220B4FF000024FF00003D7E9C1
:1032D8002201FDF783FB0346002B10D0D7F8883076
:1032E8003B67D7F88C3083F000437B67D7E91C0134
:1032F800FDF7B2FB03469BB25B429BB205E0D7E900
:103308002201FDF7A9FB03469BB2594A5380544B4F
:1033180093ED1A7BB0EE470AF0EE670A0CF0E4FC76
:10332800B0EE407AF0EE607A9FED4B1BB0EE470AA4
:10333800F0EE670A0CF01AFC87ED220B4FF0000242
:103348004FF00003D7E92201FDF748FB0346002BA5
:1033580010D0D7F88830BB66D7F88C3083F000439C
:10336800FB66D7E91A01FDF777FB03469BB25B4280
:103378009BB205E0D7E92201FDF76EFB03469BB23D
:103388003B4A9380364B93ED1C7BB0EE470AF0EE38
:10339800670A0CF0A9FCB0EE407AF0EE607A9FED77
:1033A8002E1BB0EE470AF0EE670A0CF0DFFB87ED44
:1033B800220B4FF000024FF00003D7E92201FDF77E
:1033C8000DFB0346002B10D0D7F888303B66D7F8A2
:1033D8008C3083F000437B66D7E91801FDF73CFB8E
:1033E80003469BB25B429BB205E0D7E92201FDF799
:1033F80033FB03469BB21E4AD38097ED2E0B0CF08D
:1034080073FCB0EE407AF0EE607A9FED131BB0EEDD
:10341800470AF0EE670A0CF0A9FB87ED220B4FF084
:1034280000024FF00003D7E92201FDF7D7FA03465F
:10343800002B1FD0D7F88830BB65D7F88C3083F0C5
:103448000043FB65D7E91601FDF706FB03469BB26F
:103458005B429BB214E000BF000000000000F04097
:10346800E803002070000020A81500206804002050
:10347800B8030020D7E92201FDF7EEFA03469BB214
:10348800A74A138197ED2C0B0CF02EFCB0EE407A76
:10349800F0EE607A9FEDA01BB0EE470AF0EE670AE7
:1034A8000CF064FB87ED220B4FF000024FF0000395
:1034B800D7E92201FDF792FA0346002B10D0D7F87E
:1034C80088303B65D7F88C3083F000437B65D7E9BB
:1034D8001401FDF7C1FA03469BB25B429BB205E0BB
:1034E800D7E92201FDF7B8FA03469BB28C4A53810B
:1034F80097ED280B0CF0F8FBB0EE407AF0EE607A0E
:103508009FED851BB0EE470AF0EE670A0CF02EFB24
:1035180087ED220B4FF000024FF00003D7E922019C
:10352800FDF75CFA0346002B10D0D7F88830BB644F
:10353800D7F88C3083F00043FB64D7E91201FDF71C
:103548008BFA03469BB25B429BB205E0D7E92201A6
:10355800FDF782FA03469BB2714A938197ED2A0BD5
:103568000CF0C2FBB0EE407AF0EE607A9FED6A1B79
:10357800B0EE470AF0EE670A0CF0F8FA87ED220B76
:103588004FF000024FF00003D7E92201FDF726FAB9
:103598000346002B10D0D7F888303B64D7F88C301E
:1035A80083F000437B64D7E91001FDF755FA034621
:1035B8009BB25B429BB205E0D7E92201FDF74CFACA
:1035C80003469BB2564AD381564BB3F86230544AED
:1035D8001382554B03F5D863D3E90023C7E92623A3
:1035E8000023C7F894301CE0D7F8943001334E4AD2
:1035F800D833DB001344D3E90023C7E92223D7E9F2
:103608002223D7E92601FDF707FA0346002B03D04A
:10361800D7E92223C7E92623D7F894300133C7F81E
:103628009430D7F89430172BDEDD3F4B5B88184673
:10363800FCF7E8FE04460D463C4A3D493D4845EC4A
:10364800104BFFF738F9384B03F53763D3E90023FC
:10365800C7E928230023C7F894301DE0D7F8943031
:103668000133314A03F5B773DB001344D3E9002370
:10367800C7E92223D7E92223D7E92801FDF7CCF9A6
:103688000346002B03D0D7E92223C7E92823D7F81C
:1036980094300133C7F89430D7F89430172BDDDD18
:1036A800214B03F50563D3E900231F49C1E91A2318
:1036B8000023C7F894301FE0D7F8943001331A4A32
:1036C80003F58573DB001344D3E90023C7E92223FC
:1036D800154BD3E91A23D7E92201FDF77FF90346F1
:1036E800002B04D01049D7E92223C1E91A23D7F8BF
:1036F80094300133C7F89430D7F89430172BDBDDBA
:10370800094B03F5A663D3E900230749C1E91C2344
:103718000023C7F894302EE0000000000000F040BD
:10372800B803002000000020E8030020A8000020C3
:10373800C81B0020580F0020D7F894300133A24A44
:10374800A633DB001344D3E90023C7E922239E4BA9
:10375800D3E91C23D7E92201FDF740F90346002BE2
:1037680004D09949D7E92223C1E91C23D7F894301A
:103778000133C7F89430D7F89430172BDCDD924B1F
:10378800D3E9E823C7E92E230023C7F894301CE0C7
:10379800D7F8943001338C4A7433DB001344D3E9EF
:1037A8000023C7E92223D7E92223D7E92E01FDF711
:1037B80033F90346002B03D0D7E92223C7E92E2388
:1037C800D7F894300133C7F89430D7F89430172BD2
:1037D800DEDD7D4BD3E98423C7E92C230023C7F81A
:1037E80094301CE0D7F894300133774A4233DB0039
:1037F8001344D3E90023C7E92223D7E92223D7E9D1
:103808002C01FDF709F90346002B03D0D7E9222341
:10381800C7E92C23D7F894300133C7F89430D7F888
:103828009430172BDEDD684B9B891846FCF7EAFDC0
:1038380004460D46654A6649664845EC104BFFF755
:103848003AF8614B03F51E63D3E90023C7E92A233D
:103858000023C7F894301DE0D7F8943001335A4A52
:1038680003F59E73DB001344D3E90023C7E9222341
:10387800D7E92223D7E92A01FDF7CEF80346002B22
:1038880003D0D7E92223C7E92A23D7F89430013394
:10389800C7F89430D7F89430172BDDDD4A4BD3E9BD
:1038A80020234949C1E918230023C7F894301EE0B2
:1038B800D7F894300133444A1033DB001344D3E97A
:1038C8000023C7E92223404BD3E91823D7E9220173
:1038D800FDF784F80346002B04D03B49D7E922239F
:1038E800C1E91823D7F894300133C7F89430D7F8D2
:1038F8009430172BDCDD97ED260B0CF0F5F9B0EEC4
:10390800407AF0EE607A9FED2E1BB0EE470AF0EE9B
:10391800670A0CF02BF987ED220B4FF000024FF0ED
:103928000003D7E92201FDF759F80346002B10D010
:10393800D7F88830BB63D7F88C3083F00043FB633B
:10394800D7E90E01FDF788F803469BB25B429BB2AC
:1039580005E0D7E92201FDF77FF803469BB21E4A2E
:10396800138097ED280B0CF0BFF9B0EE407AF0EE1B
:10397800607A9FED131BB0EE470AF0EE670A0CF071
:10398800F5F887ED220B4FF000024FF00003D7E95E
:103998002201FDF723F80346002B1FD0D7F8883003
:1039A8003B63D7F88C3083F000437B63D7E90C0185
:1039B800FDF752F803469BB25B429BB214E000BF8E
:1039C800000000000000F040E8030020A0000020F4
:1039D800E81A0020C80D0020CC030020D7E92201F6
:1039E800FDF73AF803469BB2A94A5380A94B93EDD9
:1039F8001A7BB0EE470AF0EE670A0CF075F9B0EEE4
:103A0800407AF0EE607A9FEDA01BB0EE470AF0EE28
:103A1800670A0CF0ABF887ED220B4FF000024FF06D
:103A28000003D7E92201FCF7D9FF0346002B10D089
:103A3800D7F88830BB62D7F88C3083F00043FB623C
:103A4800D7E90A01FDF708F803469BB25B429BB22F
:103A580005E0D7E92201FCF7FFFF03469BB28C4A39
:103A680093808C4B93ED1C7BB0EE470AF0EE670A0F
:103A78000CF03AF9B0EE407AF0EE607A9FED821BD6
:103A8800B0EE470AF0EE670A0CF070F887ED220BEB
:103A98004FF000024FF00003D7E92201FCF79EFF28
:103AA8000346002B10D0D7F888303B62D7F88C300B
:103AB80083F000437B62D7E90801FCF7CDFF03469A
:103AC8009BB25B429BB205E0D7E92201FCF7C4FF39
:103AD80003469BB26E4AD38097ED2E0B0CF004F987
:103AE800B0EE407AF0EE607A9FED671BB0EE470AC1
:103AF800F0EE670A0CF03AF887ED220B4FF000025F
:103B08004FF00003D7E92201FCF768FF0346002BBA
:103B180010D0D7F88830BB61D7F88C3083F00043D9
:103B2800FB61D7E90601FCF797FF03469BB25B42AE
:103B38009BB205E0D7E92201FCF78EFF03469BB252
:103B4800534A138197ED2C0B0CF0CEF8B0EE407A67
:103B5800F0EE607A9FED4C1BB0EE470AF0EE670A74
:103B68000CF004F887ED220B4FF000024FF0000331
:103B7800D7E92201FCF732FF0346002B10D0D7F813
:103B880088303B61D7F88C3083F000437B61D7E9FC
:103B98000401FCF761FF03469BB25B429BB205E060
:103BA800D7E92201FCF758FF03469BB2384A5381F4
:103BB80097ED2A0B0CF098F8B0EE407AF0EE607AA8
:103BC8009FED311BB0EE470AF0EE670A0BF0CEFF0F
:103BD80087ED220B4FF000024FF00003D7E92201D6
:103BE800FCF7FCFE0346002B10D0D7F88830BB60EA
:103BF800D7F88C3083F00043FB60D7E90201FCF76B
:103C08002BFF03469BB25B429BB205E0D7E922013A
:103C1800FCF722FF03469BB21D4A93811D4B93ED8F
:103C2800187BB0EE470AF0EE670A0CF05DF8B0EECC
:103C3800407AF0EE607A9FED141BB0EE470AF0EE82
:103C4800670A0BF093FF87ED220B4FF000024FF04D
:103C58000003D7E92201FCF7C1FE0346002B1BD065
:103C6800D7F888303B60D7F88C3083F000437B600E
:103C7800D7E90001FCF7F0FE03469BB25B429BB21A
:103C880010E000BFAFF30080000000000000F0402B
:103C9800CC030020E8030020D7E92201FCF7DCFE72
:103CA80003469BB29C4AD3819C4BB3F864209A4B41
:103CB8001A829B48FEF7A5FCC7F890009948FEF7C2
:103CC800A0FCC7F88400D7F8843003F04003002B29
:103CD8000CBF01230023DBB287F88330924B9A890B
:103CE800914B5B8813449BB21846FCF78BFB8B4BBC
:103CF800D3E90A23FCF72AFD02460B46C7E9262327
:103D08008A4B93F85830022B07D8884B93F85830D1
:103D18000133DAB2854B83F85820844B93F8553039
:103D280003F00103DBB2002B0ED1804A92F8553024
:103D380043F0010382F855307C4A92F8543043F03E
:103D4800030382F8543052E1784B93F85430C3F3AC
:103D58000103DBB2012B03D0022B00F0BC801BE176
:103D6800D7F8903003F00403002B0FD16F4A92F874
:103D780054306FF3830382F854306C4A92F854300D
:103D8800022161F3010382F8543030E1674B93F864
:103D98005430C3F38103DBB2012B02D0022B31D0A4
:103DA8006FE057A3D3E90023D7E92601FCF72AFEE1
:103DB8000346002B0BD05D4B002283F858205B4A4A
:103DC80092F8543043F00C0382F8543082E058499A
:103DD8004DA3D3E90023C1E9102355494FF0000250
:103DE8004FF00003C1E90E23514947A3D3E900234B
:103DF800C1E90C234E494FF000024FF00003C1E91E
:103E0800122367E03EA3D3E90023D7E92601FCF794
:103E1800F9FD0346002B0BD0444B002283F85820B1
:103E2800424A92F8543043F00C0382F8543051E07F
:103E380033A3D3E90023D7E92601FCF7CFFD0346D6
:103E4800002B08D0394A92F85430012161F38303DA
:103E580082F854303EE036494FF000024FF000033C
:103E6800C1E90A2332494FF000024FF00003C1E9CB
:103E780016232F494FF000024FF00003C1E9142325
:103E880028E02A4B93F85830022B08D9274A92F891
:103E98005430022161F3830382F8543019E0244935
:103EA8001BA3D3E90023C1E90C2321494FF00002E9
:103EB8004FF00003C1E912231D494FF000024FF0F3
:103EC8000003C1E910231A4911A3D3E90023C1E96A
:103ED8000E2300BF8BE097F88330002B2AD0134ABB
:103EE80092F85430012161F3010382F854300F4AEB
:103EF80092F85430022161F3830382F8543076E05B
:103F0800000000000034A940000000005066E640B0
:103F1800000000008099D940CC0300200000002058
:103F28000004004800100048A403002048150020A1
:103F3800E8030020B7494FF000024FF00003C1E941
:103F48001023B4494FF000024FF00003C1E90E23DB
:103F5800B0494FF000024FF00003C1E90C23AD490E
:103F68004FF000024FF00003C1E91223A9494FF0B6
:103F780000024FF00003C1E90A23A6494FF00002EE
:103F88004FF00003C1E91623A2494FF000024FF099
:103F98000003C1E914232AE097F88330002B10D0DE
:103FA8009D4A92F85430012161F3010382F854309C
:103FB800994A92F85430022161F3830382F854300D
:103FC80014E094494FF000024FF00003C1E90A23BE
:103FD80090494FF000024FF00003C1E916238D49C4
:103FE8004FF000024FF00003C1E9142300BF894BD2
:103FF8008A4A1A62874BD3E90A014FF000024FF050
:104008000003FCF7E1FC0346002B04D14FF40053F6
:10401800C7F8943002E00023C7F894307D4B1B6A40
:10402800D7F8942011461846FEF7F7FA794B1A6A22
:10403800D7F89430DB4303F4005319461046FEF7D3
:10404800FAFA744B754A1A62724BD3E916014FF0AB
:1040580000024FF00003FCF7B7FC0346002B04D125
:104068004FF48043C7F8943002E00023C7F8943037
:10407800684B1B6AD7F8942011461846FEF7CDFA0C
:10408800644B1A6AD7F89430DB4303F4804319462B
:104098001046FEF7D0FA5F4B604A1A625D4BD3E9CF
:1040A80014014FF000024FF00003FCF78DFC0346AB
:1040B800002B04D14FF40043C7F8943002E00023EA
:1040C800C7F89430534B1B6AD7F89420114618460A
:1040D800FEF7A3FA4F4B1A6AD7F89430DB4303F480
:1040E800004319461046FEF7A6FA4A4B4C4A1A6294
:1040F8004C4BD3E90C014FF000024FF00003FCF7E2
:1041080063FC0346002B03D10823C7F8943002E070
:104118000023C7F894303F4B1B6AD7F89420114608
:104128001846FEF77AFA3B4B1A6AD7F89430DB4305
:1041380003F0080319461046FEF77DFA354B93ED58
:10414800127BB0EE470AF0EE670AFEF757FC87EDE0
:10415800220B4FF00002344BD7E92201FCF73EFC5A
:104168000346002B16D04FF000024FF00003D7E9AA
:104178002201FCF747FC0346002B07D0D7E92201B0
:10418800FCF76AFC0346C7F8903007E00023C7F83D
:10419800903003E04FF0FF33C7F890301E4B1B6D93
:1041A800D7F890101846FDF769FAC7F890001A4B2F
:1041B8001B6DD7F890101846FEF77BFA154B93ED58
:1041C8000C7BB0EE470AF0EE670AFEF717FC87EDA6
:1041D800220B4FF00002144BD7E92201FCF7FEFB3B
:1041E8000346002B22D04FF000024FF00003D7E91E
:1041F8002201FCF707FC0346002B07D0D7E9220170
:10420800FCF72AFC0346C7F8903013E00023C7F8F0
:1042180090300FE0E803002048150020000800480F
:1042280000040048000000200000F0414FF0FF3378
:10423800C7F89030A54B1B6DD7F890101846FDF7BE
:104248001DFAC7F89000A14B1B6DD7F890101846BF
:10425800FEF747FA9E4B93ED107BB0EE470AF0EE5F
:10426800670AFEF7CBFB87ED220B4FF00002994B54
:10427800D7E92201FCF7B2FB0346002B16D04FF01A
:1042880000024FF00003D7E92201FCF7BBFB03460D
:10429800002B07D0D7E92201FCF7DEFB0346C7F85D
:1042A800903007E00023C7F8903003E04FF0FF3369
:1042B800C7F89030854B1B6CD7F890101846FDF75F
:1042C800DDF9C7F89000814B1B6CD7F890101846A1
:1042D800FEF7BFF97E4B93ED0E7BB0EE470AF0EE8A
:1042E800670AFEF78BFB87ED220B4FF00002794B34
:1042F800D7E92201FCF772FB0346002B16D04FF0DA
:1043080000024FF00003D7E92201FCF77BFB0346CC
:10431800002B07D0D7E92201FCF79EFB0346C7F81C
:10432800903007E00023C7F8903003E04FF0FF33E8
:10433800C7F89030654B1B6CD7F890101846FDF7FE
:104348009DF9C7F89000614B1B6CD7F89010184680
:10435800FEF797F95E4B604A1A62604BD3E90E018B
:104368004FF000024FF00003FCF72EFB0346002B32
:1043780003D18023C7F8943002E00023C7F89430B3
:10438800534B1B6AD7F8942011461846FEF745F997
:104398004F4B1A6AD7F89430DB4303F08003194671
:1043A8001046FEF748F94A4B4D4A1A624B4BD3E97F
:1043B80010014FF000024FF00003FCF705FB034625
:1043C800002B04D14FF40073C7F8943002E00023A7
:1043D800C7F894303E4B1B6AD7F89420114618460C
:1043E800FEF71BF93A4B1A6AD7F89430DB4303F40B
:1043F800007319461046FEF71EF9354B384A1A6203
:10440800364BD3E910014FF000024FF00003FCF7E0
:10441800DBFA0346002B04D14FF48043C7F89430ED
:1044280002E00023C7F89430294B1B6AD7F8942080
:1044380011461846FEF7F1F8254B1A6AD7F894305A
:10444800DB4303F4804319461046FEF7F4F8204B8B
:10445800234A1A62214BD3E912014FF000024FF0B0
:104468000003FCF7B1FA0346002B04D14FF4807324
:10447800C7F8943002E00023C7F89430144B1B6A45
:10448800D7F8942011461846FEF7C7F8104B1A6A59
:10449800D7F89430DB4303F4807319461046FEF7CF
:1044A800CAF80B4B0E4A1A620C4BD3E912014FF0B3
:1044B80000024FF00003FCF787FA0346002B11D1E6
:1044C8004FF40043C7F894300FE000BF48150020B0
:1044D800E80300200000F041000C00480000002024
:1044E800001000480023C7F894307D4B1B6AD7F8AA
:1044F800942011461846FEF790F8794B1A6AD7F8B7
:104508009430DB4303F4004319461046FEF793F852
:10451800734B744A1A62724B1B6A00211846FEF7E5
:104528007CF86F4B1B6A4FF480511846FEF783F8EE
:104538006B4B6D4A1A626D4BD3E910014FF00002C4
:104548004FF00003FCF740FA0346002B04D14FF468
:104558008053C7F8943002E00023C7F89430604BCA
:104568001B6AD7F8942011461846FEF756F85C4B9C
:104578001A6AD7F89430DB4303F48053194610467F
:10458800FEF759F8564B574A1A62584BD3E91001AF
:104598004FF000024FF00003FCF716FA0346002B19
:1045A80004D14FF40053C7F8943002E00023C7F851
:1045B80094304B4B1B6AD7F8942011461846FEF7E7
:1045C8002CF8474B1A6AD7F89430DB4303F40053AE
:1045D80019461046FEF72FF8414B424A1A62404BE3
:1045E8001B6A00211846FEF718F83D4B1B6A4FF46A
:1045F80000611846FEF71FF83D4B93F85930062B1B
:1046080007D83B4B93F859300133DAB2384B83F86B
:104618005920374B93F8553003F00203DBB2002BD7
:104628000ED1334A92F8553043F0020382F85530E0
:104638002F4A92F8543043F0300382F8543046E061
:104648002B4B93F85430C3F30113DBB2012B02D088
:10465800022B39D02BE0264B93F8543023F03F033C
:10466800DBB2402B11D1224B93F85930042B2DD9B2
:104678001F4B002283F859201D4A92F8543002211A
:1046880061F3871382F8543020E0194B93F85930BE
:10469800042B1BD9164B002283F85920144A92F890
:1046A8005430012161F3871382F854300EE00C4B2B
:1046B80093F87830002B0CBF01230023DBB21A4695
:1046C800074B83F8782002E000BF00E000BF00F04D
:1046D800D3FA00F0E7FB00BFC037BD46B0BD00BF4E
:1046E800E8030020001000480004004800000020F3
:1046F8004815002080B582B000AF00237B6011E030
:104708005A4B93F86E105A4A7B6813440A461A703B
:10471800564BB3F86010574A7B6822F813107B6831
:1047280001337B607B68072BEADD504B1B6D524AD7
:1047380013604E4B5B6D514A136000237B6017E09A
:104748004A4BB3F866104E4A7B6822F81310474B61
:10475800B3F868104B4A7B6822F81310434BB3F840
:104768006A10494A7B6822F813107B6801337B6022
:104778007B68082BE4DD3D4B9B6D444A13603B4B43
:10478800DB6D434A1360394B9B6D404A5360374B8E
:10479800DB6D3F4A5360354B9B6D3C4A9360334B0E
:1047A800DB6D3B4A936000F0FBFA3A4B00225A60FB
:1047B800384B00221A703748FEF78AF936493748CD
:1047C800FEF74DF836493748FEF7B0F8364937480E
:1047D800FEF745F836493748FEF741F83649374875
:1047E800FEF73DF836493748FEF739F83649374875
:1047F800FEF735F836493748FEF798F8364937480E
:10480800FEF72DF836493748FEF729F83649374874
:10481800FEF725F836493748FEF721F81D4B0022E8
:1048280083F844201B4B002283F84C20194B0122AB
:104838009A643148FEF794F9164B012283F84C200C
:10484800144B002283F83420124B002283F83C20BA
:10485800104B01229A632948FEF7BEF90D4B01223D
:1048680083F83C2000BF0837BD4680BD000000200B
:10487800E0030020940300208C0300209003002014
:10488800A4030020B8030020CC03002074030020F8
:1048980080030020481500209000002028190020DF
:1048A800B0000020A81C0020C8000020581E0020CE
:1048B80098000020081A00208800002048180020CE
:1048C800800000206817002078000020881600204B
:1048D800B8000020101D0020C0000020781D002016
:1048E80070000020A8150020A8000020C81B002088
:1048F800A0000020E81A00208C1500207C1500205C
:1049080080B500AF344B1B78002B11D1324B0122FC
:104918001A70314B5B68012B0AD12F4B1B7A002B85
:1049280006D02D4BDB68012204211846FDF7A0FCB8
:10493800294B93F84430002B23D1274B012283F8CD
:104948004420254B9B6C012B1BD1234B93F84C30F7
:10495800002B16D0204B1B6D1846FDF773FF1E4B1E
:104968001B6D00211846FCF766FB1B4B1B6D0221D3
:104978001846FCF78FFD184B1B6D02211846FCF7F3
:10498800F1FD154B93F83430002B23D1124B012243
:1049980083F83420104B9B6B012B1BD10E4B93F8E3
:1049A8003C30002B16D00C4B1B6C1846FDF74AFF09
:1049B800094B1B6C00211846FCF73DFB064B1B6C92
:1049C80002211846FCF722FC034B1B6C02211846F7
:1049D800FCF7BCFC00BF80BD4815002080B489B03E
:1049E80000AFF860B9607A60FB68BB610023FB61C7
:1049F800BB689B087B611B4B1B68B3F5C87F2AD03B
:104A08000023FB6122E0174B1B6817497A6841F8BD
:104A18002320FB699B00BA691A44124B1B68126871
:104A2800114903F5C87341F823200E4B1B680F4A40
:104A380012680D4903F5487341F82320094B1B6898
:104A48000133084A1360FB690133FB61FA697B692A
:104A58009A42D8D300E000BF2437BD465DF8047BF6
:104A6800704700BF3C1F0020441F0020401F00204B
:104A780080B584B000AF786072B600BF00F060FC0B
:104A88000346FB6007F10C037A6804211846FFF718
:104A9800A5FF62B600BF00BF1037BD4680BD00004D
:104AA80080B500AF124B1B785A1CD1B2104A117056
:104AB800002B09D00F4B01221A600D4B1B78013BCC
:104AC800DAB20B4B1A7011E062B600BF02200BF08D
:104AD80031F8FEF7BDF802200BF037F872B600BFC8
:104AE800034B1B78013BDAB2014B1A7080BD00BF43
:104AF800083200200432002080B584B000AF78600E
:104B08003960374BFB60374BBB60374B00221A705C
:104B1800364B00221A7001DF06F026FB00F0E0FE9B
:104B280000F02EFF00F08EFF01F054FF01F072FB41
:104B380002F09EF901F0BEFF02F04AFA01F00EFD04
:104B480002F00EFD02F066FC294B1B6800221A6079
:104B580001200AF0EFFFFFF7CDFD01200AF0F5FF75
:104B680072B600BF97ED030A00F08AFC204B1B6861
:104B78001B68002B0CBF01230023DBB21A461B4B1A
:104B88001A7062B600BF62B600BF15E0184B1B680A
:104B98001B68002B14BF01230023DBB21A46124BFB
:104BA8001A70114B1B78DBB2002B05D0114B1B6818
:104BB800104A23F0010313600C4B1B78DBB2002B67
:104BC800E4D103200AF0B6FFFFF79AFE03200AF0AB
:104BD800BCFF72B600BF002318461037BD4680BD23
:104BE800CDCCCC3D0000A042093200200A32002082
:104BF8007C01010810E000E080B485B000AF0346F6
:104C0800FB80B7F90630002B02DBFB88FB8101E053
:104C1800FB88FB81B7F90E3018461437BD465DF89E
:104C2800047B704780B588B004AF03460A46FB7121
:104C38001346BB71FB799BB25B009BB2013399B2FF
:104C4800BB799AB24FF0FF3302930223019307F125
:104C58000C0300930123074806F078FE3B7B1B02F8
:104C68001AB27B7B1BB213431BB29BB21846103798
:104C7800BD4680BD3432002080B500AF3B2169209D
:104C8800FFF7D0FF03461846FFF7B6FF03461A465C
:104C980013469B0013445B0007EE903AB8EEE77AA0
:104CA800DFED3B6AC7EE267A3A4BC3ED007A3D2129
:104CB8006920FFF7B7FF03461846FFF79DFF034635
:104CC8001A4613469B0013445B0007EE903AB8EE71
:104CD800E77ADFED2F6AC7EE267A2E4BC3ED017A0D
:104CE8003F216920FFF79EFF03461846FFF784FF20
:104CF80003461A4613469B0013445B0007EE903A9E
:104D0800B8EEE77ADFED226AC7EE267A214BC3EDCB
:104D1800027A43216920FFF785FF03461846FFF70B
:104D28006BFF034607EE903AB8EEE77ADFED1A6AB2
:104D3800C7EE267A194BC3ED007A45216920FFF7A3
:104D480071FF03461846FFF757FF034607EE903AF0
:104D5800B8EEE77ADFED106AC7EE267A0F4BC3ED9F
:104D6800017A47216920FFF75DFF03461846FFF7E0
:104D780043FF034607EE903AB8EEE77ADFED066A9E
:104D8800C7EE267A054BC3ED027A00BF80BD00BF8F
:104D980000008046740300200000034380030020C5
:104DA80080B586B004AF0023FB714FF0FF33029348
:104DB80001230193FB1D009301236B22D2211D487F
:104DC80006F0B0FC4FF0FF33029301230193072351
:104DD800009301231922D221164806F0A3FC4FF0B4
:104DE800FF330293012301930023009301231C2224
:104DF800D221104806F096FC4FF0FF3302930123AE
:104E080001930023009301231B22D221094806F0B5
:104E180089FC4FF0FF33029301230193064B009363
:104E280001237522D321034806F090FD00BF0837FF
:104E3800BD4680BD343200200B32002080B582B0E0
:104E480000AF00237B600FE07B68432B08D07B68B2
:104E5800052B05D07B685BB2184607F0E5FA00E041
:104E680000BF7B6801337B607B68EF2BECD900BF08
:104E780000BF0837BD4680BD80B582B000AF0023B3
:104E88007B6007E07B685BB2184607F0BFFA7B6877
:104E980001337B607B68EF2BF4D900BF00BF083774
:104EA800BD4680BD80B500AF4021AA4806F092FB00
:104EB8000346002B14BF01230023DAB2A64B1A7055
:104EC8000421A64806F086FB0346002B14BF0123E5
:104ED8000023DAB2A04B5A704FF40051A04806F0F4
:104EE80079FB0346002B14BF01230023DAB29D4B44
:104EF8001A704FF480419A4806F06CFB0346002B69
:104F080014BF01230023DAB2964B5A704FF40041C4
:104F1800934806F05FFB0346002B14BF01230023D0
:104F2800DAB2904B9A704FF480518C4806F052FBDD
:104F38000346002B14BF01230023DAB28A4B1A70F0
:104F48004FF48071834806F045FB0346002B14BFDD
:104F580001230023DAB2844B5A704FF400717D4864
:104F680006F038FB0346002B14BF01230023DAB2F6
:104F78007D4B9A704FF48051764806F02BFB034620
:104F8800002B14BF01230023DAB2774BDA704FF4F9
:104F98000061704806F01EFB0346002B14BF012376
:104FA8000023DAB2704B1A714FF48041694806F059
:104FB80011FB0346002B14BF01230023DAB26A4B0E
:104FC8005A714FF40041634806F004FB0346002B76
:104FD80014BF01230023DAB2634B9A714FF40051D6
:104FE8005C4806F0F7FA0346002B14BF01230023A0
:104FF800DAB25D4BDA715D4B5B6B9AB25C4B1A802F
:105008005A4B9B6B9AB25A4B5A80584BDB6B9AB2ED
:10501800584B1A80554B1B6C9AB2564B5A80FFF767
:105028000DFF08E04FF400714FF0904006F0D2FAFF
:105038000346012B07D103214F4803F0C1F803466B
:10504800002BEFD10AE000BF08E04FF400714FF0E9
:10505800904006F0BFFA0346012B07D102213E48D3
:1050680003F0AEF80346002BEFD10AE000BF08E0DA
:105078004FF400714FF0904006F0ACFA0346012B54
:1050880007D10321374803F09BF80346002BEFD1E3
:105098000AE000BF08E04FF400714FF0904006F0BE
:1050A80099FA0346012B07D10C21344803F088F8FC
:1050B8000346002BEFD10AE000BF08E04FF400716F
:1050C8004FF0904006F086FA0346012B07D10C21D9
:1050D8002B4803F075F80346002BEFD10AE000BF18
:1050E80008E04FF400714FF0904006F073FA034661
:1050F800012B07D11221234803F062F80346002B45
:10510800EFD10AE000BF08E04FF400714FF0904083
:1051180006F060FA0346012B07D112211A4803F062
:105128004FF80346002BEFD10AE000BF08E04FF428
:1051380000714FF0904006F04DFA0346012B07D15D
:105148001221124803F03CF80346002BEFD128E067
:1051580000BF26E0001000480C3200200004004880
:1051680000080048103200201432002000040040DB
:10517800243200202032002020010108740300207E
:1051880080030020A4030020B8030020CC030020E3
:105198004FF400714FF0904006F01CFA0346012BC3
:1051A80007D10821514803F00BF80346002BEFD133
:1051B8000AE000BF08E04FF400714FF0904006F09D
:1051C80009FA0346012B07D10421494802F0F8FFE8
:1051D8000346002BEFD10AE000BF08E04FF400714E
:1051E8004FF0904006F0F6F90346012B07D1042151
:1051F800404802F0E5FF0346002BEFD10AE000BF6C
:1052080008E04FF400714FF0904006F0E3F90346D0
:10521800012B07D10421384802F0D2FF0346002BA6
:10522800EFD10AE000BF08E04FF400714FF0904062
:1052380006F0D0F90346012B07D108212F4802F0C8
:10524800BFFF0346002BEFD10AE000BF08E04FF490
:1052580000714FF0904006F0BDF90346012B07D1CD
:105268001021274802F0ACFF0346002BEFD10AE0DB
:1052780000BF08E04FF400714FF0904006F0AAF923
:105288000346012B07D104211E4802F099FF03466B
:10529800002BEFD10AE000BF08E04FF400714FF097
:1052A800904006F097F90346012B07D104211648D0
:1052B80002F086FF0346002BEFD10AE000BF08E0AA
:1052C8004FF400714FF0904006F084F90346012B2B
:1052D80007D104210D4802F073FF0346002BEFD1DC
:1052E80000E000BFFFF7C8FD00BF80BD14320020FA
:1052F8001C3200202032002024320020E00300204D
:1053080094030020900300208C030020240101084E
:1053180080B584B000AF786005F052FFF8607B6814
:10532800BB6000BF05F04CFF0246FB68D31ABA68A1
:105338009A42F7D800BF00BF1037BD4680BD0000B5
:1053480010B50E4C82B0636A019305F039FF0090E6
:10535800626A019B9A4207D3009B01984FF47A72C4
:1053680002FB030002B010BD05F02AFF636A4FF488
:105378007A7202FB003002B010BD00BF002C014061
:1053880080B483B000AF03463960FB7197F90730EA
:10539800002B0ADB3B68DAB20C4997F90730120197
:1053A800D2B20B4483F800230AE03B68DAB208491A
:1053B800FB7903F00F03043B1201D2B20B441A76B7
:1053C80000BF0C37BD465DF8047B704700E100E084
:1053D80000ED00E080B582B000AF78607B68013BEB
:1053E800B3F1807F01D301230FE00A4A7B68013BB8
:1053F80053600F214FF0FF30FFF7C2FF054B00222B
:105408009A60044B07221A60002318460837BD46E5
:1054180080BD00BF10E000E080B500AFBFF34F8F44
:1054280000BFBFF36F8F00BF0B4B1A680B4B1B6895
:105438009A4202D3084B00221A60074B1B685A1C79
:1054480005490A60002B05D172B600BFFFF728FB9B
:1054580062B600BF00BF80BD283200202C32002079
:1054680080B400AF054B5B68044A43F08053536037
:1054780000BFBD465DF8047B704700BF00ED00E04B
:1054880080B584B000AF87ED010A234B1B6807EE97
:10549800903AB8EE677AD7ED017A67EE277AFCEE94
:1054A800E77A17EE903AFB60FB68B3F1807F18D378
:1054B800FB6807EE903AB8EE677ADFED186AC7EE38
:1054C800267AFCEEE77A17EE903A0133144A136015
:1054D800134B1B68FA68B2FBF3F31846FFF77AFF21
:1054E80005E00F4B00221A60F868FFF773FF0D4BB9
:1054F80000221A600C4A0D4B1A600F216FF004004D
:10550800FFF73EFF0F216FF00100FFF739FF00BFE3
:105518001037BD4680BD00BF5C020020FFFF7F4BF7
:105528002C3200202832002021540008303200207C
:10553800EFF3008001B5EFF3118003B41EF0100FF4
:1055480008BFB0EE400A0A48006803B488B004A057
:1055580006904FF0807007906FF0060086467047FF
:1055680003BC8047BFF36F8F00DFFEE700BF00007A
:10557800303200201EF0100F08BFB0EE400A1EF0B7
:10558800040F0CBFEFF30880EFF30980816911F86D
:10559800020C10B101280DD00BE01EF0100F0CBF4B
:1055A8001AB008B003BC80F3118803BC80F30088EC
:1055B8000847FEE74EF61451CEF200010A6842F0A1
:1055C80001020A607047F4E700BF00BF80B400AF73
:1055D800054B1B68044A43F40023136000BFBD4613
:1055E8005DF8047B704700BF0010024080B400AF34
:1055F800054B1B68044A43F48033136000BFBD4663
:105608005DF8047B704700BF0010024080B400AF13
:10561800074B1B6803F40033B3F5003F01D10123A6
:1056280000E000231846BD465DF8047B704700BFC4
:105638000010024080B483B000AF7860064B9B68CE
:1056480023F0030204497B6813438B6000BF0C37C7
:10565800BD465DF8047B70470010024080B400AF7F
:10566800044B9B6803F00C031846BD465DF8047BA9
:10567800704700BF0010024080B483B000AF78606C
:10568800064B9B6823F0F00204497B6813438B6048
:1056980000BF0C37BD465DF8047B70470010024020
:1056A80080B483B000AF7860064B9B6823F4E06257
:1056B80004497B6813438B6000BF0C37BD465DF817
:1056C800047B70470010024080B483B000AF78605C
:1056D800064B9B6823F4605204497B6813438B6034
:1056E80000BF0C37BD465DF8047B704700100240D0
:1056F80080B400AF054B1B68044A43F08073136005
:1057080000BFBD465DF8047B704700BF0010024033
:1057180080B400AF074B1B6803F00073B3F1007F40
:1057280001D1012300E000231846BD465DF8047B43
:10573800704700BF0010024080B485B000AFF86029
:10574800B9607A603B600A4BDA680A4B1340F96823
:10575800BA6811437A68120211433A680A43044945
:105768001343CB6000BF1437BD465DF8047B704718
:10577800001002408C80FFF980B400AF054BDB6855
:10578800044A43F08073D36000BFBD465DF8047BD4
:10579800704700BF0010024080B400AF054B1B6883
:1057A800044A43F08063136000BFBD465DF8047B84
:1057B800704700BF0010024080B400AF074B1B6861
:1057C80003F00063B3F1006F01D1012300E000236F
:1057D8001846BD465DF8047B704700BF00100240C4
:1057E80080B485B000AFF860B9607A603B600E4B5A
:1057F800DB6823F07302F968BB680B430A4913435B
:10580800CB60094B1B6923F4C00323F4FE437A6879
:1058180011023A680A43044913430B6100BF143765
:10582800BD465DF8047B70470010024080B400AFAD
:10583800054B1B69044A43F48013136100BFBD463E
:105848005DF8047B704700BF0010024080B483B04D
:1058580000AF7860064B1B6823F0070204497B6899
:1058680013430B6000BF0C37BD465DF8047B7047DF
:105878000020024080B400AF044B1B6803F007030C
:105888001846BD465DF8047B704700BF0020024003
:1058980080B483B000AF7860064B1B6823F4C06205
:1058A80004497B6813430B6000BF0C37BD465DF8A5
:1058B800047B70470070004080B400AF074B5B6901
:1058C80003F48063B3F5806F01D1012300E0002366
:1058D8001846BD465DF8047B704700BF0070004065
:1058E80080B500AF0420FFF7B1FF00BFFFF7C2FF8C
:1058F8000346042BFAD14FF40070FFF7C9FF00BF2D
:10590800FFF7DAFF0346002BFAD1FFF76FFE00BF5F
:10591800FFF77CFE0346012BFAD1FFF757FE002361
:10592800142200210320FFF707FFFFF725FFFFF7E9
:10593800DFFE00BFFFF7ECFE0346012BFAD1032080
:10594800FFF778FE00BFFFF789FE03460C2BFAD15C
:105958000020FFF791FE0020FFF7A2FE0020FFF7CE
:10596800B3FE064802F03CFD0F2002F0CBFC0346D4
:10597800002B01D000F02CF800BF80BD00B4C40497
:1059880080B500AF00230C2200210320FFF728FF79
:10599800FFF74CFFFFF700FF00BFFFF70DFF0346BF
:1059A800012BFAD100BF00BF80BD000080B582B0D6
:1059B80000AF78607B681B68044A934201D105F008
:1059C800EBFB00BF0837BD4680BD00BF002C01407F
:1059D80080B400AF72B600BFFEE7000080B485B0A7
:1059E80000AF7860084BDA6C07497B681343CB64D7
:1059F800054BDA6C7B681340FB60FB6800BF14370B
:105A0800BD465DF8047B70470010024080B483B047
:105A180000AF786039607B683A689A6100BF0C37DC
:105A2800BD465DF8047B704780B483B000AF7860F2
:105A380039607B683A689A6200BF0C37BD465DF8EA
:105A4800047B704780B586B000AF3B4600221A60E1
:105A58005A609A60DA601A615A611020FFF7BEFF37
:105A68000420FFF7BBFF8020FFF7B8FF0120FFF7F6
:105A7800B5FF0220FFF7B2FF0820FFF7AFFF4FF492
:105A880000516348FFF7C2FF4FF440416048FFF7F9
:105A9800CBFF4FF47B415F48FFF7C6FF41F2080197
:105AA8005D48FFF7C1FF80215C48FFF7BDFF40F26A
:105AB800BF433B6003237B6000233B613B461946A1
:105AC800544802F0E8FD40233B6000237B6001233B
