:020000040800F2
:1000000000800120FD1601085F9E0008659E000823
:100010006B9E0008719E0008779E0008000000009B
:10002000000000000000000000000000A5710008B2
:100030007D9E0008000000006171000891700008BA
:100040004D1701084D1701084D1701084D170108FC
:100050004D1701084D1701084D1701084D170108EC
:100060004D1701084D1701084D1701088B9E000818
:10007000792000084D1701084D1701084D17010898
:10008000999E0008A79E0008B59E00084D1701081C
:100090004D1701084D1701084D1701084D170108AC
:1000A0004D170108C59E00084D1701084D1701089E
:1000B0004D1701084D1701084D1701084D1701088C
:1000C0004D1701084D1701084D1701084D1701087C
:1000D0004D1701084D1701084D1701084D1701086C
:1000E0004D1701084D1701084D1701084D1701085C
:1000F0004D1701084D1701084D1701084D1701084C
:100100004D1701084D1701084D1701084D1701083B
:100110004D1701084D1701084D1701084D1701082B
:100120004D1701084D1701084D1701084D1701081B
:100130004D1701084D1701084D1701084D1701080B
:100140004D1701084D1701084D170108D99E0008E9
:100150004D1701084D1701084D1701084D170108EB
:100160004D1701084D1701084D1701084D170108DB
:100170004D1701084D1701084D1701080000000038
:080180004D1701084D1701089D
:1001880081F0004102E000BF83F0004330B54FEA40
:1001980041044FEA430594EA050F08BF90EA020FAD
:1001A8001FBF54EA000C55EA020C7FEA645C7FEA40
:1001B800655C00F0E2804FEA5454D4EB5555B8BF63
:1001C8006D420CDD2C4480EA020281EA030382EAD4
:1001D800000083EA010180EA020281EA0303362D66
:1001E80088BF30BD11F0004F4FEA01314FF4801C39
:1001F8004CEA113102D0404261EB410113F0004F4B
:100208004FEA03334CEA133302D0524263EB430301
:1002180094EA050F00F0A780A4F10104D5F1200E9F
:100228000DDB02FA0EFC22FA05F2801841F10001FA
:1002380003FA0EF2801843FA05F359410EE0A5F1CE
:1002480020050EF1200E012A03FA0EFC28BF4CF0FF
:10025800020C43FA05F3C01851EBE37101F00045B5
:1002680007D54FF0000EDCF1000C7EEB00006EEBC2
:100278000101B1F5801F1BD3B1F5001F0CD349084C
:100288005FEA30004FEA3C0C04F101044FEA4452A3
:1002980012F5800F80F09A80BCF1004F08BF5FEA2A
:1002A800500C50F1000041EB045141EA050130BD0A
:1002B8005FEA4C0C404141EB0101013C28BFB1F51C
:1002C800801FE9D291F0000F04BF01460020B1FA67
:1002D80081F308BF2033A3F10B03B3F120020CDA3A
:1002E8000C3208DD02F1140CC2F10C0201FA0CF018
:1002F80021FA02F10CE002F11402D8BFC2F1200C7D
:1003080001FA02F120FA0CFCDCBF41EA0C01904032
:10031800E41AA2BF01EB0451294330BD6FEA04047B
:100328001F3C1CDA0C340EDC04F11404C4F1200266
:1003380020FA04F001FA02F340EA030021FA04F378
:1003480045EA030130BDC4F10C04C4F1200220FACF
:1003580002F001FA04F340EA0300294630BD21FA0D
:1003680004F0294630BD94F0000F83F4801306BFD3
:1003780081F480110134013D4EE77FEA645C18BFC7
:100388007FEA655C29D094EA050F08BF90EA020F5E
:1003980005D054EA000C04BF1946104630BD91EA56
:1003A800030F1EBF0021002030BD5FEA545C05D159
:1003B8004000494128BF41F0004130BD14F5800498
:1003C8003CBF01F5801130BD01F0004545F0FE410C
:1003D80041F470014FF0000030BD7FEA645C1ABF41
:1003E800194610467FEA655C1CBF0B46024650EA78
:1003F800013406BF52EA033591EA030F41F40021A4
:1004080030BD00BF90F0000F04BF0021704730B529
:100418004FF4806404F132044FF000054FF00001FE
:1004280050E700BF90F0000F04BF0021704730B5BF
:100438004FF4806404F1320410F0004548BF404294
:100448004FF000013EE700BF42004FEAE2014FEAE9
:1004580031014FEA02701FBF12F07F4393F07F4FC4
:1004680081F06051704732F07F4208BF704793F0C7
:100478007F4F04BF41F40021704730B54FF46074DA
:1004880001F0004521F000411CE700BF50EA0102DD
:1004980008BF704730B54FF000050AE050EA010286
:1004A80008BF704730B511F0004502D5404261EBF6
:1004B80041014FF4806404F132045FEA915C3FF437
:1004C800D8AE4FF003025FEADC0C18BF03325FEAD4
:1004D800DC0C18BF033202EBDC02C2F1200300FA85
:1004E80003FC20FA02F001FA03FE40EA0E0021FAAA
:1004F80002F11444BDE600BF70B54FF0FF0C4CF498
:10050800E06C1CEA11541DBF1CEA135594EA0C0F49
:1005180095EA0C0F00F0DEF82C4481EA030621EA84
:100528004C5123EA4C5350EA013518BF52EA0335BF
:1005380041F4801143F4801338D0A0FB02CE4FF071
:100548000005E1FB02E506F00042E0FB03E54FF0A1
:100558000006E1FB03569CF0000F18BF4EF0010E99
:10056800A4F1FF04B6F5007F64F5407404D25FEA95
:100578004E0E6D4146EB060642EAC62141EA555148
:100588004FEAC52040EA5E504FEACE2EB4F1FD0C8A
:1005980088BFBCF5E06F1ED8BEF1004F08BF5FEA08
:1005A800500E50F1000041EB045170BD06F00046BA
:1005B80046EA010140EA020081EA0301B4EB5C0467
:1005C800C2BFD4EB0C0541EA045170BD41F480115F
:1005D8004FF0000E013C00F3AB8014F1360FDEBF84
:1005E800002001F0004170BDC4F10004203C35DA60
:1005F8000C341BDC04F11404C4F1200500FA05F3E3
:1006080020FA04F001FA05F240EA020001F0004283
:1006180021F0004110EBD37021FA04F642EB0601F9
:100628005EEA430E08BF20EAD37070BDC4F10C0423
:10063800C4F1200500FA04F320FA05F001FA04F2E7
:1006480040EA020001F0004110EBD37041F10001D3
:100658005EEA430E08BF20EAD37070BDC4F12005DE
:1006680000FA05F24EEA020E20FA04F301FA05F246
:1006780043EA020321FA04F001F0004121FA04F2EE
:1006880020EA020000EBD3705EEA430E08BF20EABE
:10069800D37070BD94F0000F0FD101F000464000F8
:1006A80041EB010111F4801F08BF013CF7D041EA7A
:1006B800060195F0000F18BF704703F0004652007E
:1006C80043EB030313F4801F08BF013DF7D043EA4F
:1006D8000603704794EA0C0F0CEA135518BF95EA05
:1006E8000C0F0CD050EA410618BF52EA4306D1D18C
:1006F80081EA030101F000414FF0000070BD50EAAB
:10070800410606BF1046194652EA430619D094EA34
:100718000C0F02D150EA013613D195EA0C0F05D11E
:1007280052EA03361CBF104619460AD181EA030172
:1007380001F0004141F0FE4141F470014FF000002A
:1007480070BD41F0FE4141F4780170BD70B54FF0C5
:10075800FF0C4CF4E06C1CEA11541DBF1CEA135545
:1007680094EA0C0F95EA0C0F00F0A7F8A4EB050427
:1007780081EA030E52EA03354FEA013100F088801E
:100788004FEA03334FF0805545EA131343EA1263E7
:100798004FEA022245EA111545EA10654FEA00269C
:1007A8000EF000419D4208BF964244F1FD0404F555
:1007B800407402D25B084FEA3202B61A65EB0305B1
:1007C8005B084FEA32024FF480104FF4002CB6EB6E
:1007D800020E75EB030E22BFB61A754640EA0C00EE
:1007E8005B084FEA3202B6EB020E75EB030E22BF2E
:1007F800B61A754640EA5C005B084FEA3202B6EB6F
:10080800020E75EB030E22BFB61A754640EA9C002D
:100818005B084FEA3202B6EB020E75EB030E22BFFD
:10082800B61A754640EADC0055EA060E18D04FEABB
:10083800051545EA16754FEA06164FEAC30343EA5B
:1008480052734FEAC2025FEA1C1CC0D111F4801F28
:100858000BD141EA00014FF000004FF0004CB6E721
:1008680011F4801F04BF01430020B4F1FD0C88BFC0
:10087800BCF5E06F3FF6AFAEB5EB030C04BFB6EBCB
:10088800020C5FEA500C50F1000041EB045170BDBE
:100898000EF0004E4EEA113114EB5C04C2BFD4EBEB
:1008A8000C0541EA045170BD41F480114FF0000E6F
:1008B800013C90E645EA060E8DE60CEA135594EAEB
:1008C8000C0F08BF95EA0C0F3FF43BAF94EA0C0FEE
:1008D8000AD150EA01347FF434AF95EA0C0F7FF463
:1008E80025AF104619462CE795EA0C0F06D152EAB7
:1008F80003353FF4FDAE1046194622E750EA41069B
:1009080018BF52EA43067FF4C5AE50EA41047FF4AB
:100918000DAF52EA43057FF4EBAE12E74FF0FF3C10
:1009280006E000BF4FF0010C02E000BF4FF0010CE1
:100938004DF804CD4FEA410C7FEA6C5C4FEA430C5A
:1009480018BF7FEA6C5C1BD001B050EA410C0CBFA9
:1009580052EA430C91EA030F02BF90EA020F00200B
:10096800704710F1000F91EA030F58BF994208BF72
:1009780090422CBFD8176FEAE37040F0010070472F
:100988004FEA410C7FEA6C5C02D150EA013C07D186
:100998004FEA430C7FEA6C5CD6D152EA033CD3D0D1
:1009A8005DF8040B704700BF8446104662468C46CB
:1009B8001946634600E000BF01B5FFF7B7FF0028FE
:1009C80048BF10F1000F01BD4DF808EDFFF7F4FF27
:1009D8000CBF012000205DF808FB00BF4DF808EDB2
:1009E800FFF7EAFF34BF012000205DF808FB00BFD5
:1009F8004DF808EDFFF7E0FF94BF012000205DF8F7
:100A080008FB00BF4DF808EDFFF7CEFF94BF0120AB
:100A180000205DF808FB00BF4DF808EDFFF7C4FFA4
:100A280034BF012000205DF808FB00BF4FEA410CED
:100A38007FEA6C5C02D150EA013C0AD14FEA430CD0
:100A48007FEA6C5C02D152EA033C02D14FF000000D
:100A580070474FF0010070474FEA410212F500124B
:100A680015D211D56FF47873B3EB625212D94FEAED
:100A7800C12343F0004343EA505311F0004F23FAD7
:100A880002F018BF404270474FF00000704750EA2C
:100A9800013005D111F0004008BF6FF000407047E9
:100AA8004FF00000704700BF4A0011D212F5001243
:100AB80011D20DD56FF47873B3EB62520ED44FEAAE
:100AC800C12343F0004343EA505323FA02F070472E
:100AD8004FF00000704750EA013002D14FF0FF306C
:100AE80070474FF0000070474FEA4102B2F1E0430F
:100AF80024BFB3F5001CDCF1FE5C0DD901F0004CFD
:100B08004FEAC0024CEA5070B2F1004F40EB83004C
:100B180008BF20F00100704711F0804F21D113F178
:100B28003872BCBF01F00040704741F480114FEAB1
:100B38005252C2F11802C2F1200C10FA0CF320FA3A
:100B480002F018BF40F001004FEAC1234FEAD32357
:100B580003FA0CFC40EA0C0023FA02F34FEA4303C1
:100B6800CCE77FEA625307D150EA01331EBF4FF04A
:100B7800FE4040F44000704701F0004040F0FE4065
:100B880040F40000704700BF0348044B834202D082
:100B9800034B03B118477047A8020020A8020020A1
:100BA800000000000548064B1B1AD90F01EBA301F2
:100BB800491002D0034B03B118477047A802002020
:100BC800A80200200000000010B5064C237843B9A5
:100BD800FFF7DAFF044B13B10448AFF30080012399
:100BE800237010BDA8020020000000002C1D010881
:100BF80008B5054B1BB105490548AFF30080BDE8B2
:100C08000840FFF7CFBF00BF00000000AC02002083
:100C18002C1D010880B485B000AF78607B681B6824
:100C280003F06003FB60FB68002B04D17B681B6842
:100C380003F01003FB60FB6818461437BD465DF8E7
:100C4800047B704780B483B000AF78607B681B6B0F
:100C580018460C37BD465DF8047B704780B483B0F6
:100C680000AF786039607B681A6A3B681A437B6812
:100C78001A6200BF0C37BD465DF8047B704780B42C
:100C880083B000AF786039607B681A6A3B68DB43E1
:100C98001A407B681A6200BF0C37BD465DF8047BBA
:100CA800704780B483B000AF78607B685B6C43F4B6
:100CB80000427B685A6400BF0C37BD465DF8047B70
:100CC800704780B483B000AF78607B68DB6843F01E
:100CD80001027B68DA6000BF0C37BD465DF8047B13
:100CE800704780B483B000AF78607B68DB6823F01E
:100CF80001027B68DA6000BF0C37BD465DF8047BF3
:100D0800704780B483B000AF78607B68DB6803F01D
:100D18000103012B01D1012300E0002318460C3701
:100D2800BD465DF8047B704780B483B000AF78603F
:100D38007B68DB6843F002027B68DA6000BF0C372F
:100D4800BD465DF8047B704780B483B000AF78601F
:100D58007B68DB6823F002027B68DA6000BF0C372F
:100D6800BD465DF8047B704780B483B000AF7860FF
:100D78007B68DB6803F00203022B01D1012300E04A
:100D8800002318460C37BD465DF8047B704780B4D5
:100D980083B000AF78607B68DB6843F004027B684F
:100DA800DA6000BF0C37BD465DF8047B704780B43D
:100DB80083B000AF78607B68DB6823F004027B684F
:100DC800DA6000BF0C37BD465DF8047B704780B41D
:100DD80083B000AF78607B68DB6803F00403042B02
:100DE80001D1012300E0002318460C37BD465DF809
:100DF800047B704780B483B000AF78607B68DB68A1
:100E080043F008027B68DA6000BF0C37BD465DF826
:100E1800047B704780B483B000AF78607B68DB6880
:100E280023F008027B68DA6000BF0C37BD465DF826
:100E3800047B704780B483B000AF78607B68DB6860
:100E480003F00803082B01D1012300E00023184612
:100E58000C37BD465DF8047B704780B483B000AFA3
:100E680078607B68DB6843F010027B68DA6000BF5B
:100E78000C37BD465DF8047B704780B483B000AF83
:100E880078607B68DB6823F010027B68DA6000BF5B
:100E98000C37BD465DF8047B704780B483B000AF63
:100EA80078607B68DB6803F01003102B01D1012305
:100EB80000E0002318460C37BD465DF8047B7047F8
:100EC80080B483B000AF78607B68DB6843F02002B1
:100ED8007B68DA6000BF0C37BD465DF8047B70475D
:100EE80080B483B000AF78607B68DB6823F02002B1
:100EF8007B68DA6000BF0C37BD465DF8047B70473D
:100F080080B483B000AF78607B68DB6803F02003AF
:100F1800202B01D1012300E0002318460C37BD46E1
:100F28005DF8047B704780B483B000AF78607B685D
:100F3800DB6843F040027B68DA6000BF0C37BD46CF
:100F48005DF8047B704780B483B000AF78607B683D
:100F5800DB6823F040027B68DA6000BF0C37BD46CF
:100F68005DF8047B704780B483B000AF78607B681D
:100F7800DB6803F04003402B01D1012300E000238C
:100F880018460C37BD465DF8047B704780B483B0C3
:100F980000AF78607B68DB6843F080027B68DA60CA
:100FA80000BF0C37BD465DF8047B704780B483B042
:100FB80000AF78607B68DB6823F080027B68DA60CA
:100FC80000BF0C37BD465DF8047B704780B483B022
:100FD80000AF78607B68DB6803F08003802B01D169
:100FE800012300E0002318460C37BD465DF8047B5A
:100FF800704780B582B000AF78600B467B807B88F5
:1010080003F00103002B0CD07B681B681846FFF720
:10101800AAFF0346012B04D07B681B681846FFF71C
:1010280082FF7B8803F00203002B0CD07B681B68CF
:101038001846FFF799FE0346012B04D07B681B680E
:101048001846FFF771FE7B8803F00403002B0CD0D1
:101058007B681B681846FFF7BAFE0346012B04D0CD
:101068007B681B681846FFF792FE7B8803F008032D
:10107800002B0CD07B681B681846FFF7DBFE034685
:10108800012B04D07B681B681846FFF7B3FE7B88EA
:1010980003F01003002B0CD07B681B681846FFF781
:1010A800FCFE0346012B04D07B681B681846FFF73B
:1010B800D4FE7B8803F02003002B0CD07B681B68D0
:1010C8001846FFF71EFE0346012B04D07B681B68F9
:1010D8001846FFF7F6FD7B8803F04003002B0CD081
:1010E8007B681B681846FFF771FF0346012B04D085
:1010F8007B681B681846FFF749FF7B8803F080036D
:10110800002B0CD07B681B681846FFF7F9FE0346D6
:10111800012B04D07B681B681846FFF7D1FE00BF7F
:101128000837BD4680BD80B582B000AF78600B46F9
:101138007B807B8803F00103002B0CD07B681B6845
:101148001846FFF710FF0346012B04D17B681B6884
:101158001846FFF7F8FE7B8803F00203002B0CD03B
:101168007B681B681846FFF7FFFD0346012B04D177
:101178007B681B681846FFF7E7FD7B8803F00403CC
:10118800002B0CD07B681B681846FFF720FE03462F
:10119800012B04D17B681B681846FFF708FE7B8883
:1011A80003F00803002B0CD07B681B681846FFF778
:1011B80041FE0346012B04D17B681B681846FFF7E4
:1011C80029FE7B8803F01003002B0CD07B681B687A
:1011D8001846FFF762FE0346012B04D17B681B68A3
:1011E8001846FFF74AFE7B8803F02003002B0CD03B
:1011F8007B681B681846FFF784FD0346012B04D063
:101208007B681B681846FFF76CFD7B8803F040037A
:10121800002B0CD07B681B681846FFF7D7FE0346E7
:10122800012B04D17B681B681846FFF7BFFE7B883B
:1012380003F08003002B0CD07B681B681846FFF76F
:101248005FFE0346012B04D17B681B681846FFF735
:1012580047FE00BF0837BD4680BD000080B582B09C
:1012680000AF78600B46FB70FB78022B06D17B68D9
:101278001B6801211846FFF7F1FC31E07B681B6809
:10128800194A934213D07B681B68184A93420ED0C0
:101298007B681B68164A934209D07B681B68154A0D
:1012A800934204D07B681B68134A934218D1FB7899
:1012B800032B06D17B681B6804211846FFF7CEFC78
:1012C8000EE0FB78042B0BD17B681B6801211846C4
:1012D800FFF7C4FC7B681B6804211846FFF7BEFCB7
:1012E80000BF0837BD4680BD002C014000340140D6
:1012F80000400140004401400048014080B582B0F0
:1013080000AF78600B46FB70FB78022B06D17B6838
:101318001B6801211846FFF7B2FC31E07B681B68A7
:10132800194A934213D07B681B68184A93420ED01F
:101338007B681B68164A934209D07B681B68154A6C
:10134800934204D07B681B68134A934218D1FB78F8
:10135800032B06D17B681B6804211846FFF78FFC16
:101368000EE0FB78042B0BD17B681B680121184623
:10137800FFF785FC7B681B6804211846FFF77FFC94
:1013880000BF0837BD4680BD002C01400034014035
:1013980000400140004401400048014080B582B04F
:1013A80000AF78600B46FB70FB78022B06D17B6898
:1013B8001B6810211846FFF751FC31E07B681B6859
:1013C800194A934213D07B681B68184A93420ED07F
:1013D8007B681B68164A934209D07B681B68154ACC
:1013E800934204D07B681B68134A934218D1FB7858
:1013F800032B06D17B681B6840211846FFF72EFC9B
:101408000EE0FB78042B0BD17B681B681021184673
:10141800FFF724FC7B681B6840211846FFF71EFC79
:1014280000BF0837BD4680BD002C01400034014094
:1014380000400140004401400048014080B582B0AE
:1014480000AF78600B46FB70FB78022B06D17B68F7
:101458001B6810211846FFF712FC31E07B681B68F7
:10146800194A934213D07B681B68184A93420ED0DE
:101478007B681B68164A934209D07B681B68154A2B
:10148800934204D07B681B68134A934218D1FB78B7
:10149800032B06D17B681B6840211846FFF7EFFB3A
:1014A8000EE0FB78042B0BD17B681B6810211846D3
:1014B800FFF7E5FB7B681B6840211846FFF7DFFB59
:1014C80000BF0837BD4680BD002C014000340140F4
:1014D80000400140004401400048014080B582B00E
:1014E80000AF78600B46FB70FB78022B07D17B6856
:1014F8001B684FF480711846FFF7B0FB34E07B6837
:101508001B681B4A934213D07B681B68194A934295
:101518000ED07B681B68184A934209D07B681B6809
:10152800164A934204D07B681B68154A93421BD124
:10153800FB78032B07D17B681B684FF48061184642
:10154800FFF78CFB10E0FB78042B0DD17B681B6840
:101558004FF480711846FFF781FB7B681B684FF4D6
:1015680080611846FFF77AFB00BF0837BD4680BD8B
:10157800002C01400034014000400140004401407B
:101588000048014080B582B000AF78600B46FB7020
:10159800FB78022B07D17B681B684FF480711846D3
:1015A800FFF76DFB34E07B681B681B4A934213D03E
:1015B8007B681B68194A93420ED07B681B68184ADF
:1015C800934209D07B681B68164A934204D07B6813
:1015D8001B68154A93421BD1FB78032B07D17B6804
:1015E8001B684FF480611846FFF749FB10E0FB7851
:1015F800042B0DD17B681B684FF480711846FFF7E8
:101608003EFB7B681B684FF480611846FFF737FB89
:1016180000BF0837BD4680BD002C014000340140A2
:1016280000400140004401400048014080B582B0BC
:1016380000AF78600B46FB70FB78022B06D17B6805
:101648001B684FF480511846FFF708FB00BF0837A6
:10165800BD4680BD80B582B000AF78600B46FB7098
:10166800FB78022B06D17B681B684FF48051184623
:10167800FFF705FB00BF0837BD4680BD80B584B0C5
:1016880000AF78600023FB607B681B68304A934298
:1016980001D1304BFB607B681A68FB681A60FB68F5
:1016A8001B681846FFF7B6FAB860BB68002B06D06F
:1016B800BB68102B03D0FB6801221A7102E0FB689B
:1016C80000221A71FB681B68234A934213D0FB68F7
:1016D8001B68224A93420ED0FB681B68204A93423B
:1016E80009D0FB681B681F4A934204D0FB681B683B
:1016F8001D4A934204D1FB681B681846FFF7D1FACC
:10170800FB681B68144A934213D0FB681B68134A92
:1017180093420ED0FB681B68114A934209D0FB68BC
:101728001B68104A934204D0FB681B680E4A934218
:1017380008D17B681B681846FFF784FA0346DAB2BB
:10174800FB685A71FB6818461037BD4680BD00BF5C
:1017580000040040C4020020002C01400034014075
:1017680000400140004401400048014080B485B079
:1017780000AF786039603B68002B03D17B68403349
:10178800FB6001E0044BFB60FB6818461437BD465C
:101798005DF8047B704700BF0C03045080B483B02D
:1017A80000AF78607B68DB6803F44063002B01D1ED
:1017B800012300E0002318460C37BD465DF8047B82
:1017C800704780B483B000AF786039607B681B6B6A
:1017D80023F00F023B681A437B681A6300BF0C377B
:1017E800BD465DF8047B704780B483B000AF786075
:1017F80039607B68DB6823F003023B681A437B6827
:10180800DA6000BF0C37BD465DF8047B704780B4D2
:1018180083B000AF78607B68DB6C03F0C003002BFB
:1018280001D1012300E0002318460C37BD465DF8BE
:10183800047B704780B483B000AF78607B689B6896
:1018480023F0004323F03F0343F001027B689A60D2
:1018580000BF0C37BD465DF8047B704780B483B089
:1018680000AF78607B689B6823F0004323F03F0358
:1018780043F002027B689A6000BF0C37BD465DF8F2
:10188800047B704780B483B000AF78607B689B6846
:1018980003F00103012B01D1012300E000231846C6
:1018A8000C37BD465DF8047B704780B483B000AF49
:1018B800786039607B689B6823F0404323F03F03DE
:1018C8003A6802F08042134343F000427B689A6012
:1018D80000BF0C37BD465DF8047B704780B483B009
:1018E80000AF78607B689B6803F00043B3F1004F5A
:1018F80001D1012300E0002318460C37BD465DF8EE
:10190800047B704780B483B000AF78607B689B68C5
:1019180023F0004323F03F0343F004027B689A60FE
:1019280000BF0C37BD465DF8047B704780B483B0B8
:1019380000AF78607B689B6823F0004323F03F0387
:1019480043F008027B689A6000BF0C37BD465DF81B
:10195800047B704780B483B000AF78607B681B68F5
:1019680003F00803082B01D1012300E000231846E7
:101978000C37BD465DF8047B704780B483B000AF78
:1019880078607B681B6803F01003102B01D10123DA
:1019980000E0002318460C37BD465DF8047B70470D
:1019A80080B483B000AF78607B6810221A6000BFF3
:1019B8000C37BD465DF8047B704780B483B000AF38
:1019C80078607B685B6843F008027B685A6000BFF8
:1019D8000C37BD465DF8047B704780B483B000AF18
:1019E80078607B685B6843F040027B685A6000BFA0
:1019F8000C37BD465DF8047B704780B483B000AFF8
:101A080078607B685B6823F008027B685A6000BFD7
:101A18000C37BD465DF8047B704780B483B000AFD7
:101A280078607B685B6823F010027B685A6000BFAF
:101A38000C37BD465DF8047B704780B483B000AFB7
:101A480078607B685B6823F040027B685A6000BF5F
:101A58000C37BD465DF8047B704780B483B000AF97
:101A680078607B685B6823F080027B685A6000BFFF
:101A78000C37BD465DF8047B704780B483B000AF77
:101A880078607B685B6803F01003102B01D1012399
:101A980000E0002318460C37BD465DF8047B70470C
:101AA80080B483B000AF78607B685B6803F0800324
:101AB800802B01D1012300E0002318460C37BD46D6
:101AC8005DF8047B7047000080B485B000AF786093
:101AD80039607B68FB600C4A3B6813441B781A46E4
:101AE800FB6813441B6808493A680A44127811468F
:101AF800FA680A4443F00103136000BF1437BD4677
:101B08005DF8047B704700BF9C1D010880B485B058
:101B180000AF786039607B68FB600C4A3B6813440F
:101B28001B781A46FB6813441B6808493A680A443C
:101B380012781146FA680A4423F00103136000BFC3
:101B48001437BD465DF8047B704700BF9C1D010833
:101B580080B485B000AF786039607B68FB60084A64
:101B68003B6813441B781A46FB6813441B6803F050
:101B7800200318461437BD465DF8047B704700BF44
:101B88009C1D010880B487B000AFF860B9607A6026
:101B9800FB687B610D4ABB6813441B781A467B6956
:101BA80013445B681B0C1B040849BA680A44127882
:101BB80011467A690A4411467A6813434B6000BF9C
:101BC8001C37BD465DF8047B704700BF9C1D0108AB
:101BD80080B487B000AFF860B9607A603B60FB689A
:101BE8007B613B6A102B14D1174ABB6813441B78DE
:101BF8001A467B6913441A467B68D360124ABB684D
:101C080013441B781A467B6913441A463B68936051
:101C180013E00D4ABB6813441B781A467B691344CA
:101C28001A467B689360084ABB6813441B781A46B7
:101C38007B6913441A463B68D36000BF1C37BD4616
:101C48005DF8047B704700BF9C1D010880B487B015
:101C580000AFF860B9607A60FB687B61074ABB68CF
:101C680013441B781A467B6913441A467B689360B1
:101C780000BF1C37BD465DF8047B70479C1D0108FA
:101C880080B483B000AF78607B681B6803F02003E2
:101C9800202B01D1012300E0002318460C37BD4654
:101CA8005DF8047B704780B483B000AF78607B68D0
:101CB80020225A6000BF0C37BD465DF8047B704790
:101CC80080B485B000AF786039607B68FB600C4AEF
:101CD8003B6813441B781A46FB6813441B68084981
:101CE8003A680A4412781146FA680A4443F0020333
:101CF800136000BF1437BD465DF8047B704700BF12
:101D08009C1D010880B485B000AF786039607B689D
:101D1800FB600C4A3B6813441B781A46FB68134463
:101D28001B6808493A680A4412781146FA680A4456
:101D380043F00803136000BF1437BD465DF8047B09
:101D4800704700BF9C1D010880B485B000AF786063
:101D580039607B68FB600C4A3B6813441B781A4661
:101D6800FB6813441B6808493A680A44127811460C
:101D7800FA680A4423F00203136000BF1437BD4613
:101D88005DF8047B704700BF9C1D010880B485B0D6
:101D980000AF786039607B68FB600C4A3B6813448D
:101DA8001B781A46FB6813441B6808493A680A44BA
:101DB80012781146FA680A4423F00403136000BF3E
:101DC8001437BD465DF8047B704700BF9C1D0108B1
:101DD80080B485B000AF786039607B68FB600C4ADE
:101DE8003B6813441B781A46FB6813441B68084970
:101DF8003A680A4412781146FA680A4423F008033C
:101E0800136000BF1437BD465DF8047B704700BF00
:101E18009C1D010880B485B000AF786039607B688C
:101E2800FB600A4A3B6813441B781A46FB68134454
:101E38001B6803F00203022B01D1012300E00023F9
:101E480018461437BD465DF8047B70479C1D010891
:101E580080B584B000AF78600123FB817B681B6983
:101E68001846FFF79BFC0346002B2FD07B685B7A54
:101E7800DBB2022B11D07B685B7ADBB2042B0CD06F
:101E88007B685B7ADBB2082B07D07B681B69184636
:101E9800FFF760FD0346012B18D1786800F0F8F8C9
:101EA8000346002B12D17B685B7ADBB2082B03D187
:101EB8007B6801225A7202E07B6820225A727B6892
:101EC8001B691846FFF71EFD0023FB81FB89184696
:101ED8001037BD4680BD80B586B002AFF860B960E6
:101EE8007A603B600021F868FFF740FC03461A4619
:101EF8007968B868FFF7AAFE0021F868FFF736FC92
:101F080002463B68002100917968B868FFF760FED7
:101F1800BA697968B868FFF735FE7968B868FFF775
:101F2800CFFE7968B868FFF7EDFE7968B868FFF703
:101F3800CBFD00BF1037BD4680BD80B584B000AF73
:101F4800F860B9607A607968B868FFF7DFFD79688A
:101F5800B868FFF71BFF7968B868FFF739FF796839
:101F6800B868FFF7F1FE00227968B868FFF70AFE43
:101F780000BF1037BD4680BD80B584B000AF786023
:101F880039600223FB737B68DB79012B0FD17B68F7
:101F9800DA687B681B685B00D118FB7B7A6812687B
:101FA80002FB03F31A4638680FF0AEFE0AE07B68BE
:101FB800D968FB7B7A68126802FB03F31A46386813
:101FC8000FF0A2FE00BF1037BD4680BD80B586B0B9
:101FD80000AFF860B9607A60FB685A69FB689B7962
:101FE80019461046FFF716FF0346DBB2012B37D11F
:101FF800FB685A69BB68104698470346012B2FD1E6
:10200800FB6804225A72FB685A697B681046984735
:10201800FB685A69FB689B7919461046FFF798FDDB
:102028000346002B19D1FB685A69FB689B7919464E
:102038001046FFF76BFDFB685869FB689B791946EA
:10204800FB681B681A46FFF79DFDFB685A69FB6829
:102058009B7919461046FFF737FD0123FB7501E010
:102068000023FB75FB7D18461837BD4680BD000070
:1020780080B500AF034A04490448FFF7A7FF00BF33
:1020880080BD00BFAF1C0008891C00085003002059
:1020980080B582B000AF78607B681B691846FFF78F
:1020A8006CFC0346DBB2012B07D17B681B69184621
:1020B800FFF776FC7B6810225A727B685B7ADBB28A
:1020C800102B0CBF01230023DBB218460837BD468E
:1020D80080BD80B582B000AF78600B46FB70FB789E
:1020E800012B0DD17B681B691846FFF757FB034688
:1020F800012B12D07B681B691846FFF703FC0CE024
:102108007B681B691846FFF782FB0346012B04D046
:102118007B681B691846FFF709FC00BF0837BD46F6
:1021280080BD000090B589B002AFF860084611463E
:102138001A4603467B810B463B811346FB800023EE
:102148007B61FB681B693C4A934201D13B4B7B6135
:102158007B69002B6BD0FB681A697B691A617B6904
:102168000022DA71FB88012B61D03B89002B47D014
:102178007B695B7ADBB2082B42D0FB68DA687B6943
:10218800DA60FB681A687B691A60FB685A697B69C0
:102198005A61FB689A797B699A71FB681A797B693D
:1021A8001A717B691B69B96A1846FFF70AFB7B89B4
:1021B800012B21D07B89042B16D17B691B69032154
:1021C8001846FFF711FB7B6918697B6959697B69B8
:1021D8009B791C467B69DA687B691B680093134608
:1021E8002246FFF778FE07E07B89022B04D17B6942
:1021F8001B691846FFF7E1FB7B6908225A7216E053
:102208003B89002B13D17B699B7ADBB2082B0ED05C
:10221800FB685A797B695A717B89022B04D17B69E7
:102228001B691846FFF7D9FB7B6908229A727B69FC
:1022380018461C37BD4690BD0001045050030020CD
:1022480080B582B000AF78607B681B691846FFF7DD
:1022580019FB0346002B04D17B681B691846FFF75E
:10226800E9FA00BF0837BD4680BD80B586B000AF2B
:10227800F8600B467A607B810123FB82FB681B694F
:10228800002B46D07B89012B05D1F868FFF7E0FDCC
:102298000346FB823DE07B89042B1FD1FB681B6949
:1022A8001846FFF77BFA0346002B32D0FB68012261
:1022B8005A72FB681B691846FFF724FB00BFFB68CE
:1022C8005B7ADBB2042BFAD17968F868FFF754FE21
:1022D800FB6808225A720023FB821AE07B89022BD2
:1022E80017D1FB685B7ADBB2202B09D0FB685B7ADD
:1022F800DBB2042B04D0FB685B7ADBB2102B08D16D
:10230800FB6808225A727968F868FFF735FE0023DF
:10231800FB82FB8A18461837BD4680BD80B582B05F
:1023280000AF78600B467B8013463B807B681B6957
:102338001846FFF7A7FA0346002B04D07B681B69F1
:102348001846FFF78BFA7B681B691846FFF7A8FB4E
:102358000346002B04D07B681B691846FFF77DFBFA
:102368007B681B691846FFF788FB0346002B04D0DF
:102378007B681B691846FFF750FB3B88002B35D05C
:102388007B88012B1AD07B88022B05D17B681B69BF
:102398001846FFF732FB11E07B88042B0ED17B68CF
:1023A80018697B6859697B689B791A46FFF7C5FDF0
:1023B8007B681B6900211846FFF716FA7B68002224
:1023C800DA607B6800221A607B6800225A617B68A9
:1023D80000229A717B6800221A717B681A697B68EF
:1023E8001B7919461046FFF7ECF90AE07B680022D2
:1023F8005A717B88022B04D17B681B691846FFF74A
:102408001CFB00BF0837BD4680BD000080B584B006
:1024180000AF78600B46FB707B681B691846FFF7B6
:1024280031FA0346FB7397F90F30012B04D17B680F
:102438001B691846FFF712FAFB78002B0FD17B684F
:102448001B697F211846FFF730FA00BF7B681B69BC
:102458001846FFF743FA0346012BF7D040E0FB7814
:10246800012B0FD17B681B692C491846FFF71DFA11
:1024780000BF7B681B691846FFF730FA0346012B3B
:10248800F7D02DE07B681B697F211846FFF70DFA0E
:1024980000BF7B681B691846FFF720FA0346012B2B
:1024A800F7D00023BB8107E000BFBB891BB29BB2FA
:1024B80001339BB21BB2BB81BB891BB29BB2032BFE
:1024C800F2D97B681B6915491846FFF7EEF900BF7A
:1024D8007B681B691846FFF701FA0346012BF7D002
:1024E8000023BB8107E000BFBB891BB29BB201334D
:1024F8009BB21BB2BB81BB891BB29BB2032BF2D927
:1025080097F90F30012B04D17B681B691846FFF738
:1025180091F900BF1037BD4680BD00BF00007F4065
:1025280080B483B000AF78607B681B6843F0010219
:102538007B681A6000BF0C37BD465DF8047B7047A6
:1025480080B483B000AF78607B681B6823F0010219
:102558007B681A6000BF0C37BD465DF8047B704786
:1025680080B483B000AF786039607B681B6823F063
:1025780004023B681A437B681A6000BF0C37BD46EB
:102588005DF8047B704780B483B000AF78607B68E7
:102598001B6803F0040318460C37BD465DF8047B3E
:1025A800704780B483B000AF78607B68DB6A1846F8
:1025B8000C37BD465DF8047B704780B483B000AF2C
:1025C800786039607B683A681A6300BF0C37BD468B
:1025D8005DF8047B704780B483B000AF78603960E1
:1025E8007B683A685A6300BF0C37BD465DF8047BC8
:1025F800704780B483B000AF786039607B683A6810
:102608009A6300BF0C37BD465DF8047B704780B401
:1026180083B000AF786039607B683A68DA6300BFDE
:102628000C37BD465DF8047B704780B483B000AFBB
:10263800786039607B683A681A6400BF0C37BD4619
:102648005DF8047B704780B483B000AF78607B6826
:102658005B6B18460C37BD465DF8047B704780B449
:1026680083B000AF78607B689B6B18460C37BD461B
:102678005DF8047B704780B483B000AF78607B68F6
:10268800DB6B18460C37BD465DF8047B704780B499
:1026980083B000AF78607B681B6C18460C37BD466A
:1026A8005DF8047B704780B483B000AF78607B68C6
:1026B8005B6943F001027B685A6100BF0C37BD4675
:1026C8005DF8047B704780B483B000AF78607B68A6
:1026D8001B6918460C37BD465DF8047B704780B40B
:1026E80083B000AF786039607B683A689A6100BF50
:1026F8000C37BD465DF8047B704780B483B000AFEB
:10270800786039607B683A689A6200BF0C37BD46CA
:102718005DF8047B7047000080B584B000AF786036
:1027280087ED000AD7ED007AF5EEC07AF1EE10FADF
:1027380003D54FF000033B600AE0D7ED007A9FED28
:10274800167AF4EEC77AF1EE10FA01DD134B3B600E
:102758007B681B681846FFF724FFF8607B681B79C5
:10276800002B0CBF01230023DBB21A46FB6813447D
:1027780007EE903AB8EE677AD7ED007A27EE277A17
:10278800DFED056AC7EE267AFCEEE77A17EE903A97
:1027980018461037BD4680BD0000C8420000C84238
:1027A80080B582B000AF786039607B681B681846D6
:1027B800FFF749FF02463B68934205D07B681B68D8
:1027C80039681846FFF707FF00BF0837BD4680BDC8
:1027D80080B582B000AF786039607B681B681846A6
:1027E800FFF73DFF02463B68934205D07B681B68B4
:1027F80039681846FFF7FDFE00BF0837BD4680BDA3
:1028080080B582B000AF786039607B681B68184675
:10281800FFF731FF02463B68934205D07B681B688F
:1028280039681846FFF7F3FE00BF0837BD4680BD7C
:1028380080B582B000AF786039607B681B68184645
:10284800FFF725FF02463B68934205D07B681B686B
:1028580039681846FFF7E9FE00BF0837BD4680BD56
:1028680080B584B000AF786087ED000A97ED000A64
:102878007868FFF751FFF860F9687868FFF790FF0C
:1028880000BF1037BD4680BD80B584B000AF78600A
:1028980087ED000A97ED000A7868FFF73DFFF860BA
:1028A800F9687868FFF794FF00BF1037BD4680BD10
:1028B80080B584B000AF786087ED000A97ED000A14
:1028C8007868FFF729FFF860F9687868FFF798FFDC
:1028D80000BF1037BD4680BD80B584B000AF7860BA
:1028E80087ED000A97ED000A7868FFF715FFF86092
:1028F800F9687868FFF79CFF00BF1037BD4680BDB8
:1029080080B485B000AF78607B681B689A68074B15
:102918001340FB60FB68062B0CBF01230023DBB2CE
:1029280018461437BD465DF8047B70470700010060
:1029380080B584B000AF78600B46FB707B681B687D
:102948001846FFF720FEF860FB78002B1ED07B6846
:102958001B68324A934213D07B681B68304A934203
:102968000ED07B681B682F4A934209D07B681B688E
:102978002D4A934204D07B681B682C4A934205D1A8
:102988007B681B6800211846FFF717FEFB68042BBD
:1029980011D07B681B6804211846FFF7E1FD7B68AE
:1029A8001B681846FFF77FFE7B681B68F9681846A6
:1029B800FFF7D6FD04E07B681B681846FFF773FE37
:1029C8007B681B681846FFF7ABFDFB78002B20D00F
:1029D8007B681B68114A934213D07B681B68104AB6
:1029E80093420ED07B681B680E4A934209D07B68DD
:1029F8001B680D4A934204D07B681B680B4A9342BC
:102A080007D17B681A687B685B7919461046FFF71F
:102A1800D4FD00BF1037BD4680BD00BF002C01406B
:102A2800003401400040014000440140004801409A
:102A380080B582B000AF78607B681B681846FFF7E6
:102A48007FFD00BF0837BD4680BD80B485B000AFAC
:102A5800786039607B68012283F8D8203B68D3E925
:102A680000237968C1E902237B6801221A600023E8
:102A7800FB600CE07B68D3E902237868F9680231CF
:102A8800C9000144C1E90023FB680133FB60FB680E
:102A9800182BEFDD00BF00BF1437BD465DF8047B7F
:102AA800704780B586B000AF87ED040BF860B96059
:102AB8007A60BB68D3E902017B68D3E90023FDF79C
:102AC80083FF0346002B05D17B68D3E90023B9684F
:102AD800C1E90223F868BB681033C82219460FF011
:102AE80013F9F968D7E90423C1E93223FB6803F134
:102AF800D000BB681033C02219460FF005F9BB6837
:102B080003F11000FB68C833C82219460FF0FCF81F
:102B180000BF1837BD4680BD80B485B000AF78606F
:102B280039607B68012283F860203B68D3E9002381
:102B38007968C1E902237B6801221A600023FB60DF
:102B48000CE07B68D3E902237868F9680231C90090
:102B58000144C1E90023FB680133FB60FB68092BD2
:102B6800EFDD00BF00BF1437BD465DF8047B70473A
:102B780080B586B000AF87ED040BF860B9607A6065
:102B8800BB68D3E902017B68D3E90023FDF71CFF8A
:102B98000346002B05D17B68D3E90023B968C1E956
:102BA8000223F868BB681033502219460FF0ACF8BE
:102BB800F968D7E90423C1E91423FB6803F1580035
:102BC800BB681033482219460FF09EF8BB6803F122
:102BD8001000FB685033502219460FF095F800BFDB
:102BE8001837BD4680BD000080B584B000AF87EDC2
:102BF800000B38687B6823F000414FF000022C4B33
:102C0800FDF7ECFE0346002B42D04FF00002294BA3
:102C1800D7E90001FDF7F6FE0346002B13D04FF06D
:102C28000002244BD7E90001FDF7B0FA02460B4633
:102C380043EC172BB0EE470AF0EE670A0EF068FE79
:102C480087ED020B28E04FF000021B4BD7E900018B
:102C5800FDF7E2FE0346002B06D04FF000024FF0CE
:102C68000003C7E9022317E04FF00002114BD7E930
:102C78000001FDF789FA02460B4643EC172BB0EE2C
:102C8800470AF0EE670A0EF0BBFD87ED020B03E082
:102C9800D7E90023C7E90223D7E9022343EC172B1E
:102CA800B0EE470AF0EE670A1037BD4680BD00BF98
:102CB800000030430000E03F0000E0BF80B500AFF7
:102CC80039494FF000024FF00003C1E9202336498B
:102CD8004FF000024FF00003C1E91C2332494FF0C6
:102CE80000024FF00003C1E922232F494FF00002F0
:102CF8004FF00003C1E91E232C4B03F5815353E920
:102D080002014FF000022A4BFDF75EFE0346002B3E
:102D18000DD1264B03F580531033D3E900014FF052
:102D28000002234BFDF750FE0346002B01D0012380
:102D380000E0002303F00103D9B21C4B03F58053D4
:102D48001A4692F8393061F3C30382F83930174BC9
:102D580003F580531A4692F839306FF3820382F8EC
:102D68003930124B03F580531A4692F839306FF315
:102D7800000382F839300D4B03F580531A4692F858
:102D880039306FF3410382F83930074B002283F85A
:102D9800B820054B002283F8BA20034B002283F8A1
:102DA800B92000BF80BD00BFE003002080150020CF
:102DB8000000084090B585B000AF7860AF4B03F5D0
:102DC800805393F83C30012B0BD9AC4B03F580535F
:102DD80093F8393003F00203DBB2002B01D1012351
:102DE80000E00023FB73FB7B002B61D0A4494FF06C
:102DF80000024FF00003C1E91A23A04B03F58053EA
:102E0800002283F83C209D4B03F580531A4692F824
:102E18003830192161F3040382F83830974B03F5F1
:102E280081531033D3E9002310461946FDF714FEE9
:102E38000346013B914ADB00D1184FF000024FF0E6
:102E48008043C1E900238D4B03F581531033D3E947
:102E580000014FF000028B4BFDF798F902460B4634
:102E680010461946854B03F581531033C3E9000119
:102E7800824B03F580531033D3E900014FF0000271
:102E8800804BFDF783F902460B46104619467B4BEB
:102E980003F580531033C3E90001784B03F58153E0
:102EA80019464FF000024FF0000341E902239EE16A
:102EB800724B03F5805393F8393003F00403DBB207
:102EC800002B08D16D4B03F5805393F83C30012B50
:102ED80001D9012300E00023FB73FB7B002B56D0B4
:102EE80067494FF000024FF00003C1E91A23634B12
:102EF80003F58053002283F83C20604B03F5805390
:102F08001A4692F838300B2161F3040382F83830FE
:102F18005A4B03F581531033D3E900231046194661
:102F2800FDF79AFD0346013B544ADB00D1184FF0E8
:102F38000002544BC1E90023504B03F58153103371
:102F4800D3E900014FF000024E4BFDF71FF902468E
:102F58000B4610461946494B03F581531033C3E914
:102F68000001464B03F5815319464FF000024FF01C
:102F7800000341E90223414B03F5805310331946FE
:102F88004FF000024FF00003C1E900232FE13B4B53
:102F980003F5805393F83C30012B0BD9374B03F5DD
:102FA800805393F8393003F00103DBB2002B01D1D1
:102FB800012300E00023FB73FB7B002B66D0304924
:102FC8004FF000024FF00003C1E91A232B4B03F521
:102FD8008053002283F83C20284B03F580531A467F
:102FE80092F838301A2161F3040382F83830234B01
:102FF80003F581531033D3E9002310461946FDF732
:103008002BFD0346013B1D4ADB00D1184FF000029F
:103018001D4BC1E90023194B03F581531033D3E944
:1030280000014FF00002174BFDF7B0F802460B46BF
:1030380010461946114B03F581531033C3E90001BB
:103048000E4B03F5815353E902014FF000020D4B7B
:10305800FDF79CF802460B46084901F5815141E904
:103068000223064B03F58053103319464FF0000234
:103078004FF00003C1E90023B9E000BF801500202C
:10308800E00300200000F03F000008405A4B03F521
:10309800805393F83C30012B15D9574B03F58053D7
:1030A80093F8393003F00103DBB2002B0BD0524BFD
:1030B80003F5805393F8393003F00203DBB2002B99
:1030C80001D0012300E00023FB73FB7B002B56D0CB
:1030D8004A494FF000024FF00003C1E91A23464B5A
:1030E80003F58053002283F83C20434B03F58053BB
:1030F8001A4692F838301C2161F3040382F83830FC
:103108003D4B03F581531033D3E90023104619468C
:10311800FDF7A2FC0346013B374ADB00D1184FF00C
:103128000002374BC1E90023334B03F581531033B9
:10313800D3E900014FF00002324BFDF727F80246B1
:103148000B46104619462C4B03F581531033C3E93F
:103158000001294B03F5815319464FF000024FF047
:10316800000341E90223244B03F580531033194629
:103178004FF000024FF00003C1E9002337E07B68FD
:103188001833D3E900011C4B03F5805353E902239C
:103198000124FDF741FC0346002B01D100231C4606
:1031A800E1B2154B03F580531A4692F8393061F3B2
:1031B800000382F839307B682033D3E900010E4BD5
:1031C80003F58053D3E900230124FDF725FC0346CA
:1031D800002B01D100231C46E1B2074B03F58053B5
:1031E8001A4692F8393061F3410382F8393000BF4A
:1031F8001437BD4690BD00BF80150020E0030020B5
:10320800000010400000F03F80B485B000AF786047
:1032180039607B681B78002B13D0304B03F5805343
:103228001A4692F838300A2161F3040382F83830DC
:103238002B4B002283F8B820294B002283F8BA20B0
:1032480046E03B681B78002B0BD0244B03F58053DA
:1032580093F8393003F00803DBB2002B01D10123C6
:1032680000E00023FB73FB7B002B11D01B4B03F505
:103278008053002283F83C20184B03F580531A46EC
:1032880092F838301B2161F3040382F838301FE0CC
:103298003B681B78002B0BD0104B03F5805393F839
:1032A800393003F00803DBB2002B01D0012300E022
:1032B8000023FB73FB7B002B0AD0084B03F58053DC
:1032C8001A4692F83830102161F3040382F8383036
:1032D80000BF1437BD465DF8047B70478015002099
:1032E800E00300200000000080B584B000AF7860E3
:1032F8007B68D3E900014FF00002474BFDF78CFBD8
:103308000346002B31D07B683833D3E900014FF0F6
:103318000002414BFDF780FB0346002B25D03F49B7
:103328004FF000024FF00003C1E920233B494FF062
:1033380000024FF00003C1E91C23394B03F5805309
:10334800002283F83C20364B03F580531A4692F846
:103358003830042161F3040382F838302F494FF0E4
:103368000002304BC1E9182348E07B681033D3E9E9
:1033780000017B682833D3E90023FCF705FF0246E8
:103388000B46104619464FF00002274BFDF7B4F8DC
:1033980002460B46104619461BA3D3E90023FDF746
:1033A800D5F902460B46C7E9022319A3D3E900233E
:1033B800D7E90201FDF7A0F802460B464FF00000DE
:1033C8001A49FCF7E1FE02460B461449C1E92023DD
:1033D8000FA3D3E90023D7E90201FDF78DF80246D0
:1033E8000B46104619464FF00002104BFCF7CEFE74
:1033F80002460B460949C1E91C2300BF00BF10372C
:10340800BD4680BDAFF300806666666666660A40A4
:103418008FC2F5285C8FD23F00000A40E0030020ED
:10342800801500200000F03F000059400000544083
:1034380080B584B000AF786039607B681B78002B5A
:103448002BD0534B03F580531A4692F83830182185
:1034580061F3040382F838304E4B002283F8B82019
:103468004C494FF000024FF00003C1E920234949BD
:103478004FF000024FF00003C1E91C2345494FF00B
:1034880000024FF00003C1E9222342494FF0000235
:103498004FF00003C1E91E236AE03B68D3E900014D
:1034A8004FF000023C4BFDF799FA0346002B17D06A
:1034B8003B683833D3E900014FF00002364BFDF783
:1034C8008DFA0346002B0BD0314B03F580531A4677
:1034D80092F83830092161F3040382F8383047E064
:1034E8003B681033D3E900013B682833D3E9002354
:1034F800FCF74AFE02460B46104619464FF00002FA
:10350800264BFCF7F9FF02460B46104619461AA34C
:10351800D3E90023FDF71AF902460B46C7E902234F
:1035280017A3D3E90023D7E90201FCF7E5FF024618
:103538000B4615A1D1E90001FCF726FE02460B4611
:103548001449C1E920230EA3D3E90023D7E90201D6
:10355800FCF7D2FF02460B46104619464FF0000210
:103568000F4BFCF713FE02460B460A49C1E91C2320
:1035780000BF1037BD4680BD6666666666660A404F
:103588008FC2F5285C8FD23F0000000000E0534056
:1035980080150020E003002000000A400000594088
:1035A8000000544080B500AF3A4B03F5805393F8C0
:1035B8003C30022B1ED9374B03F58153D3E9000168
:1035C8004FF00002344BFDF7FFF90346002B11D0F2
:1035D800304B03F58053002283F83C202D4B03F534
:1035E80080531A4692F83830132161F3040382F8A5
:1035F80038304DE0274B03F5805393F83C30022BCD
:103608001ED9244B03F58153D3E900014FF0000282
:10361800224BFDF7D9F90346002B11D01D4B03F5BA
:103628008053002283F83C201A4B03F580531A4636
:1036380092F83830142161F3040382F8383027E017
:10364800144B03F5805393F83C30022B20D9114BCF
:1036580003F58153D3E900014FF000024FF0804396
:10366800FDF7B2F90346002B00D111E0094B03F531
:103678008053002283F83C20064B03F580531A46FA
:1036880092F83830122161F3040382F83830FFE7EA
:1036980000BF80BD801500200000084000001040D9
:1036A80080B584B000AF7860534B03F58153D3E9FC
:1036B80000014FF00002514BFDF786F90346002B3D
:1036C8000BD04D4B03F580531A4692F83830102131
:1036D80061F3040382F838307EE07B68D3E90001A7
:1036E8004FF00002464BFDF797F90346002B2BD00D
:1036F8007B683833D3E900014FF00002404BFDF7F7
:103708008BF90346002B1FD03B4B03F58053002257
:1037180083F83C20384B03F580531A4692F838302A
:103728000D2161F3040382F8383036494FF0000266
:103738004FF00003C1E9202332494FF000024FF057
:103748000003C1E91C2347E07B681033D3E900017B
:103758007B682833D3E90023FCF716FD02460B46A5
:10376800104619464FF00002274BFCF7C5FE0246EB
:103778000B46104619461AA3D3E90023FCF7E6FFC7
:1037880002460B46C7E9022317A3D3E90023D7E96A
:103798000201FCF7B1FE02460B4615A1D1E9000172
:1037A800FCF7F2FC02460B461649C1E920230EA39A
:1037B800D3E90023D7E90201FCF79EFE02460B4637
:1037C800104619460AA3D3E90023FCF7DFFC02469A
:1037D8000B460C49C1E91C2300BF1037BD4680BD0C
:1037E8006666666666660A40C3F5285C8FC2C53F92
:1037F8000000000000C05440801500200000F03F89
:1038080000000A40E00300200000594000000000CA
:1038180080B584B000AF7860774B03F581531033DF
:10382800D3E900014FF00002744BFCF7ADFC0246EF
:103838000B4610461946704B03F58153103353E974
:103848000223FDF7C1F80346002B2BD06A4B03F582
:103858008053002283F83C20674B03F580531A46B7
:1038680092F83830062161F3040382F8383064494D
:103878004FF000024FF00003C1E9202360494FF0E8
:1038880000024FF00003C1E91C235D4B012283F8BD
:10389800B8205B4B002283F8BA20594B012283F8E9
:1038A800B92095E07B68D3E900014FF00002554B41
:1038B800FDF794F80346002B42D07B683833D3E9F0
:1038C80000014FF000024F4BFDF788F80346002B2C
:1038D80036D0494B03F580531A4692F838300F21F9
:1038E80061F3040382F83830434B03F581531033F6
:1038F80053E9022310461946FDF7AEF80346013B8B
:103908003D4ADB001344D3E900233B4901F58151CB
:10391800C1E90023384B03F58153103353E9020101
:103928004FF00002354BFCF731FC02460B461046BF
:103938001946314B03F58153103343E9020147E03F
:103948007B681033D3E900017B682833D3E900236F
:10395800FCF71AFC02460B46104619464FF00002C7
:10396800294BFCF7C9FD02460B46104619461AA317
:10397800D3E90023FCF7EAFE02460B46C7E9022317
:1039880017A3D3E90023D7E90201FCF7B5FD0246E6
:103998000B4615A1D1E90001FCF7F6FB02460B46E0
:1039A8001749C1E920230EA3D3E90023D7E902016F
:1039B800FCF7A2FD02460B46104619460CA3D3E9B4
:1039C8000023FCF7E3FB02460B460D49C1E91C2323
:1039D80000BF1037BD4680BD6666666666660A40EB
:1039E800C3F5285C8FC2C53F0000000000A054400A
:1039F8000000000000C05440801500200000F03F87
:103A0800E003002000000A400000594080B400AFE5
:103A18002E4B03F5805393F83C300A2B39D92B4BA6
:103A280003F58053002283F83C20284B03F580538C
:103A38001A4692F83830112161F3040382F83830BD
:103A480023494FF000024FF00003C1E92023204929
:103A58004FF000024FF00003C1E91C231C494FF04E
:103A680000024FF00003C1E9222319494FF0000278
:103A78004FF00003C1E91E23154B002283F8B8203C
:103A8800134B002283F8BA20114B002283F8B92087
:103A980017E00F4B93F8BA30002B0CBF012300231B
:103AA800DBB21A460A4B83F8BA2009494FF00002E4
:103AB800084BC1E91C2306494FF00002054BC1E938
:103AC800222300BFBD465DF8047B704780150020A7
:103AD800E00300200080564090B587B000AFF86042
:103AE800B9607A603B60BC4B03F5805393F838307B
:103AF800C3F30403DBB2013B1A2B00F2798501A260
:103B080052F823F0793B0008213C0008EF3C0008FC
:103B1800F93D0008813E0008893E00081D3F000865
:103B2800273F0008613F0008693F0008733F00080D
:103B3800AB3F00086340000869400008C140000826
:103B4800C94000080141000835410008E941000862
:103B58009D420008A342000843430008D1430008DF
:103B6800394400088B440008F34400085B4500080A
:103B7800994B03F5805393F83C30022B38D9974979
:103B88004FF000024FF00003C1E9182393494FF0AA
:103B980000024FF00003C1E91A2390494FF00002D8
:103BA8008F4BC1E916238C4B03F580531A4692F8C4
:103BB8003830072161F3040382F8383087494FF021
:103BC80000024FF00003C1E9202384494FF00002AE
:103BD8004FF00003C1E91C237F4B03F581531033D9
:103BE80019464FF000027E4B41E9022300F03FBD29
:103BF8003B68D3E900014FF000027A4BFCF77CFCEC
:103C080002460B4610461946734B03F58053103392
:103C180043E9020100F02BBD6F4B03F5805393F885
:103C28003C30022B25D96C4B03F58053002283F8D6
:103C38003C20694B03F580531A4692F8383001212D
:103C480061F3040382F8383064494FF00002644B92
:103C5800C1E9182361494FF000024FF00003C1E9A0
:103C68001A235E494FF000025D4BC1E9162300F0AC
:103C7800FEBC5A4B93F8B830002B0CBF012300232D
:103C8800DBB21A46554B83F8B820544B93F8B93039
:103C9800002B0CBF01230023DBB21A464F4B83F8DD
:103CA800B9207B681833D3E900014FF000024D4B6F
:103CB800FCF722FC02460B46474901F5805141E9D1
:103CC80002237B682033D3E900013BA3D3E9002317
:103CD800FCF712FC02460B463F4901F58051C1E949
:103CE800002300F0C4BC3C4B03F5805393F83C30F0
:103CF800072B14D9384B03F580531A4692F83830FD
:103D08000A2161F3040382F83830344B002283F827
:103D1800B820324B002283F8BA2000F0A8BC7B6898
:103D28001033D3E900017B682833D3E90023FCF77B
:103D38002BFA02460B46104619464FF000022A4B52
:103D4800FCF7DAFB02460B46104619461CA3D3E9DA
:103D58000023FCF7FBFC02460B46C7E904231AA321
:103D6800D3E90023D7E90401FCF7C6FB02460B465A
:103D780017A1D1E90001FCF707FA02460B461749DB
:103D8800C1E9202310A3D3E90023D7E90401FCF7F4
:103D9800B3FB02460B46104619464FF00002134B80
:103DA800FCF7F4F902460B460C49C1E91C2300F064
:103DB8005EBC00BFAFF30080666666666666E63F77
:103DC8006666666666660A40EC51B81E85EBC13FBA
:103DD8000000000000E0534080150020E0030020B0
:103DE8000000F03F0000E83F000059400000544048
:103DF800BD4B03F5805393F83C30022B1FD9BB49C8
:103E08004FF000024FF00003C1E91823B64B03F549
:103E18008053002283F83C20B34B03F580531A46A5
:103E280092F83830052161F3040382F83830AF493D
:103E38004FF00002AE4BC1E91A2300F018BC3B68F2
:103E4800D3E90001A84B03F58053103353E902234B
:103E58000124FCF7E1FD0346002B01D100231C4699
:103E6800E1B2A14B03F580531A4692F8393061F359
:103E7800820382F83930FAE37868FEF79BFFF6E3AD
:103E8800994B03F5805393F83C30012B1DD9974B80
:103E9800002283F8B820954B002283F8BA20934B70
:103EA800002283F8B920904B03F58053002283F851
:103EB8003C208D4B03F580531A4692F83830172171
:103EC80061F3040382F83830D1E3884B93F8B830B3
:103ED800002B0CBF01230023DBB21A46834B83F867
:103EE800B820824B93F8BA30002B0CBF0123002373
:103EF800DBB21A467D4B83F8BA207C4B93F8B93075
:103F0800002B0CBF01230023DBB21A46774B83F842
:103F1800B920ACE3B968F868FFF776F9A7E3BB689E
:103F28001B78002B00F098836F4B03F58053002219
:103F380083F83C206C4B03F580531A4692F83830CE
:103F4800022161F3040382F8383068494FF0000217
:103F5800674BC1E91A237FE37868FFF7C5F986E361
:103F68007968B868FFF764FA81E35F4B03F580531B
:103F780093F83C30002B00F071835B4B03F58053C2
:103F8800002283F83C20584B03F580531A4692F8D8
:103F98003830152161F3040382F83830FEF78EFEBD
:103FA8005CE3514B03F5805393F83C30092B0BD954
:103FB8004D4B03F580531A4692F83830102161F3BF
:103FC800040382F8383052E37B681033D3E90001E8
:103FD8007B682833D3E90023FCF7D6F802460B4662
:103FE800104619464FF00002424BFCF785FA02468C
:103FF8000B461046194634A3D3E90023FCF7A6FB69
:1040080002460B46C7E9042331A3D3E90023D7E9C5
:104018000401FCF771FA02460B462FA1D1E9000111
:10402800FCF7B2F802460B463049C1E9202328A321
:10403800D3E90023D7E90401FCF75EFA02460B46F0
:104048001046194626A3D3E90023FCF79FF8024639
:104058000B462649C1E91C2309E3FFF7A3FA06E347
:10406800214B03F5805393F83C30012B40F2F88242
:104078001D4B03F580531A4692F83830072161F337
:10408800040382F8383019494FF000024FF000035A
:10409800C1E9202315494FF000024FF00003C1E9A0
:1040A8001C23114B03F58153103319464FF00002BE
:1040B8000F4B41E90223D3E27868FFF7F1FAD6E221
:1040C8007868FFF7A5FBD2E26666666666660A4010
:1040D800EC51B81E85EBB13F0000000000A0544031
:1040E8000000000000C0544080150020E0030020BC
:1040F8000000F03F00005940B04B03F5805393F89F
:104108003C30002B00F0AE82AC4B03F5805300220C
:1041180083F83C20A94B03F580531A4692F83830AF
:104128000C2161F3040382F838309BE2A34B03F5BA
:10413800805393F83C30052B39D9A04B03F58053B5
:10414800002283F83C209D4B03F580531A4692F8D1
:104158003830112161F3040382F8383098494FF060
:1041680000024FF00003C1E9202395494FF00002F7
:104178004FF00003C1E91C2391494FF000024FF0B2
:104188000003C1E922238E494FF000024FF00003DB
:10419800C1E91E238A4B002283F8B820884B0022ED
:1041A80083F8BA20864B002283F8B9205FE2844B5B
:1041B80093F8B830002B0CBF01230023DBB21A465A
:1041C8007F4B83F8B8207E494FF000027D4BC1E950
:1041D8001C237B494FF000027A4BC1E9222346E2B7
:1041E800764B03F5805393F83C30052B39D9734B44
:1041F80003F58053002283F83C20704B03F580536D
:104208001A4692F83830112161F3040382F83830E5
:104218006B494FF000024FF00003C1E920236849C1
:104228004FF000024FF00003C1E91C2364494FF02E
:1042380000024FF00003C1E9222361494FF0000258
:104248004FF00003C1E91E235D4B002283F8B8201C
:104258005B4B002283F8BA20594B002283F8B9201F
:1042680005E2574B93F8B930002B0CBF012300230C
:10427800DBB21A46524B83F8B92051494FF000027D
:10428800504BC1E91E234E494FF000024D4BC1E986
:104298002023ECE1FFF7BAFBE9E1484B03F5805333
:1042A80093F8393003F00803DBB2002B2BD0434BD3
:1042B80003F58053002283F83C20404B03F58053DC
:1042C8001A4692F83830062161F3040382F8383030
:1042D8003B494FF000024FF00003C1E92023384961
:1042E8004FF000024FF00003C1E91C23344B0122B8
:1042F80083F8B820324B002283F8BA20304B0122D1
:1043080083F8B920B0E12D4B03F5805393F83C3086
:10431800002B00F0A981294B03F58053002283F874
:104328003C20264B03F580531A4692F83830032177
:1043380061F3040382F8383096E1204B03F580538B
:1043480093F83C300A2B2BD91C4B03F580530022E1
:1043580083F83C20194B03F580531A4692F83830FD
:104368000E2161F3040382F8383015494FF000023A
:104378004FF00003C1E91C2311494FF000024FF030
:104388000003C1E922230E4B002283F8B8200C4B0E
:10439800002283F8BA200A4B002283F8B92066E18C
:1043A80007494FF00002074BC1E91C2304494FF0AD
:1043B8000002044BC1E9222359E100BF8015002007
:1043C800E003002000805640AB4B03F5805393F880
:1043D8003C300A2B1FD9A9494FF000024FF00003C7
:1043E800C1E91E23A5494FF000024FF00003C1E9BF
:1043F8002023A14B03F58053002283F83C209E4BD9
:1044080003F580531A4692F83830162161F30403F5
:1044180082F838302BE199494FF00002984BC1E9F6
:104428001E2396494FF00002954BC1E920231EE157
:10443800FB681B78002B00F019818F4B03F5805324
:104448001A4692F83830072161F3040382F83830AD
:104458008A494FF000024FF00003C1E92023874941
:104468004FF000024FF00003C1E91C23824B03F513
:104478008153103319464FF00002824B41E9022361
:10448800F4E07D4B03F5805393F83C30052B13D9AA
:10449800794B03F58053002283F83C20764B03F5D3
:1044A80080531A4692F83830152161F3040382F8D4
:1044B8003830FEF703FCDAE0704B93F8B830002B85
:1044C8000CBF01230023DBB21A466C4B83F8B820DB
:1044D8006A494FF000026A4BC1E91C2367494FF053
:1044E8000002674BC1E92223C1E0634B03F5805307
:1044F80093F83C30052B13D95F4B03F5805300220A
:1045080083F83C205C4B03F580531A4692F8383008
:10451800152161F3040382F83830FEF7CFFBA6E0DB
:10452800564B93F8B930002B0CBF01230023DBB2A4
:104538001A46524B83F8B92050494FF00002504BAD
:10454800C1E91E234D494FF000024D4BC1E920231C
:104558008DE0494B03F5805393F83C300A2B2ED954
:10456800464B002283F8BA2044494FF000024FF02E
:104578000003C1E92223404B03F580531A4692F801
:104588003830072161F3040382F838303B494FF093
:1045980000024FF00003C1E9202338494FF0000220
:1045A8004FF00003C1E91C23334B03F5815310334B
:1045B80019464FF00002334B41E9022357E02F4BD5
:1045C80093F8BA30002B0CBF01230023DBB21A4644
:1045D8002A4B83F8BA2029494FF00002284BC1E939
:1045E8001C2326494FF00002254BC1E922233EE057
:1045F800214B03F5805393F83C300A2B13D91E4BFB
:1046080003F58053002283F83C201B4B03F58053AD
:104618001A4692F83830152161F3040382F83830CD
:10462800FEF74CFB23E0154B93F8BA30002B0CBF78
:1046380001230023DBB21A46104B83F8BA200F4936
:104648004FF000020E4BC1E91C230C494FF0000249
:104658000B4BC1E922230AE000BF08E000BF06E0D7
:1046680000BF04E000BF02E000BF00E000BF00BFE1
:104678001C37BD4690BD00BF80150020E003002018
:10468800008056400000F03F80B58CB002AF7860E3
:104698007B6800221A727B6801225A607B6810339B
:1046A800BB6100237B741A4BFB611A4B3B620123ED
:1046B800BB74002387F82430022387F825300923A8
:1046C800FB6009233B7407F10C00082300930423C3
:1046D80001220421FDF726FD02467B68DA607B682B
:1046E800DB6802211846FDF791FE7B68DB681846F7
:1046F800FDF7A6FD7B68DB6801211846FDF7E9FC9C
:104708007B6801221A7200BF2837BD4680BD00BFF2
:10471800000104500000024080B5A6B000AF7860E8
:104728001A4BBB6000233B7300237B7307F108031C
:104738001846FCF7A3FF02467B68DA607B68DB68F3
:1047480000211846FCF755FC7B68DB6802211846F7
:10475800FCF7C4FE7B68DB6802211846FCF766FF9D
:104768007B68DB681846FEF7CBF8034687F8973076
:1047780097F89730002B05D17B68DB680021184635
:10478800FEF7D6F800BF9837BD4680BD000400404C
:1047980080B5A6B000AF78601A4BBB6000233B73AE
:1047A80000237B7307F108031846FCF767FF0246EE
:1047B8007B68DA607B68DB6800211846FCF719FC27
:1047C8007B68DB6802211846FCF748FD7B68DB68DC
:1047D80002211846FCF7E2FD7B68DB681846FEF705
:1047E8008FF8034687F8973097F89730002B05D154
:1047F8007B68DB6800211846FEF79AF800BF9837F7
:10480800BD4680BD00040040B0B5AAB000AFA94BBA
:10481800D3F8AC3FA84A04211846FDF726FDA64B5D
:10482800DB89A64AA2F84030A34B1B88A34AA2F80A
:104838004E30A14B9B89A14AA2F842309E4B5B881F
:104848009E4AA2F84C309C4B5B899C4AA2F84430A3
:10485800994B9B88994AA2F84A30974B1B89974AEB
:10486800A2F84630944BDB88944AA2F848300023DB
:10487800C7F88C3014E0914AD7F88C30203332F8DE
:1048880013301846FBF7BEFD8C4AD7F88C30DB0096
:104898001344C3E90001D7F88C300133C7F88C30D2
:1048A800D7F88C30072BE6DD844B93ED007B844AE8
:1048B80084498548B0EE470AF0EE670AFEF7F1F83A
:1048C8007E4B03F5E063D3E900237C49C1E9242347
:1048D8000023C7F88C301EE0D7F88C300133774AB4
:1048E800E033DB001344D3E90023C7E92423734BE7
:1048F800D3E92423D7E92401FCF78EF80346002BDB
:1049080004D06E49D7E92423C1E92423D7F88C3091
:104918000133C7F88C30D7F88C30172BDCDD674BA8
:1049280093ED027B694A6A496A48B0EE470AF0EE9D
:10493800670AFEF71DF9614B03F55463D3E90023B9
:104948005E49C1E926230023C7F88C301FE0D7F859
:104958008C300133594A03F5D473DB001344D3E98F
:104968000023C7E92423554BD3E92623D7E924019B
:10497800FCF752F80346002B04D05049D7E924230A
:10498800C1E92623D7F88C300133C7F88C30D7F823
:104998008C30082BDBDD494B93ED267B4E4A4F4983
:1049A8004F48B0EE470AF0EE670AFEF77AF8434B35
:1049B80003F580531033D3E90023C7E920230023EC
:1049C800C7F88C301DE0D7F88C3001333B4A03F22E
:1049D8000223DB001344D3E90023C7E92423D7E9E2
:1049E8002023D7E92401FBF7F9FF0346002B03D066
:1049F800D7E92423C7E92023D7F88C300133C7F837
:104A08008C30D7F88C30172BDDDD2C4B93ED047BE5
:104A1800344A35493548B0EE470AF0EE670AFEF7E2
:104A280040F8264B03F50963D3E900232349C1E97C
:104A380026230023C7F88C301FE0D7F88C300133C9
:104A48001E4A03F58973DB001344D3E90023C7E941
:104A580024231A4BD3E92623D7E92401FBF7DCFFEB
:104A68000346002B04D01549D7E92423C1E926239E
:104A7800D7F88C300133C7F88C30D7F88C30172B27
:104A8800DBDD0E4B93ED067B194A1A491A48B0EE46
:104A9800470AF0EE670AFEF704F8084B03F5AE6321
:104AA800D3E900230549C1E928230023C7F88C303E
:104AB80043E000BF801500208C030020E0030020A5
:104AC8008800002040290020E00A0020A8000020DB
:104AD800C02C002020110020C0000020702E0020D3
:104AE800F013002090000020202A0020700C0020E5
:104AF800800000206028002050090020D7F88C3062
:104B080001338A4AAE33DB001344D3E90023C7E9F3
:104B18002423864BD3E92823D7E92401FBF77CFF1C
:104B28000346002B04D08149D7E92423C1E928236F
:104B3800D7F88C300133C7F88C30D7F88C30172B66
:104B4800DCDD7A4B93ED087B794A7A497A48B0EEF6
:104B5800470AF0EE670AFDF7A4FF744BD3E9F82380
:104B68007249C1E92A230023C7F88C301EE0D7F820
:104B78008C3001336D4A7C33DB001344D3E90023C6
:104B8800C7E92423694BD3E92A23D7E92401FBF792
:104B980043FF0346002B04D06449D7E92423C1E925
:104BA8002A23D7F88C300133C7F88C30D7F88C30EB
:104BB800172BDCDD5D4B93ED0A7B604A6049614849
:104BC800B0EE470AF0EE670AFDF76BFF574BD3E9E3
:104BD80094235649C1E92C230023C7F88C301EE0E2
:104BE800D7F88C300133514A4A33DB001344D3E9F8
:104BF8000023C7E924234D4BD3E92C23D7E924010B
:104C0800FBF70AFF0346002B04D04849D7E92423C1
:104C1800C1E92C23D7F88C300133C7F88C30D7F88A
:104C28008C30172BDCDD414B93ED0C7B464A474912
:104C38004748B0EE470AF0EE670AFDF799FF3B4B8D
:104C480003F55E63D3E90023C7E928230023C7F8E7
:104C58008C301DE0D7F88C300133344A03F5DE730D
:104C6800DB001344D3E90023C7E92423D7E924232D
:104C7800D7E92801FBF7B2FE0346002B03D0D7E99A
:104C88002423C7E92823D7F88C300133C7F88C30A0
:104C9800D7F88C30082BDDDD2E4A2F492F4897EDA9
:104CA800280BFDF7FEFE214B03F56863D3E90023CB
:104CB800C7E926230023C7F88C301DE0D7F88C30CD
:104CC80001331A4A03F5E873DB001344D3E90023E0
:104CD800C7E92423D7E92423D7E92601FBF79CFE5B
:104CE8000346002B03D0D7E92423C7E92623D7F8A6
:104CF8008C300133C7F88C30D7F88C30172BDDDDBA
:104D08000A4B93ED0E7B164A16491748B0EE470A30
:104D1800F0EE670AFDF7C5FE044BD3E93023C7E977
:104D280028230023C7F88C303DE000BFE0030020B3
:104D38007800002080270020C00700207000002095
:104D4800A026002030060020B0000020282D0020DA
:104D5800C0110020B8000020902D00206012002013
:104D680068000020C0250020A0040020D7F88C305F
:104D78000133BD4A1833DB001344D3E90023C7E9E4
:104D88002423D7E92423D7E92801FBF727FE034684
:104D9800002B03D0D7E92423C7E92823D7F88C3080
:104DA8000133C7F88C30D7F88C30172BDEDDAE4BCB
:104DB80093ED247BB0EE470AF0EE670A0CF0A8FDED
:104DC800B0EE407AF0EE607A9FEDA51BB0EE470A90
:104DD800F0EE670A0CF0DEFC87ED240B4FF00002C2
:104DE8004FF00003D7E92401FBF7F8FD0346002B39
:104DF8000ED0D7F89040D7F8943083F0004520467D
:104E08002946FBF751FE03469BB25B429BB205E085
:104E1800D7E92401FBF748FE03469BB2934A138067
:104E280097ED207BB0EE470AF0EE670A0CF070FDB4
:104E3800B0EE407AF0EE607A9FED891BB0EE470A3B
:104E4800F0EE670A0CF0A6FC87ED240B4FF0000289
:104E58004FF00003D7E92401FBF7C0FD0346002B00
:104E680010D0D7F890303B67D7F8943083F00043E0
:104E78007B67D7E91C01FBF717FE03469BB25B4231
:104E88009BB205E0D7E92401FBF70EFE03469BB26F
:104E9800764A5380744B93ED267BB0EE470AF0EECA
:104EA800670A0CF035FDB0EE407AF0EE607A9FEDBF
:104EB8006C1BB0EE470AF0EE670A0CF06BFC87ED4E
:104EC800240B4FF000024FF00003D7E92401FBF751
:104ED80085FD0346002B10D0D7F89030BB66D7F875
:104EE800943083F00043FB66D7E91A01FBF7DCFD39
:104EF80003469BB25B429BB205E0D7E92401FBF76E
:104F0800D3FD03469BB2594A9380574B93ED287BB8
:104F1800B0EE470AF0EE670A0CF0FAFCB0EE407A01
:104F2800F0EE607A9FED4E1BB0EE470AF0EE670A8E
:104F38000CF030FC87ED240B4FF000024FF000031B
:104F4800D7E92401FBF74AFD0346002B10D0D7F818
:104F580090303B66D7F8943083F000437B66D7E9FE
:104F68001801FBF7A1FD03469BB25B429BB205E02B
:104F7800D7E92401FBF798FD03469BB23B4AD3804F
:104F8800394B93ED2A7BB0EE470AF0EE670A0CF036
:104F9800BFFCB0EE407AF0EE607A9FED311BB0EEC8
:104FA800470AF0EE670A0CF0F5FB87ED240B4FF08B
:104FB80000024FF00003D7E92401FBF70FFD034679
:104FC800002B10D0D7F89030BB65D7F8943083F019
:104FD8000043FB65D7E91601FBF766FD03469BB264
:104FE8005B429BB205E0D7E92401FBF75DFD034670
:104FF8009BB21E4A13811C4B93ED2C7BB0EE470AE3
:10500800F0EE670A0CF084FCB0EE407AF0EE607ABD
:105018009FED131BB0EE470AF0EE670A0CF0BAFBDF
:1050280087ED240B4FF000024FF00003D7E924016D
:10503800FBF7D4FC0346002B1AD0D7F890303B6519
:10504800D7F8943083F000437B65D7E91401FBF768
:105058002BFD03469BB25B429BB20FE0AFF300808F
:10506800000000000000F040E0030020A003002042
:10507800D7E92401FBF718FD03469BB2A24A5381E6
:1050880097ED260B0CF044FCB0EE407AF0EE607A17
:105098009FED9B1BB0EE470AF0EE670A0CF07AFB17
:1050A80087ED240B4FF000024FF00003D7E92401ED
:1050B800FBF794FC0346002B10D0D7F89030BB6464
:1050C800D7F8943083F00043FB64D7E91201FBF76B
:1050D800EBFC03469BB25B429BB205E0D7E9240197
:1050E800FBF7E2FC03469BB2874A938197ED280BB6
:1050F8000CF00EFCB0EE407AF0EE607A9FED801B6B
:10510800B0EE470AF0EE670A0CF044FB87ED240B7B
:105118004FF000024FF00003D7E92401FBF75EFCD3
:105128000346002B10D0D7F890303B64D7F8943062
:1051380083F000437B64D7E91001FBF7B5FC034615
:105148009BB25B429BB205E0D7E92401FBF7ACFCBC
:1051580003469BB26C4AD3816C4BB3F85A306A4A07
:1051680013826B4B03F5E063D3E90023C7E92023DF
:105178000023C7F88C301CE0D7F88C300133644A20
:10518800E033DB001344D3E90023C7E92423D7E93C
:105198002023D7E92401FBF721FC0346002B03D089
:1051A800D7E92423C7E92023D7F88C300133C7F87F
:1051B8008C30D7F88C30172BDEDD554B93ED027B06
:1051C800544A55495548B0EE470AF0EE670AFDF7CC
:1051D80068FC4F4B03F53B63D3E90023C7E926235B
:1051E8000023C7F88C301DE0D7F88C300133484ACB
:1051F80003F5BB73DB001344D3E90023C7E9242379
:10520800D7E92423D7E92601FBF706FC0346002B40
:1052180003D0D7E92423C7E92623D7F88C300133F4
:10522800C7F88C30D7F88C30172BDDDD384B03F5F9
:105238000963D3E900233649C1E926230023C7F8C7
:105248008C301FE0D7F88C300133314A03F589736D
:10525800DB001344D3E90023C7E924232C4BD3E90B
:105268002623D7E92401FBF7B9FB0346002B04D01A
:105278002749D7E92423C1E92623D7F88C300133FD
:10528800C7F88C30D7F88C30172BDBDD204B03F5B3
:10529800AE63D3E900231E49C1E928230023C7F8D8
:1052A8008C301EE0D7F88C300133194AAE33DB005E
:1052B8001344D3E90023C7E92423154BD3E9282352
:1052C800D7E92401FBF78AFB0346002B04D01049D9
:1052D800D7E92423C1E92823D7F88C300133C7F84C
:1052E8008C30D7F88C30172BDCDD094BD3E9F82349
:1052F8000749C1E92A230023C7F88C302FE000BFF3
:10530800000000000000F040A00300200000002082
:10531800E0030020A0000020E02B0020900F0020D8
:10532800D7F88C300133AE4A7C33DB001344D3E921
:105338000023C7E92423AA4BD3E92A23D7E9240168
:10534800FBF74CFB0346002B04D0A549D7E92423DF
:10535800C1E92A23D7F88C300133C7F88C30D7F845
:105368008C30172BDCDD9E4BD3E994239C49C1E993
:105378002C230023C7F88C301EE0D7F88C3001337B
:10538800974A4A33DB001344D3E90023C7E92423AF
:10539800934BD3E92C23D7E92401FBF71FFB0346E2
:1053A800002B04D08E49D7E92423C1E92C23D7F850
:1053B8008C300133C7F88C30D7F88C30172BDCDDF4
:1053C800874B93ED0C7B874A87498848B0EE470A9C
:1053D800F0EE670AFDF765FB814B03F52263D3E91D
:1053E8000023C7E928230023C7F88C301DE0D7F82D
:1053F8008C3001337A4A03F5A273DB001344D3E9F6
:105408000023C7E92423D7E92423D7E92801FBF798
:1054180003FB0346002B03D0D7E92423C7E928233D
:10542800D7F88C300133C7F88C30D7F88C30172B6D
:10543800DDDD6B4BD3E930236949C1E9242300231F
:10544800C7F88C301EE0D7F88C300133644A183323
:10545800DB001344D3E90023C7E92423604BD3E9D5
:105468002423D7E92401FBF7B9FA0346002B04D01B
:105478005B49D7E92423C1E92423D7F88C300133C9
:10548800C7F88C30D7F88C30172BDCDD97ED207BF4
:10549800B0EE470AF0EE670A0CF03AFAB0EE407A3E
:1054A800F0EE607A9FED4C1BB0EE470AF0EE670A0B
:1054B8000CF070F987ED240B4FF000024FF0000359
:1054C800D7E92401FBF78AFA0346002B10D0D7F856
:1054D8009030BB63D7F8943083F00043FB63D7E97F
:1054E8000E01FBF7E1FA03469BB25B429BB205E073
:1054F800D7E92401FBF7D8FA03469BB23C4A13804C
:1055080097ED260B0CF004FAB0EE407AF0EE607AD4
:105518009FED311BB0EE470AF0EE670A0CF03AF93E
:1055280087ED240B4FF000024FF00003D7E9240168
:10553800FBF754FA0346002B10D0D7F890303B63A2
:10554800D7F8943083F000437B63D7E90C01FBF76D
:10555800ABFA03469BB25B429BB205E0D7E9240154
:10556800FBF7A2FA03469BB2214A53801C4B93EDEA
:10557800267BB0EE470AF0EE670A0CF0C9F9B0EEE8
:10558800407AF0EE607A9FED141BB0EE470AF0EE19
:10559800670A0CF0FFF887ED240B4FF000024FF07C
:1055A8000003D7E92401FBF719FA0346002B21D0A1
:1055B800D7F89030BB62D7F8943083F00043FB6291
:1055C800D7E90A01FBF770FA03469BB25B429BB22C
:1055D80016E000BFAFF30080000000000000F040BC
:1055E800E003002098000020002B0020000E00207F
:1055F800B4030020D7E92401FBF756FA03469BB20F
:10560800994A9380994B93ED287BB0EE470AF0EEC8
:10561800670A0CF07DF9B0EE407AF0EE607A9FED03
:10562800901BB0EE470AF0EE670A0CF0B3F887ED6E
:10563800240B4FF000024FF00003D7E92401FBF7D9
:10564800CDF90346002B10D0D7F890303B62D7F83D
:10565800943083F000437B62D7E90801FBF724FA12
:1056680003469BB25B429BB205E0D7E92401FBF7F6
:105678001BFA03469BB27C4AD3807C4B93ED2A7B72
:10568800B0EE470AF0EE670A0CF042F9B0EE407A45
:10569800F0EE607A9FED721BB0EE470AF0EE670AF3
:1056A8000CF078F887ED240B4FF000024FF0000360
:1056B800D7E92401FBF792F90346002B10D0D7F85D
:1056C8009030BB61D7F8943083F00043FB61D7E991
:1056D8000601FBF7E9F903469BB25B429BB205E082
:1056E800D7E92401FBF7E0F903469BB25E4A138130
:1056F8005E4B93ED2C7BB0EE470AF0EE670A0CF098
:1057080007F9B0EE407AF0EE607A9FED551BB0EEE7
:10571800470AF0EE670A0CF03DF887ED240B4FF0CE
:1057280000024FF00003D7E92401FBF757F90346BD
:10573800002B10D0D7F890303B61D7F8943083F025
:1057480000437B61D7E90401FBF7AEF903469BB23E
:105758005B429BB205E0D7E92401FBF7A5F90346B4
:105768009BB2414A538197ED280B0CF0D1F8B0EE6B
:10577800407AF0EE607A9FED3A1BB0EE470AF0EE01
:10578800670A0CF007F887ED240B4FF000024FF082
:105798000003D7E92401FBF721F90346002B10D0B9
:1057A800D7F89030BB60D7F8943083F00043FB60A3
:1057B800D7E90201FBF778F903469BB25B429BB23B
:1057C80005E0D7E92401FBF76FF903469BB2264AA7
:1057D8009381264B93ED247BB0EE470AF0EE670ADF
:1057E8000CF096F8B0EE407AF0EE607A9FED1C1B54
:1057F800B0EE470AF0EE670A0BF0CCFF87ED240BFA
:105808004FF000024FF00003D7E92401FBF7E6F858
:105818000346002B10D0D7F890303B60D7F894306F
:1058280083F000437B60D7E90001FBF73DF90346AD
:105838009BB25B429BB205E0D7E92401FBF734F940
:1058480003469BB2084AD381094BB3F85C20064B48
:105858001A820023C7F88C301DE000BFAFF3008028
:10586800000000000000F040B4030020E003002026
:1058780000000020C34AD7F88C30134400221A7065
:10588800C14AD7F88C30002122F81310D7F88C3091
:105898000133C7F88C30D7F88C30072BEADDBB4BC7
:1058A80000221A60BA4B00221A60BA4BB3F858307B
:1058B8001A46B94B1B8802FB03F31846FAF7A2FDF8
:1058C8004FF00002B54BFAF717FE02460B4610469A
:1058D8001946B04BD3E90223FAF738FF02460B46C4
:1058E80043EC172BB0EE470AF0EE670AFDF77CF998
:1058F80051EC100BA74BD3E90223FAF7FDFD024642
:105908000B46A749C1E90023A24BB3F858301A4601
:10591800A14B5B8802FB03F31846FAF773FD4FF0BF
:1059280000029E4BFAF7E8FD02460B461046194660
:10593800984BD3E90223FAF709FF02460B4643ECDA
:10594800172BB0EE470AF0EE670AFDF74DF951EC58
:10595800100B904BD3E90223FAF7CEFD02460B4613
:10596800C7E92023D7E920238D49C1E90223894BC0
:10597800B3F858301A46884B9B8802FB03F3184645
:10598800FAF740FD4FF00002844BFAF7B5FD0246E6
:105998000B46104619467F4BD3E90223FAF7D6FE89
:1059A80002460B4643EC172BB0EE470AF0EE670AA7
:1059B800FDF71AF951EC100B764BD3E90223FAF7ED
:1059C8009BFD02460B467649C1E90423714BB3F8A7
:1059D80058301A46704BDB8802FB03F31846FAF777
:1059E80011FD4FF000026D4BFAF786FD02460B469B
:1059F80010461946674BD3E90223FAF7A7FE024679
:105A08000B4643EC172BB0EE470AF0EE670AFDF79A
:105A1800EBF851EC100B5F4BD3E90223FAF76CFD5E
:105A280002460B465E49C1E906235A4BB3F8583083
:105A38001A46594B1B8902FB03F31846FAF7E2FC96
:105A48004FF00002554BFAF757FD02460B46104639
:105A58001946504BD3E90223FAF778FE02460B4663
:105A680043EC172BB0EE470AF0EE670AFDF7BCF8D7
:105A780051EC100B474BD3E90223FAF73DFD0246E0
:105A88000B464749C1E90823424BB3F858301A4638
:105A9800414B5B8902FB03F31846FAF7B3FC4FF05E
:105AA80000023E4BFAF728FD02460B4610461946FF
:105AB800384BD3E90223FAF749FE02460B4643EC7A
:105AC800172BB0EE470AF0EE670AFDF78DF851EC98
