:020000040800F2
:1000000000800120D10001083388000839880008E9
:100010003F880008458800084B8800080000000061
:10002000000000000000000000000000795B0008F4
:100030005188000800000000355B0008655A000880
:100040002101010821010108210101082101010804
:1000500021010108210101082101010821010108F4
:100060002101010821010108210101085F88000820
:1000700029200008210101082101010821010108AE
:100080006D8800087B880008898800082101010824
:1000900021010108210101082101010821010108B4
:1000A00021010108998800082101010821010108A6
:1000B0002101010821010108210101082101010894
:1000C0002101010821010108210101082101010884
:1000D0002101010821010108210101082101010874
:1000E0002101010821010108210101082101010864
:1000F0002101010821010108210101082101010854
:100100002101010821010108210101082101010843
:100110002101010821010108210101082101010833
:100120002101010821010108210101082101010823
:100130002101010821010108210101082101010813
:10014000210101082101010821010108AD880008F1
:1001500021010108210101082101010821010108F3
:1001600021010108210101082101010821010108E3
:1001700021010108210101082101010800000000FE
:08018000210101082101010821
:1001880081F0004102E000BF83F0004330B54FEA40
:1001980041044FEA430594EA050F08BF90EA020FAD
:1001A8001FBF54EA000C55EA020C7FEA645C7FEA40
:1001B800655C00F0E2804FEA5454D4EB5555B8BF63
:1001C8006D420CDD2C4480EA020281EA030382EAD4
:1001D800000083EA010180EA020281EA0303362D66
:1001E80088BF30BD11F0004F4FEA01314FF4801C39
:1001F8004CEA113102D0404261EB410113F0004F4B
:100208004FEA03334CEA133302D0524263EB430301
:1002180094EA050F00F0A780A4F10104D5F1200E9F
:100228000DDB02FA0EFC22FA05F2801841F10001FA
:1002380003FA0EF2801843FA05F359410EE0A5F1CE
:1002480020050EF1200E012A03FA0EFC28BF4CF0FF
:10025800020C43FA05F3C01851EBE37101F00045B5
:1002680007D54FF0000EDCF1000C7EEB00006EEBC2
:100278000101B1F5801F1BD3B1F5001F0CD349084C
:100288005FEA30004FEA3C0C04F101044FEA4452A3
:1002980012F5800F80F09A80BCF1004F08BF5FEA2A
:1002A800500C50F1000041EB045141EA050130BD0A
:1002B8005FEA4C0C404141EB0101013C28BFB1F51C
:1002C800801FE9D291F0000F04BF01460020B1FA67
:1002D80081F308BF2033A3F10B03B3F120020CDA3A
:1002E8000C3208DD02F1140CC2F10C0201FA0CF018
:1002F80021FA02F10CE002F11402D8BFC2F1200C7D
:1003080001FA02F120FA0CFCDCBF41EA0C01904032
:10031800E41AA2BF01EB0451294330BD6FEA04047B
:100328001F3C1CDA0C340EDC04F11404C4F1200266
:1003380020FA04F001FA02F340EA030021FA04F378
:1003480045EA030130BDC4F10C04C4F1200220FACF
:1003580002F001FA04F340EA0300294630BD21FA0D
:1003680004F0294630BD94F0000F83F4801306BFD3
:1003780081F480110134013D4EE77FEA645C18BFC7
:100388007FEA655C29D094EA050F08BF90EA020F5E
:1003980005D054EA000C04BF1946104630BD91EA56
:1003A800030F1EBF0021002030BD5FEA545C05D159
:1003B8004000494128BF41F0004130BD14F5800498
:1003C8003CBF01F5801130BD01F0004545F0FE410C
:1003D80041F470014FF0000030BD7FEA645C1ABF41
:1003E800194610467FEA655C1CBF0B46024650EA78
:1003F800013406BF52EA033591EA030F41F40021A4
:1004080030BD00BF90F0000F04BF0021704730B529
:100418004FF4806404F132044FF000054FF00001FE
:1004280050E700BF90F0000F04BF0021704730B5BF
:100438004FF4806404F1320410F0004548BF404294
:100448004FF000013EE700BF42004FEAE2014FEAE9
:1004580031014FEA02701FBF12F07F4393F07F4FC4
:1004680081F06051704732F07F4208BF704793F0C7
:100478007F4F04BF41F40021704730B54FF46074DA
:1004880001F0004521F000411CE700BF50EA0102DD
:1004980008BF704730B54FF000050AE050EA010286
:1004A80008BF704730B511F0004502D5404261EBF6
:1004B80041014FF4806404F132045FEA915C3FF437
:1004C800D8AE4FF003025FEADC0C18BF03325FEAD4
:1004D800DC0C18BF033202EBDC02C2F1200300FA85
:1004E80003FC20FA02F001FA03FE40EA0E0021FAAA
:1004F80002F11444BDE600BF70B54FF0FF0C4CF498
:10050800E06C1CEA11541DBF1CEA135594EA0C0F49
:1005180095EA0C0F00F0DEF82C4481EA030621EA84
:100528004C5123EA4C5350EA013518BF52EA0335BF
:1005380041F4801143F4801338D0A0FB02CE4FF071
:100548000005E1FB02E506F00042E0FB03E54FF0A1
:100558000006E1FB03569CF0000F18BF4EF0010E99
:10056800A4F1FF04B6F5007F64F5407404D25FEA95
:100578004E0E6D4146EB060642EAC62141EA555148
:100588004FEAC52040EA5E504FEACE2EB4F1FD0C8A
:1005980088BFBCF5E06F1ED8BEF1004F08BF5FEA08
:1005A800500E50F1000041EB045170BD06F00046BA
:1005B80046EA010140EA020081EA0301B4EB5C0467
:1005C800C2BFD4EB0C0541EA045170BD41F480115F
:1005D8004FF0000E013C00F3AB8014F1360FDEBF84
:1005E800002001F0004170BDC4F10004203C35DA60
:1005F8000C341BDC04F11404C4F1200500FA05F3E3
:1006080020FA04F001FA05F240EA020001F0004283
:1006180021F0004110EBD37021FA04F642EB0601F9
:100628005EEA430E08BF20EAD37070BDC4F10C0423
:10063800C4F1200500FA04F320FA05F001FA04F2E7
:1006480040EA020001F0004110EBD37041F10001D3
:100658005EEA430E08BF20EAD37070BDC4F12005DE
:1006680000FA05F24EEA020E20FA04F301FA05F246
:1006780043EA020321FA04F001F0004121FA04F2EE
:1006880020EA020000EBD3705EEA430E08BF20EABE
:10069800D37070BD94F0000F0FD101F000464000F8
:1006A80041EB010111F4801F08BF013CF7D041EA7A
:1006B800060195F0000F18BF704703F0004652007E
:1006C80043EB030313F4801F08BF013DF7D043EA4F
:1006D8000603704794EA0C0F0CEA135518BF95EA05
:1006E8000C0F0CD050EA410618BF52EA4306D1D18C
:1006F80081EA030101F000414FF0000070BD50EAAB
:10070800410606BF1046194652EA430619D094EA34
:100718000C0F02D150EA013613D195EA0C0F05D11E
:1007280052EA03361CBF104619460AD181EA030172
:1007380001F0004141F0FE4141F470014FF000002A
:1007480070BD41F0FE4141F4780170BD70B54FF0C5
:10075800FF0C4CF4E06C1CEA11541DBF1CEA135545
:1007680094EA0C0F95EA0C0F00F0A7F8A4EB050427
:1007780081EA030E52EA03354FEA013100F088801E
:100788004FEA03334FF0805545EA131343EA1263E7
:100798004FEA022245EA111545EA10654FEA00269C
:1007A8000EF000419D4208BF964244F1FD0404F555
:1007B800407402D25B084FEA3202B61A65EB0305B1
:1007C8005B084FEA32024FF480104FF4002CB6EB6E
:1007D800020E75EB030E22BFB61A754640EA0C00EE
:1007E8005B084FEA3202B6EB020E75EB030E22BF2E
:1007F800B61A754640EA5C005B084FEA3202B6EB6F
:10080800020E75EB030E22BFB61A754640EA9C002D
:100818005B084FEA3202B6EB020E75EB030E22BFFD
:10082800B61A754640EADC0055EA060E18D04FEABB
:10083800051545EA16754FEA06164FEAC30343EA5B
:1008480052734FEAC2025FEA1C1CC0D111F4801F28
:100858000BD141EA00014FF000004FF0004CB6E721
:1008680011F4801F04BF01430020B4F1FD0C88BFC0
:10087800BCF5E06F3FF6AFAEB5EB030C04BFB6EBCB
:10088800020C5FEA500C50F1000041EB045170BDBE
:100898000EF0004E4EEA113114EB5C04C2BFD4EBEB
:1008A8000C0541EA045170BD41F480114FF0000E6F
:1008B800013C90E645EA060E8DE60CEA135594EAEB
:1008C8000C0F08BF95EA0C0F3FF43BAF94EA0C0FEE
:1008D8000AD150EA01347FF434AF95EA0C0F7FF463
:1008E80025AF104619462CE795EA0C0F06D152EAB7
:1008F80003353FF4FDAE1046194622E750EA41069B
:1009080018BF52EA43067FF4C5AE50EA41047FF4AB
:100918000DAF52EA43057FF4EBAE12E74FF0FF3C10
:1009280006E000BF4FF0010C02E000BF4FF0010CE1
:100938004DF804CD4FEA410C7FEA6C5C4FEA430C5A
:1009480018BF7FEA6C5C1BD001B050EA410C0CBFA9
:1009580052EA430C91EA030F02BF90EA020F00200B
:10096800704710F1000F91EA030F58BF994208BF72
:1009780090422CBFD8176FEAE37040F0010070472F
:100988004FEA410C7FEA6C5C02D150EA013C07D186
:100998004FEA430C7FEA6C5CD6D152EA033CD3D0D1
:1009A8005DF8040B704700BF8446104662468C46CB
:1009B8001946634600E000BF01B5FFF7B7FF0028FE
:1009C80048BF10F1000F01BD4DF808EDFFF7F4FF27
:1009D8000CBF012000205DF808FB00BF4DF808EDB2
:1009E800FFF7EAFF34BF012000205DF808FB00BFD5
:1009F8004DF808EDFFF7E0FF94BF012000205DF8F7
:100A080008FB00BF4DF808EDFFF7CEFF94BF0120AB
:100A180000205DF808FB00BF4DF808EDFFF7C4FFA4
:100A280034BF012000205DF808FB00BF4FEA410CED
:100A38007FEA6C5C02D150EA013C0AD14FEA430CD0
:100A48007FEA6C5C02D152EA033C02D14FF000000D
:100A580070474FF0010070474A0011D212F500129A
:100A680011D20DD56FF47873B3EB62520ED44FEAFE
:100A7800C12343F0004343EA505323FA02F070477E
:100A88004FF00000704750EA013002D14FF0FF30BC
:100A980070474FF0000070474FEA4102B2F1E0435F
:100AA80024BFB3F5001CDCF1FE5C0DD901F0004C4D
:100AB8004FEAC0024CEA5070B2F1004F40EB83009D
:100AC80008BF20F00100704711F0804F21D113F1C9
:100AD8003872BCBF01F00040704741F480114FEA02
:100AE8005252C2F11802C2F1200C10FA0CF320FA8B
:100AF80002F018BF40F001004FEAC1234FEAD323A8
:100B080003FA0CFC40EA0C0023FA02F34FEA430311
:100B1800CCE77FEA625307D150EA01331EBF4FF09A
:100B2800FE4040F44000704701F0004040F0FE40B5
:100B380040F40000704700BF0348044B834202D0D2
:100B4800034B03B118477047A8020020A8020020F1
:100B5800000000000548064B1B1AD90F01EBA30142
:100B6800491002D0034B03B118477047A802002070
:100B7800A80200200000000010B5064C237843B9F5
:100B8800FFF7DAFF044B13B10448AFF300800123E9
:100B9800237010BDA802002000000000040701080F
:100BA80008B5054B1BB105490548AFF30080BDE802
:100BB8000840FFF7CFBF00BF00000000AC020020D4
:100BC8000407010880B485B000AF78607B681B68B3
:100BD80003F06003FB60FB68002B04D17B681B6893
:100BE80003F01003FB60FB6818461437BD465DF838
:100BF800047B704780B483B000AF78607B681B6B60
:100C080018460C37BD465DF8047B704780B483B046
:100C180000AF786039607B681A6A3B681A437B6862
:100C28001A6200BF0C37BD465DF8047B704780B47C
:100C380083B000AF786039607B681A6A3B68DB4331
:100C48001A407B681A6200BF0C37BD465DF8047B0A
:100C5800704780B483B000AF78607B685B6C43F406
:100C680000427B685A6400BF0C37BD465DF8047BC0
:100C7800704780B483B000AF78607B68DB6843F06E
:100C880001027B68DA6000BF0C37BD465DF8047B63
:100C9800704780B483B000AF78607B68DB6823F06E
:100CA80001027B68DA6000BF0C37BD465DF8047B43
:100CB800704780B483B000AF78607B68DB6803F06E
:100CC8000103012B01D1012300E0002318460C3752
:100CD800BD465DF8047B704780B483B000AF786090
:100CE8007B68DB6843F002027B68DA6000BF0C3780
:100CF800BD465DF8047B704780B483B000AF786070
:100D08007B68DB6823F002027B68DA6000BF0C377F
:100D1800BD465DF8047B704780B483B000AF78604F
:100D28007B68DB6803F00203022B01D1012300E09A
:100D3800002318460C37BD465DF8047B704780B425
:100D480083B000AF78607B68DB6843F004027B689F
:100D5800DA6000BF0C37BD465DF8047B704780B48D
:100D680083B000AF78607B68DB6823F004027B689F
:100D7800DA6000BF0C37BD465DF8047B704780B46D
:100D880083B000AF78607B68DB6803F00403042B52
:100D980001D1012300E0002318460C37BD465DF859
:100DA800047B704780B483B000AF78607B68DB68F1
:100DB80043F008027B68DA6000BF0C37BD465DF877
:100DC800047B704780B483B000AF78607B68DB68D1
:100DD80023F008027B68DA6000BF0C37BD465DF877
:100DE800047B704780B483B000AF78607B68DB68B1
:100DF80003F00803082B01D1012300E00023184663
:100E08000C37BD465DF8047B704780B483B000AFF3
:100E180078607B68DB6843F010027B68DA6000BFAB
:100E28000C37BD465DF8047B704780B483B000AFD3
:100E380078607B68DB6823F010027B68DA6000BFAB
:100E48000C37BD465DF8047B704780B483B000AFB3
:100E580078607B68DB6803F01003102B01D1012355
:100E680000E0002318460C37BD465DF8047B704748
:100E780080B483B000AF78607B68DB6843F0200201
:100E88007B68DA6000BF0C37BD465DF8047B7047AD
:100E980080B483B000AF78607B68DB6823F0200201
:100EA8007B68DA6000BF0C37BD465DF8047B70478D
:100EB80080B483B000AF78607B68DB6803F0200300
:100EC800202B01D1012300E0002318460C37BD4632
:100ED8005DF8047B704780B483B000AF78607B68AE
:100EE800DB6843F040027B68DA6000BF0C37BD4620
:100EF8005DF8047B704780B483B000AF78607B688E
:100F0800DB6823F040027B68DA6000BF0C37BD461F
:100F18005DF8047B704780B483B000AF78607B686D
:100F2800DB6803F04003402B01D1012300E00023DC
:100F380018460C37BD465DF8047B704780B483B013
:100F480000AF78607B68DB6843F080027B68DA601A
:100F580000BF0C37BD465DF8047B704780B483B092
:100F680000AF78607B68DB6823F080027B68DA601A
:100F780000BF0C37BD465DF8047B704780B483B072
:100F880000AF78607B68DB6803F08003802B01D1B9
:100F9800012300E0002318460C37BD465DF8047BAA
:100FA800704780B582B000AF78600B467B807B8845
:100FB80003F00103002B0CD07B681B681846FFF771
:100FC800AAFF0346012B04D07B681B681846FFF76D
:100FD80082FF7B8803F00203002B0CD07B681B6820
:100FE8001846FFF799FE0346012B04D07B681B685F
:100FF8001846FFF771FE7B8803F00403002B0CD022
:101008007B681B681846FFF7BAFE0346012B04D01D
:101018007B681B681846FFF792FE7B8803F008037D
:10102800002B0CD07B681B681846FFF7DBFE0346D5
:10103800012B04D07B681B681846FFF7B3FE7B883A
:1010480003F01003002B0CD07B681B681846FFF7D1
:10105800FCFE0346012B04D07B681B681846FFF78B
:10106800D4FE7B8803F02003002B0CD07B681B6820
:101078001846FFF71EFE0346012B04D07B681B6849
:101088001846FFF7F6FD7B8803F04003002B0CD0D1
:101098007B681B681846FFF771FF0346012B04D0D5
:1010A8007B681B681846FFF749FF7B8803F08003BD
:1010B800002B0CD07B681B681846FFF7F9FE034627
:1010C800012B04D07B681B681846FFF7D1FE00BFD0
:1010D8000837BD4680BD80B582B000AF78600B464A
:1010E8007B807B8803F00103002B0CD07B681B6896
:1010F8001846FFF710FF0346012B04D17B681B68D5
:101108001846FFF7F8FE7B8803F00203002B0CD08B
:101118007B681B681846FFF7FFFD0346012B04D1C7
:101128007B681B681846FFF7E7FD7B8803F004031C
:10113800002B0CD07B681B681846FFF720FE03467F
:10114800012B04D17B681B681846FFF708FE7B88D3
:1011580003F00803002B0CD07B681B681846FFF7C8
:1011680041FE0346012B04D17B681B681846FFF734
:1011780029FE7B8803F01003002B0CD07B681B68CA
:101188001846FFF762FE0346012B04D17B681B68F3
:101198001846FFF74AFE7B8803F02003002B0CD08B
:1011A8007B681B681846FFF784FD0346012B04D0B3
:1011B8007B681B681846FFF76CFD7B8803F04003CB
:1011C800002B0CD07B681B681846FFF7D7FE034638
:1011D800012B04D17B681B681846FFF7BFFE7B888C
:1011E80003F08003002B0CD07B681B681846FFF7C0
:1011F8005FFE0346012B04D17B681B681846FFF786
:1012080047FE00BF0837BD4680BD000080B582B0EC
:1012180000AF78600B46FB70FB78022B06D17B6829
:101228001B6801211846FFF7F1FC31E07B681B6859
:10123800194A934213D07B681B68184A93420ED010
:101248007B681B68164A934209D07B681B68154A5D
:10125800934204D07B681B68134A934218D1FB78E9
:10126800032B06D17B681B6804211846FFF7CEFCC8
:101278000EE0FB78042B0BD17B681B680121184614
:10128800FFF7C4FC7B681B6804211846FFF7BEFC07
:1012980000BF0837BD4680BD002C01400034014026
:1012A80000400140004401400048014080B582B040
:1012B80000AF78600B46FB70FB78022B06D17B6889
:1012C8001B6801211846FFF7B2FC31E07B681B68F8
:1012D800194A934213D07B681B68184A93420ED070
:1012E8007B681B68164A934209D07B681B68154ABD
:1012F800934204D07B681B68134A934218D1FB7849
:10130800032B06D17B681B6804211846FFF78FFC66
:101318000EE0FB78042B0BD17B681B680121184673
:10132800FFF785FC7B681B6804211846FFF77FFCE4
:1013380000BF0837BD4680BD002C01400034014085
:1013480000400140004401400048014080B582B09F
:1013580000AF78600B46FB70FB78022B06D17B68E8
:101368001B6810211846FFF751FC31E07B681B68A9
:10137800194A934213D07B681B68184A93420ED0CF
:101388007B681B68164A934209D07B681B68154A1C
:10139800934204D07B681B68134A934218D1FB78A8
:1013A800032B06D17B681B6840211846FFF72EFCEB
:1013B8000EE0FB78042B0BD17B681B6810211846C4
:1013C800FFF724FC7B681B6840211846FFF71EFCCA
:1013D80000BF0837BD4680BD002C014000340140E5
:1013E80000400140004401400048014080B582B0FF
:1013F80000AF78600B46FB70FB78022B06D17B6848
:101408001B6810211846FFF712FC31E07B681B6847
:10141800194A934213D07B681B68184A93420ED02E
:101428007B681B68164A934209D07B681B68154A7B
:10143800934204D07B681B68134A934218D1FB7807
:10144800032B06D17B681B6840211846FFF7EFFB8A
:101458000EE0FB78042B0BD17B681B681021184623
:10146800FFF7E5FB7B681B6840211846FFF7DFFBA9
:1014780000BF0837BD4680BD002C01400034014044
:1014880000400140004401400048014080B582B05E
:1014980000AF78600B46FB70FB78022B07D17B68A6
:1014A8001B684FF480711846FFF7B0FB34E07B6887
:1014B8001B681B4A934213D07B681B68194A9342E6
:1014C8000ED07B681B68184A934209D07B681B685A
:1014D800164A934204D07B681B68154A93421BD175
:1014E800FB78032B07D17B681B684FF48061184693
:1014F800FFF78CFB10E0FB78042B0DD17B681B6891
:101508004FF480711846FFF781FB7B681B684FF426
:1015180080611846FFF77AFB00BF0837BD4680BDDB
:10152800002C0140003401400040014000440140CB
:101538000048014080B582B000AF78600B46FB7070
:10154800FB78022B07D17B681B684FF48071184623
:10155800FFF76DFB34E07B681B681B4A934213D08E
:101568007B681B68194A93420ED07B681B68184A2F
:10157800934209D07B681B68164A934204D07B6863
:101588001B68154A93421BD1FB78032B07D17B6854
:101598001B684FF480611846FFF749FB10E0FB78A1
:1015A800042B0DD17B681B684FF480711846FFF738
:1015B8003EFB7B681B684FF480611846FFF737FBDA
:1015C80000BF0837BD4680BD002C014000340140F3
:1015D80000400140004401400048014080B582B00D
:1015E80000AF78600B46FB70FB78022B06D17B6856
:1015F8001B684FF480511846FFF708FB00BF0837F7
:10160800BD4680BD80B582B000AF78600B46FB70E8
:10161800FB78022B06D17B681B684FF48051184673
:10162800FFF705FB00BF0837BD4680BD80B584B015
:1016380000AF78600023FB607B681B68304A9342E8
:1016480001D1304BFB607B681A68FB681A60FB6845
:101658001B681846FFF7B6FAB860BB68002B06D0BF
:10166800BB68102B03D0FB6801221A7102E0FB68EB
:1016780000221A71FB681B68234A934213D0FB6847
:101688001B68224A93420ED0FB681B68204A93428B
:1016980009D0FB681B681F4A934204D0FB681B688B
:1016A8001D4A934204D1FB681B681846FFF7D1FA1C
:1016B800FB681B68144A934213D0FB681B68134AE3
:1016C80093420ED0FB681B68114A934209D0FB680D
:1016D8001B68104A934204D0FB681B680E4A934269
:1016E80008D17B681B681846FFF784FA0346DAB20C
:1016F800FB685A71FB6818461037BD4680BD00BFAD
:1017080000040040C4020020002C014000340140C5
:1017180000400140004401400048014080B485B0C9
:1017280000AF786039603B68002B03D17B68403399
:10173800FB6001E0044BFB60FB6818461437BD46AC
:101748005DF8047B704700BF0C03045080B483B07D
:1017580000AF78607B68DB6803F44063002B01D13D
:10176800012300E0002318460C37BD465DF8047BD2
:10177800704780B483B000AF786039607B681B6BBA
:1017880023F00F023B681A437B681A6300BF0C37CB
:10179800BD465DF8047B704780B483B000AF7860C5
:1017A80039607B68DB6823F003023B681A437B6877
:1017B800DA6000BF0C37BD465DF8047B704780B423
:1017C80083B000AF78607B68DB6C03F0C003002B4C
:1017D80001D1012300E0002318460C37BD465DF80F
:1017E800047B704780B483B000AF78607B689B68E7
:1017F80023F0004323F03F0343F001027B689A6023
:1018080000BF0C37BD465DF8047B704780B483B0D9
:1018180000AF78607B689B6823F0004323F03F03A8
:1018280043F002027B689A6000BF0C37BD465DF842
:10183800047B704780B483B000AF78607B689B6896
:1018480003F00103012B01D1012300E00023184616
:101858000C37BD465DF8047B704780B483B000AF99
:10186800786039607B689B6823F0404323F03F032E
:101878003A6802F08042134343F000427B689A6062
:1018880000BF0C37BD465DF8047B704780B483B059
:1018980000AF78607B689B6803F00043B3F1004FAA
:1018A80001D1012300E0002318460C37BD465DF83E
:1018B800047B704780B483B000AF78607B689B6816
:1018C80023F0004323F03F0343F004027B689A604F
:1018D80000BF0C37BD465DF8047B704780B483B009
:1018E80000AF78607B689B6823F0004323F03F03D8
:1018F80043F008027B689A6000BF0C37BD465DF86C
:10190800047B704780B483B000AF78607B681B6845
:1019180003F00803082B01D1012300E00023184637
:101928000C37BD465DF8047B704780B483B000AFC8
:1019380078607B681B6803F01003102B01D101232A
:1019480000E0002318460C37BD465DF8047B70475D
:1019580080B483B000AF78607B6810221A6000BF43
:101968000C37BD465DF8047B704780B483B000AF88
:1019780078607B685B6843F008027B685A6000BF48
:101988000C37BD465DF8047B704780B483B000AF68
:1019980078607B685B6843F040027B685A6000BFF0
:1019A8000C37BD465DF8047B704780B483B000AF48
:1019B80078607B685B6823F008027B685A6000BF28
:1019C8000C37BD465DF8047B704780B483B000AF28
:1019D80078607B685B6823F010027B685A6000BF00
:1019E8000C37BD465DF8047B704780B483B000AF08
:1019F80078607B685B6823F040027B685A6000BFB0
:101A08000C37BD465DF8047B704780B483B000AFE7
:101A180078607B685B6823F080027B685A6000BF4F
:101A28000C37BD465DF8047B704780B483B000AFC7
:101A380078607B685B6803F01003102B01D10123E9
:101A480000E0002318460C37BD465DF8047B70475C
:101A580080B483B000AF78607B685B6803F0800374
:101A6800802B01D1012300E0002318460C37BD4626
:101A78005DF8047B7047000080B485B000AF7860E3
:101A880039607B68FB600C4A3B6813441B781A4634
:101A9800FB6813441B6808493A680A4412781146DF
:101AA800FA680A4443F00103136000BF1437BD46C7
:101AB8005DF8047B704700BF7407010880B485B0E7
:101AC80000AF786039607B68FB600C4A3B68134460
:101AD8001B781A46FB6813441B6808493A680A448D
:101AE80012781146FA680A4423F00103136000BF14
:101AF8001437BD465DF8047B704700BF74070108C2
:101B080080B485B000AF786039607B68FB60084AB4
:101B18003B6813441B781A46FB6813441B6803F0A0
:101B2800200318461437BD465DF8047B704700BF94
:101B38007407010880B487B000AFF860B9607A60B4
:101B4800FB687B610D4ABB6813441B781A467B69A6
:101B580013445B681B0C1B040849BA680A441278D2
:101B680011467A690A4411467A6813434B6000BFEC
:101B78001C37BD465DF8047B704700BF7407010839
:101B880080B487B000AFF860B9607A603B60FB68EA
:101B98007B613B6A102B14D1174ABB6813441B782E
:101BA8001A467B6913441A467B68D360124ABB689D
:101BB80013441B781A467B6913441A463B689360A2
:101BC80013E00D4ABB6813441B781A467B6913441B
:101BD8001A467B689360084ABB6813441B781A4608
:101BE8007B6913441A463B68D36000BF1C37BD4667
:101BF8005DF8047B704700BF7407010880B487B0A4
:101C080000AFF860B9607A60FB687B61074ABB681F
:101C180013441B781A467B6913441A467B68936001
:101C280000BF1C37BD465DF8047B70477407010888
:101C380080B483B000AF78607B681B6803F0200332
:101C4800202B01D1012300E0002318460C37BD46A4
:101C58005DF8047B704780B483B000AF78607B6820
:101C680020225A6000BF0C37BD465DF8047B7047E0
:101C780080B485B000AF786039607B68FB600C4A3F
:101C88003B6813441B781A46FB6813441B680849D1
:101C98003A680A4412781146FA680A4443F0020383
:101CA800136000BF1437BD465DF8047B704700BF62
:101CB8007407010880B485B000AF786039607B682C
:101CC800FB600C4A3B6813441B781A46FB681344B4
:101CD8001B6808493A680A4412781146FA680A44A7
:101CE80043F00803136000BF1437BD465DF8047B5A
:101CF800704700BF7407010880B485B000AF7860F2
:101D080039607B68FB600C4A3B6813441B781A46B1
:101D1800FB6813441B6808493A680A44127811465C
:101D2800FA680A4423F00203136000BF1437BD4663
:101D38005DF8047B704700BF7407010880B485B064
:101D480000AF786039607B68FB600C4A3B681344DD
:101D58001B781A46FB6813441B6808493A680A440A
:101D680012781146FA680A4423F00403136000BF8E
:101D78001437BD465DF8047B704700BF740701083F
:101D880080B485B000AF786039607B68FB600C4A2E
:101D98003B6813441B781A46FB6813441B680849C0
:101DA8003A680A4412781146FA680A4423F008038C
:101DB800136000BF1437BD465DF8047B704700BF51
:101DC8007407010880B485B000AF786039607B681B
:101DD800FB600A4A3B6813441B781A46FB681344A5
:101DE8001B6803F00203022B01D1012300E000234A
:101DF80018461437BD465DF8047B70477407010820
:101E080080B584B000AF78600123FB817B681B69D3
:101E18001846FFF79BFC0346002B2FD07B685B7AA4
:101E2800DBB2022B11D07B685B7ADBB2042B0CD0BF
:101E38007B685B7ADBB2082B07D07B681B69184686
:101E4800FFF760FD0346012B18D1786800F0F8F819
:101E58000346002B12D17B685B7ADBB2082B03D1D7
:101E68007B6801225A7202E07B6820225A727B68E2
:101E78001B691846FFF71EFD0023FB81FB891846E6
:101E88001037BD4680BD80B586B002AFF860B96036
:101E98007A603B600021F868FFF740FC03461A4669
:101EA8007968B868FFF7AAFE0021F868FFF736FCE2
:101EB80002463B68002100917968B868FFF760FE28
:101EC800BA697968B868FFF735FE7968B868FFF7C6
:101ED800CFFE7968B868FFF7EDFE7968B868FFF754
:101EE800CBFD00BF1037BD4680BD80B584B000AFC4
:101EF800F860B9607A607968B868FFF7DFFD7968DB
:101F0800B868FFF71BFF7968B868FFF739FF796889
:101F1800B868FFF7F1FE00227968B868FFF70AFE93
:101F280000BF1037BD4680BD80B584B000AF786073
:101F380039600223FB737B68DB79012B0FD17B6847
:101F4800DA687B681B685B00D118FB7B7A681268CB
:101F580002FB03F31A4638680EF0C2FB0AE07B68FE
:101F6800D968FB7B7A68126802FB03F31A46386863
:101F78000EF0B6FB00BF1037BD4680BD80B586B0F9
:101F880000AFF860B9607A60FB685A69FB689B79B2
:101F980019461046FFF716FF0346DBB2012B37D16F
:101FA800FB685A69BB68104698470346012B2FD136
:101FB800FB6804225A72FB685A697B681046984786
:101FC800FB685A69FB689B7919461046FFF798FD2C
:101FD8000346002B19D1FB685A69FB689B7919469F
:101FE8001046FFF76BFDFB685869FB689B7919463B
:101FF800FB681B681A46FFF79DFDFB685A69FB687A
:102008009B7919461046FFF737FD0123FB7501E060
:102018000023FB75FB7D18461837BD4680BD0000C0
:1020280080B500AF034A04490448FFF7A7FF00BF83
:1020380080BD00BF5F1C0008391C00085003002049
:1020480080B582B000AF78607B681B691846FFF7DF
:102058006CFC0346DBB2012B07D17B681B69184671
:10206800FFF776FC7B6810225A727B685B7ADBB2DA
:10207800102B0CBF01230023DBB218460837BD46DE
:1020880080BD80B582B000AF78600B46FB70FB78EE
:10209800012B0DD17B681B691846FFF757FB0346D8
:1020A800012B12D07B681B691846FFF703FC0CE074
:1020B8007B681B691846FFF782FB0346012B04D097
:1020C8007B681B691846FFF709FC00BF0837BD4647
:1020D80080BD000090B589B002AFF860084611468F
:1020E8001A4603467B810B463B811346FB8000233F
:1020F8007B61FB681B693C4A934201D13B4B7B6186
:102108007B69002B6BD0FB681A697B691A617B6954
:102118000022DA71FB88012B61D03B89002B47D064
:102128007B695B7ADBB2082B42D0FB68DA687B6993
:10213800DA60FB681A687B691A60FB685A697B6910
:102148005A61FB689A797B699A71FB681A797B698D
:102158001A717B691B69B96A1846FFF70AFB7B8904
:10216800012B21D07B89042B16D17B691B690321A4
:102178001846FFF711FB7B6918697B6959697B6908
:102188009B791C467B69DA687B691B680093134658
:102198002246FFF778FE07E07B89022B04D17B6992
:1021A8001B691846FFF7E1FB7B6908225A7216E0A3
:1021B8003B89002B13D17B699B7ADBB2082B0ED0AD
:1021C800FB685A797B695A717B89022B04D17B6938
:1021D8001B691846FFF7D9FB7B6908229A727B694D
:1021E80018461C37BD4690BD00010450500300201E
:1021F80080B582B000AF78607B681B691846FFF72E
:1022080019FB0346002B04D17B681B691846FFF7AE
:10221800E9FA00BF0837BD4680BD80B586B000AF7B
:10222800F8600B467A607B810123FB82FB681B699F
:10223800002B46D07B89012B05D1F868FFF7E0FD1C
:102248000346FB823DE07B89042B1FD1FB681B6999
:102258001846FFF77BFA0346002B32D0FB680122B1
:102268005A72FB681B691846FFF724FB00BFFB681E
:102278005B7ADBB2042BFAD17968F868FFF754FE71
:10228800FB6808225A720023FB821AE07B89022B22
:1022980017D1FB685B7ADBB2202B09D0FB685B7A2D
:1022A800DBB2042B04D0FB685B7ADBB2102B08D1BD
:1022B800FB6808225A727968F868FFF735FE002330
:1022C800FB82FB8A18461837BD4680BD80B582B0B0
:1022D80000AF78600B467B8013463B807B681B69A8
:1022E8001846FFF7A7FA0346002B04D07B681B6942
:1022F8001846FFF78BFA7B681B691846FFF7A8FB9F
:102308000346002B04D07B681B691846FFF77DFB4A
:102318007B681B691846FFF788FB0346002B04D02F
:102328007B681B691846FFF750FB3B88002B35D0AC
:102338007B88012B1AD07B88022B05D17B681B690F
:102348001846FFF732FB11E07B88042B0ED17B681F
:1023580018697B6859697B689B791A46FFF7C5FD40
:102368007B681B6900211846FFF716FA7B68002274
:10237800DA607B6800221A607B6800225A617B68F9
:1023880000229A717B6800221A717B681A697B683F
:102398001B7919461046FFF7ECF90AE07B68002222
:1023A8005A717B88022B04D17B681B691846FFF79A
:1023B8001CFB00BF0837BD4680BD000080B584B057
:1023C80000AF78600B46FB707B681B691846FFF707
:1023D80031FA0346FB7397F90F30012B04D17B6860
:1023E8001B691846FFF712FAFB78002B0FD17B68A0
:1023F8001B697F211846FFF730FA00BF7B681B690D
:102408001846FFF743FA0346012BF7D040E0FB7864
:10241800012B0FD17B681B692C491846FFF71DFA61
:1024280000BF7B681B691846FFF730FA0346012B8B
:10243800F7D02DE07B681B697F211846FFF70DFA5E
:1024480000BF7B681B691846FFF720FA0346012B7B
:10245800F7D00023BB8107E000BFBB891BB29BB24A
:1024680001339BB21BB2BB81BB891BB29BB2032B4E
:10247800F2D97B681B6915491846FFF7EEF900BFCA
:102488007B681B691846FFF701FA0346012BF7D052
:102498000023BB8107E000BFBB891BB29BB201339D
:1024A8009BB21BB2BB81BB891BB29BB2032BF2D977
:1024B80097F90F30012B04D17B681B691846FFF789
:1024C80091F900BF1037BD4680BD00BF00007F40B6
:1024D80080B483B000AF78607B681B6843F001026A
:1024E8007B681A6000BF0C37BD465DF8047B7047F7
:1024F80080B483B000AF78607B681B6823F001026A
:102508007B681A6000BF0C37BD465DF8047B7047D6
:1025180080B483B000AF786039607B681B6823F0B3
:1025280004023B681A437B681A6000BF0C37BD463B
:102538005DF8047B704780B483B000AF78607B6837
:102548001B6803F0040318460C37BD465DF8047B8E
:10255800704780B483B000AF78607B68DB6A184648
:102568000C37BD465DF8047B704780B483B000AF7C
:10257800786039607B683A681A6300BF0C37BD46DB
:102588005DF8047B704780B483B000AF7860396031
:102598007B683A685A6300BF0C37BD465DF8047B18
:1025A800704780B483B000AF786039607B683A6860
:1025B8009A6300BF0C37BD465DF8047B704780B452
:1025C80083B000AF786039607B683A68DA6300BF2F
:1025D8000C37BD465DF8047B704780B483B000AF0C
:1025E800786039607B683A681A6400BF0C37BD466A
:1025F8005DF8047B704780B483B000AF78607B6877
:102608005B6B18460C37BD465DF8047B704780B499
:1026180083B000AF78607B689B6B18460C37BD466B
:102628005DF8047B704780B483B000AF78607B6846
:10263800DB6B18460C37BD465DF8047B704780B4E9
:1026480083B000AF78607B681B6C18460C37BD46BA
:102658005DF8047B704780B483B000AF78607B6816
:102668005B6943F001027B685A6100BF0C37BD46C5
:102678005DF8047B704780B483B000AF78607B68F6
:102688001B6918460C37BD465DF8047B704780B45B
:1026980083B000AF786039607B683A689A6100BFA0
:1026A8000C37BD465DF8047B704780B483B000AF3B
:1026B800786039607B683A689A6200BF0C37BD461B
:1026C8005DF8047B7047000080B584B000AF786087
:1026D80087ED000AD7ED007AF5EEC07AF1EE10FA30
:1026E80003D54FF000033B600AE0D7ED007A9FED79
:1026F800167AF4EEC77AF1EE10FA01DD134B3B605F
:102708007B681B681846FFF724FFF8607B681B7915
:10271800002B0CBF01230023DBB21A46FB681344CD
:1027280007EE903AB8EE677AD7ED007A27EE277A67
:10273800DFED056AC7EE267AFCEEE77A17EE903AE7
:1027480018461037BD4680BD0000C8420000C84288
:1027580080B582B000AF786039607B681B68184626
:10276800FFF749FF02463B68934205D07B681B6828
:1027780039681846FFF707FF00BF0837BD4680BD18
:1027880080B582B000AF786039607B681B681846F6
:10279800FFF73DFF02463B68934205D07B681B6804
:1027A80039681846FFF7FDFE00BF0837BD4680BDF3
:1027B80080B582B000AF786039607B681B681846C6
:1027C800FFF731FF02463B68934205D07B681B68E0
:1027D80039681846FFF7F3FE00BF0837BD4680BDCD
:1027E80080B582B000AF786039607B681B68184696
:1027F800FFF725FF02463B68934205D07B681B68BC
:1028080039681846FFF7E9FE00BF0837BD4680BDA6
:1028180080B584B000AF786087ED000A97ED000AB4
:102828007868FFF751FFF860F9687868FFF790FF5C
:1028380000BF1037BD4680BD80B584B000AF78605A
:1028480087ED000A97ED000A7868FFF73DFFF8600A
:10285800F9687868FFF794FF00BF1037BD4680BD60
:1028680080B584B000AF786087ED000A97ED000A64
:102878007868FFF729FFF860F9687868FFF798FF2C
:1028880000BF1037BD4680BD80B584B000AF78600A
:1028980087ED000A97ED000A7868FFF715FFF860E2
:1028A800F9687868FFF79CFF00BF1037BD4680BD08
:1028B80080B485B000AF78607B681B689A68074B66
:1028C8001340FB60FB68062B0CBF01230023DBB21F
:1028D80018461437BD465DF8047B704707000100B1
:1028E80080B584B000AF78600B46FB707B681B68CE
:1028F8001846FFF720FEF860FB78002B1ED07B6897
:102908001B68324A934213D07B681B68304A934253
:102918000ED07B681B682F4A934209D07B681B68DE
:102928002D4A934204D07B681B682C4A934205D1F8
:102938007B681B6800211846FFF717FEFB68042B0D
:1029480011D07B681B6804211846FFF7E1FD7B68FE
:102958001B681846FFF77FFE7B681B68F9681846F6
:10296800FFF7D6FD04E07B681B681846FFF773FE87
:102978007B681B681846FFF7ABFDFB78002B20D05F
:102988007B681B68114A934213D07B681B68104A06
:1029980093420ED07B681B680E4A934209D07B682D
:1029A8001B680D4A934204D07B681B680B4A93420C
:1029B80007D17B681A687B685B7919461046FFF770
:1029C800D4FD00BF1037BD4680BD00BF002C0140BC
:1029D80000340140004001400044014000480140EB
:1029E80080B582B000AF78607B681B681846FFF737
:1029F8007FFD00BF0837BD4680BD80B485B000AFFD
:102A0800786039607B68012283F8D8203B68D3E975
:102A180000237968C1E902237B6801221A60002338
:102A2800FB600CE07B68D3E902237868F96802311F
:102A3800C9000144C1E90023FB680133FB60FB685E
:102A4800182BEFDD00BF00BF1437BD465DF8047BCF
:102A5800704780B586B000AF87ED040BF860B960A9
:102A68007A60BB68D3E902017B68D3E90023FDF7EC
:102A7800ABFF0346002B05D17B68D3E90023B96877
:102A8800C1E90223F868BB681033C82219460DF063
:102A980027FEF968D7E90423C1E93223FB6803F16B
:102AA800D000BB681033C02219460DF019FEBB6870
:102AB80003F11000FB68C833C82219460DF010FE58
:102AC80000BF1837BD4680BD80B485B000AF7860C0
:102AD80039607B68012283F860203B68D3E90023D2
:102AE8007968C1E902237B6801221A600023FB6030
:102AF8000CE07B68D3E902237868F9680231C900E1
:102B08000144C1E90023FB680133FB60FB68092B22
:102B1800EFDD00BF00BF1437BD465DF8047B70478A
:102B280080B586B000AF87ED040BF860B9607A60B5
:102B3800BB68D3E902017B68D3E90023FDF744FFB2
:102B48000346002B05D17B68D3E90023B968C1E9A6
:102B58000223F868BB681033502219460DF0C0FDF7
:102B6800F968D7E90423C1E91423FB6803F1580085
:102B7800BB681033482219460DF0B2FDBB6803F15B
:102B88001000FB685033502219460DF0A9FD00BF14
:102B98001837BD4680BD000080B584B000AF87ED12
:102BA800000B38687B6823F000414FF000022C4B83
:102BB800FDF714FF0346002B42D04FF00002294BCB
:102BC800D7E90001FDF71EFF0346002B13D04FF095
:102BD8000002244BD7E90001FDF7D8FA02460B465C
:102BE80043EC172BB0EE470AF0EE670A0DF07CFBBA
:102BF80087ED020B28E04FF000021B4BD7E90001DC
:102C0800FDF70AFF0346002B06D04FF000024FF0F5
:102C18000003C7E9022317E04FF00002114BD7E980
:102C28000001FDF7B1FA02460B4643EC172BB0EE54
:102C3800470AF0EE670A0DF0CFFA87ED020B03E0C2
:102C4800D7E90023C7E90223D7E9022343EC172B6E
:102C5800B0EE470AF0EE670A1037BD4680BD00BFE8
:102C6800000030430000E03F0000E0BF80B58CB0BA
:102C780002AF78607B6800221A727B6801225A6072
:102C88007B681033BB6100237B741A4BFB611A4BC2
:102C98003B620123BB74002387F82430022387F8A2
:102CA80025300923FB6009233B7407F10C00082336
:102CB8000093042301220421FFF70CFA02467B68E3
:102CC800DA607B68DB6802211846FFF777FB7B68D0
:102CD800DB681846FFF78CFA7B68DB680121184629
:102CE800FFF7CFF97B6801221A7200BF2837BD466B
:102CF80080BD00BF000104500000024080B5A6B0AE
:102D080000AF78601A4BBB6000233B7300237B73D2
:102D180007F108031846FEF789FC02467B68DA606B
:102D28007B68DB6800211846FEF73BF97B68DB68A7
:102D380002211846FEF7AAFB7B68DB6802211846C9
:102D4800FEF74CFC7B68DB681846FFF7B1FD0346CD
:102D580087F8973097F89730002B05D17B68DB68A8
:102D680000211846FFF7BCFD00BF9837BD4680BD5F
:102D78000004004080B5A6B000AF78601A4BBB6075
:102D880000233B7300237B7307F108031846FEF703
:102D98004DFC02467B68DA607B68DB6800211846D8
:102DA800FEF7FFF87B68DB6802211846FEF72EFA6B
:102DB8007B68DB6802211846FEF7C8FA7B68DB6887
:102DC8001846FFF775FD034687F8973097F8973050
:102DD800002B05D17B68DB6800211846FFF780FDD2
:102DE80000BF9837BD4680BD0004004000000000C9
:102DF800B0B5B0B000AFA54BDB68A54A04211846B2
:102E0800FFF70BFAA24BDB89A24A1382A04B1B885F
:102E1800A04AD3839E4B9B899E4A53829C4B5B88D6
:102E28009C4A93839A4B5B899A4A9382984B9B88D6
:102E3800984A5383964B1B89964AD382944BDB88D6
:102E4800944A13830023C7F88C300FE0914AD7F8CF
:102E58008C30083332F813308E49D7F88C2021F89B
:102E68001230D7F88C300133C7F88C30D7F88C3053
:102E7800072BEBDD874B1B881846FDF7C3FA044682
:102E88000D46854A8549864845EC104BFFF7E1FD1C
:102E9800804B03F5DC6353E902237E49C1E91E2315
:102EA8000023C7F88C301EE0D7F88C300133794AFC
:102EB800DB33DB001344D3E90023C7E92423754B34
:102EC800D3E91E23D7E92401FDF7A6FD0346002B0D
:102ED80004D07049D7E92423C1E91E23D7F88C30E0
:102EE8000133C7F88C30D7F88C30172BDCDD694BF1
:102EF8005B881846FDF786FA04460D46694A6A4912
:102F08006A4845EC104BFFF70BFE624B03F5526322
:102F180053E902235F49C1E920230023C7F88C3015
:102F28001FE0D7F88C3001335A4A03F2A313DB00B1
:102F38001344D3E90023C7E92423564BD3E92023BC
:102F4800D7E92401FDF768FD0346002B04D0514959
:102F5800D7E92423C1E92023D7F88C300133C7F8F7
:102F68008C30D7F88C30082BDBDD4A4B93ED207B77
:102F78004F4A50495048B0EE470AF0EE670AFFF74B
:102F880068FD444B03F57F6353E90223C7E9262311
:102F98000023C7F88C301DE0D7F88C3001333D4A48
:102FA80003F2FD13DB001344D3E90023C7E924230C
:102FB800D7E92423D7E92601FDF72EFD0346002B88
:102FC80003D0D7E92423C7E92623D7F88C30013367
:102FD800C7F88C30D7F88C30172BDDDD2D4B9B884C
:102FE8001846FDF70FFA04460D46344A3449354869
:102FF80045EC104BFFF72DFD264B03F5076353E90E
:1030080002232449C1E920230023C7F88C301FE09C
:10301800D7F88C3001331F4A03F20D13DB00134439
:10302800D3E90023C7E924231A4BD3E92023D7E99E
:103038002401FDF7F1FC0346002B04D01549D7E91C
:103048002423C1E92023D7F88C300133C7F88C300A
:10305800D7F88C30172BDBDD0E4BDB881846FDF7D5
:10306800D1F904460D46184A1849194845EC104B41
:10307800FFF7EFFC074B03F5AA6353E90223054961
:10308800C1E922230023C7F88C3042E058150020FC
:103098008C030020E0030020880000205019002045
:1030A800B80A0020A8000020D01C0020F81000203A
:1030B800C0000020801E0020C813002090000020BF
:1030C800301A0020480C00208000002070180020D2
:1030D80028090020D7F88C3001338B4AA933DB004C
:1030E8001344D3E90023C7E92423874BD3E92223D8
:1030F800D7E92401FDF790FC0346002B04D0824950
:10310800D7E92423C1E92223D7F88C300133C7F843
:103118008C30D7F88C30172BDCDD7B4B1B8918469D
:10312800FDF770F904460D46784A7949794845EC27
:10313800104BFFF78EFC744BD3E9EE23C7E92E231F
:103148000023C7F88C301CE0D7F88C3001336E4A66
:103158007733DB001344D3E90023C7E92423D7E9F5
:103168002423D7E92E01FDF739FC0346002B03D0B1
:10317800D7E92423C7E92E23D7F88C300133C7F8C1
:103188008C30D7F88C30172BDEDD5F4B5B89184607
:10319800FDF738F904460D465F4A6049604845EC3A
:1031A800104BFFF756FC584BD3E98A23C7E92C2369
:1031B8000023C7F88C301CE0D7F88C300133524A12
:1031C8004533DB001344D3E90023C7E92423D7E9B7
:1031D8002423D7E92C01FDF701FC0346002B03D07B
:1031E800D7E92423C7E92C23D7F88C300133C7F853
:1031F8008C30D7F88C30172BDEDD434B9B89184673
:10320800FDF700F904460D46464A4749474845EC4C
:10321800104BFFF785FC3C4B03F55C6353E9022335
:10322800C7E92A230023C7F88C301DE0D7F88C3073
:103238000133354A03F2B713DB001344D3E9002303
:10324800C7E92423D7E92423D7E92A01FDF7C6FBD8
:103258000346002B03D0D7E92423C7E92A23D7F84C
:103268008C300133C7F88C30D7F88C30082BDDDD73
:103278002F4A3049304897ED2A0BFFF7EAFB224BDB
:1032880003F5666353E90223C7E928230023C7F837
:103298008C301DE0D7F88C3001331B4A03F2CB1376
:1032A800DB001344D3E90023C7E92423D7E9242307
:1032B800D7E92801FDF7B0FB0346002B03D0D7E977
:1032C8002423C7E92823D7F88C300133C7F88C307A
:1032D800D7F88C30172BDDDD0B4BDB891846FDF753
:1032E80091F804460D46154A1549164845EC104B09
:1032F800FFF7AFFB044BD3E92623C7E92A230023B2
:10330800C7F88C303DE000BFE003002078000020C3
:10331800901700209807002070000020B0160020A9
:1033280008060020B0000020381D00209811002059
:10333800B8000020A01D00203812002068000020DE
:10334800D015002078040020D7F88C300133B64A15
:103358001333DB001344D3E90023C7E92423D7E957
:103368002423D7E92A01FDF739FB0346002B03D0B4
:10337800D7E92423C7E92A23D7F88C300133C7F8C3
:103388008C30D7F88C30172BDEDDA74B93ED1E7BE6
:10339800B0EE470AF0EE670A0CF0A6FFB0EE407AEE
:1033A800F0EE607A9FED9E1BB0EE470AF0EE670ADA
:1033B8000CF0DAFE87ED240B4FF000024FF000030B
:1033C800D7E92401FDF70AFB0346002B10D0D7F8F4
:1033D8009030BB67D7F8943083F00043FB67D7E998
:1033E8001E01FDF739FB03469BB25B429BB205E029
:1033F800D7E92401FDF730FB03469BB28B4A1380C3
:1034080097ED260B0CF070FFB0EE407AF0EE607A84
:103418009FED831BB0EE470AF0EE670A0CF0A4FE9E
:1034280087ED240B4FF000024FF00003D7E9240189
:10343800FDF7D4FA0346002B10D0D7F890303B673D
:10344800D7F8943083F000437B67D7E91C01FDF778
:1034580003FB03469BB25B429BB205E0D7E924011C
:10346800FDF7FAFA03469BB2704A53806E4B93ED10
:10347800207BB0EE470AF0EE670A0CF035FFB0EE9D
:10348800407AF0EE607A9FED661BB0EE470AF0EEE8
:10349800670A0CF069FE87ED240B4FF000024FF02D
:1034A8000003D7E92401FDF799FA0346002B10D051
:1034B800D7F89030BB66D7F8943083F00043FB66AA
:1034C800D7E91A01FDF7C8FA03469BB25B429BB2E3
:1034D80005E0D7E92401FDF7BFFA03469BB2534A3A
:1034E8009380514B93ED227BB0EE470AF0EE670ACA
:1034F8000CF0FAFEB0EE407AF0EE607A9FED481BD1
:10350800B0EE470AF0EE670A0CF02EFE87ED240BAA
:103518004FF000024FF00003D7E92401FDF75EFAEF
:103528000346002B10D0D7F890303B66D7F894307C
:1035380083F000437B66D7E91801FDF78DFA03464F
:103548009BB25B429BB205E0D7E92401FDF784FA00
:1035580003469BB2354AD38097ED2E0B0CF0C4FE80
:10356800B0EE407AF0EE607A9FED2D1BB0EE470A80
:10357800F0EE670A0CF0F8FD87ED240B4FF000021F
:103588004FF00003D7E92401FDF728FA0346002B82
:1035980010D0D7F89030BB65D7F8943083F000434B
:1035A800FB65D7E91601FDF757FA03469BB25B4264
:1035B8009BB205E0D7E92401FDF74EFA03469BB21A
:1035C8001A4A138197ED2C0B0CF08EFEB0EE407A60
:1035D800F0EE607A9FED121BB0EE470AF0EE670A34
:1035E8000CF0C2FD87ED240B4FF000024FF00003F2
:1035F800D7E92401FDF7F2F90346002B18D0D7F8D4
:1036080090303B65D7F8943083F000437B65D7E969
:103618001401FDF721FA03469BB25B429BB20DE011
:10362800000000000000F040E0030020A00300209C
:10363800D7E92401FDF710FA03469BB2A24A538149
:1036480097ED280B0CF050FEB0EE407AF0EE607A61
:103658009FED9B1BB0EE470AF0EE670A0CF084FD65
:1036680087ED240B4FF000024FF00003D7E9240147
:10367800FDF7B4F90346002B10D0D7F89030BB649F
:10368800D7F8943083F00043FB64D7E91201FDF7C3
:10369800E3F903469BB25B429BB205E0D7E92401FC
:1036A800FDF7DAF903469BB2874A938197ED2A0B17
:1036B8000CF01AFEB0EE407AF0EE607A9FED801BB7
:1036C800B0EE470AF0EE670A0CF04EFD87ED240BCA
:1036D8004FF000024FF00003D7E92401FDF77EF90F
:1036E8000346002B10D0D7F890303B64D7F89430BD
:1036F80083F000437B64D7E91001FDF7ADF9034679
:103708009BB25B429BB205E0D7E92401FDF7A4F91F
:1037180003469BB26C4AD3816C4BB3F85A306A4A61
:1037280013826B4B03F5DC6353E90223C7E92623B5
:103738000023C7F88C301CE0D7F88C300133644A7A
:10374800DB33DB001344D3E90023C7E92423D7E99B
:103758002423D7E92601FDF75FF90346002B03D0A0
:10376800D7E92423C7E92623D7F88C300133C7F8D3
:103778008C30D7F88C30172BDEDD554B5B8818461C
:10378800FCF740FE04460D46524A5349534845EC5F
:10379800104BFFF75EF94E4B03F5396353E90223EB
:1037A800C7E928230023C7F88C301DE0D7F88C30F0
:1037B8000133474A03F27113DB001344D3E90023B2
:1037C800C7E92423D7E92423D7E92801FDF724F9F9
:1037D8000346002B03D0D7E92423C7E92823D7F8C9
:1037E8008C300133C7F88C30D7F88C30172BDDDDDF
:1037F800374B03F5076353E902233549C1E9202311
:103808000023C7F88C301FE0D7F88C300133304ADA
:1038180003F20D13DB001344D3E90023C7E9242383
:103828002B4BD3E92023D7E92401FDF7D7F803462A
:10383800002B04D02649D7E92423C1E92023D7F84F
:103848008C300133C7F88C30D7F88C30172BDBDD80
:103858001F4B03F5AA6353E902231D49C1E922233B
:103868000023C7F88C301EE0D7F88C300133184A93
:10387800A933DB001344D3E90023C7E92423144BFD
:10388800D3E92223D7E92401FDF7A8F80346002B42
:1038980004D00F49D7E92423C1E92223D7F88C3073
:1038A8000133C7F88C30D7F88C30172BDCDD084B88
:1038B800D3E9EE23C7E92E230023C7F88C302CE088
:1038C800000000000000F040A003002000000020DD
:1038D800E0030020A0000020F01B0020680F00205B
:1038E800D7F88C300133AA4A7733DB001344D3E985
:1038F8000023C7E92423D7E92423D7E92E01FDF7BC
:103908008BF80346002B03D0D7E92423C7E92E23DD
:10391800D7F88C300133C7F88C30D7F88C30172B98
:10392800DEDD9B4BD3E98A23C7E92C230023C7F8A4
:103938008C301CE0D7F88C300133954A4533DB00D6
:103948001344D3E90023C7E92423D7E92423D7E97B
:103958002C01FDF761F80346002B03D0D7E9242397
:10396800C7E92C23D7F88C300133C7F88C30D7F847
:103978008C30172BDEDD864B9B891846FCF742FD01
:1039880004460D46834A8449844845EC104BFFF7AA
:1039980060F87F4B03F5206353E90223C7E92A2324
:1039A8000023C7F88C301DE0D7F88C300133784AF3
:1039B80003F23F13DB001344D3E90023C7E92423B0
:1039C800D7E92423D7E92A01FDF726F80346002B77
:1039D80003D0D7E92423C7E92A23D7F88C30013349
:1039E800C7F88C30D7F88C30172BDDDD684BD3E95E
:1039F80026236749C1E91E230023C7F88C301EE03F
:103A0800D7F88C300133624A1333DB001344D3E90F
:103A18000023C7E924235E4BD3E91E23D7E92401F9
:103A2800FCF7DCFF0346002B04D05949D7E92423CF
:103A3800C1E91E23D7F88C300133C7F88C30D7F88A
:103A48008C30172BDCDD97ED260B0CF04DFCB0EE1F
:103A5800407AF0EE607A9FED4C1BB0EE470AF0EE2C
:103A6800670A0CF081FB87ED240B4FF000024FF042
:103A78000003D7E92401FCF7B1FF0346002B10D05F
:103A8800D7F89030BB63D7F8943083F00043FB63DA
:103A9800D7E90E01FCF7E0FF03469BB25B429BB2FD
:103AA80005E0D7E92401FCF7D7FF03469BB23C4A5F
:103AB800138097ED280B0CF017FCB0EE407AF0EE6F
:103AC800607A9FED311BB0EE470AF0EE670A0CF002
:103AD8004BFB87ED240B4FF000024FF00003D7E9B2
:103AE8002401FCF77BFF0346002B10D0D7F8903059
:103AF8003B63D7F8943083F000437B63D7E90C012C
:103B0800FCF7AAFF03469BB25B429BB205E0D7E9EC
:103B18002401FCF7A1FF03469BB2214A53801C4BAA
:103B280093ED207BB0EE470AF0EE670A0CF0DCFB61
:103B3800B0EE407AF0EE607A9FED131BB0EE470AC4
:103B4800F0EE670A0CF010FB87ED240B4FF0000233
:103B58004FF00003D7E92401FCF740FF0346002B90
:103B680020D0D7F89030BB62D7F8943083F0004368
:103B7800FB62D7E90A01FCF76FFF03469BB25B4281
:103B88009BB215E0AFF30080000000000000F04099
:103B9800E003002098000020101B0020D80D002012
:103BA800B4030020D7E92401FCF756FF03469BB273
:103BB800BD4A9380BD4B93ED227BB0EE470AF0EEF1
:103BC800670A0CF091FBB0EE407AF0EE607A9FED58
:103BD800B41BB0EE470AF0EE670A0CF0C5FA87EDA1
:103BE800240B4FF000024FF00003D7E92401FCF743
:103BF800F5FE0346002B10D0D7F890303B62D7F87B
:103C0800943083F000437B62D7E90801FCF724FF76
:103C180003469BB25B429BB205E0D7E92401FCF75F
:103C28001BFF03469BB2A04AD38097ED2E0B0CF0E6
:103C38005BFBB0EE407AF0EE607A9FED991BB0EE38
:103C4800470AF0EE670A0CF08FFA87ED240B4FF065
:103C580000024FF00003D7E92401FCF7BFFE03463A
:103C6800002B10D0D7F89030BB61D7F8943083F090
:103C78000043FB61D7E90601FCF7EEFE03469BB261
:103C88005B429BB205E0D7E92401FCF7E5FE034659
:103C98009BB2854A138197ED2C0B0CF025FBB0EEF7
:103CA800407AF0EE607A9FED7E1BB0EE470AF0EEA8
:103CB800670A0CF059FA87ED240B4FF000024FF019
:103CC8000003D7E92401FCF789FE0346002B10D036
:103CD800D7F890303B61D7F8943083F000437B618C
:103CE800D7E90401FCF7B8FE03469BB25B429BB2DE
:103CF80005E0D7E92401FCF7AFFE03469BB26A4A08
:103D0800538197ED2A0B0CF0EFFAB0EE407AF0EE03
:103D1800607A9FED631BB0EE470AF0EE670A0CF07D
:103D280023FA87ED240B4FF000024FF00003D7E988
:103D38002401FCF753FE0346002B10D0D7F890302F
:103D4800BB60D7F8943083F00043FB60D7E90201E9
:103D5800FCF782FE03469BB25B429BB205E0D7E9C3
:103D68002401FCF779FE03469BB24F4A93814F4BDF
:103D780093ED1E7BB0EE470AF0EE670A0CF0B4FA3A
:103D8800B0EE407AF0EE607A9FED451BB0EE470A40
:103D9800F0EE670A0CF0E8F987ED240B4FF000020B
:103DA8004FF00003D7E92401FCF718FE0346002B67
:103DB80010D0D7F890303B60D7F8943083F00043A8
:103DC8007B60D7E90001FCF747FE03469BB25B42E4
:103DD8009BB205E0D7E92401FCF73EFE03469BB2FF
:103DE800314AD381324BB3F85C202F4B1A8200231F
:103DF800C7F88C3010E02F4AD7F88C3013440022D3
:103E08001A702D4AD7F88C30002122F81310D7F8F1
:103E18008C300133C7F88C30D7F88C30072BEADDAB
:103E2800264B00221A60264B00221A60254B93F875
:103E38007530022B07D8234B93F875300133DAB26B
:103E4800204B83F875201F4B93F8703003F0400324
:103E5800DBB2002B18D11B4A92F8703043F04003B4
:103E680082F87030174B002283F87520154A92F8B3
:103E7800703043F0180382F870300C494FF000029C
:103E8800114BC1E91A234BE10E4B93F87030C3F381
:103E9800C103DBB2012B19D0022B00F09480B2E0F1
:103EA800000000000000F040B4030020E003002000
:103EB80000000020D8030020C8030020840300204D
:103EC80088030020581500200000F03FB34B93F8FA
:103ED8007530012B18D9B2494FF000024FF000039A
:103EE800C1E91C23AD4B002283F87520AB4A92F838
:103EF800703043F0180382F87030A9494FF000027F
:103F0800A84BC1E91A230BE1A74BB3F858301A465E
:103F1800A64BDB8802FB03F31846FCF773FA4FF055
:103F28000002A34BFCF7E8FA02460B461046194676
:103F38009D4BD3E90423FCF709FC02460B4643ECEE
:103F4800172BB0EE470AF0EE670AFEF725FE51EC94
:103F5800100B954BD3E90423FCF7CEFA02460B4627
:103F68008F49C1E91423904BB3F858301A468F4B48
:103F78001B8902FB03F31846FCF744FA4FF00002D2
:103F88008B4BFCF7B9FA02460B4610461946864B8E
:103F9800D3E90423FCF7DAFB02460B4643EC172B64
:103FA800B0EE470AF0EE670AFEF7F6FD51EC100B8B
:103FB8007D4BD3E90423FCF79FFA02460B46784968
:103FC800C1E91623ACE0754B93F87530012B40F22C
:103FD800A68073494FF000024FF00003C1E918238F
:103FE8006E4B002283F875206C4A92F870300121DC
:103FF80061F3C40382F8703069494FF00002694BDD
:10400800C1E91C238BE0654B93F87530012B19D956
:1040180063494FF000024FF00003C1E91A235F4BD8
:10402800002283F875205D4A92F87030022161F30E
:10403800C40382F870305A494FF00002594BC1E965
:1040480018236DE0584BB3F858301A46574B5B8825
:1040580002FB03F31846FCF7D5F94FF00002544B66
:10406800FCF74AFA02460B46104619464E4BD3E96E
:104078000423FCF76BFB02460B4643EC172BB0EE10
:10408800470AF0EE670AFEF787FD51EC100B464B26
:10409800D3E90423FCF730FA02460B4614461D46C2
:1040A800414BB3F858301A46404B9B8902FB03F347
:1040B8001846FCF7A7F94FF000023D4BFCF71CFA35
:1040C80002460B4610461946374BD3E90423FCF742
:1040D8003DFB02460B4643EC172BB0EE470AF0EEC9
:1040E800670AFEF759FD51EC100B2F4BD3E9042357
:1040F800FCF702FA02460B4620462946FCF746F82A
:1041080002460B4610461946274BD3E90623FCF70F
:10411800F3F902460B462249C1E9122300E000BF29
:104128001F4BD3E91A01204BD3E90823FCF774FC91
:104138000346002B05D01C4BD3E90223C7E92623ED
:1041480004E0194BD3E90023C7E92623144BD3E92C
:104158001801154BD3E90A23FCF75EFC0346002B34
:1041680005D0114BD3E90223C7E9282304E00E4BFD
:10417800D3E90023C7E92823094BD3E91C010A4BDB
:10418800D3E90C23FCF748FC0346002B12D0064B5E
:10419800D3E90223C7E9242311E000BF5815002002
:1041A800E00300200000F03F000000208C03002006
:1041B8000000503E9C4BD3E90023C7E924239B4BC6
:1041C8009B4A1A624FF000024FF00003D7E928011A
:1041D800FCF7FAFB0346002B04D14FF40073C7F831
:1041E8008C3002E00023C7F88C30904B1B6AD7F85C
:1041F8008C2011461846FEF74AFA8C4B1A6AD7F8F3
:104208008C30DB4303F4007319461046FEF74DFA71
:10421800864B874A1A624FF000024FF00003D7E935
:104228002801FCF7D1FB0346002B04D14FF480434F
:10423800C7F88C3002E00023C7F88C307B4B1B6A30
:10424800D7F88C2011461846FEF721FA774B1A6AE0
:10425800D7F88C30DB4303F4804319461046FEF749
:1042680024FA724B724A1A624FF000024FF00003B0
:10427800D7E92601FCF7A8FB0346002B04D14FF42D
:104288008073C7F88C3002E00023C7F88C30674B86
:104298001B6AD7F88C2011461846FEF7F8F9634BCD
:1042A8001A6AD7F88C30DB4303F48073194610463A
:1042B800FEF7FBF95D4B5E4A1A624FF000024FF0C1
:1042C8000003D7E92601FCF77FFB0346002B04D146
:1042D8004FF40043C7F88C3002E00023C7F88C3055
:1042E800524B1B6AD7F88C2011461846FEF7CFF9B7
:1042F8004E4B1A6AD7F88C30DB4303F40043194657
:104308001046FEF7D2F9494B494A1A624FF00002AB
:104318004FF00003D7E92401FCF756FB0346002BB6
:1043280004D14FF48053C7F88C3002E00023C7F85B
:104338008C303E4B1B6AD7F88C2011461846FEF786
:10434800A6F93A4B1A6AD7F88C30DB4303F480534A
:1043580019461046FEF7A9F9344B364A1A62324B11
:10436800D3E900014FF000024FF00003FCF72CFBEB
:104378000346002B04D14FF48053C7F88C3002E079
:104388000023C7F88C30294B1B6AD7F88C201146BC
:104398001846FEF77CF9254B1A6AD7F88C30DB43B0
:1043A80003F4805319461046FEF77FF91F4B204A45
:1043B8001A621D4BD3E900014FF000024FF00003D1
:1043C800FCF702FB0346002B04D14FF40053C7F857
:1043D8008C3002E00023C7F88C30144B1B6AD7F8E6
:1043E8008C2011461846FEF752F9104B1A6AD7F876
:1043F8008C30DB4303F4005319461046FEF755F999
:104408000A4B0B4A1A624FF000024FF00003D7E93B
:104418002401FCF7D9FA0346002B0DD14FF40063B1
:10442800C7F88C300BE000BF00000020E00300203C
:1044380000100048000400480023C7F88C30994B4E
:104448001B6AD7F88C2011461846FEF720F9954BC1
:104458001A6AD7F88C30DB4303F400631946104618
:10446800FEF723F99048FEF706F9C7F888008F4849
:10447800FEF701F9C7F88400D7F8843003F0040385
:10448800002B0CBF01230023DBB287F88330884B55
:1044980093F874301E2B07D8854B93F8743001338A
:1044A800DAB2834B83F87420814B93F8703003F0B1
:1044B8002003DBB2002B21D17D4A92F8703043F003
:1044C800200382F870307A4A92F87030062161F33E
:1044D800020382F8703076494FF00002754BC1E94B
:1044E8001A2373494FF00002734BC1E91623704930
:1044F8004FF00002704BC1E91823E2E26C4B93F8CD
:104508007030C3F30203DBB2013B042B00F2B1822B
:1045180001A252F823F000BF35450008754700088E
:104528001F480008DF480008BB4900085D4BD3E975
:1045380012015F4BD3E91A23FCF764FA0346002BF8
:104548003CD0584BD3E91601594BD3E91823FCF753
:1045580045FA0346002B31D0524BD3E91401544B92
:10456800D3E91623FCF74EFA0346002B26D04D4913
:104578004FF000024FF00003C1E90A2349494FF008
:1045880000024FF00003C1E90E23464B002283F8D6
:104598009020444B002283F89220454B002283F858
:1045A8007420434A92F87030032161F3020382F8C1
:1045B80070303C4B012283F89120D6E097F8833085
:1045C800002B26D037494FF000024FF00003C1E915
:1045D8000A2334494FF000024FF00003C1E90E23CB
:1045E800334B002283F87420314A92F8703002214C
:1045F80061F3020382F870302A4B012283F890207D
:10460800284B002283F89220264B012283F8912020
:1046180057E2244BD3E91201254BD3E91A23FCF7BF
:10462800F1F90346002B49D01E4BD3E91601204B64
:10463800D3E91823FCF7E6F90346002B3ED0194BC3
:10464800D3E914011A4BD3E91623FCF7C7F903463B
:10465800002B33D013494FF000024FF00003C1E99B
:104668000A2310494FF000024FF00003C1E90E235E
:104678000C4B002283F892200A4B002283F89120E9
:104688000B4B002283F87420094A92F870300421F9
:1046980061F3020382F87030024B012283F8902004
:1046A80063E000BFE0030020001000480004004859
:1046B80058150020000004400000F83FB24BD3E931
:1046C8001201B24BD3E91A23FCF79CF90346002BDD
:1046D8003CD0AD4BD3E91601AC4BD3E91823FCF71A
:1046E80091F90346002B31D0A74BD3E91401A74B0E
:1046F800D3E91623FCF786F90346002B26D0A249F6
:104708004FF000024FF00003C1E90A239E494FF021
:1047180000024FF00003C1E90E239B4B002283F8EF
:104728009020994B002283F89120984B002283F81F
:104738007420964A92F87030052161F3020382F8DA
:104748007030914B012283F892200EE08E494FF091
:1047580000024FF00003C1E90A238B494FF0000221
:104768004FF00003C1E90E23ABE1AAE1874B93F8B0
:104778007430042B2AD997F88330002B26D0824B2B
:10478800002283F89020804B002283F892207E4BF1
:10479800002283F891207D4A92F87030062161F357
:1047A800020382F8703079494FF00002784BC1E972
:1047B8001A2376494FF00002764BC1E91623734954
:1047C8004FF00002734BC1E918237AE16E4B93F85E
:1047D8009030002B0CBF01230023DBB21A466A4B32
:1047E80083F89020684B93F89230002B0CBF01237C
:1047F8000023DBB21A46644B83F89220624B93F88D
:104808009130002B0CBF01230023DBB21A465E4B0C
:1048180083F8912055E15D4B93F874300A2B22D927
:1048280059494FF000024FF00003C1E90A235649E5
:104838004FF000024FF00003C1E91023534A92F8E9
:104848007030012161F3020382F870304E4B01226F
:1048580083F890204C4B012283F892204A4B012286
:1048680083F891202DE197F88330002B26D0464914
:104878004FF000024FF00003C1E90A2342494FF00C
:1048880000024FF00003C1E91023404B002283F8D7
:1048980074203E4A92F87030022161F3020382F8D4
:1048A8007030394B012283F89020374B002283F86F
:1048B8009220354B012283F8912002E1324930A33E
:1048C800D3E90023C1E90A232F492DA3D3E9002303
:1048D800C1E91023F5E02D4B93F874300A2B22D947
:1048E80029494FF000024FF00003C1E90C23264983
:1048F8004FF000024FF00003C1E90E23234A92F85B
:104908007030012161F3020382F870301E4B0122DE
:1049180083F890201C4B012283F892201A4B012225
:1049280083F89120CDE097F88330002B34D01649D6
:104938004FF000024FF00003C1E90C2312494FF079
:1049480000024FF00003C1E90E23104B002283F848
:1049580074200E4A92F87030022161F3020382F843
:104968007030094B012283F89020074B002283F80E
:104978009220054B012283F89120A2E0AFF300803A
:104988000000000000C05240E0030020581500203D
:10499800000004400000F83FA949A7A3D3E9002379
:1049A800C1E90C23A649A4A3D3E90023C1E90E2336
:1049B80087E0A44B93F87430162B22D9A0494FF006
:1049C80000024FF00003C1E90A239D494FF000029D
:1049D8004FF00003C1E910239A4A92F87030012180
:1049E80061F3020382F87030954B012283F890201E
:1049F800934B012283F89220914B012283F8912056
:104A08005FE097F88330002B26D08D494FF00002E5
:104A18004FF00003C1E90A2389494FF000024FF023
:104A28000003C1E91023874B002283F87420854ACC
:104A380092F87030022161F3020382F87030804BE3
:104A4800012283F890207E4B002283F892207C4B31
:104A5800012283F8912034E0794977A3D3E9002330
:104A6800C1E90A23764974A3D3E90023C1E91023D5
:104A780027E0D7F8883003F04003002B14D1714A9F
:104A880092F87030012161F3020382F870306C4BA8
:104A9800012283F890206A4B012283F89220684B08
:104AA800012283F891200BE0654B93F89030002B9E
:104AB8000CBF01230023DBB21A46614B83F8902018
:104AC80000BF604B1C6D5E4BD3E91023104619469E
:104AD800FBF7E2FF034600EE103A2046FDF7C0FE62
:104AE800584B1C6D564BD3E90E2310461946FBF75D
:104AF800D3FF034600EE103A2046FDF7C5FE514BA2
:104B08001C6C4F4BD3E90A2310461946FBF7C4FF28
:104B1800034600EE103A2046FDF77AFE494B1C6C1E
:104B2800474BD3E90C2310461946FBF7B5FF03465C
:104B380000EE103A2046FDF77FFE414B424A1A62CA
:104B4800424BD3E90E014FF000024FF00003FBF790
:104B58003BFF0346002B03D18023C7F88C3002E0CB
:104B68000023C7F88C30364B1B6AD7F88C201146C7
:104B78001846FDF78CFD324B1A6AD7F88C30DB43A8
:104B880003F0800319461046FDF78FFD2C4B304A81
:104B98001A622B4B93F89030002B04D04FF400533B
:104BA800C7F88C3002E00023C7F88C30244B1B6A0E
:104BB800D7F88C2011461846FDF769FD204B1A6A74
:104BC800D7F88C30DB4303F4005319461046FDF741
:104BD8006CFD1B4B1E4A1A62194B93F89230002B3E
:104BE80004D04FF48043C7F88C3002E00023C7F8A4
:104BF8008C30134B1B6AD7F88C2011461846FDF7EA
:104C080046FD0F4B1A6AD7F88C30DB4303F4804318
:104C180019461046FDF749FD094B0D4A1A62084B23
:104C280093F89130002B15D04FF40043C7F88C301F
:104C380013E000BFAFF300800000000000C0524046
:104C4800E003002058150020000C00480000002058
:104C5800000800480023C7F88C30224B1B6AD7F89D
:104C68008C2011461846FDF712FD1E4B1A6AD7F81C
:104C78008C30DB4303F4004319461046FDF715FD5D
:104C8800184B194A1A62194BD3E910014FF0000268
:104C98004FF00003FBF798FE0346002B03D10823CF
:104CA800C7F88C3002E00023C7F88C300D4B1B6A24
:104CB800D7F88C2011461846FDF7E9FC094B1A6A0B
:104CC800D7F88C30DB4303F0080319461046FDF78C
:104CD800ECFC00F0CFFA00F0E3FB00BFC037BD46A4
:104CE800B0BD00BFE0030020000400480000002021
:104CF80080B582B000AF00237B6017E05A4BB3F851
:104D08005E105A4A7B6822F81310574BB3F86010AC
:104D1800574A7B6822F81310534BB3F86210554A70
:104D28007B6822F813107B6801337B607B68082B53
:104D3800E4DD00237B6011E04B4B93F866104E4A8C
:104D48007B6813440A461A70474BB3F864104B4A01
:104D58007B6822F813107B6801337B607B68072B24
:104D6800EADD414B9B6C464A13603F4BDB6C454A7E
:104D780013603D4B1B6D444A13603B4B5B6D434ACC
:104D88001360394B1B6D404A5360374B5B6D3F4A8C
:104D98005360354B1B6D3C4A9360334B5B6D3B4A0C
:104DA800936000F0FBFA3A4B00225A60384B00221D
:104DB8001A703748FDF75AFF36493748FDF71DFE88
:104DC80036493748FDF780FE36493748FDF715FE66
:104DD80036493748FDF711FE36493748FDF70DFECD
:104DE80036493748FDF709FE36493748FDF705FECD
:104DF80036493748FDF768FE36493748FDF7FDFD67
:104E080036493748FDF7F9FD36493748FDF7F5FDCE
:104E180036493748FDF7F1FD1D4B002283F8442041
:104E28001B4B002283F84C20194B01229A6431480D
:104E3800FDF764FF164B012283F84C20144B002227
:104E480083F83420124B002283F83C20104B0122B7
:104E58009A632948FDF78EFF0D4B012283F83C2009
:104E680000BF0837BD4680BD000000208C0300202D
:104E7800A0030020B4030020D8030020C8030020AA
:104E880084030020880300206C030020780300209E
:104E9800581500208800002050190020A800002084
:104EA800D01C0020C0000020801E002090000020A0
:104EB800301A0020800000207018002078000020A0
:104EC8009017002070000020B0160020B0000020CD
:104ED800381D0020B8000020A01D00206800002018
:104EE800D0150020A0000020F01B00209800002012
:104EF800101B00209C1500208C15002080B500AFE9
:104F0800344B1B78002B11D1324B01221A70314BD4
:104F18005B68012B0AD12F4B1B7A002B06D02D4B37
:104F2800DB68012204211846FDF7D0F9294B93F8D4
:104F38004430002B23D1274B012283F84420254BF2
:104F48009B6C012B1BD1234B93F84C30002B16D0B4
:104F5800204B1B6D1846FDF743FD1E4B1B6D0021B2
:104F68001846FCF7B8F81B4B1B6D02211846FCF7D6
:104F7800E1FA184B1B6D02211846FCF743FB154B51
:104F880093F83430002B23D1124B012283F83420BC
:104F9800104B9B6B012B1BD10E4B93F83C30002B15
:104FA80016D00C4B1B6C1846FDF71AFD094B1B6CF1
:104FB80000211846FCF78FF8064B1B6C0221184697
:104FC800FCF774F9034B1B6C02211846FCF70EFA28
:104FD80000BF80BD5815002080B489B000AFF860CC
:104FE800B9607A60FB68BB610023FB61BB689B0802
:104FF8007B611B4B1B68B3F5C87F2AD00023FB617C
:1050080022E0174B1B6817497A6841F82320FB698F
:105018009B00BA691A44124B1B681268114903F5C0
:10502800C87341F823200E4B1B680F4A12680D49BC
:1050380003F5487341F82320094B1B680133084ADC
:105048001360FB690133FB61FA697B699A42D8D323
:1050580000E000BF2437BD465DF8047B704700BF01
:10506800641F00206C1F0020681F002080B584B0DA
:1050780000AF786072B600BF00F060FC0346FB60CA
:1050880007F10C037A6804211846FFF7A5FF62B6FA
:1050980000BF00BF1037BD4680BD000080B500AF1F
:1050A800124B1B785A1CD1B2104A1170002B09D030
:1050B8000F4B01221A600D4B1B78013BDAB20B4BE8
:1050C8001A7011E062B600BF02200BF031F8FDF74C
:1050D8008FFE02200BF037F872B600BF034B1B7827
:1050E800013BDAB2014B1A7080BD00BF303200209C
:1050F8002C32002080B584B000AF78603960374B1F
:10510800FB60374BBB60374B00221A70364B0022CE
:105118001A7001DF06F026FB00F0E0FE00F02EFF1B
:1051280000F08EFF01F054FF01F072FB02F09EF9CF
:1051380001F0BEFF02F04AFA01F00EFD02F00EFD8A
:1051480002F066FC294B1B6800221A6001200AF055
:10515800EFFFFFF7CDFD01200AF0F5FF72B600BFA3
:1051680097ED030A00F08AFC204B1B681B68002B94
:105178000CBF01230023DBB21A461B4B1A7062B620
:1051880000BF62B600BF15E0184B1B681B68002BF8
:1051980014BF01230023DBB21A46124B1A70114BBD
:1051A8001B78DBB2002B05D0114B1B68104A23F08B
:1051B800010313600C4B1B78DBB2002BE4D10320F6
:1051C8000AF0B6FFFFF79AFE03200AF0BCFF72B69A
:1051D80000BF002318461037BD4680BDCDCCCC3D5E
:1051E8000000A04231320020323200207C07010842
:1051F80010E000E080B485B000AF0346FB80B7F94B
:105208000630002B02DBFB88FB8101E0FB88FB8179
:10521800B7F90E3018461437BD465DF8047B704761
:1052280080B588B004AF03460A46FB711346BB71CC
:10523800FB799BB25B009BB2013399B2BB799AB2FE
:105248004FF0FF3302930223019307F10C030093FD
:105258000123074806F078FE3B7B1B021AB27B7BD2
:105268001BB213431BB29BB218461037BD4680BD14
:105278005C32002080B500AF3B216920FFF7D0FFEA
:1052880003461846FFF7B6FF03461A4613469B0027
:1052980013445B0007EE903AB8EEE77ADFED3B6A1D
:1052A800C7EE267A3A4BC3ED007A3D216920FFF715
:1052B800B7FF03461846FFF79DFF03461A461346F5
:1052C8009B0013445B0007EE903AB8EEE77ADFEDF7
:1052D8002F6AC7EE267A2E4BC3ED017A3F2169204B
:1052E800FFF79EFF03461846FFF784FF03461A465A
:1052F80013469B0013445B0007EE903AB8EEE77A3A
:10530800DFED226AC7EE267A214BC3ED027A4321EC
:105318006920FFF785FF03461846FFF76BFF034632
:1053280007EE903AB8EEE77ADFED1A6AC7EE267A0A
:10533800194BC3ED007A45216920FFF771FF034639
:105348001846FFF757FF034607EE903AB8EEE77A9C
:10535800DFED106AC7EE267A0F4BC3ED017A4721BD
:105368006920FFF75DFF03461846FFF743FF034632
:1053780007EE903AB8EEE77ADFED066AC7EE267ACE
:10538800054BC3ED027A00BF80BD00BF0000804618
:105398006C030020000003437803002080B586B02A
:1053A80004AF0023FB714FF0FF33029301230193F5
:1053B800FB1D009301236B22D2211D4806F0B0FC8F
:1053C8004FF0FF3302930123019307230093012336
:1053D8001922D221164806F0A3FC4FF0FF3302939E
:1053E800012301930023009301231C22D22110489A
:1053F80006F096FC4FF0FF3302930123019300233C
:10540800009301231B22D221094806F089FC4FF0A2
:10541800FF33029301230193064B00930123752266
:10542800D321034806F090FD00BF0837BD4680BD74
:105438005C3200203332002080B582B000AF0023F8
:105448007B600FE07B68432B08D07B68052B05D079
:105458007B685BB2184607F0E5FA00E000BF7B689E
:1054680001337B607B68EF2BECD900BF00BF0837A6
:10547800BD4680BD80B582B000AF00237B6007E0E9
:105488007B685BB2184607F0BFFA7B6801337B6024
:105498007B68EF2BF4D900BF00BF0837BD4680BD3D
:1054A80080B500AF4021AA4806F092FB0346002BC6
:1054B80014BF01230023DAB2A64B1A700421A648B0
:1054C80006F086FB0346002B14BF01230023DAB243
:1054D800A04B5A704FF40051A04806F079FB0346E0
:1054E800002B14BF01230023DAB29D4B1A704FF42E
:1054F80080419A4806F06CFB0346002B14BF012339
:105508000023DAB2964B5A704FF40041934806F0E4
:105518005FFB0346002B14BF01230023DAB2904B34
:105528009A704FF480518C4806F052FB0346002BCA
:1055380014BF01230023DAB28A4B1A704FF480712A
:10554800834806F045FB0346002B14BF01230023C4
:10555800DAB2844B5A704FF400717D4806F038FB7C
:105568000346002B14BF01230023DAB27D4B9A7047
:105578004FF48051764806F02BFB0346002B14BFEE
:1055880001230023DAB2774BDA704FF400617048D8
:1055980006F01EFB0346002B14BF01230023DAB2DA
:1055A800704B1A714FF48041694806F011FB0346AD
:1055B800002B14BF01230023DAB26A4B5A714FF44F
:1055C8000041634806F004FB0346002B14BF012387
:1055D8000023DAB2634B9A714FF400515C4806F02D
:1055E800F7FA0346002B14BF01230023DAB25D4B00
:1055F800DA715D4B5B6B9AB25C4B1A805A4B9B6BB2
:105608009AB25A4B5A80584BDB6B9AB2584B1A8055
:10561800554B1B6C9AB2564B5A80FFF70DFF08E0AA
:105628004FF400714FF0904006F0D2FA0346012B78
:1056380007D103214F4803F0C1F80346002BEFD1EF
:105648000AE000BF08E04FF400714FF0904006F008
:10565800BFFA0346012B07D102213E4803F0AEF8FA
:105668000346002BEFD10AE000BF08E04FF40071B9
:105678004FF0904006F0ACFA0346012B07D1032106
:10568800374803F09BF80346002BEFD10AE000BF30
:1056980008E04FF400714FF0904006F099FA034685
:1056A800012B07D10C21344803F088F80346002B5E
:1056B800EFD10AE000BF08E04FF400714FF09040CE
:1056C80006F086FA0346012B07D10C212B4803F07C
:1056D80075F80346002BEFD10AE000BF08E04FF44D
:1056E80000714FF0904006F073FA0346012B07D182
:1056F8001221234803F062F80346002BEFD10AE099
:1057080000BF08E04FF400714FF0904006F060FAD7
:105718000346012B07D112211A4803F04FF803461C
:10572800002BEFD10AE000BF08E04FF400714FF002
:10573800904006F04DFA0346012B07D1122112487A
:1057480003F03CF80346002BEFD128E000BF26E029
:1057580000100048343200200004004800080048C7
:10576800383200203C320020000400404C32002037
:1057780048320020200701086C030020780300202D
:105788008C030020A0030020B40300204FF4007114
:105798004FF0904006F01CFA0346012B07D1082170
:1057A800514803F00BF80346002BEFD10AE000BF85
:1057B80008E04FF400714FF0904006F009FA0346F4
:1057C800012B07D10421494802F0F8FF0346002BBA
:1057D800EFD10AE000BF08E04FF400714FF09040AD
:1057E80006F0F6F90346012B07D10421404802F0E0
:1057F800E5FF0346002BEFD10AE000BF08E04FF4B5
:1058080000714FF0904006F0E3F90346012B07D1F1
:105818000421384802F0D2FF0346002BEFD10AE0FA
:1058280000BF08E04FF400714FF0904006F0D0F947
:105838000346012B07D108212F4802F0BFFF03467A
:10584800002BEFD10AE000BF08E04FF400714FF0E1
:10585800904006F0BDF90346012B07D110212748D7
:1058680002F0ACFF0346002BEFD10AE000BF08E0CE
:105878004FF400714FF0904006F0AAF90346012B4F
:1058880007D104211E4802F099FF0346002BEFD1EF
:105898000AE000BF08E04FF400714FF0904006F0B6
:1058A80097F90346012B07D10421164802F086FF19
:1058B8000346002BEFD10AE000BF08E04FF4007167
:1058C8004FF0904006F084F90346012B07D10421DC
:1058D8000D4802F073FF0346002BEFD100E000BF34
:1058E800FFF7C8FD00BF80BD3C32002044320020D5
:1058F800483200204C320020D8030020C803002082
:1059080088030020840300202407010880B584B0A0
:1059180000AF786005F052FFF8607B68BB6000BF9D
:1059280005F04CFF0246FB68D31ABA689A42F7D8CA
:1059380000BF00BF1037BD4680BD000010B50E4C3B
:1059480082B0636A019305F039FF0090626A019B97
:105958009A4207D3009B01984FF47A7202FB030026
:1059680002B010BD05F02AFF636A4FF47A7202FB99
:10597800003002B010BD00BF002C014080B483B0DD
:1059880000AF03463960FB7197F90730002B0ADB3B
:105998003B68DAB20C4997F907301201D2B20B44CE
:1059A80083F800230AE03B68DAB20849FB7903F080
:1059B8000F03043B1201D2B20B441A7600BF0C3716
:1059C800BD465DF8047B704700E100E000ED00E0B3
:1059D80080B582B000AF78607B68013BB3F1807F0F
:1059E80001D301230FE00A4A7B68013B53600F2172
:1059F8004FF0FF30FFF7C2FF054B00229A60044BBF
:105A080007221A60002318460837BD4680BD00BF2C
:105A180010E000E080B500AFBFF34F8F00BFBFF3C9
:105A28006F8F00BF0B4B1A680B4B1B689A4202D34F
:105A3800084B00221A60074B1B685A1C05490A606C
:105A4800002B05D172B600BFFFF728FB62B600BF76
:105A580000BF80BD503200205432002080B400AF17
:105A6800054B5B68044A43F08053536000BFBD4652
:105A78005DF8047B704700BF00ED00E080B584B09E
:105A880000AF87ED010A234B1B6807EE903AB8EE8A
:105A9800677AD7ED017A67EE277AFCEEE77A17EE98
:105AA800903AFB60FB68B3F1807F18D3FB6807EE80
:105AB800903AB8EE677ADFED186AC7EE267AFCEE00
:105AC800E77A17EE903A0133144A1360134B1B68B8
