:020000040800F2
:10000000008001207D090108DF900008E5900008CC
:10001000EB900008F1900008F79000080000000045
:10002000000000000000000000000000256400083F
:10003000FD90000800000000E16300081163000863
:10004000CD090108CD090108CD090108CD09010834
:10005000CD090108CD090108CD090108CD09010824
:10006000CD090108CD090108CD0901080B9100084F
:1000700029200008CD090108CD090108CD09010892
:10008000199100082791000835910008CD09010851
:10009000CD090108CD090108CD090108CD090108E4
:1000A000CD09010845910008CD090108CD090108D5
:1000B000CD090108CD090108CD090108CD090108C4
:1000C000CD090108CD090108CD090108CD090108B4
:1000D000CD090108CD090108CD090108CD090108A4
:1000E000CD090108CD090108CD090108CD09010894
:1000F000CD090108CD090108CD090108CD09010884
:10010000CD090108CD090108CD090108CD09010873
:10011000CD090108CD090108CD090108CD09010863
:10012000CD090108CD090108CD090108CD09010853
:10013000CD090108CD090108CD090108CD09010843
:10014000CD090108CD090108CD0901085991000820
:10015000CD090108CD090108CD090108CD09010823
:10016000CD090108CD090108CD090108CD09010813
:10017000CD090108CD090108CD09010800000000E2
:08018000CD090108CD090108B9
:1001880081F0004102E000BF83F0004330B54FEA40
:1001980041044FEA430594EA050F08BF90EA020FAD
:1001A8001FBF54EA000C55EA020C7FEA645C7FEA40
:1001B800655C00F0E2804FEA5454D4EB5555B8BF63
:1001C8006D420CDD2C4480EA020281EA030382EAD4
:1001D800000083EA010180EA020281EA0303362D66
:1001E80088BF30BD11F0004F4FEA01314FF4801C39
:1001F8004CEA113102D0404261EB410113F0004F4B
:100208004FEA03334CEA133302D0524263EB430301
:1002180094EA050F00F0A780A4F10104D5F1200E9F
:100228000DDB02FA0EFC22FA05F2801841F10001FA
:1002380003FA0EF2801843FA05F359410EE0A5F1CE
:1002480020050EF1200E012A03FA0EFC28BF4CF0FF
:10025800020C43FA05F3C01851EBE37101F00045B5
:1002680007D54FF0000EDCF1000C7EEB00006EEBC2
:100278000101B1F5801F1BD3B1F5001F0CD349084C
:100288005FEA30004FEA3C0C04F101044FEA4452A3
:1002980012F5800F80F09A80BCF1004F08BF5FEA2A
:1002A800500C50F1000041EB045141EA050130BD0A
:1002B8005FEA4C0C404141EB0101013C28BFB1F51C
:1002C800801FE9D291F0000F04BF01460020B1FA67
:1002D80081F308BF2033A3F10B03B3F120020CDA3A
:1002E8000C3208DD02F1140CC2F10C0201FA0CF018
:1002F80021FA02F10CE002F11402D8BFC2F1200C7D
:1003080001FA02F120FA0CFCDCBF41EA0C01904032
:10031800E41AA2BF01EB0451294330BD6FEA04047B
:100328001F3C1CDA0C340EDC04F11404C4F1200266
:1003380020FA04F001FA02F340EA030021FA04F378
:1003480045EA030130BDC4F10C04C4F1200220FACF
:1003580002F001FA04F340EA0300294630BD21FA0D
:1003680004F0294630BD94F0000F83F4801306BFD3
:1003780081F480110134013D4EE77FEA645C18BFC7
:100388007FEA655C29D094EA050F08BF90EA020F5E
:1003980005D054EA000C04BF1946104630BD91EA56
:1003A800030F1EBF0021002030BD5FEA545C05D159
:1003B8004000494128BF41F0004130BD14F5800498
:1003C8003CBF01F5801130BD01F0004545F0FE410C
:1003D80041F470014FF0000030BD7FEA645C1ABF41
:1003E800194610467FEA655C1CBF0B46024650EA78
:1003F800013406BF52EA033591EA030F41F40021A4
:1004080030BD00BF90F0000F04BF0021704730B529
:100418004FF4806404F132044FF000054FF00001FE
:1004280050E700BF90F0000F04BF0021704730B5BF
:100438004FF4806404F1320410F0004548BF404294
:100448004FF000013EE700BF42004FEAE2014FEAE9
:1004580031014FEA02701FBF12F07F4393F07F4FC4
:1004680081F06051704732F07F4208BF704793F0C7
:100478007F4F04BF41F40021704730B54FF46074DA
:1004880001F0004521F000411CE700BF50EA0102DD
:1004980008BF704730B54FF000050AE050EA010286
:1004A80008BF704730B511F0004502D5404261EBF6
:1004B80041014FF4806404F132045FEA915C3FF437
:1004C800D8AE4FF003025FEADC0C18BF03325FEAD4
:1004D800DC0C18BF033202EBDC02C2F1200300FA85
:1004E80003FC20FA02F001FA03FE40EA0E0021FAAA
:1004F80002F11444BDE600BF70B54FF0FF0C4CF498
:10050800E06C1CEA11541DBF1CEA135594EA0C0F49
:1005180095EA0C0F00F0DEF82C4481EA030621EA84
:100528004C5123EA4C5350EA013518BF52EA0335BF
:1005380041F4801143F4801338D0A0FB02CE4FF071
:100548000005E1FB02E506F00042E0FB03E54FF0A1
:100558000006E1FB03569CF0000F18BF4EF0010E99
:10056800A4F1FF04B6F5007F64F5407404D25FEA95
:100578004E0E6D4146EB060642EAC62141EA555148
:100588004FEAC52040EA5E504FEACE2EB4F1FD0C8A
:1005980088BFBCF5E06F1ED8BEF1004F08BF5FEA08
:1005A800500E50F1000041EB045170BD06F00046BA
:1005B80046EA010140EA020081EA0301B4EB5C0467
:1005C800C2BFD4EB0C0541EA045170BD41F480115F
:1005D8004FF0000E013C00F3AB8014F1360FDEBF84
:1005E800002001F0004170BDC4F10004203C35DA60
:1005F8000C341BDC04F11404C4F1200500FA05F3E3
:1006080020FA04F001FA05F240EA020001F0004283
:1006180021F0004110EBD37021FA04F642EB0601F9
:100628005EEA430E08BF20EAD37070BDC4F10C0423
:10063800C4F1200500FA04F320FA05F001FA04F2E7
:1006480040EA020001F0004110EBD37041F10001D3
:100658005EEA430E08BF20EAD37070BDC4F12005DE
:1006680000FA05F24EEA020E20FA04F301FA05F246
:1006780043EA020321FA04F001F0004121FA04F2EE
:1006880020EA020000EBD3705EEA430E08BF20EABE
:10069800D37070BD94F0000F0FD101F000464000F8
:1006A80041EB010111F4801F08BF013CF7D041EA7A
:1006B800060195F0000F18BF704703F0004652007E
:1006C80043EB030313F4801F08BF013DF7D043EA4F
:1006D8000603704794EA0C0F0CEA135518BF95EA05
:1006E8000C0F0CD050EA410618BF52EA4306D1D18C
:1006F80081EA030101F000414FF0000070BD50EAAB
:10070800410606BF1046194652EA430619D094EA34
:100718000C0F02D150EA013613D195EA0C0F05D11E
:1007280052EA03361CBF104619460AD181EA030172
:1007380001F0004141F0FE4141F470014FF000002A
:1007480070BD41F0FE4141F4780170BD70B54FF0C5
:10075800FF0C4CF4E06C1CEA11541DBF1CEA135545
:1007680094EA0C0F95EA0C0F00F0A7F8A4EB050427
:1007780081EA030E52EA03354FEA013100F088801E
:100788004FEA03334FF0805545EA131343EA1263E7
:100798004FEA022245EA111545EA10654FEA00269C
:1007A8000EF000419D4208BF964244F1FD0404F555
:1007B800407402D25B084FEA3202B61A65EB0305B1
:1007C8005B084FEA32024FF480104FF4002CB6EB6E
:1007D800020E75EB030E22BFB61A754640EA0C00EE
:1007E8005B084FEA3202B6EB020E75EB030E22BF2E
:1007F800B61A754640EA5C005B084FEA3202B6EB6F
:10080800020E75EB030E22BFB61A754640EA9C002D
:100818005B084FEA3202B6EB020E75EB030E22BFFD
:10082800B61A754640EADC0055EA060E18D04FEABB
:10083800051545EA16754FEA06164FEAC30343EA5B
:1008480052734FEAC2025FEA1C1CC0D111F4801F28
:100858000BD141EA00014FF000004FF0004CB6E721
:1008680011F4801F04BF01430020B4F1FD0C88BFC0
:10087800BCF5E06F3FF6AFAEB5EB030C04BFB6EBCB
:10088800020C5FEA500C50F1000041EB045170BDBE
:100898000EF0004E4EEA113114EB5C04C2BFD4EBEB
:1008A8000C0541EA045170BD41F480114FF0000E6F
:1008B800013C90E645EA060E8DE60CEA135594EAEB
:1008C8000C0F08BF95EA0C0F3FF43BAF94EA0C0FEE
:1008D8000AD150EA01347FF434AF95EA0C0F7FF463
:1008E80025AF104619462CE795EA0C0F06D152EAB7
:1008F80003353FF4FDAE1046194622E750EA41069B
:1009080018BF52EA43067FF4C5AE50EA41047FF4AB
:100918000DAF52EA43057FF4EBAE12E74FF0FF3C10
:1009280006E000BF4FF0010C02E000BF4FF0010CE1
:100938004DF804CD4FEA410C7FEA6C5C4FEA430C5A
:1009480018BF7FEA6C5C1BD001B050EA410C0CBFA9
:1009580052EA430C91EA030F02BF90EA020F00200B
:10096800704710F1000F91EA030F58BF994208BF72
:1009780090422CBFD8176FEAE37040F0010070472F
:100988004FEA410C7FEA6C5C02D150EA013C07D186
:100998004FEA430C7FEA6C5CD6D152EA033CD3D0D1
:1009A8005DF8040B704700BF8446104662468C46CB
:1009B8001946634600E000BF01B5FFF7B7FF0028FE
:1009C80048BF10F1000F01BD4DF808EDFFF7F4FF27
:1009D8000CBF012000205DF808FB00BF4DF808EDB2
:1009E800FFF7EAFF34BF012000205DF808FB00BFD5
:1009F8004DF808EDFFF7E0FF94BF012000205DF8F7
:100A080008FB00BF4DF808EDFFF7CEFF94BF0120AB
:100A180000205DF808FB00BF4DF808EDFFF7C4FFA4
:100A280034BF012000205DF808FB00BF4FEA410CED
:100A38007FEA6C5C02D150EA013C0AD14FEA430CD0
:100A48007FEA6C5C02D152EA033C02D14FF000000D
:100A580070474FF0010070474A0011D212F500129A
:100A680011D20DD56FF47873B3EB62520ED44FEAFE
:100A7800C12343F0004343EA505323FA02F070477E
:100A88004FF00000704750EA013002D14FF0FF30BC
:100A980070474FF0000070474FEA4102B2F1E0435F
:100AA80024BFB3F5001CDCF1FE5C0DD901F0004C4D
:100AB8004FEAC0024CEA5070B2F1004F40EB83009D
:100AC80008BF20F00100704711F0804F21D113F1C9
:100AD8003872BCBF01F00040704741F480114FEA02
:100AE8005252C2F11802C2F1200C10FA0CF320FA8B
:100AF80002F018BF40F001004FEAC1234FEAD323A8
:100B080003FA0CFC40EA0C0023FA02F34FEA430311
:100B1800CCE77FEA625307D150EA01331EBF4FF09A
:100B2800FE4040F44000704701F0004040F0FE40B5
:100B380040F40000704700BF0348044B834202D0D2
:100B4800034B03B118477047A8020020A8020020F1
:100B5800000000000548064B1B1AD90F01EBA30142
:100B6800491002D0034B03B118477047A802002070
:100B7800A80200200000000010B5064C237843B9F5
:100B8800FFF7DAFF044B13B10448AFF300800123E9
:100B9800237010BDA802002000000000AC0F01085F
:100BA80008B5054B1BB105490548AFF30080BDE802
:100BB8000840FFF7CFBF00BF00000000AC020020D4
:100BC800AC0F010880B485B000AF78607B681B6803
:100BD80003F06003FB60FB68002B04D17B681B6893
:100BE80003F01003FB60FB6818461437BD465DF838
:100BF800047B704780B483B000AF78607B681B6B60
:100C080018460C37BD465DF8047B704780B483B046
:100C180000AF786039607B681A6A3B681A437B6862
:100C28001A6200BF0C37BD465DF8047B704780B47C
:100C380083B000AF786039607B681A6A3B68DB4331
:100C48001A407B681A6200BF0C37BD465DF8047B0A
:100C5800704780B483B000AF78607B685B6C43F406
:100C680000427B685A6400BF0C37BD465DF8047BC0
:100C7800704780B483B000AF78607B68DB6843F06E
:100C880001027B68DA6000BF0C37BD465DF8047B63
:100C9800704780B483B000AF78607B68DB6823F06E
:100CA80001027B68DA6000BF0C37BD465DF8047B43
:100CB800704780B483B000AF78607B68DB6803F06E
:100CC8000103012B01D1012300E0002318460C3752
:100CD800BD465DF8047B704780B483B000AF786090
:100CE8007B68DB6843F002027B68DA6000BF0C3780
:100CF800BD465DF8047B704780B483B000AF786070
:100D08007B68DB6823F002027B68DA6000BF0C377F
:100D1800BD465DF8047B704780B483B000AF78604F
:100D28007B68DB6803F00203022B01D1012300E09A
:100D3800002318460C37BD465DF8047B704780B425
:100D480083B000AF78607B68DB6843F004027B689F
:100D5800DA6000BF0C37BD465DF8047B704780B48D
:100D680083B000AF78607B68DB6823F004027B689F
:100D7800DA6000BF0C37BD465DF8047B704780B46D
:100D880083B000AF78607B68DB6803F00403042B52
:100D980001D1012300E0002318460C37BD465DF859
:100DA800047B704780B483B000AF78607B68DB68F1
:100DB80043F008027B68DA6000BF0C37BD465DF877
:100DC800047B704780B483B000AF78607B68DB68D1
:100DD80023F008027B68DA6000BF0C37BD465DF877
:100DE800047B704780B483B000AF78607B68DB68B1
:100DF80003F00803082B01D1012300E00023184663
:100E08000C37BD465DF8047B704780B483B000AFF3
:100E180078607B68DB6843F010027B68DA6000BFAB
:100E28000C37BD465DF8047B704780B483B000AFD3
:100E380078607B68DB6823F010027B68DA6000BFAB
:100E48000C37BD465DF8047B704780B483B000AFB3
:100E580078607B68DB6803F01003102B01D1012355
:100E680000E0002318460C37BD465DF8047B704748
:100E780080B483B000AF78607B68DB6843F0200201
:100E88007B68DA6000BF0C37BD465DF8047B7047AD
:100E980080B483B000AF78607B68DB6823F0200201
:100EA8007B68DA6000BF0C37BD465DF8047B70478D
:100EB80080B483B000AF78607B68DB6803F0200300
:100EC800202B01D1012300E0002318460C37BD4632
:100ED8005DF8047B704780B483B000AF78607B68AE
:100EE800DB6843F040027B68DA6000BF0C37BD4620
:100EF8005DF8047B704780B483B000AF78607B688E
:100F0800DB6823F040027B68DA6000BF0C37BD461F
:100F18005DF8047B704780B483B000AF78607B686D
:100F2800DB6803F04003402B01D1012300E00023DC
:100F380018460C37BD465DF8047B704780B483B013
:100F480000AF78607B68DB6843F080027B68DA601A
:100F580000BF0C37BD465DF8047B704780B483B092
:100F680000AF78607B68DB6823F080027B68DA601A
:100F780000BF0C37BD465DF8047B704780B483B072
:100F880000AF78607B68DB6803F08003802B01D1B9
:100F9800012300E0002318460C37BD465DF8047BAA
:100FA800704780B582B000AF78600B467B807B8845
:100FB80003F00103002B0CD07B681B681846FFF771
:100FC800AAFF0346012B04D07B681B681846FFF76D
:100FD80082FF7B8803F00203002B0CD07B681B6820
:100FE8001846FFF799FE0346012B04D07B681B685F
:100FF8001846FFF771FE7B8803F00403002B0CD022
:101008007B681B681846FFF7BAFE0346012B04D01D
:101018007B681B681846FFF792FE7B8803F008037D
:10102800002B0CD07B681B681846FFF7DBFE0346D5
:10103800012B04D07B681B681846FFF7B3FE7B883A
:1010480003F01003002B0CD07B681B681846FFF7D1
:10105800FCFE0346012B04D07B681B681846FFF78B
:10106800D4FE7B8803F02003002B0CD07B681B6820
:101078001846FFF71EFE0346012B04D07B681B6849
:101088001846FFF7F6FD7B8803F04003002B0CD0D1
:101098007B681B681846FFF771FF0346012B04D0D5
:1010A8007B681B681846FFF749FF7B8803F08003BD
:1010B800002B0CD07B681B681846FFF7F9FE034627
:1010C800012B04D07B681B681846FFF7D1FE00BFD0
:1010D8000837BD4680BD80B582B000AF78600B464A
:1010E8007B807B8803F00103002B0CD07B681B6896
:1010F8001846FFF710FF0346012B04D17B681B68D5
:101108001846FFF7F8FE7B8803F00203002B0CD08B
:101118007B681B681846FFF7FFFD0346012B04D1C7
:101128007B681B681846FFF7E7FD7B8803F004031C
:10113800002B0CD07B681B681846FFF720FE03467F
:10114800012B04D17B681B681846FFF708FE7B88D3
:1011580003F00803002B0CD07B681B681846FFF7C8
:1011680041FE0346012B04D17B681B681846FFF734
:1011780029FE7B8803F01003002B0CD07B681B68CA
:101188001846FFF762FE0346012B04D17B681B68F3
:101198001846FFF74AFE7B8803F02003002B0CD08B
:1011A8007B681B681846FFF784FD0346012B04D0B3
:1011B8007B681B681846FFF76CFD7B8803F04003CB
:1011C800002B0CD07B681B681846FFF7D7FE034638
:1011D800012B04D17B681B681846FFF7BFFE7B888C
:1011E80003F08003002B0CD07B681B681846FFF7C0
:1011F8005FFE0346012B04D17B681B681846FFF786
:1012080047FE00BF0837BD4680BD000080B582B0EC
:1012180000AF78600B46FB70FB78022B06D17B6829
:101228001B6801211846FFF7F1FC31E07B681B6859
:10123800194A934213D07B681B68184A93420ED010
:101248007B681B68164A934209D07B681B68154A5D
:10125800934204D07B681B68134A934218D1FB78E9
:10126800032B06D17B681B6804211846FFF7CEFCC8
:101278000EE0FB78042B0BD17B681B680121184614
:10128800FFF7C4FC7B681B6804211846FFF7BEFC07
:1012980000BF0837BD4680BD002C01400034014026
:1012A80000400140004401400048014080B582B040
:1012B80000AF78600B46FB70FB78022B06D17B6889
:1012C8001B6801211846FFF7B2FC31E07B681B68F8
:1012D800194A934213D07B681B68184A93420ED070
:1012E8007B681B68164A934209D07B681B68154ABD
:1012F800934204D07B681B68134A934218D1FB7849
:10130800032B06D17B681B6804211846FFF78FFC66
:101318000EE0FB78042B0BD17B681B680121184673
:10132800FFF785FC7B681B6804211846FFF77FFCE4
:1013380000BF0837BD4680BD002C01400034014085
:1013480000400140004401400048014080B582B09F
:1013580000AF78600B46FB70FB78022B06D17B68E8
:101368001B6810211846FFF751FC31E07B681B68A9
:10137800194A934213D07B681B68184A93420ED0CF
:101388007B681B68164A934209D07B681B68154A1C
:10139800934204D07B681B68134A934218D1FB78A8
:1013A800032B06D17B681B6840211846FFF72EFCEB
:1013B8000EE0FB78042B0BD17B681B6810211846C4
:1013C800FFF724FC7B681B6840211846FFF71EFCCA
:1013D80000BF0837BD4680BD002C014000340140E5
:1013E80000400140004401400048014080B582B0FF
:1013F80000AF78600B46FB70FB78022B06D17B6848
:101408001B6810211846FFF712FC31E07B681B6847
:10141800194A934213D07B681B68184A93420ED02E
:101428007B681B68164A934209D07B681B68154A7B
:10143800934204D07B681B68134A934218D1FB7807
:10144800032B06D17B681B6840211846FFF7EFFB8A
:101458000EE0FB78042B0BD17B681B681021184623
:10146800FFF7E5FB7B681B6840211846FFF7DFFBA9
:1014780000BF0837BD4680BD002C01400034014044
:1014880000400140004401400048014080B582B05E
:1014980000AF78600B46FB70FB78022B07D17B68A6
:1014A8001B684FF480711846FFF7B0FB34E07B6887
:1014B8001B681B4A934213D07B681B68194A9342E6
:1014C8000ED07B681B68184A934209D07B681B685A
:1014D800164A934204D07B681B68154A93421BD175
:1014E800FB78032B07D17B681B684FF48061184693
:1014F800FFF78CFB10E0FB78042B0DD17B681B6891
:101508004FF480711846FFF781FB7B681B684FF426
:1015180080611846FFF77AFB00BF0837BD4680BDDB
:10152800002C0140003401400040014000440140CB
:101538000048014080B582B000AF78600B46FB7070
:10154800FB78022B07D17B681B684FF48071184623
:10155800FFF76DFB34E07B681B681B4A934213D08E
:101568007B681B68194A93420ED07B681B68184A2F
:10157800934209D07B681B68164A934204D07B6863
:101588001B68154A93421BD1FB78032B07D17B6854
:101598001B684FF480611846FFF749FB10E0FB78A1
:1015A800042B0DD17B681B684FF480711846FFF738
:1015B8003EFB7B681B684FF480611846FFF737FBDA
:1015C80000BF0837BD4680BD002C014000340140F3
:1015D80000400140004401400048014080B582B00D
:1015E80000AF78600B46FB70FB78022B06D17B6856
:1015F8001B684FF480511846FFF708FB00BF0837F7
:10160800BD4680BD80B582B000AF78600B46FB70E8
:10161800FB78022B06D17B681B684FF48051184673
:10162800FFF705FB00BF0837BD4680BD80B584B015
:1016380000AF78600023FB607B681B68304A9342E8
:1016480001D1304BFB607B681A68FB681A60FB6845
:101658001B681846FFF7B6FAB860BB68002B06D0BF
:10166800BB68102B03D0FB6801221A7102E0FB68EB
:1016780000221A71FB681B68234A934213D0FB6847
:101688001B68224A93420ED0FB681B68204A93428B
:1016980009D0FB681B681F4A934204D0FB681B688B
:1016A8001D4A934204D1FB681B681846FFF7D1FA1C
:1016B800FB681B68144A934213D0FB681B68134AE3
:1016C80093420ED0FB681B68114A934209D0FB680D
:1016D8001B68104A934204D0FB681B680E4A934269
:1016E80008D17B681B681846FFF784FA0346DAB20C
:1016F800FB685A71FB6818461037BD4680BD00BFAD
:1017080000040040C4020020002C014000340140C5
:1017180000400140004401400048014080B485B0C9
:1017280000AF786039603B68002B03D17B68403399
:10173800FB6001E0044BFB60FB6818461437BD46AC
:101748005DF8047B704700BF0C03045080B483B07D
:1017580000AF78607B68DB6803F44063002B01D13D
:10176800012300E0002318460C37BD465DF8047BD2
:10177800704780B483B000AF786039607B681B6BBA
:1017880023F00F023B681A437B681A6300BF0C37CB
:10179800BD465DF8047B704780B483B000AF7860C5
:1017A80039607B68DB6823F003023B681A437B6877
:1017B800DA6000BF0C37BD465DF8047B704780B423
:1017C80083B000AF78607B68DB6C03F0C003002B4C
:1017D80001D1012300E0002318460C37BD465DF80F
:1017E800047B704780B483B000AF78607B689B68E7
:1017F80023F0004323F03F0343F001027B689A6023
:1018080000BF0C37BD465DF8047B704780B483B0D9
:1018180000AF78607B689B6823F0004323F03F03A8
:1018280043F002027B689A6000BF0C37BD465DF842
:10183800047B704780B483B000AF78607B689B6896
:1018480003F00103012B01D1012300E00023184616
:101858000C37BD465DF8047B704780B483B000AF99
:10186800786039607B689B6823F0404323F03F032E
:101878003A6802F08042134343F000427B689A6062
:1018880000BF0C37BD465DF8047B704780B483B059
:1018980000AF78607B689B6803F00043B3F1004FAA
:1018A80001D1012300E0002318460C37BD465DF83E
:1018B800047B704780B483B000AF78607B689B6816
:1018C80023F0004323F03F0343F004027B689A604F
:1018D80000BF0C37BD465DF8047B704780B483B009
:1018E80000AF78607B689B6823F0004323F03F03D8
:1018F80043F008027B689A6000BF0C37BD465DF86C
:10190800047B704780B483B000AF78607B681B6845
:1019180003F00803082B01D1012300E00023184637
:101928000C37BD465DF8047B704780B483B000AFC8
:1019380078607B681B6803F01003102B01D101232A
:1019480000E0002318460C37BD465DF8047B70475D
:1019580080B483B000AF78607B6810221A6000BF43
:101968000C37BD465DF8047B704780B483B000AF88
:1019780078607B685B6843F008027B685A6000BF48
:101988000C37BD465DF8047B704780B483B000AF68
:1019980078607B685B6843F040027B685A6000BFF0
:1019A8000C37BD465DF8047B704780B483B000AF48
:1019B80078607B685B6823F008027B685A6000BF28
:1019C8000C37BD465DF8047B704780B483B000AF28
:1019D80078607B685B6823F010027B685A6000BF00
:1019E8000C37BD465DF8047B704780B483B000AF08
:1019F80078607B685B6823F040027B685A6000BFB0
:101A08000C37BD465DF8047B704780B483B000AFE7
:101A180078607B685B6823F080027B685A6000BF4F
:101A28000C37BD465DF8047B704780B483B000AFC7
:101A380078607B685B6803F01003102B01D10123E9
:101A480000E0002318460C37BD465DF8047B70475C
:101A580080B483B000AF78607B685B6803F0800374
:101A6800802B01D1012300E0002318460C37BD4626
:101A78005DF8047B7047000080B485B000AF7860E3
:101A880039607B68FB600C4A3B6813441B781A4634
:101A9800FB6813441B6808493A680A4412781146DF
:101AA800FA680A4443F00103136000BF1437BD46C7
:101AB8005DF8047B704700BF1C10010880B485B036
:101AC80000AF786039607B68FB600C4A3B68134460
:101AD8001B781A46FB6813441B6808493A680A448D
:101AE80012781146FA680A4423F00103136000BF14
:101AF8001437BD465DF8047B704700BF1C10010811
:101B080080B485B000AF786039607B68FB60084AB4
:101B18003B6813441B781A46FB6813441B6803F0A0
:101B2800200318461437BD465DF8047B704700BF94
:101B38001C10010880B487B000AFF860B9607A6003
:101B4800FB687B610D4ABB6813441B781A467B69A6
:101B580013445B681B0C1B040849BA680A441278D2
:101B680011467A690A4411467A6813434B6000BFEC
:101B78001C37BD465DF8047B704700BF1C10010888
:101B880080B487B000AFF860B9607A603B60FB68EA
:101B98007B613B6A102B14D1174ABB6813441B782E
:101BA8001A467B6913441A467B68D360124ABB689D
:101BB80013441B781A467B6913441A463B689360A2
:101BC80013E00D4ABB6813441B781A467B6913441B
:101BD8001A467B689360084ABB6813441B781A4608
:101BE8007B6913441A463B68D36000BF1C37BD4667
:101BF8005DF8047B704700BF1C10010880B487B0F3
:101C080000AFF860B9607A60FB687B61074ABB681F
:101C180013441B781A467B6913441A467B68936001
:101C280000BF1C37BD465DF8047B70471C100108D7
:101C380080B483B000AF78607B681B6803F0200332
:101C4800202B01D1012300E0002318460C37BD46A4
:101C58005DF8047B704780B483B000AF78607B6820
:101C680020225A6000BF0C37BD465DF8047B7047E0
:101C780080B485B000AF786039607B68FB600C4A3F
:101C88003B6813441B781A46FB6813441B680849D1
:101C98003A680A4412781146FA680A4443F0020383
:101CA800136000BF1437BD465DF8047B704700BF62
:101CB8001C10010880B485B000AF786039607B687B
:101CC800FB600C4A3B6813441B781A46FB681344B4
:101CD8001B6808493A680A4412781146FA680A44A7
:101CE80043F00803136000BF1437BD465DF8047B5A
:101CF800704700BF1C10010880B485B000AF786041
:101D080039607B68FB600C4A3B6813441B781A46B1
:101D1800FB6813441B6808493A680A44127811465C
:101D2800FA680A4423F00203136000BF1437BD4663
:101D38005DF8047B704700BF1C10010880B485B0B3
:101D480000AF786039607B68FB600C4A3B681344DD
:101D58001B781A46FB6813441B6808493A680A440A
:101D680012781146FA680A4423F00403136000BF8E
:101D78001437BD465DF8047B704700BF1C1001088E
:101D880080B485B000AF786039607B68FB600C4A2E
:101D98003B6813441B781A46FB6813441B680849C0
:101DA8003A680A4412781146FA680A4423F008038C
:101DB800136000BF1437BD465DF8047B704700BF51
:101DC8001C10010880B485B000AF786039607B686A
:101DD800FB600A4A3B6813441B781A46FB681344A5
:101DE8001B6803F00203022B01D1012300E000234A
:101DF80018461437BD465DF8047B70471C1001086F
:101E080080B584B000AF78600123FB817B681B69D3
:101E18001846FFF79BFC0346002B2FD07B685B7AA4
:101E2800DBB2022B11D07B685B7ADBB2042B0CD0BF
:101E38007B685B7ADBB2082B07D07B681B69184686
:101E4800FFF760FD0346012B18D1786800F0F8F819
:101E58000346002B12D17B685B7ADBB2082B03D1D7
:101E68007B6801225A7202E07B6820225A727B68E2
:101E78001B691846FFF71EFD0023FB81FB891846E6
:101E88001037BD4680BD80B586B002AFF860B96036
:101E98007A603B600021F868FFF740FC03461A4669
:101EA8007968B868FFF7AAFE0021F868FFF736FCE2
:101EB80002463B68002100917968B868FFF760FE28
:101EC800BA697968B868FFF735FE7968B868FFF7C6
:101ED800CFFE7968B868FFF7EDFE7968B868FFF754
:101EE800CBFD00BF1037BD4680BD80B584B000AFC4
:101EF800F860B9607A607968B868FFF7DFFD7968DB
:101F0800B868FFF71BFF7968B868FFF739FF796889
:101F1800B868FFF7F1FE00227968B868FFF70AFE93
:101F280000BF1037BD4680BD80B584B000AF786073
:101F380039600223FB737B68DB79012B0FD17B6847
:101F4800DA687B681B685B00D118FB7B7A681268CB
:101F580002FB03F31A4638680FF016F80AE07B68AC
:101F6800D968FB7B7A68126802FB03F31A46386863
:101F78000FF00AF800BF1037BD4680BD80B586B0A7
:101F880000AFF860B9607A60FB685A69FB689B79B2
:101F980019461046FFF716FF0346DBB2012B37D16F
:101FA800FB685A69BB68104698470346012B2FD136
:101FB800FB6804225A72FB685A697B681046984786
:101FC800FB685A69FB689B7919461046FFF798FD2C
:101FD8000346002B19D1FB685A69FB689B7919469F
:101FE8001046FFF76BFDFB685869FB689B7919463B
:101FF800FB681B681A46FFF79DFDFB685A69FB687A
:102008009B7919461046FFF737FD0123FB7501E060
:102018000023FB75FB7D18461837BD4680BD0000C0
:1020280080B500AF034A04490448FFF7A7FF00BF83
:1020380080BD00BF5F1C0008391C00085003002049
:1020480080B582B000AF78607B681B691846FFF7DF
:102058006CFC0346DBB2012B07D17B681B69184671
:10206800FFF776FC7B6810225A727B685B7ADBB2DA
:10207800102B0CBF01230023DBB218460837BD46DE
:1020880080BD80B582B000AF78600B46FB70FB78EE
:10209800012B0DD17B681B691846FFF757FB0346D8
:1020A800012B12D07B681B691846FFF703FC0CE074
:1020B8007B681B691846FFF782FB0346012B04D097
:1020C8007B681B691846FFF709FC00BF0837BD4647
:1020D80080BD000090B589B002AFF860084611468F
:1020E8001A4603467B810B463B811346FB8000233F
:1020F8007B61FB681B693C4A934201D13B4B7B6186
:102108007B69002B6BD0FB681A697B691A617B6954
:102118000022DA71FB88012B61D03B89002B47D064
:102128007B695B7ADBB2082B42D0FB68DA687B6993
:10213800DA60FB681A687B691A60FB685A697B6910
:102148005A61FB689A797B699A71FB681A797B698D
:102158001A717B691B69B96A1846FFF70AFB7B8904
:10216800012B21D07B89042B16D17B691B690321A4
:102178001846FFF711FB7B6918697B6959697B6908
:102188009B791C467B69DA687B691B680093134658
:102198002246FFF778FE07E07B89022B04D17B6992
:1021A8001B691846FFF7E1FB7B6908225A7216E0A3
:1021B8003B89002B13D17B699B7ADBB2082B0ED0AD
:1021C800FB685A797B695A717B89022B04D17B6938
:1021D8001B691846FFF7D9FB7B6908229A727B694D
:1021E80018461C37BD4690BD00010450500300201E
:1021F80080B582B000AF78607B681B691846FFF72E
:1022080019FB0346002B04D17B681B691846FFF7AE
:10221800E9FA00BF0837BD4680BD80B586B000AF7B
:10222800F8600B467A607B810123FB82FB681B699F
:10223800002B46D07B89012B05D1F868FFF7E0FD1C
:102248000346FB823DE07B89042B1FD1FB681B6999
:102258001846FFF77BFA0346002B32D0FB680122B1
:102268005A72FB681B691846FFF724FB00BFFB681E
:102278005B7ADBB2042BFAD17968F868FFF754FE71
:10228800FB6808225A720023FB821AE07B89022B22
:1022980017D1FB685B7ADBB2202B09D0FB685B7A2D
:1022A800DBB2042B04D0FB685B7ADBB2102B08D1BD
:1022B800FB6808225A727968F868FFF735FE002330
:1022C800FB82FB8A18461837BD4680BD80B582B0B0
:1022D80000AF78600B467B8013463B807B681B69A8
:1022E8001846FFF7A7FA0346002B04D07B681B6942
:1022F8001846FFF78BFA7B681B691846FFF7A8FB9F
:102308000346002B04D07B681B691846FFF77DFB4A
:102318007B681B691846FFF788FB0346002B04D02F
:102328007B681B691846FFF750FB3B88002B35D0AC
:102338007B88012B1AD07B88022B05D17B681B690F
:102348001846FFF732FB11E07B88042B0ED17B681F
:1023580018697B6859697B689B791A46FFF7C5FD40
:102368007B681B6900211846FFF716FA7B68002274
:10237800DA607B6800221A607B6800225A617B68F9
:1023880000229A717B6800221A717B681A697B683F
:102398001B7919461046FFF7ECF90AE07B68002222
:1023A8005A717B88022B04D17B681B691846FFF79A
:1023B8001CFB00BF0837BD4680BD000080B584B057
:1023C80000AF78600B46FB707B681B691846FFF707
:1023D80031FA0346FB7397F90F30012B04D17B6860
:1023E8001B691846FFF712FAFB78002B0FD17B68A0
:1023F8001B697F211846FFF730FA00BF7B681B690D
:102408001846FFF743FA0346012BF7D040E0FB7864
:10241800012B0FD17B681B692C491846FFF71DFA61
:1024280000BF7B681B691846FFF730FA0346012B8B
:10243800F7D02DE07B681B697F211846FFF70DFA5E
:1024480000BF7B681B691846FFF720FA0346012B7B
:10245800F7D00023BB8107E000BFBB891BB29BB24A
:1024680001339BB21BB2BB81BB891BB29BB2032B4E
:10247800F2D97B681B6915491846FFF7EEF900BFCA
:102488007B681B691846FFF701FA0346012BF7D052
:102498000023BB8107E000BFBB891BB29BB201339D
:1024A8009BB21BB2BB81BB891BB29BB2032BF2D977
:1024B80097F90F30012B04D17B681B691846FFF789
:1024C80091F900BF1037BD4680BD00BF00007F40B6
:1024D80080B483B000AF78607B681B6843F001026A
:1024E8007B681A6000BF0C37BD465DF8047B7047F7
:1024F80080B483B000AF78607B681B6823F001026A
:102508007B681A6000BF0C37BD465DF8047B7047D6
:1025180080B483B000AF786039607B681B6823F0B3
:1025280004023B681A437B681A6000BF0C37BD463B
:102538005DF8047B704780B483B000AF78607B6837
:102548001B6803F0040318460C37BD465DF8047B8E
:10255800704780B483B000AF78607B68DB6A184648
:102568000C37BD465DF8047B704780B483B000AF7C
:10257800786039607B683A681A6300BF0C37BD46DB
:102588005DF8047B704780B483B000AF7860396031
:102598007B683A685A6300BF0C37BD465DF8047B18
:1025A800704780B483B000AF786039607B683A6860
:1025B8009A6300BF0C37BD465DF8047B704780B452
:1025C80083B000AF786039607B683A68DA6300BF2F
:1025D8000C37BD465DF8047B704780B483B000AF0C
:1025E800786039607B683A681A6400BF0C37BD466A
:1025F8005DF8047B704780B483B000AF78607B6877
:102608005B6B18460C37BD465DF8047B704780B499
:1026180083B000AF78607B689B6B18460C37BD466B
:102628005DF8047B704780B483B000AF78607B6846
:10263800DB6B18460C37BD465DF8047B704780B4E9
:1026480083B000AF78607B681B6C18460C37BD46BA
:102658005DF8047B704780B483B000AF78607B6816
:102668005B6943F001027B685A6100BF0C37BD46C5
:102678005DF8047B704780B483B000AF78607B68F6
:102688001B6918460C37BD465DF8047B704780B45B
:1026980083B000AF786039607B683A689A6100BFA0
:1026A8000C37BD465DF8047B704780B483B000AF3B
:1026B800786039607B683A689A6200BF0C37BD461B
:1026C8005DF8047B7047000080B584B000AF786087
:1026D80087ED000AD7ED007AF5EEC07AF1EE10FA30
:1026E80003D54FF000033B600AE0D7ED007A9FED79
:1026F800167AF4EEC77AF1EE10FA01DD134B3B605F
:102708007B681B681846FFF724FFF8607B681B7915
:10271800002B0CBF01230023DBB21A46FB681344CD
:1027280007EE903AB8EE677AD7ED007A27EE277A67
:10273800DFED056AC7EE267AFCEEE77A17EE903AE7
:1027480018461037BD4680BD0000C8420000C84288
:1027580080B582B000AF786039607B681B68184626
:10276800FFF749FF02463B68934205D07B681B6828
:1027780039681846FFF707FF00BF0837BD4680BD18
:1027880080B582B000AF786039607B681B681846F6
:10279800FFF73DFF02463B68934205D07B681B6804
:1027A80039681846FFF7FDFE00BF0837BD4680BDF3
:1027B80080B582B000AF786039607B681B681846C6
:1027C800FFF731FF02463B68934205D07B681B68E0
:1027D80039681846FFF7F3FE00BF0837BD4680BDCD
:1027E80080B582B000AF786039607B681B68184696
:1027F800FFF725FF02463B68934205D07B681B68BC
:1028080039681846FFF7E9FE00BF0837BD4680BDA6
:1028180080B584B000AF786087ED000A97ED000AB4
:102828007868FFF751FFF860F9687868FFF790FF5C
:1028380000BF1037BD4680BD80B584B000AF78605A
:1028480087ED000A97ED000A7868FFF73DFFF8600A
:10285800F9687868FFF794FF00BF1037BD4680BD60
:1028680080B584B000AF786087ED000A97ED000A64
:102878007868FFF729FFF860F9687868FFF798FF2C
:1028880000BF1037BD4680BD80B584B000AF78600A
:1028980087ED000A97ED000A7868FFF715FFF860E2
:1028A800F9687868FFF79CFF00BF1037BD4680BD08
:1028B80080B485B000AF78607B681B689A68074B66
:1028C8001340FB60FB68062B0CBF01230023DBB21F
:1028D80018461437BD465DF8047B704707000100B1
:1028E80080B584B000AF78600B46FB707B681B68CE
:1028F8001846FFF720FEF860FB78002B1ED07B6897
:102908001B68324A934213D07B681B68304A934253
:102918000ED07B681B682F4A934209D07B681B68DE
:102928002D4A934204D07B681B682C4A934205D1F8
:102938007B681B6800211846FFF717FEFB68042B0D
:1029480011D07B681B6804211846FFF7E1FD7B68FE
:102958001B681846FFF77FFE7B681B68F9681846F6
:10296800FFF7D6FD04E07B681B681846FFF773FE87
:102978007B681B681846FFF7ABFDFB78002B20D05F
:102988007B681B68114A934213D07B681B68104A06
:1029980093420ED07B681B680E4A934209D07B682D
:1029A8001B680D4A934204D07B681B680B4A93420C
:1029B80007D17B681A687B685B7919461046FFF770
:1029C800D4FD00BF1037BD4680BD00BF002C0140BC
:1029D80000340140004001400044014000480140EB
:1029E80080B582B000AF78607B681B681846FFF737
:1029F8007FFD00BF0837BD4680BD80B485B000AFFD
:102A0800786039607B68012283F8D8203B68D3E975
:102A180000237968C1E902237B6801221A60002338
:102A2800FB600CE07B68D3E902237868F96802311F
:102A3800C9000144C1E90023FB680133FB60FB685E
:102A4800182BEFDD00BF00BF1437BD465DF8047BCF
:102A5800704780B586B000AF87ED040BF860B960A9
:102A68007A60BB68D3E902017B68D3E90023FDF7EC
:102A7800ABFF0346002B05D17B68D3E90023B96877
:102A8800C1E90223F868BB681033C82219460EF062
:102A98007BFAF968D7E90423C1E93223FB6803F11B
:102AA800D000BB681033C02219460EF06DFABB681F
:102AB80003F11000FB68C833C82219460EF064FA07
:102AC80000BF1837BD4680BD80B485B000AF7860C0
:102AD80039607B68012283F860203B68D3E90023D2
:102AE8007968C1E902237B6801221A600023FB6030
:102AF8000CE07B68D3E902237868F9680231C900E1
:102B08000144C1E90023FB680133FB60FB68092B22
:102B1800EFDD00BF00BF1437BD465DF8047B70478A
:102B280080B586B000AF87ED040BF860B9607A60B5
:102B3800BB68D3E902017B68D3E90023FDF744FFB2
:102B48000346002B05D17B68D3E90023B968C1E9A6
:102B58000223F868BB681033502219460EF014FAA5
:102B6800F968D7E90423C1E91423FB6803F1580085
:102B7800BB681033482219460EF006FABB6803F109
:102B88001000FB685033502219460EF0FDF900BFC3
:102B98001837BD4680BD000080B584B000AF87ED12
:102BA800000B38687B6823F000414FF000022C4B83
:102BB800FDF714FF0346002B42D04FF00002294BCB
:102BC800D7E90001FDF71EFF0346002B13D04FF095
:102BD8000002244BD7E90001FDF7D8FA02460B465C
:102BE80043EC172BB0EE470AF0EE670A0DF0D0FF62
:102BF80087ED020B28E04FF000021B4BD7E90001DC
:102C0800FDF70AFF0346002B06D04FF000024FF0F5
:102C18000003C7E9022317E04FF00002114BD7E980
:102C28000001FDF7B1FA02460B4643EC172BB0EE54
:102C3800470AF0EE670A0DF023FF87ED020B03E069
:102C4800D7E90023C7E90223D7E9022343EC172B6E
:102C5800B0EE470AF0EE670A1037BD4680BD00BFE8
:102C6800000030430000E03F0000E0BF80B582B0C4
:102C780000AF5C4B93F8813003F00103DBB2002B0B
:102C88000CBF01230023DBB2FB71FB79002B09D0B9
:102C9800544B93F8813003F00203DBB2002B01D0D0
:102CA800012300E00023BB71BB79002B19D04D4BE9
:102CB800002283F884204B4A92F88030102161F377
:102CC800040382F88030474BD3E91E014FF000021D
:102CD800454BFDF75BFA02460B464249C1E91E2304
:102CE8007BE0404B93F8813003F00203DBB2002B0A
:102CF8000CBF01230023DBB2BB713A4B93F8813040
:102D080003F00103DBB2002B04D0BB79002B01D008
:102D1800012300E000237B717B79002B19D0314B14
:102D2800002283F884202F4A92F880300F2161F323
:102D3800040382F880302B4BD3E91C014FF00002CA
:102D4800294BFDF723FA02460B462649C1E91C2305
:102D580043E0244B93F8813003F00103DBB2002BEE
:102D680009D0204B93F8813003F00203DBB2002B2B
:102D780001D0012300E000237B717B79002B1AD05E
:102D8800184B002283F88420164A92F880301221CA
:102D980061F3040382F8803012494FF000024FF0CB
:102DA8000003C1E91E230F494FF000024FF0000352
:102DB800C1E91C2311E0FB79002B0ED0BB79002B55
:102DC8000BD0084B002283F88420064A92F8803002
:102DD8000A2161F3040382F8803000BF0837BD463A
:102DE80080BD00BF781500200000F03F80B500AF1F
:102DF80030494FF000024FF00003C1E920232D496C
:102E08004FF000024FF00003C1E91C2329494FF09D
:102E180000024FF00003C1E9222326494FF00002C7
:102E28004FF00003C1E91E23234BD3E91E014FF0E5
:102E38000002224BFDF7C8FD0346002B0AD11E4BAA
:102E4800D3E91C014FF000021C4BFDF7BDFD034602
:102E5800002B01D0012300E0002303F00103D9B2C5
:102E6800154A92F8813061F3C30382F88130124A1F
:102E780092F881306FF3820382F881300E4A92F81B
:102E880081306FF3000382F881300B4A92F8813069
:102E98006FF3410382F88130064B002283F8B0209B
:102EA800044B002283F8B220024B002283F8B120A1
:102EB80000BF80BDE0030020781500200000084016
:102EC80090B589B000AFF860B9607A603B60B84BE4
:102ED80093F88030C3F30403DBB2013B122B00F2FA
:102EE800558501A252F823F03D2F00089F2F0008B6
:102EF8005730000819310008853200080B330008E4
:102F080049330008B1340008DD35000807360008E9
:102F180047360008AF36000819370008AD370008F3
:102F2800C9370008233800087D380008EF38000842
:102F3800493900089E4B93F88430022B1CD99D49CF
:102F48004FF000029C4BC1E918239A494FF0000248
:102F58004FF00003C1E91A2396494FF00002964B3F
:102F6800C1E91623924A92F88030132161F30403D1
:102F780082F8803000F018BD3B68D3E9000182A3D5
:102F8800D3E90023FDF7B8FA02460B468849C1E9A0
:102F98001A2300F009BD864B93F88430022B20D900
:102FA800834B002283F88420814A92F880300121E3
:102FB80061F3040382F880307E494FF000027E4BB3
:102FC800C1E918237B494FF000024FF00003C1E923
:102FD8001A2378494FF00002774BC1E9162300F015
:102FE800E3BC744B93F8B030002B0CBF01230023D3
:102FF800DBB21A466F4B83F8B0206E4B93F8B130B2
:10300800002B0CBF01230023DBB21A46694B83F85F
:10301800B1207B681833D3E900015DA3D3E900230D
:10302800FDF76AFA02460B466149C1E916237B6837
:103038002033D3E9000154A3D3E90023FDF75CFA58
:1030480002460B465A49C1E9182300F0ADBC584B5B
:1030580093F88430072B11D9554A92F8803008210B
:1030680061F3040382F88030524B002283F8B020C9
:10307800504B002283F8B22000F096BC7B681033D6
:10308800D3E900017B682833D3E90023FDF77CF8F6
:1030980002460B46104619464FF00002474BFDF713
:1030A8002BFA02460B46104619463BA3D3E90023E8
:1030B800FDF74CFB02460B46C7E9062338A3D3E9C4
:1030C8000023D7E90601FDF717FA02460B4636A199
:1030D800D1E90001FDF758F802460B463549C1E928
:1030E80020232FA3D3E90023D7E90601FDF704FA2B
:1030F80002460B46104619464FF00002304BFDF7CA
:1031080045F802460B462B49C1E91C2300F04CBC8C
:10311800274B93F8813003F00403DBB2002B06D071
:10312800234B93F88430012B01D9012300E00023BD
:10313800FB75FB7D002B16D01E494FF000021E4B7D
:10314800C1E918231B494FF000024FF00003C1E901
:103158001A23174A92F88030142161F3040382F885
:10316800803000F021BC124B93F8813003F0040347
:10317800DBB2002B26D10E4B93F88430012B21D9DA
:10318800012320E0AFF300809A9999999999E93F32
:10319800666666666666EE3F6666666666660A40E8
:1031A8007B14AE47E17AC43F0000000000E05340C2
:1031B80078150020E00300200000F03F000059408F
:1031C800000054400023FB75FB7D002B27D0B0493D
:1031D8004FF00002AF4BC1E91823AD494FF0000290
:1031E8004FF00003C1E91A23AB4B002283F8842077
:1031F800A94A92F88030092161F3040382F88030EB
:10320800A5494FF000024FF00003C1E91E23A2496F
:103218004FF000024FF00003C1E91C23C4E37B68B0
:103228001833D3E900019C4BD3E916230124FDF799
:10323800F3FB0346002B01D100231C46E1B2964A5A
:1032480092F8813061F3000382F881307B68203383
:10325800D3E90001904BD3E918230124FDF7DCFBE7
:103268000346002B01D100231C46E1B28A4A92F89A
:10327800813061F3410382F8813095E3864B93F8FE
:103288008430012B18D9824B002283F8B020804B60
:10329800002283F8B2207E4B002283F8B1207E4BB7
:1032A800002283F884207C4A92F880300D2161F353
:1032B800040382F8803077E3754B93F8B030002B25
:1032C8000CBF01230023DBB21A46714B83F8B020F0
:1032D8006F4B93F8B230002B0CBF01230023DBB2F5
:1032E8001A466B4B83F8B220694B93F8B130002B28
:1032F8000CBF01230023DBB21A46654B83F8B120CB
:1033080052E3BB681B78002B00F04383624B00221A
:1033180083F88420604A92F88030022161F3040324
:1033280082F880305A494FF000024FF00003C1E99B
:10333800182357494FF00002564BC1E91A2328E3D6
:103348007B68D3E900014FF00002544BFDF764FBA2
:103358000346002B49D07B683833D3E900014FF08E
:1033680000024E4BFDF758FB0346002B3DD0484961
:103378004FF000024FF00003C1E9202344494FF009
:1033880000024FF00003C1E91C23434B002283F8DD
:103398008420414A92F88030042161F3040382F8C2
:1033A80080303B68D3E900013B4BD3E91A23012461
:1033B800FDF732FB0346002B01D100231C46E1B286
:1033C800354A92F8813061F3820382F881303049BE
:1033D8004FF000024FF00003C1E918232C494FF0C9
:1033E80000022C4BC1E91A23DEE27B681033D3E9D3
:1033F80000017B682833D3E90023FCF7C5FE0246A9
:103408000B46104619464FF00002254BFDF774F89D
:1034180002460B461046194619A3D3E90023FDF7C7
:1034280095F902460B46C7E9062317A3D3E90023FB
:10343800D7E90601FDF760F802460B464FF0000099
:103448001849FCF7A1FE02460B461149C1E92023A1
:103458000DA3D3E90023D7E90601FDF74DF802468D
:103468000B46104619464FF000020E4BFCF78EFE35
:1034780002460B460649C1E91C2395E2AFF30080DA
:103488006666666666660A409A9999999999D93FD7
:10349800E00300200000F03F7815002000000A40FB
:1034A8000000594000005440BB681B78002B28D00E
:1034B800B54A92F880300E2161F3040382F8803017
:1034C800B24B002283F8B020B0494FF000024FF011
:1034D8000003C1E92023AD494FF000024FF000037B
:1034E800C1E91C23A9494FF000024FF00003C1E9CC
:1034F8002223A6494FF000024FF00003C1E91E2322
:1035080052E27B68D3E900014FF00002A04BFDF7BF
:1035180065FA0346002B14D07B683833D3E90001E1
:103528004FF000029A4BFDF759FA0346002B08D0DA
:10353800954A92F88030072161F3040382F88030BD
:1035480032E27B681033D3E900017B682833D3E982
:103558000023FCF719FE02460B46104619464FF0A9
:1035680000028C4BFCF7C8FF02460B461046194672
:103578007FA3D3E90023FDF7E9F802460B46C7E924
:1035880006237DA3D3E90023D7E90601FCF7B4FF9E
:1035980002460B467AA1D1E90001FCF7F5FD024687
:1035A8000B467A49C1E9202373A3D3E90023D7E95D
:1035B8000601FCF7A1FF02460B46104619464FF0DC
:1035C8000002754BFCF7E2FD02460B466F49C1E964
:1035D8001C23E9E16C4B93F88430002B00F0DB816D
:1035E800694B002283F88420674A92F880300B21C7
:1035F80061F3040382F88030FFF7F8FBCBE1624BFC
:1036080093F88430002B00F0C8815F4B002283F8C8
:1036180084205D4A92F880300F2161F3040382F818
:103628008030594BD3E91C014FF000025B4BFCF78B
:10363800ADFD02460B465449C1E91C23ADE1524B8E
:1036480093F8813003F00803DBB2002B18D04E4BFF
:10365800002283F884204C4A92F88030052161F3D7
:10366800040382F88030494B012283F8B020474B8D
:10367800002283F8B220454B012283F8B1208EE165
:10368800414B93F88430002B00F089813E4B002297
:1036980083F884203C4A92F88030032161F30403C4
:1036A80082F880307BE1384B93F88430012B22D9A3
:1036B80036494FF000024FF00003C1E91C2333499B
:1036C8004FF000024FF00003C1E922232F4B0022E4
:1036D80083F8B0202D4B002283F8B2202B4B002218
:1036E80083F8B120284A92F88030132161F304034B
:1036F80082F8803058E125494FF00002284BC1E993
:103708001C2322494FF00002254BC1E922234BE13B
:103718001D4B93F884300A2B1AD91C494FF000022C
:103728004FF00003C1E91E2318494FF000024FF083
:103738000003C1E92023144B002283F88420124A95
:1037480092F880300C2161F3040382F880302BE179
:103758000E494FF00002124BC1E91E230B494FF0EE
:1037680000020F4BC1E920231EE100BFAFF3008028
:103778006666666666660A409A9999999999D93FE4
:103788000000000000E0534078150020E00300200E
:1037980000000A4000005940000054400000F03F7B
:1037A80000805640FB681B78002B00F0FA80804AA6
:1037B80092F88030132161F3040382F88030F0E03E
:1037C8007B4B93F88430052B0ED9794B002283F874
:1037D8008420774A92F880300B2161F3040382F841
:1037E8008030FFF703FBDFE0724B93F8B030002B1B
:1037F8000CBF01230023DBB21A466E4B83F8B020BE
:103808006C494FF000026C4BC1E91C2369494FF029
:103818000002694BC1E92223C6E0654B93F8843066
:10382800052B0ED9624B002283F88420604A92F857
:1038380080300B2161F3040382F88030FFF7D6FA59
:10384800B2E05C4B93F8B130002B0CBF012300238E
:10385800DBB21A46574B83F8B12056494FF00002A5
:10386800554BC1E91E2353494FF00002524BC1E9A1
:10387800202399E04E4B93F884300A2B1AD94D4BEC
:10388800002283F8B2204B494FF000024FF00003AA
:10389800C1E91C2347494FF000024FF00003C1E97A
:1038A8002223434A92F88030132161F3040382F8FB
:1038B800803079E03F4B93F8B230002B0CBF0123E6
:1038C8000023DBB21A463B4B83F8B22039494FF04C
:1038D8000002394BC1E91C2336494FF00002364B30
:1038E800C1E9222360E0324B93F884300A2B0ED9C9
:1038F8002F4B002283F884202D4A92F880300B2128
:1039080061F3040382F88030FFF770FA4CE0294B2A
:1039180093F8B230002B0CBF01230023DBB21A4608
:10392800244B83F8B22023494FF00002224BC1E90F
:103938001C2320494FF000021F4BC1E9222333E02A
:10394800FB681B78002B10D0194A92F880300821A8
:1039580061F3040382F88030164B002283F8B0200C
:10396800144B002283F8B2201DE0BB681B78002BA3
:1039780019D00F4B002283F884200D4A92F880302A
:10398800112161F3040382F880300CE0FFF76EF92F
:103998000AE000BF08E000BF06E000BF04E000BF87
:1039A80002E000BF00E000BF00BF2437BD4690BD65
:1039B80078150020E00300200080564080B58CB0C8
:1039C80002AF78607B6800221A727B6801225A6015
:1039D8007B681033BB6100237B741A4BFB611A4B65
:1039E8003B620123BB74002387F82430022387F845
:1039F80025300923FB6009233B7407F10C000823D9
:103A08000093042301220421FEF764FB02467B682D
:103A1800DA607B68DB6802211846FEF7CFFC7B681A
:103A2800DB681846FEF7E4FB7B68DB680121184673
:103A3800FEF727FB7B6801221A7200BF2837BD46B4
:103A480080BD00BF000104500000024080B5A6B050
:103A580000AF78601A4BBB6000233B7300237B7375
:103A680007F108031846FDF7E1FD02467B68DA60B6
:103A78007B68DB6800211846FDF793FA7B68DB68F2
:103A880002211846FDF702FD7B68DB680221184613
:103A9800FDF7A4FD7B68DB681846FEF709FF0346BF
:103AA80087F8973097F89730002B05D17B68DB684B
:103AB80000211846FEF714FF00BF9837BD4680BDA9
:103AC8000004004080B5A6B000AF78601A4BBB6018
:103AD80000233B7300237B7307F108031846FDF7A7
:103AE800A5FD02467B68DA607B68DB680021184622
:103AF800FDF757FA7B68DB6802211846FDF786FB5D
:103B08007B68DB6802211846FDF720FC7B68DB68D0
:103B18001846FEF7CDFE034687F8973097F897309A
:103B2800002B05D17B68DB6800211846FEF7D8FE1C
:103B380000BF9837BD4680BD00040040000000006B
:103B4800B0B5ACB000AFA84BDB68A84A0421184652
:103B5800FEF763FBA54BDB89A54AA2F84030A34BCF
:103B68001B88A34AA2F84E30A04B9B89A04AA2F812
:103B780042309E4B5B889E4AA2F84C309B4B5B8937
:103B88009B4AA2F84430994B9B88994AA2F84A303C
:103B9800964B1B89964AA2F84630944BDB88944A88
:103BA800A2F848300023C7F88C3014E0904AD7F8C0
:103BB8008C30203332F813301846FCF723FC8C4A3B
:103BC800D7F88C30DB001344C3E90001D7F88C30F8
:103BD8000133C7F88C30D7F88C30072BE6DD844BDF
:103BE80093ED007B834A84498448B0EE470AF0EE9F
:103BF800670AFEF72EFF7E4B03F5E06353E90223C5
:103C08007B49C1E924230023C7F88C301EE0D7F88C
:103C18008C300133764ADF33DB001344D3E90023C9
:103C2800C7E92423724BD3E92423D7E92401FCF7FD
:103C3800F3FE0346002B04D06D49D7E92423C1E9DC
:103C48002423D7F88C300133C7F88C30D7F88C3060
:103C5800172BDCDD664B93ED027B694A69496A489C
:103C6800B0EE470AF0EE670AFEF75AFF604B03F51D
:103C7800546353E902235E49C1E926230023C7F8A8
:103C88008C301FE0D7F88C300133594A03F2A71360
:103C9800DB001344D3E90023C7E92423544BD3E9B9
:103CA8002623D7E92401FCF7B7FE0346002B04D0EE
:103CB8004F49D7E92423C1E92623D7F88C300133AB
:103CC800C7F88C30D7F88C30082BDBDD484B93EDE8
:103CD800267B4E4A4E494F48B0EE470AF0EE670A37
:103CE800FEF7B7FE424B03F58053103353E9022326
:103CF800C7E920230023C7F88C301DE0D7F88C30A3
:103D080001333B4A03F20123DB001344D3E90023C8
:103D1800C7E92423D7E92023D7E92401FCF75EFE6D
:103D28000346002B03D0D7E92423C7E92023D7F87B
:103D38008C300133C7F88C30D7F88C30172BDDDD89
:103D48002B4B93ED047B344A34493548B0EE470A8F
:103D5800F0EE670AFEF77DFE254B03F5096353E98C
:103D680002232349C1E926230023C7F88C301FE02A
:103D7800D7F88C3001331E4A03F21113DB001344C9
:103D8800D3E90023C7E92423194BD3E92623D7E92C
:103D98002401FCF741FE0346002B04D01449D7E95F
:103DA8002423C1E92623D7F88C300133C7F88C3097
:103DB800D7F88C30172BDBDD0D4B93ED067B194ABA
:103DC80019491A48B0EE470AF0EE670AFEF741FEB5
:103DD800074B03F5AE6353E902230549C1E92823DC
:103DE8000023C7F88C3042E0781500208C030020AF
:103DF800E00300208800002080190020D80A002055
:103E0800A8000020001D002018110020C00000207C
:103E1800B01E0020E813002090000020601A002047
:103E2800680C002080000020A0180020480900200D
:103E3800D7F88C300133884AAD33DB001344D3E91B
:103E48000023C7E92423844BD3E92823D7E9240195
:103E5800FCF7E2FD0346002B04D07F49D7E9242371
:103E6800C1E92823D7F88C300133C7F88C30D7F84C
:103E78008C30172BDCDD784B93ED087B774A78493B
:103E88007848B0EE470AF0EE670AFEF7E2FD724B9B
:103E9800D3E9F6237049C1E92A230023C7F88C30F7
:103EA8001EE0D7F88C3001336B4A7B33DB001344B8
:103EB800D3E90023C7E92423674BD3E92A23D7E9A9
:103EC8002401FCF7A9FD0346002B04D06249D7E979
:103ED8002423C1E92A23D7F88C300133C7F88C3062
:103EE800D7F88C30172BDCDD5B4B93ED0A7B5E4AF1
:103EF8005E495F48B0EE470AF0EE670AFEF7A9FD93
:103F0800554BD3E99223C7E92A230023C7F88C30FD
:103F18001CE0D7F88C3001334F4A4933DB00134497
:103F2800D3E90023C7E92423D7E92423D7E92A01C1
:103F3800FCF754FD0346002B03D0D7E92423C7E937
:103F48002A23D7F88C300133C7F88C30D7F88C3057
:103F5800172BDEDD404B93ED0C7B464A464947481C
:103F6800B0EE470AF0EE670AFEF7DAFD3A4B03F5C2
:103F78005E6353E90223C7E928230023C7F88C307E
:103F88001DE0D7F88C300133334A03F2BB13DB0052
:103F98001344D3E90023C7E92423D7E92423D7E925
:103FA8002801FCF71BFD0346002B03D0D7E9242387
:103FB800C7E92823D7F88C300133C7F88C30D7F8F5
:103FC8008C30082BDDDD2E4A2E492F4897ED280B23
:103FD800FEF73FFD204B03F5686353E90223C7E969
:103FE80026230023C7F88C301DE0D7F88C30013326
:103FF800194A03F2CF13DB001344D3E90023C7E9BE
:104008002423D7E92423D7E92601FCF705FD034635
:10401800002B03D0D7E92423C7E92623D7F88C300F
:104028000133C7F88C30D7F88C30172BDDDD0A4BFD
:1040380093ED0E7B154A16491648B0EE470AF0EE86
:10404800670AFEF706FD044BD3E92E23C7E92823A8
:104058000023C7F88C303CE0E00300207800002003
:10406800C0170020B807002070000020E0160020CC
:1040780028060020B0000020681D0020B81100208C
:10408800B8000020D01D0020581200206800002031
:104098000016002098040020D7F88C300133BA4A63
:1040A8001733DB001344D3E90023C7E92423D7E9F6
:1040B8002423D7E92801FCF791FC0346002B03D001
:1040C800D7E92423C7E92823D7F88C300133C7F868
:1040D8008C30D7F88C30172BDEDDAB4B93ED247B7F
:1040E800B0EE470AF0EE670A0CF052FDB0EE407AE7
:1040F800F0EE607A9FEDA21BB0EE470AF0EE670A79
:104108000CF088FC87ED240B4FF000024FF0000301
:10411800D7E92401FCF762FC0346002B0ED0D7F840
:104128009040D7F8943083F0004520462946FCF7A4
:1041380093FC03469BB25B429BB205E0D7E924019E
:10414800FCF78AFC03469BB2904A138097ED207BCC
:10415800B0EE470AF0EE670A0CF01AFDB0EE407AAE
:10416800F0EE607A9FED861BB0EE470AF0EE670A24
:104178000CF050FC87ED240B4FF000024FF00003C9
:10418800D7E92401FCF72AFC0346002B10D0D7F806
:1041980090303B67D7F8943083F000437B67D7E9CA
:1041A8001C01FCF759FC03469BB25B429BB205E03D
:1041B800D7E92401FCF750FC03469BB2734A5380AD
:1041C800714B93ED267BB0EE470AF0EE670A0CF0D0
:1041D800DFFCB0EE407AF0EE607A9FED691BB0EE3E
:1041E800470AF0EE670A0CF015FC87ED240B4FF038
:1041F80000024FF00003D7E92401FCF7EFFB034668
:10420800002B10D0D7F89030BB66D7F8943083F0E5
:104218000043FB66D7E91A01FCF71EFC03469BB274
:104228005B429BB205E0D7E92401FCF715FC034685
:104238009BB2564A9380544B93ED287BB0EE470AC5
:10424800F0EE670A0CF0A4FCB0EE407AF0EE607A6B
:104258009FED4B1BB0EE470AF0EE670A0CF0DAFB55
:1042680087ED240B4FF000024FF00003D7E924013B
:10427800FCF7B4FB0346002B10D0D7F890303B6610
:10428800D7F8943083F000437B66D7E91801FCF730
:10429800E3FB03469BB25B429BB205E0D7E92401EE
:1042A800FCF7DAFB03469BB2384AD380364B93EDD2
:1042B8002A7BB0EE470AF0EE670A0CF069FCB0EE14
:1042C800407AF0EE607A9FED2E1BB0EE470AF0EED2
:1042D800670A0CF09FFB87ED240B4FF000024FF0AC
:1042E8000003D7E92401FCF779FB0346002B10D023
:1042F800D7F89030BB65D7F8943083F00043FB655E
:10430800D7E91601FCF7A8FB03469BB25B429BB2B8
:1043180005E0D7E92401FCF79FFB03469BB21B4A43
:10432800138197ED2A0B0CF033FCB0EE407AF0EED7
:10433800607A9FED131BB0EE470AF0EE670A0CF0A7
:1043480069FB87ED240B4FF000024FF00003D7E91B
:104358002401FCF743FB0346002B19D0D7F8903013
:104368003B65D7F8943083F000437B65D7E91401A7
:10437800FCF772FB03469BB25B429BB20EE000BFA8
:10438800000000000000F040E0030020A00300202F
:10439800D7E92401FCF760FB03469BB2A24A53818C
:1043A80097ED260B0CF0F4FBB0EE407AF0EE607A55
:1043B8009FED9B1BB0EE470AF0EE670A0CF02AFB54
:1043C80087ED240B4FF000024FF00003D7E92401DA
:1043D800FCF704FB0346002B10D0D7F89030BB64E1
:1043E800D7F8943083F00043FB64D7E91201FCF757
:1043F80033FB03469BB25B429BB205E0D7E924013D
:10440800FCF72AFB03469BB2874A938197ED280B5A
:104418000CF0BEFBB0EE407AF0EE607A9FED801BA8
:10442800B0EE470AF0EE670A0CF0F4FA87ED240BB9
:104438004FF000024FF00003D7E92401FCF7CEFA51
:104448000346002B10D0D7F890303B64D7F894304F
:1044580083F000437B64D7E91001FCF7FDFA0346BB
:104468009BB25B429BB205E0D7E92401FCF7F4FA62
:1044780003469BB26C4AD3816C4BB3F85A306A4AF4
:1044880013826B4B03F5E06353E90223C7E920234A
:104498000023C7F88C301CE0D7F88C300133644A0D
:1044A800DF33DB001344D3E90023C7E92423D7E92A
:1044B8002023D7E92401FCF791FA0346002B03D007
:1044C800D7E92423C7E92023D7F88C300133C7F86C
:1044D8008C30D7F88C30172BDEDD554B93ED027BF3
:1044E800544A55495548B0EE470AF0EE670AFEF7B8
:1044F800B0FA4F4B03F53B6353E90223C7E9262380
:104508000023C7F88C301DE0D7F88C300133484AB7
:1045180003F27513DB001344D3E90023C7E924230E
:10452800D7E92423D7E92601FCF776FA0346002BBE
:1045380003D0D7E92423C7E92623D7F88C300133E1
:10454800C7F88C30D7F88C30172BDDDD384B03F5E6
:10455800096353E902233649C1E926230023C7F832
:104568008C301FE0D7F88C300133314A03F2111335
:10457800DB001344D3E90023C7E924232C4BD3E9F8
:104588002623D7E92401FCF729FA0346002B04D097
:104598002749D7E92423C1E92623D7F88C300133EA
:1045A800C7F88C30D7F88C30172BDBDD204B03F5A0
:1045B800AE6353E902231E49C1E928230023C7F843
:1045C8008C301EE0D7F88C300133194AAD33DB004C
:1045D8001344D3E90023C7E92423154BD3E928233F
:1045E800D7E92401FCF7FAF90346002B04D0104957
:1045F800D7E92423C1E92823D7F88C300133C7F839
:104608008C30D7F88C30172BDCDD094BD3E9F62337
:104618000749C1E92A230023C7F88C302FE000BFDF
:10462800000000000000F040A0030020000000206F
:10463800E0030020A0000020201C0020880F00209C
:10464800D7F88C300133AC4A7B33DB001344D3E911
:104658000023C7E92423A84BD3E92A23D7E9240157
:10466800FCF7BCF90346002B04D0A349D7E924235F
:10467800C1E92A23D7F88C300133C7F88C30D7F832
:104688008C30172BDCDD9C4BD3E99223C7E92A2316
:104698000023C7F88C301CE0D7F88C300133964AD9
:1046A8004933DB001344D3E90023C7E92423D7E9BE
:1046B8002423D7E92A01FCF7AFF90346002B03D0DE
:1046C800D7E92423C7E92A23D7F88C300133C7F860
:1046D8008C30D7F88C30172BDEDD874B93ED0C7BB5
:1046E800864A87498748B0EE470AF0EE670AFEF720
:1046F800B0F9814B03F5226353E90223C7E9282364
:104708000023C7F88C301DE0D7F88C3001337A4A83
:1047180003F24313DB001344D3E90023C7E924233E
:10472800D7E92423D7E92801FCF776F90346002BBB
:1047380003D0D7E92423C7E92823D7F88C300133DD
:10474800C7F88C30D7F88C30172BDDDD6A4BD3E9EE
:104758002E236949C1E924230023C7F88C301EE0C1
:10476800D7F88C300133644A1733DB001344D3E99C
:104778000023C7E92423604BD3E92423D7E9240184
:10478800FCF72CF90346002B04D05B49D7E9242316
:10479800C1E92423D7F88C300133C7F88C30D7F817
:1047A8008C30172BDCDD97ED207BB0EE470AF0EE5E
:1047B800670A0CF0EDF9B0EE407AF0EE607A9FED02
:1047C8004C1BB0EE470AF0EE670A0CF023F987EDB0
:1047D800240B4FF000024FF00003D7E92401FCF747
:1047E800FDF80346002B10D0D7F89030BB63D7F8FC
:1047F800943083F00043FB63D7E90E01FCF72CF9F2
:1048080003469BB25B429BB205E0D7E92401FCF763
:1048180023F903469BB23C4A138097ED260B0CF014
:10482800B7F9B0EE407AF0EE607A9FED311BB0EE4A
:10483800470AF0EE670A0CF0EDF887ED240B4FF00D
:1048480000024FF00003D7E92401FCF7C7F803463C
:10485800002B10D0D7F890303B63D7F8943083F012
:1048680000437B63D7E90C01FCF7F6F803469BB2DB
:104878005B429BB205E0D7E92401FCF7EDF803465B
:104888009BB2214A53801C4B93ED267BB0EE470A1E
:10489800F0EE670A0CF07CF9B0EE407AF0EE607A40
:1048A8009FED131BB0EE470AF0EE670A0CF0B2F862
:1048B80087ED240B4FF000024FF00003D7E92401E5
:1048C800FCF78CF80346002B20D0D7F89030BB6259
:1048D800D7F8943083F00043FB62D7E90A01FCF76C
:1048E800BBF803469BB25B429BB215E0AFF3008076
:1048F800000000000000F040E003002098000020C5
:10490800401B0020F80D0020B4030020D7E9240143
:10491800FCF7A2F803469BB2954A9380954B93ED1A
:10492800287BB0EE470AF0EE670A0CF031F9B0EEDA
:10493800407AF0EE607A9FED8C1BB0EE470AF0EEFD
:10494800670A0CF067F887ED240B4FF000024FF070
:104958000003D7E92401FCF741F80346002B10D0E7
:10496800D7F890303B62D7F8943083F000437B62ED
:10497800D7E90801FCF770F803469BB25B429BB28B
:1049880005E0D7E92401FCF767F803469BB2784AAB
:10499800D380784B93ED2A7BB0EE470AF0EE670A96
:1049A8000CF0F6F8B0EE407AF0EE607A9FED6E1BF0
:1049B800B0EE470AF0EE670A0CF02CF887ED240BEE
:1049C8004FF000024FF00003D7E92401FCF706F886
:1049D8000346002B10D0D7F89030BB61D7F894303D
:1049E80083F00043FB61D7E90601FCF735F803467D
:1049F8009BB25B429BB205E0D7E92401FCF72CF897
:104A080003469BB25A4A138197ED2A0B0CF0C0F863
:104A1800B0EE407AF0EE607A9FED531BB0EE470A95
:104A2800F0EE670A0BF0F6FF87ED240B4FF000025B
:104A38004FF00003D7E92401FBF7D0FF0346002B12
:104A480010D0D7F890303B61D7F8943083F000430A
:104A58007B61D7E90401FBF7FFFF03469BB25B428A
:104A68009BB205E0D7E92401FBF7F6FF03469BB2AA
:104A78003F4A538197ED280B0CF08AF8B0EE407A44
:104A8800F0EE607A9FED381BB0EE470AF0EE670A49
:104A98000BF0C0FF87ED240B4FF000024FF000032E
:104AA800D7E92401FBF79AFF0346002B10D0D7F86B
:104AB8009030BB60D7F8943083F00043FB60D7E9AF
:104AC8000201FBF7C9FF03469BB25B429BB205E0BC
:104AD800D7E92401FBF7C0FF03469BB2244A938120
:104AE800244B93ED247BB0EE470AF0EE670A0CF0F6
:104AF8004FF8B0EE407AF0EE607A9FED1B1BB0EEF7
:104B0800470AF0EE670A0BF085FF87ED240B4FF09C
:104B180000024FF00003D7E92401FBF75FFF0346CB
:104B2800002B10D0D7F890303B60D7F8943083F042
:104B380000437B60D7E90001FBF78EFF03469BB279
:104B48005B429BB205E0D7E92401FBF785FF0346EA
:104B58009BB2074AD381084BB3F85C20044B1A82F6
:104B68000023C7F88C301AE0000000000000F04075
:104B7800B4030020E003002000000020C34AD7F857
:104B88008C30134400221A70C14AD7F88C300021A7
:104B980022F81310D7F88C300133C7F88C30D7F8C7
:104BA8008C30072BEADDBB4B00221A60BA4B00227F
:104BB8001A60BA4BB3F858301A46B94B1B8802FB37
:104BC80003F31846FBF71EFC4FF00002B54BFBF74A
:104BD80093FC02460B4610461946B04BD3E9022314
:104BE800FBF7B4FD02460B4643EC172BB0EE470A21
:104BF800F0EE670AFDF7D0FF51EC100BA74BD3E995
:104C08000223FBF779FC02460B46A749C1E90023BA
:104C1800A24BB3F858301A46A14B5B8802FB03F34A
:104C28001846FBF7EFFB4FF000029E4BFBF764FCC6
:104C380002460B4610461946984BD3E90223FBF768
:104C480085FD02460B4643EC172BB0EE470AF0EE03
:104C5800670AFDF7A1FF51EC100B904BD3E9022333
:104C6800FBF74AFC02460B46C7E92023D7E9202375
:104C78008D49C1E90223894BB3F858301A46884B4D
:104C88009B8802FB03F31846FBF7BCFB4FF00002BE
:104C9800844BFBF731FC02460B46104619467F4B06
:104CA800D3E90223FBF752FD02460B4643EC172BD0
:104CB800B0EE470AF0EE670AFDF76EFF51EC100BF5
:104CC800764BD3E90223FBF717FC02460B467649DD
:104CD800C1E90423714BB3F858301A46704BDB888E
:104CE80002FB03F31846FBF78DFB4FF000026D4BF8
:104CF800FBF702FC02460B4610461946674BD3E900
:104D08000223FBF723FD02460B4643EC172BB0EEBC
:104D1800470AF0EE670AFDF73FFF51EC100B5F4BB7
:104D2800D3E90223FBF7E8FB02460B465E49C1E9DB
:104D380006235A4BB3F858301A46594B1B8902FBC5
:104D480003F31846FBF75EFB4FF00002554BFBF7E9
:104D5800D3FB02460B4610461946504BD3E90223B3
:104D6800FBF7F4FC02460B4643EC172BB0EE470A60
:104D7800F0EE670AFDF710FF51EC100B474BD3E933
:104D88000223FBF7B9FB02460B464749C1E9082352
:104D9800424BB3F858301A46414B5B8902FB03F388
:104DA8001846FBF72FFB4FF000023E4BFBF7A4FB26
:104DB80002460B4610461946384BD3E90223FBF747
:104DC800C5FC02460B4643EC172BB0EE470AF0EE43
:104DD800670AFDF7E1FE51EC100B304BD3E90223D3
:104DE800FBF78AFB02460B462F49C1E90A232B4BE6
:104DF800B3F858301A462A4B9B8902FB03F318462E
:104E0800FBF700FB4FF00002264BFBF775FB024651
:104E18000B4610461946214BD3E90223FBF796FCB3
:104E280002460B4643EC172BB0EE470AF0EE670A32
:104E3800FDF7B2FE51EC100B184BD3E90223FBF738
:104E48005BFB02460B46C7E926231749D7E9262309
:104E5800C1E90C23114BB3F858301A46104BDB89C3
:104E680002FB03F31846FBF7CDFA4FF000020D4B97
:104E7800FBF742FB02460B4610461946074BD3E99F
:104E88000223FBF763FC02460B460FE0D803002021
:104E9800C8030020840300208803002000000020AD
:104EA8008C0300200000503EE003002043EC172B49
:104EB800B0EE470AF0EE670AFDF76EFE51EC100BF4
:104EC8009F4BD3E90223FBF717FB02460B469D498C
:104ED800C1E90E239C48FDF7CEFBC7F88800D7F838
:104EE800883003F04003002B0CBF01230023DBB202
:104EF80087F87F309548FDF7BEFBC7F88800D7F8DC
:104F0800883003F00403002B0CBF01230023DBB21D
:104F180087F87E30D7E92001D7E92623FBF736F951
:104F280002460B4610461946854BD3E90423FBF786
:104F3800E3FA02460B46C7E92023854B93F88430F1
:104F48000E2B07D8824B93F884300133DAB2804BAA
:104F580083F884207E4B93F8803023F07F03DBB204
:104F6800002B1BD17A4A92F8803043F0800382F8F4
:104F78008030774A92F88030022161F3461382F834
:104F88008030704B012283F8B0206E4B012283F8E9
:104F9800B2206C4B012283F8B12052E06C4B93F89D
:104FA800803003F06003DBB2202B09D107F18003C6
:104FB80007F17E0107F17F00624AFDF781FF40E0BB
:104FC80097F87F30002B3CD0614A92F8803001215D
:104FD80061F3461382F880305D4A92F880300621EA
:104FE80061F3040382F8803056494FF00002594BB0
:104FF800C1E9162353494FF00002564BC1E9182363
:1050080050494FF000024FF00003C1E91A234D4BFD
:10501800002283F8B0204B4B002283F8B220494B82
:10502800002283F8B1204A494FF000024FF00003F4
:10503800C1E91E2346494FF000024FF00003C1E9C1
:105048001C23404BD3E916013D4BD3E90823FBF75A
:10505800E3FC0346002B05D0394BD3E90023C7E90D
:10506800202304E0364BD3E90623C7E92023354B38
:10507800D3E91801324BD3E90A23FBF7CDFC0346E9
:10508800002B05D02E4BD3E90023C7E9262304E0E3
:105098002B4BD3E90623C7E926232A4BD3E91A0168
:1050A800274BD3E90C23FBF7B7FC0346002B05D0AD
:1050B800234BD3E90023C7E9242304E0204BD3E999
:1050C8000623C7E924231F4B1F4A1A65D7E9200185
:1050D8004FF000024FF00003FBF776FC0346002B6D
:1050E80004D14FF40073C7F88C3002E00023C7F8EE
:1050F8008C30144B1B6DD7F88C2011461846FDF7E1
:10510800C6FA104B1A6DD7F88C30DB4303F40073E2
:1051180019461046FDF7C9FA0A4B0B4A1A65D7E932
:1051280020014FF000024FF00003FBF74DFC03464F
:10513800002B11D14FF48043C7F88C300FE000BF2B
:1051480000000020E0030020001000480004004890
:10515800781500200000F03F0023C7F88C30BD4BC5
:105168001B6DD7F88C2011461846FDF790FAB94BFD
:105178001A6DD7F88C30DB4303F480431946104688
:10518800FDF793FAB34BB44A1A654FF000024FF09B
:105198000003D7E92601FBF717FC0346002B04D1CF
:1051A8004FF48073C7F88C3002E00023C7F88C30C6
:1051B800A84B1B6DD7F88C2011461846FDF767FAE7
:1051C800A44B1A6DD7F88C30DB4303F4807319466F
:1051D8001046FDF76AFA9F4B9F4A1A654FF0000286
:1051E8004FF00003D7E92601FBF7EEFB0346002B3F
:1051F80004D14FF40043C7F88C3002E00023C7F80D
:105208008C30944B1B6DD7F88C2011461846FDF74F
:105218003EFA904B1A6DD7F88C30DB4303F4004309
:1052280019461046FDF741FA8A4B8B4A1A654FF02A
:1052380000024FF00003D7E92401FBF7C5FB034642
:10524800002B04D14FF48053C7F88C3002E00023C0
:10525800C7F88C307F4B1B6DD7F88C201146184649
:10526800FDF715FA7B4B1A6DD7F88C30DB4303F446
:10527800805319461046FDF718FA764B774A1A6597
:10528800D7E920014FF000024FF00003FBF79CFB29
:105298000346002B04D14FF48053C7F88C3002E04A
:1052A8000023C7F88C306B4B1B6DD7F88C20114648
:1052B8001846FDF7ECF9674B1A6DD7F88C30DB43CD
:1052C80003F4805319461046FDF7EFF9614B624A23
:1052D8001A65D7E920014FF000024FF00003FBF7F1
:1052E80073FB0346002B04D14FF40053C7F88C30EE
:1052F80002E00023C7F88C30564B1B6DD7F88C2082
:1053080011461846FDF7C3F9524B1A6DD7F88C3081
:10531800DB4303F4005319461046FDF7C6F94D4B1D
:105328004D4A1A654FF000024FF00003D7E92401F7
:10533800FBF74AFB0346002B04D14FF40063C7F880
:105348008C3002E00023C7F88C30424B1B6DD7F835
:105358008C2011461846FDF79AF93E4B1A6DD7F87E
:105368008C30DB4303F4006319461046FDF79DF9C2
:105378003B4B1C6D374BD3E9222310461946FBF7EC
:105388008BFB034600EE103A2046FDF769FA344BD2
:105398001C6D304BD3E9202310461946FBF77CFBE4
:1053A800034600EE103A2046FDF76EFA2C4B1C6CB3
:1053B800284BD3E91C2310461946FBF76DFB03461F
:1053C80000EE103A2046FDF723FA254B1C6C214BC2
:1053D800D3E91E2310461946FBF75EFB034600EE91
:1053E800103A2046FDF728FA1A4B1E4A1A651E4B3A
:1053F800D3E90E014FF000024FF00003FBF7E4FA87
:105408000346002B03D18023C7F88C3002E0002329
:10541800C7F88C300F4B1B6DD7F88C2011461846F7
:10542800FDF735F90B4B1A6DD7F88C30DB4303F0D9
:10543800800319461046FDF738F9064B0B4A1A65E2
:10544800044B93F8B030002B12D04FF40053C7F838
:105458008C3010E0E00300200010004800040048F1
:1054680078150020000C00480000002000080048C3
:105478000023C7F88C30454B1B6DD7F88C2011469C
:105488001846FDF704F9414B1A6DD7F88C30DB4309
:1054980003F4005319461046FDF707F93B4B3C4A05
:1054A8001A653A4B93F8B230002B04D04FF480437E
:1054B800C7F88C3002E00023C7F88C30334B1B6DE3
:1054C800D7F88C2011461846FDF7E1F82F4B1A6DD6
:1054D800D7F88C30DB4303F4804319461046FDF7B8
:1054E800E4F82A4B2A4A1A65284B93F8B130002B66
:1054F80004D04FF40043C7F88C3002E00023C7F80B
:105508008C30224B1B6DD7F88C2011461846FDF7BE
:10551800BEF81E4B1A6DD7F88C30DB4303F40043FA
:1055280019461046FDF7C1F8184B1A4A1A651A4B66
:10553800D3E910014FF000024FF00003FBF744FAE3
:105548000346002B03D10823C7F88C3002E0002360
:10555800C7F88C300D4B1B6DD7F88C2011461846B8
:10556800FDF795F8094B1A6DD7F88C30DB4303F03B
:10557800080319461046FDF798F800F0D1FA00F034
:10558800E5FB00BFB037BD46B0BD00BFE00300205B
:1055980000080048000400480000002080B582B0E0
:1055A80000AF00237B6017E05A4BB3F85E105A4AED
:1055B8007B6822F81310574BB3F86010574A7B6882
:1055C80022F81310534BB3F86210554A7B6822F83F
:1055D80013107B6801337B607B68082BE4DD0023B4
:1055E8007B6011E04B4B93F866104E4A7B6813447E
:1055F8000A461A70474BB3F864104B4A7B6822F886
:1056080013107B6801337B607B68072BEADD414B15
:105618009B6C464A13603F4BDB6C454A13603D4B1D
:105628001B6D444A13603B4B5B6D434A1360394B17
:105638001B6D404A5360374B5B6D3F4A5360354B97
:105648001B6D3C4A9360334B5B6D3B4A936000F0A3
:10565800FBFA3A4B00225A60384B00221A7037483E
:10566800FEF7ACF936493748FDF7C7F936493748E8
:10567800FDF72AFA36493748FDF7BFF93649374862
:10568800FDF7BBF936493748FDF7B7F936493748CA
:10569800FDF7B3F936493748FDF7AFF936493748CA
:1056A800FDF712FA36493748FDF7A7F93649374862
:1056B800FDF7A3F936493748FDF79FF936493748CA
:1056C800FDF79BF91D4B002283F844201B4B002259
:1056D80083F84C20194B01229A643148FEF7B6F939
:1056E800164B012283F84C20144B002283F83420F7
:1056F800124B002283F83C20104B01229A63294860
:10570800FEF7E0F90D4B012283F83C2000BF083773
:10571800BD4680BD000000208C030020A0030020AF
:10572800B4030020D8030020C8030020840300200D
:10573800880300206C0300207803002078150020DF
:105748008800002080190020A8000020001D0020EB
:10575800C0000020B01E002090000020601A002029
:1057680080000020A018002078000020C01700202A
:1057780070000020E0160020B0000020681D002006
:10578800B8000020D01D002068000020001600206E
:10579800A0000020201C002098000020401B0020B2
:1057A800BC150020AC15002080B500AF344B1B7829
:1057B800002B11D1324B01221A70314B5B68012B3F
:1057C8000AD12F4B1B7A002B06D02D4BDB68012208
:1057D80004211846FCF77AFD294B93F84430002B36
:1057E80023D1274B012283F84420254B9B6C012BA6
:1057F8001BD1234B93F84C30002B16D0204B1B6D3C
:105808001846FDF7EDF81E4B1B6D00211846FBF7F7
:1058180062FC1B4B1B6D02211846FBF78BFE184BD5
:105828001B6D02211846FBF7EDFE154B93F834303B
:10583800002B23D1124B012283F83420104B9B6B91
:10584800012B1BD10E4B93F83C30002B16D00C4B80
:105858001B6C1846FDF7C4F8094B1B6C0021184651
:10586800FBF739FC064B1B6C02211846FBF71EFDA3
:10587800034B1B6C02211846FBF7B8FD00BF80BD27
:105888007815002080B489B000AFF860B9607A60FC
:10589800FB68BB610023FB61BB689B087B611B4BFA
:1058A8001B68B3F5C87F2AD00023FB6122E0174BA1
:1058B8001B6817497A6841F82320FB699B00BA697D
:1058C8001A44124B1B681268114903F5C87341F852
:1058D80023200E4B1B680F4A12680D4903F54873C5
:1058E80041F82320094B1B680133084A1360FB6900
:1058F8000133FB61FA697B699A42D8D300E000BFA3
:105908002437BD465DF8047B704700BF941F002014
:105918009C1F0020981F002080B584B000AF7860DD
:1059280072B600BF00F060FC0346FB6007F10C0391
:105938007A6804211846FFF7A5FF62B600BF00BFCA
:105948001037BD4680BD000080B500AF124B1B78F4
:105958005A1CD1B2104A1170002B09D00F4B0122EA
:105968001A600D4B1B78013BDAB20B4B1A7011E031
:1059780062B600BF02200BF031F8FEF7E1F8022012
:105988000BF037F872B600BF034B1B78013BDAB255
:10599800014B1A7080BD00BF603200205C320020CD
:1059A80080B584B000AF78603960374BFB60374B07
:1059B800BB60374B00221A70364B00221A7001DF89
:1059C80006F026FB00F0E0FE00F02EFF00F08EFF50
:1059D80001F054FF01F072FB02F09EF901F0BEFFE6
:1059E80002F04AFA01F00EFD02F00EFD02F066FC2C
:1059F800294B1B6800221A6001200AF0EFFFFFF70D
:105A0800CDFD01200AF0F5FF72B600BF97ED030A3D
:105A180000F08AFC204B1B681B68002B0CBF01237D
:105A28000023DBB21A461B4B1A7062B600BF62B67F
:105A380000BF15E0184B1B681B68002B14BF01231F
:105A48000023DBB21A46124B1A70114B1B78DBB2DB
:105A5800002B05D0114B1B68104A23F0010313607B
:105A68000C4B1B78DBB2002BE4D103200AF0B6FF05
:105A7800FFF79AFE03200AF0BCFF72B600BF0023AE
:105A880018461037BD4680BDCDCCCC3D0000A042A5
:105A980061320020623200202410010810E000E08A
:105AA80080B485B000AF0346FB80B7F90630002B01
:105AB80002DBFB88FB8101E0FB88FB81B7F90E3034
:105AC80018461437BD465DF8047B704780B588B02A
