:020000040800F2
:100000000080012059000108BB870008C187000853
:10001000C7870008CD870008D387000800000000CC
:10002000000000000000000000000000015B00086C
:10003000D987000800000000BD5A0008ED590008EB
:10004000A9000108A9000108A9000108A9000108E8
:10005000A9000108A9000108A9000108A9000108D8
:10006000A9000108A9000108A9000108E787000804
:1000700029200008A9000108A9000108A900010819
:10008000F58700080388000811880008A900010806
:10009000A9000108A9000108A9000108A900010898
:1000A000A900010821880008A9000108A900010889
:1000B000A9000108A9000108A9000108A900010878
:1000C000A9000108A9000108A9000108A900010868
:1000D000A9000108A9000108A9000108A900010858
:1000E000A9000108A9000108A9000108A900010848
:1000F000A9000108A9000108A9000108A900010838
:10010000A9000108A9000108A9000108A900010827
:10011000A9000108A9000108A9000108A900010817
:10012000A9000108A9000108A9000108A900010807
:10013000A9000108A9000108A9000108A9000108F7
:10014000A9000108A9000108A900010835880008D4
:10015000A9000108A9000108A9000108A9000108D7
:10016000A9000108A9000108A9000108A9000108C7
:10017000A9000108A9000108A90001080000000069
:08018000A9000108A900010813
:1001880081F0004102E000BF83F0004330B54FEA40
:1001980041044FEA430594EA050F08BF90EA020FAD
:1001A8001FBF54EA000C55EA020C7FEA645C7FEA40
:1001B800655C00F0E2804FEA5454D4EB5555B8BF63
:1001C8006D420CDD2C4480EA020281EA030382EAD4
:1001D800000083EA010180EA020281EA0303362D66
:1001E80088BF30BD11F0004F4FEA01314FF4801C39
:1001F8004CEA113102D0404261EB410113F0004F4B
:100208004FEA03334CEA133302D0524263EB430301
:1002180094EA050F00F0A780A4F10104D5F1200E9F
:100228000DDB02FA0EFC22FA05F2801841F10001FA
:1002380003FA0EF2801843FA05F359410EE0A5F1CE
:1002480020050EF1200E012A03FA0EFC28BF4CF0FF
:10025800020C43FA05F3C01851EBE37101F00045B5
:1002680007D54FF0000EDCF1000C7EEB00006EEBC2
:100278000101B1F5801F1BD3B1F5001F0CD349084C
:100288005FEA30004FEA3C0C04F101044FEA4452A3
:1002980012F5800F80F09A80BCF1004F08BF5FEA2A
:1002A800500C50F1000041EB045141EA050130BD0A
:1002B8005FEA4C0C404141EB0101013C28BFB1F51C
:1002C800801FE9D291F0000F04BF01460020B1FA67
:1002D80081F308BF2033A3F10B03B3F120020CDA3A
:1002E8000C3208DD02F1140CC2F10C0201FA0CF018
:1002F80021FA02F10CE002F11402D8BFC2F1200C7D
:1003080001FA02F120FA0CFCDCBF41EA0C01904032
:10031800E41AA2BF01EB0451294330BD6FEA04047B
:100328001F3C1CDA0C340EDC04F11404C4F1200266
:1003380020FA04F001FA02F340EA030021FA04F378
:1003480045EA030130BDC4F10C04C4F1200220FACF
:1003580002F001FA04F340EA0300294630BD21FA0D
:1003680004F0294630BD94F0000F83F4801306BFD3
:1003780081F480110134013D4EE77FEA645C18BFC7
:100388007FEA655C29D094EA050F08BF90EA020F5E
:1003980005D054EA000C04BF1946104630BD91EA56
:1003A800030F1EBF0021002030BD5FEA545C05D159
:1003B8004000494128BF41F0004130BD14F5800498
:1003C8003CBF01F5801130BD01F0004545F0FE410C
:1003D80041F470014FF0000030BD7FEA645C1ABF41
:1003E800194610467FEA655C1CBF0B46024650EA78
:1003F800013406BF52EA033591EA030F41F40021A4
:1004080030BD00BF90F0000F04BF0021704730B529
:100418004FF4806404F132044FF000054FF00001FE
:1004280050E700BF90F0000F04BF0021704730B5BF
:100438004FF4806404F1320410F0004548BF404294
:100448004FF000013EE700BF42004FEAE2014FEAE9
:1004580031014FEA02701FBF12F07F4393F07F4FC4
:1004680081F06051704732F07F4208BF704793F0C7
:100478007F4F04BF41F40021704730B54FF46074DA
:1004880001F0004521F000411CE700BF50EA0102DD
:1004980008BF704730B54FF000050AE050EA010286
:1004A80008BF704730B511F0004502D5404261EBF6
:1004B80041014FF4806404F132045FEA915C3FF437
:1004C800D8AE4FF003025FEADC0C18BF03325FEAD4
:1004D800DC0C18BF033202EBDC02C2F1200300FA85
:1004E80003FC20FA02F001FA03FE40EA0E0021FAAA
:1004F80002F11444BDE600BF70B54FF0FF0C4CF498
:10050800E06C1CEA11541DBF1CEA135594EA0C0F49
:1005180095EA0C0F00F0DEF82C4481EA030621EA84
:100528004C5123EA4C5350EA013518BF52EA0335BF
:1005380041F4801143F4801338D0A0FB02CE4FF071
:100548000005E1FB02E506F00042E0FB03E54FF0A1
:100558000006E1FB03569CF0000F18BF4EF0010E99
:10056800A4F1FF04B6F5007F64F5407404D25FEA95
:100578004E0E6D4146EB060642EAC62141EA555148
:100588004FEAC52040EA5E504FEACE2EB4F1FD0C8A
:1005980088BFBCF5E06F1ED8BEF1004F08BF5FEA08
:1005A800500E50F1000041EB045170BD06F00046BA
:1005B80046EA010140EA020081EA0301B4EB5C0467
:1005C800C2BFD4EB0C0541EA045170BD41F480115F
:1005D8004FF0000E013C00F3AB8014F1360FDEBF84
:1005E800002001F0004170BDC4F10004203C35DA60
:1005F8000C341BDC04F11404C4F1200500FA05F3E3
:1006080020FA04F001FA05F240EA020001F0004283
:1006180021F0004110EBD37021FA04F642EB0601F9
:100628005EEA430E08BF20EAD37070BDC4F10C0423
:10063800C4F1200500FA04F320FA05F001FA04F2E7
:1006480040EA020001F0004110EBD37041F10001D3
:100658005EEA430E08BF20EAD37070BDC4F12005DE
:1006680000FA05F24EEA020E20FA04F301FA05F246
:1006780043EA020321FA04F001F0004121FA04F2EE
:1006880020EA020000EBD3705EEA430E08BF20EABE
:10069800D37070BD94F0000F0FD101F000464000F8
:1006A80041EB010111F4801F08BF013CF7D041EA7A
:1006B800060195F0000F18BF704703F0004652007E
:1006C80043EB030313F4801F08BF013DF7D043EA4F
:1006D8000603704794EA0C0F0CEA135518BF95EA05
:1006E8000C0F0CD050EA410618BF52EA4306D1D18C
:1006F80081EA030101F000414FF0000070BD50EAAB
:10070800410606BF1046194652EA430619D094EA34
:100718000C0F02D150EA013613D195EA0C0F05D11E
:1007280052EA03361CBF104619460AD181EA030172
:1007380001F0004141F0FE4141F470014FF000002A
:1007480070BD41F0FE4141F4780170BD70B54FF0C5
:10075800FF0C4CF4E06C1CEA11541DBF1CEA135545
:1007680094EA0C0F95EA0C0F00F0A7F8A4EB050427
:1007780081EA030E52EA03354FEA013100F088801E
:100788004FEA03334FF0805545EA131343EA1263E7
:100798004FEA022245EA111545EA10654FEA00269C
:1007A8000EF000419D4208BF964244F1FD0404F555
:1007B800407402D25B084FEA3202B61A65EB0305B1
:1007C8005B084FEA32024FF480104FF4002CB6EB6E
:1007D800020E75EB030E22BFB61A754640EA0C00EE
:1007E8005B084FEA3202B6EB020E75EB030E22BF2E
:1007F800B61A754640EA5C005B084FEA3202B6EB6F
:10080800020E75EB030E22BFB61A754640EA9C002D
:100818005B084FEA3202B6EB020E75EB030E22BFFD
:10082800B61A754640EADC0055EA060E18D04FEABB
:10083800051545EA16754FEA06164FEAC30343EA5B
:1008480052734FEAC2025FEA1C1CC0D111F4801F28
:100858000BD141EA00014FF000004FF0004CB6E721
:1008680011F4801F04BF01430020B4F1FD0C88BFC0
:10087800BCF5E06F3FF6AFAEB5EB030C04BFB6EBCB
:10088800020C5FEA500C50F1000041EB045170BDBE
:100898000EF0004E4EEA113114EB5C04C2BFD4EBEB
:1008A8000C0541EA045170BD41F480114FF0000E6F
:1008B800013C90E645EA060E8DE60CEA135594EAEB
:1008C8000C0F08BF95EA0C0F3FF43BAF94EA0C0FEE
:1008D8000AD150EA01347FF434AF95EA0C0F7FF463
:1008E80025AF104619462CE795EA0C0F06D152EAB7
:1008F80003353FF4FDAE1046194622E750EA41069B
:1009080018BF52EA43067FF4C5AE50EA41047FF4AB
:100918000DAF52EA43057FF4EBAE12E74FF0FF3C10
:1009280006E000BF4FF0010C02E000BF4FF0010CE1
:100938004DF804CD4FEA410C7FEA6C5C4FEA430C5A
:1009480018BF7FEA6C5C1BD001B050EA410C0CBFA9
:1009580052EA430C91EA030F02BF90EA020F00200B
:10096800704710F1000F91EA030F58BF994208BF72
:1009780090422CBFD8176FEAE37040F0010070472F
:100988004FEA410C7FEA6C5C02D150EA013C07D186
:100998004FEA430C7FEA6C5CD6D152EA033CD3D0D1
:1009A8005DF8040B704700BF8446104662468C46CB
:1009B8001946634600E000BF01B5FFF7B7FF0028FE
:1009C80048BF10F1000F01BD4DF808EDFFF7F4FF27
:1009D8000CBF012000205DF808FB00BF4DF808EDB2
:1009E800FFF7EAFF34BF012000205DF808FB00BFD5
:1009F8004DF808EDFFF7E0FF94BF012000205DF8F7
:100A080008FB00BF4DF808EDFFF7CEFF94BF0120AB
:100A180000205DF808FB00BF4DF808EDFFF7C4FFA4
:100A280034BF012000205DF808FB00BF4FEA410CED
:100A38007FEA6C5C02D150EA013C0AD14FEA430CD0
:100A48007FEA6C5C02D152EA033C02D14FF000000D
:100A580070474FF0010070474A0011D212F500129A
:100A680011D20DD56FF47873B3EB62520ED44FEAFE
:100A7800C12343F0004343EA505323FA02F070477E
:100A88004FF00000704750EA013002D14FF0FF30BC
:100A980070474FF0000070474FEA4102B2F1E0435F
:100AA80024BFB3F5001CDCF1FE5C0DD901F0004C4D
:100AB8004FEAC0024CEA5070B2F1004F40EB83009D
:100AC80008BF20F00100704711F0804F21D113F1C9
:100AD8003872BCBF01F00040704741F480114FEA02
:100AE8005252C2F11802C2F1200C10FA0CF320FA8B
:100AF80002F018BF40F001004FEAC1234FEAD323A8
:100B080003FA0CFC40EA0C0023FA02F34FEA430311
:100B1800CCE77FEA625307D150EA01331EBF4FF09A
:100B2800FE4040F44000704701F0004040F0FE40B5
:100B380040F40000704700BF0348044B834202D0D2
:100B4800034B03B118477047C0020020C0020020C1
:100B5800000000000548064B1B1AD90F01EBA30142
:100B6800491002D0034B03B118477047C002002058
:100B7800C00200200000000010B5064C237843B9DD
:100B8800FFF7DAFF044B13B10448AFF300800123E9
:100B9800237010BDC0020020000000008C06010870
:100BA80008B5054B1BB105490548AFF30080BDE802
:100BB8000840FFF7CFBF00BF00000000C4020020BC
:100BC8008C06010880B485B000AF78607B681B682C
:100BD80003F06003FB60FB68002B04D17B681B6893
:100BE80003F01003FB60FB6818461437BD465DF838
:100BF800047B704780B483B000AF78607B681B6B60
:100C080018460C37BD465DF8047B704780B483B046
:100C180000AF786039607B681A6A3B681A437B6862
:100C28001A6200BF0C37BD465DF8047B704780B47C
:100C380083B000AF786039607B681A6A3B68DB4331
:100C48001A407B681A6200BF0C37BD465DF8047B0A
:100C5800704780B483B000AF78607B685B6C43F406
:100C680000427B685A6400BF0C37BD465DF8047BC0
:100C7800704780B483B000AF78607B68DB6843F06E
:100C880001027B68DA6000BF0C37BD465DF8047B63
:100C9800704780B483B000AF78607B68DB6823F06E
:100CA80001027B68DA6000BF0C37BD465DF8047B43
:100CB800704780B483B000AF78607B68DB6803F06E
:100CC8000103012B01D1012300E0002318460C3752
:100CD800BD465DF8047B704780B483B000AF786090
:100CE8007B68DB6843F002027B68DA6000BF0C3780
:100CF800BD465DF8047B704780B483B000AF786070
:100D08007B68DB6823F002027B68DA6000BF0C377F
:100D1800BD465DF8047B704780B483B000AF78604F
:100D28007B68DB6803F00203022B01D1012300E09A
:100D3800002318460C37BD465DF8047B704780B425
:100D480083B000AF78607B68DB6843F004027B689F
:100D5800DA6000BF0C37BD465DF8047B704780B48D
:100D680083B000AF78607B68DB6823F004027B689F
:100D7800DA6000BF0C37BD465DF8047B704780B46D
:100D880083B000AF78607B68DB6803F00403042B52
:100D980001D1012300E0002318460C37BD465DF859
:100DA800047B704780B483B000AF78607B68DB68F1
:100DB80043F008027B68DA6000BF0C37BD465DF877
:100DC800047B704780B483B000AF78607B68DB68D1
:100DD80023F008027B68DA6000BF0C37BD465DF877
:100DE800047B704780B483B000AF78607B68DB68B1
:100DF80003F00803082B01D1012300E00023184663
:100E08000C37BD465DF8047B704780B483B000AFF3
:100E180078607B68DB6843F010027B68DA6000BFAB
:100E28000C37BD465DF8047B704780B483B000AFD3
:100E380078607B68DB6823F010027B68DA6000BFAB
:100E48000C37BD465DF8047B704780B483B000AFB3
:100E580078607B68DB6803F01003102B01D1012355
:100E680000E0002318460C37BD465DF8047B704748
:100E780080B483B000AF78607B68DB6843F0200201
:100E88007B68DA6000BF0C37BD465DF8047B7047AD
:100E980080B483B000AF78607B68DB6823F0200201
:100EA8007B68DA6000BF0C37BD465DF8047B70478D
:100EB80080B483B000AF78607B68DB6803F0200300
:100EC800202B01D1012300E0002318460C37BD4632
:100ED8005DF8047B704780B483B000AF78607B68AE
:100EE800DB6843F040027B68DA6000BF0C37BD4620
:100EF8005DF8047B704780B483B000AF78607B688E
:100F0800DB6823F040027B68DA6000BF0C37BD461F
:100F18005DF8047B704780B483B000AF78607B686D
:100F2800DB6803F04003402B01D1012300E00023DC
:100F380018460C37BD465DF8047B704780B483B013
:100F480000AF78607B68DB6843F080027B68DA601A
:100F580000BF0C37BD465DF8047B704780B483B092
:100F680000AF78607B68DB6823F080027B68DA601A
:100F780000BF0C37BD465DF8047B704780B483B072
:100F880000AF78607B68DB6803F08003802B01D1B9
:100F9800012300E0002318460C37BD465DF8047BAA
:100FA800704780B582B000AF78600B467B807B8845
:100FB80003F00103002B0CD07B681B681846FFF771
:100FC800AAFF0346012B04D07B681B681846FFF76D
:100FD80082FF7B8803F00203002B0CD07B681B6820
:100FE8001846FFF799FE0346012B04D07B681B685F
:100FF8001846FFF771FE7B8803F00403002B0CD022
:101008007B681B681846FFF7BAFE0346012B04D01D
:101018007B681B681846FFF792FE7B8803F008037D
:10102800002B0CD07B681B681846FFF7DBFE0346D5
:10103800012B04D07B681B681846FFF7B3FE7B883A
:1010480003F01003002B0CD07B681B681846FFF7D1
:10105800FCFE0346012B04D07B681B681846FFF78B
:10106800D4FE7B8803F02003002B0CD07B681B6820
:101078001846FFF71EFE0346012B04D07B681B6849
:101088001846FFF7F6FD7B8803F04003002B0CD0D1
:101098007B681B681846FFF771FF0346012B04D0D5
:1010A8007B681B681846FFF749FF7B8803F08003BD
:1010B800002B0CD07B681B681846FFF7F9FE034627
:1010C800012B04D07B681B681846FFF7D1FE00BFD0
:1010D8000837BD4680BD80B582B000AF78600B464A
:1010E8007B807B8803F00103002B0CD07B681B6896
:1010F8001846FFF710FF0346012B04D17B681B68D5
:101108001846FFF7F8FE7B8803F00203002B0CD08B
:101118007B681B681846FFF7FFFD0346012B04D1C7
:101128007B681B681846FFF7E7FD7B8803F004031C
:10113800002B0CD07B681B681846FFF720FE03467F
:10114800012B04D17B681B681846FFF708FE7B88D3
:1011580003F00803002B0CD07B681B681846FFF7C8
:1011680041FE0346012B04D17B681B681846FFF734
:1011780029FE7B8803F01003002B0CD07B681B68CA
:101188001846FFF762FE0346012B04D17B681B68F3
:101198001846FFF74AFE7B8803F02003002B0CD08B
:1011A8007B681B681846FFF784FD0346012B04D0B3
:1011B8007B681B681846FFF76CFD7B8803F04003CB
:1011C800002B0CD07B681B681846FFF7D7FE034638
:1011D800012B04D17B681B681846FFF7BFFE7B888C
:1011E80003F08003002B0CD07B681B681846FFF7C0
:1011F8005FFE0346012B04D17B681B681846FFF786
:1012080047FE00BF0837BD4680BD000080B582B0EC
:1012180000AF78600B46FB70FB78022B06D17B6829
:101228001B6801211846FFF7F1FC31E07B681B6859
:10123800194A934213D07B681B68184A93420ED010
:101248007B681B68164A934209D07B681B68154A5D
:10125800934204D07B681B68134A934218D1FB78E9
:10126800032B06D17B681B6804211846FFF7CEFCC8
:101278000EE0FB78042B0BD17B681B680121184614
:10128800FFF7C4FC7B681B6804211846FFF7BEFC07
:1012980000BF0837BD4680BD002C01400034014026
:1012A80000400140004401400048014080B582B040
:1012B80000AF78600B46FB70FB78022B06D17B6889
:1012C8001B6801211846FFF7B2FC31E07B681B68F8
:1012D800194A934213D07B681B68184A93420ED070
:1012E8007B681B68164A934209D07B681B68154ABD
:1012F800934204D07B681B68134A934218D1FB7849
:10130800032B06D17B681B6804211846FFF78FFC66
:101318000EE0FB78042B0BD17B681B680121184673
:10132800FFF785FC7B681B6804211846FFF77FFCE4
:1013380000BF0837BD4680BD002C01400034014085
:1013480000400140004401400048014080B582B09F
:1013580000AF78600B46FB70FB78022B06D17B68E8
:101368001B6810211846FFF751FC31E07B681B68A9
:10137800194A934213D07B681B68184A93420ED0CF
:101388007B681B68164A934209D07B681B68154A1C
:10139800934204D07B681B68134A934218D1FB78A8
:1013A800032B06D17B681B6840211846FFF72EFCEB
:1013B8000EE0FB78042B0BD17B681B6810211846C4
:1013C800FFF724FC7B681B6840211846FFF71EFCCA
:1013D80000BF0837BD4680BD002C014000340140E5
:1013E80000400140004401400048014080B582B0FF
:1013F80000AF78600B46FB70FB78022B06D17B6848
:101408001B6810211846FFF712FC31E07B681B6847
:10141800194A934213D07B681B68184A93420ED02E
:101428007B681B68164A934209D07B681B68154A7B
:10143800934204D07B681B68134A934218D1FB7807
:10144800032B06D17B681B6840211846FFF7EFFB8A
:101458000EE0FB78042B0BD17B681B681021184623
:10146800FFF7E5FB7B681B6840211846FFF7DFFBA9
:1014780000BF0837BD4680BD002C01400034014044
:1014880000400140004401400048014080B582B05E
:1014980000AF78600B46FB70FB78022B07D17B68A6
:1014A8001B684FF480711846FFF7B0FB34E07B6887
:1014B8001B681B4A934213D07B681B68194A9342E6
:1014C8000ED07B681B68184A934209D07B681B685A
:1014D800164A934204D07B681B68154A93421BD175
:1014E800FB78032B07D17B681B684FF48061184693
:1014F800FFF78CFB10E0FB78042B0DD17B681B6891
:101508004FF480711846FFF781FB7B681B684FF426
:1015180080611846FFF77AFB00BF0837BD4680BDDB
:10152800002C0140003401400040014000440140CB
:101538000048014080B582B000AF78600B46FB7070
:10154800FB78022B07D17B681B684FF48071184623
:10155800FFF76DFB34E07B681B681B4A934213D08E
:101568007B681B68194A93420ED07B681B68184A2F
:10157800934209D07B681B68164A934204D07B6863
:101588001B68154A93421BD1FB78032B07D17B6854
:101598001B684FF480611846FFF749FB10E0FB78A1
:1015A800042B0DD17B681B684FF480711846FFF738
:1015B8003EFB7B681B684FF480611846FFF737FBDA
:1015C80000BF0837BD4680BD002C014000340140F3
:1015D80000400140004401400048014080B582B00D
:1015E80000AF78600B46FB70FB78022B06D17B6856
:1015F8001B684FF480511846FFF708FB00BF0837F7
:10160800BD4680BD80B582B000AF78600B46FB70E8
:10161800FB78022B06D17B681B684FF48051184673
:10162800FFF705FB00BF0837BD4680BD80B584B015
:1016380000AF78600023FB607B681B68304A9342E8
:1016480001D1304BFB607B681A68FB681A60FB6845
:101658001B681846FFF7B6FAB860BB68002B06D0BF
:10166800BB68102B03D0FB6801221A7102E0FB68EB
:1016780000221A71FB681B68234A934213D0FB6847
:101688001B68224A93420ED0FB681B68204A93428B
:1016980009D0FB681B681F4A934204D0FB681B688B
:1016A8001D4A934204D1FB681B681846FFF7D1FA1C
:1016B800FB681B68144A934213D0FB681B68134AE3
:1016C80093420ED0FB681B68114A934209D0FB680D
:1016D8001B68104A934204D0FB681B680E4A934269
:1016E80008D17B681B681846FFF784FA0346DAB20C
:1016F800FB685A71FB6818461037BD4680BD00BFAD
:1017080000040040DC020020002C014000340140AD
:1017180000400140004401400048014080B485B0C9
:1017280000AF786039603B68002B03D17B68403399
:10173800FB6001E0044BFB60FB6818461437BD46AC
:101748005DF8047B704700BF0C03045080B483B07D
:1017580000AF78607B68DB6803F44063002B01D13D
:10176800012300E0002318460C37BD465DF8047BD2
:10177800704780B483B000AF786039607B681B6BBA
:1017880023F00F023B681A437B681A6300BF0C37CB
:10179800BD465DF8047B704780B483B000AF7860C5
:1017A80039607B68DB6823F003023B681A437B6877
:1017B800DA6000BF0C37BD465DF8047B704780B423
:1017C80083B000AF78607B68DB6C03F0C003002B4C
:1017D80001D1012300E0002318460C37BD465DF80F
:1017E800047B704780B483B000AF78607B689B68E7
:1017F80023F0004323F03F0343F001027B689A6023
:1018080000BF0C37BD465DF8047B704780B483B0D9
:1018180000AF78607B689B6823F0004323F03F03A8
:1018280043F002027B689A6000BF0C37BD465DF842
:10183800047B704780B483B000AF78607B689B6896
:1018480003F00103012B01D1012300E00023184616
:101858000C37BD465DF8047B704780B483B000AF99
:10186800786039607B689B6823F0404323F03F032E
:101878003A6802F08042134343F000427B689A6062
:1018880000BF0C37BD465DF8047B704780B483B059
:1018980000AF78607B689B6803F00043B3F1004FAA
:1018A80001D1012300E0002318460C37BD465DF83E
:1018B800047B704780B483B000AF78607B689B6816
:1018C80023F0004323F03F0343F004027B689A604F
:1018D80000BF0C37BD465DF8047B704780B483B009
:1018E80000AF78607B689B6823F0004323F03F03D8
:1018F80043F008027B689A6000BF0C37BD465DF86C
:10190800047B704780B483B000AF78607B681B6845
:1019180003F00803082B01D1012300E00023184637
:101928000C37BD465DF8047B704780B483B000AFC8
:1019380078607B681B6803F01003102B01D101232A
:1019480000E0002318460C37BD465DF8047B70475D
:1019580080B483B000AF78607B6810221A6000BF43
:101968000C37BD465DF8047B704780B483B000AF88
:1019780078607B685B6843F008027B685A6000BF48
:101988000C37BD465DF8047B704780B483B000AF68
:1019980078607B685B6843F040027B685A6000BFF0
:1019A8000C37BD465DF8047B704780B483B000AF48
:1019B80078607B685B6823F008027B685A6000BF28
:1019C8000C37BD465DF8047B704780B483B000AF28
:1019D80078607B685B6823F010027B685A6000BF00
:1019E8000C37BD465DF8047B704780B483B000AF08
:1019F80078607B685B6823F040027B685A6000BFB0
:101A08000C37BD465DF8047B704780B483B000AFE7
:101A180078607B685B6823F080027B685A6000BF4F
:101A28000C37BD465DF8047B704780B483B000AFC7
:101A380078607B685B6803F01003102B01D10123E9
:101A480000E0002318460C37BD465DF8047B70475C
:101A580080B483B000AF78607B685B6803F0800374
:101A6800802B01D1012300E0002318460C37BD4626
:101A78005DF8047B7047000080B485B000AF7860E3
:101A880039607B68FB600C4A3B6813441B781A4634
:101A9800FB6813441B6808493A680A4412781146DF
:101AA800FA680A4443F00103136000BF1437BD46C7
:101AB8005DF8047B704700BFFC06010880B485B060
:101AC80000AF786039607B68FB600C4A3B68134460
:101AD8001B781A46FB6813441B6808493A680A448D
:101AE80012781146FA680A4423F00103136000BF14
:101AF8001437BD465DF8047B704700BFFC0601083B
:101B080080B485B000AF786039607B68FB60084AB4
:101B18003B6813441B781A46FB6813441B6803F0A0
:101B2800200318461437BD465DF8047B704700BF94
:101B3800FC06010880B487B000AFF860B9607A602D
:101B4800FB687B610D4ABB6813441B781A467B69A6
:101B580013445B681B0C1B040849BA680A441278D2
:101B680011467A690A4411467A6813434B6000BFEC
:101B78001C37BD465DF8047B704700BFFC060108B2
:101B880080B487B000AFF860B9607A603B60FB68EA
:101B98007B613B6A102B14D1174ABB6813441B782E
:101BA8001A467B6913441A467B68D360124ABB689D
:101BB80013441B781A467B6913441A463B689360A2
:101BC80013E00D4ABB6813441B781A467B6913441B
:101BD8001A467B689360084ABB6813441B781A4608
:101BE8007B6913441A463B68D36000BF1C37BD4667
:101BF8005DF8047B704700BFFC06010880B487B01D
:101C080000AFF860B9607A60FB687B61074ABB681F
:101C180013441B781A467B6913441A467B68936001
:101C280000BF1C37BD465DF8047B7047FC06010801
:101C380080B483B000AF78607B681B6803F0200332
:101C4800202B01D1012300E0002318460C37BD46A4
:101C58005DF8047B704780B483B000AF78607B6820
:101C680020225A6000BF0C37BD465DF8047B7047E0
:101C780080B485B000AF786039607B68FB600C4A3F
:101C88003B6813441B781A46FB6813441B680849D1
:101C98003A680A4412781146FA680A4443F0020383
:101CA800136000BF1437BD465DF8047B704700BF62
:101CB800FC06010880B485B000AF786039607B68A5
:101CC800FB600C4A3B6813441B781A46FB681344B4
:101CD8001B6808493A680A4412781146FA680A44A7
:101CE80043F00803136000BF1437BD465DF8047B5A
:101CF800704700BFFC06010880B485B000AF78606B
:101D080039607B68FB600C4A3B6813441B781A46B1
:101D1800FB6813441B6808493A680A44127811465C
:101D2800FA680A4423F00203136000BF1437BD4663
:101D38005DF8047B704700BFFC06010880B485B0DD
:101D480000AF786039607B68FB600C4A3B681344DD
:101D58001B781A46FB6813441B6808493A680A440A
:101D680012781146FA680A4423F00403136000BF8E
:101D78001437BD465DF8047B704700BFFC060108B8
:101D880080B485B000AF786039607B68FB600C4A2E
:101D98003B6813441B781A46FB6813441B680849C0
:101DA8003A680A4412781146FA680A4423F008038C
:101DB800136000BF1437BD465DF8047B704700BF51
:101DC800FC06010880B485B000AF786039607B6894
:101DD800FB600A4A3B6813441B781A46FB681344A5
:101DE8001B6803F00203022B01D1012300E000234A
:101DF80018461437BD465DF8047B7047FC06010899
:101E080080B584B000AF78600123FB817B681B69D3
:101E18001846FFF79BFC0346002B2FD07B685B7AA4
:101E2800DBB2022B11D07B685B7ADBB2042B0CD0BF
:101E38007B685B7ADBB2082B07D07B681B69184686
:101E4800FFF760FD0346012B18D1786800F0F8F819
:101E58000346002B12D17B685B7ADBB2082B03D1D7
:101E68007B6801225A7202E07B6820225A727B68E2
:101E78001B691846FFF71EFD0023FB81FB891846E6
:101E88001037BD4680BD80B586B002AFF860B96036
:101E98007A603B600021F868FFF740FC03461A4669
:101EA8007968B868FFF7AAFE0021F868FFF736FCE2
:101EB80002463B68002100917968B868FFF760FE28
:101EC800BA697968B868FFF735FE7968B868FFF7C6
:101ED800CFFE7968B868FFF7EDFE7968B868FFF754
:101EE800CBFD00BF1037BD4680BD80B584B000AFC4
:101EF800F860B9607A607968B868FFF7DFFD7968DB
:101F0800B868FFF71BFF7968B868FFF739FF796889
:101F1800B868FFF7F1FE00227968B868FFF70AFE93
:101F280000BF1037BD4680BD80B584B000AF786073
:101F380039600223FB737B68DB79012B0FD17B6847
:101F4800DA687B681B685B00D118FB7B7A681268CB
:101F580002FB03F31A4638680EF086FB0AE07B683A
:101F6800D968FB7B7A68126802FB03F31A46386863
:101F78000EF07AFB00BF1037BD4680BD80B586B035
:101F880000AFF860B9607A60FB685A69FB689B79B2
:101F980019461046FFF716FF0346DBB2012B37D16F
:101FA800FB685A69BB68104698470346012B2FD136
:101FB800FB6804225A72FB685A697B681046984786
:101FC800FB685A69FB689B7919461046FFF798FD2C
:101FD8000346002B19D1FB685A69FB689B7919469F
:101FE8001046FFF76BFDFB685869FB689B7919463B
:101FF800FB681B681A46FFF79DFDFB685A69FB687A
:102008009B7919461046FFF737FD0123FB7501E060
:102018000023FB75FB7D18461837BD4680BD0000C0
:1020280080B500AF034A04490448FFF7A7FF00BF83
:1020380080BD00BF5F1C0008391C00086803002031
:1020480080B582B000AF78607B681B691846FFF7DF
:102058006CFC0346DBB2012B07D17B681B69184671
:10206800FFF776FC7B6810225A727B685B7ADBB2DA
:10207800102B0CBF01230023DBB218460837BD46DE
:1020880080BD80B582B000AF78600B46FB70FB78EE
:10209800012B0DD17B681B691846FFF757FB0346D8
:1020A800012B12D07B681B691846FFF703FC0CE074
:1020B8007B681B691846FFF782FB0346012B04D097
:1020C8007B681B691846FFF709FC00BF0837BD4647
:1020D80080BD000090B589B002AFF860084611468F
:1020E8001A4603467B810B463B811346FB8000233F
:1020F8007B61FB681B693C4A934201D13B4B7B6186
:102108007B69002B6BD0FB681A697B691A617B6954
:102118000022DA71FB88012B61D03B89002B47D064
:102128007B695B7ADBB2082B42D0FB68DA687B6993
:10213800DA60FB681A687B691A60FB685A697B6910
:102148005A61FB689A797B699A71FB681A797B698D
:102158001A717B691B69B96A1846FFF70AFB7B8904
:10216800012B21D07B89042B16D17B691B690321A4
:102178001846FFF711FB7B6918697B6959697B6908
:102188009B791C467B69DA687B691B680093134658
:102198002246FFF778FE07E07B89022B04D17B6992
:1021A8001B691846FFF7E1FB7B6908225A7216E0A3
:1021B8003B89002B13D17B699B7ADBB2082B0ED0AD
:1021C800FB685A797B695A717B89022B04D17B6938
:1021D8001B691846FFF7D9FB7B6908229A727B694D
:1021E80018461C37BD4690BD000104506803002006
:1021F80080B582B000AF78607B681B691846FFF72E
:1022080019FB0346002B04D17B681B691846FFF7AE
:10221800E9FA00BF0837BD4680BD80B586B000AF7B
:10222800F8600B467A607B810123FB82FB681B699F
:10223800002B46D07B89012B05D1F868FFF7E0FD1C
:102248000346FB823DE07B89042B1FD1FB681B6999
:102258001846FFF77BFA0346002B32D0FB680122B1
:102268005A72FB681B691846FFF724FB00BFFB681E
:102278005B7ADBB2042BFAD17968F868FFF754FE71
:10228800FB6808225A720023FB821AE07B89022B22
:1022980017D1FB685B7ADBB2202B09D0FB685B7A2D
:1022A800DBB2042B04D0FB685B7ADBB2102B08D1BD
:1022B800FB6808225A727968F868FFF735FE002330
:1022C800FB82FB8A18461837BD4680BD80B582B0B0
:1022D80000AF78600B467B8013463B807B681B69A8
:1022E8001846FFF7A7FA0346002B04D07B681B6942
:1022F8001846FFF78BFA7B681B691846FFF7A8FB9F
:102308000346002B04D07B681B691846FFF77DFB4A
:102318007B681B691846FFF788FB0346002B04D02F
:102328007B681B691846FFF750FB3B88002B35D0AC
:102338007B88012B1AD07B88022B05D17B681B690F
:102348001846FFF732FB11E07B88042B0ED17B681F
:1023580018697B6859697B689B791A46FFF7C5FD40
:102368007B681B6900211846FFF716FA7B68002274
:10237800DA607B6800221A607B6800225A617B68F9
:1023880000229A717B6800221A717B681A697B683F
:102398001B7919461046FFF7ECF90AE07B68002222
:1023A8005A717B88022B04D17B681B691846FFF79A
:1023B8001CFB00BF0837BD4680BD000080B584B057
:1023C80000AF78600B46FB707B681B691846FFF707
:1023D80031FA0346FB7397F90F30012B04D17B6860
:1023E8001B691846FFF712FAFB78002B0FD17B68A0
:1023F8001B697F211846FFF730FA00BF7B681B690D
:102408001846FFF743FA0346012BF7D040E0FB7864
:10241800012B0FD17B681B692C491846FFF71DFA61
:1024280000BF7B681B691846FFF730FA0346012B8B
:10243800F7D02DE07B681B697F211846FFF70DFA5E
:1024480000BF7B681B691846FFF720FA0346012B7B
:10245800F7D00023BB8107E000BFBB891BB29BB24A
:1024680001339BB21BB2BB81BB891BB29BB2032B4E
:10247800F2D97B681B6915491846FFF7EEF900BFCA
:102488007B681B691846FFF701FA0346012BF7D052
:102498000023BB8107E000BFBB891BB29BB201339D
:1024A8009BB21BB2BB81BB891BB29BB2032BF2D977
:1024B80097F90F30012B04D17B681B691846FFF789
:1024C80091F900BF1037BD4680BD00BF00007F40B6
:1024D80080B483B000AF78607B681B6843F001026A
:1024E8007B681A6000BF0C37BD465DF8047B7047F7
:1024F80080B483B000AF78607B681B6823F001026A
:102508007B681A6000BF0C37BD465DF8047B7047D6
:1025180080B483B000AF786039607B681B6823F0B3
:1025280004023B681A437B681A6000BF0C37BD463B
:102538005DF8047B704780B483B000AF78607B6837
:102548001B6803F0040318460C37BD465DF8047B8E
:10255800704780B483B000AF78607B68DB6A184648
:102568000C37BD465DF8047B704780B483B000AF7C
:10257800786039607B683A681A6300BF0C37BD46DB
:102588005DF8047B704780B483B000AF7860396031
:102598007B683A685A6300BF0C37BD465DF8047B18
:1025A800704780B483B000AF786039607B683A6860
:1025B8009A6300BF0C37BD465DF8047B704780B452
:1025C80083B000AF786039607B683A68DA6300BF2F
:1025D8000C37BD465DF8047B704780B483B000AF0C
:1025E800786039607B683A681A6400BF0C37BD466A
:1025F8005DF8047B704780B483B000AF78607B6877
:102608005B6B18460C37BD465DF8047B704780B499
:1026180083B000AF78607B689B6B18460C37BD466B
:102628005DF8047B704780B483B000AF78607B6846
:10263800DB6B18460C37BD465DF8047B704780B4E9
:1026480083B000AF78607B681B6C18460C37BD46BA
:102658005DF8047B704780B483B000AF78607B6816
:102668005B6943F001027B685A6100BF0C37BD46C5
:102678005DF8047B704780B483B000AF78607B68F6
:102688001B6918460C37BD465DF8047B704780B45B
:1026980083B000AF786039607B683A689A6100BFA0
:1026A8000C37BD465DF8047B704780B483B000AF3B
:1026B800786039607B683A689A6200BF0C37BD461B
:1026C8005DF8047B7047000080B584B000AF786087
:1026D80087ED000AD7ED007AF5EEC07AF1EE10FA30
:1026E80003D54FF000033B600AE0D7ED007A9FED79
:1026F800167AF4EEC77AF1EE10FA01DD134B3B605F
:102708007B681B681846FFF724FFF8607B681B7915
:10271800002B0CBF01230023DBB21A46FB681344CD
:1027280007EE903AB8EE677AD7ED007A27EE277A67
:10273800DFED056AC7EE267AFCEEE77A17EE903AE7
:1027480018461037BD4680BD0000C8420000C84288
:1027580080B582B000AF786039607B681B68184626
:10276800FFF749FF02463B68934205D07B681B6828
:1027780039681846FFF707FF00BF0837BD4680BD18
:1027880080B582B000AF786039607B681B681846F6
:10279800FFF73DFF02463B68934205D07B681B6804
:1027A80039681846FFF7FDFE00BF0837BD4680BDF3
:1027B80080B582B000AF786039607B681B681846C6
:1027C800FFF731FF02463B68934205D07B681B68E0
:1027D80039681846FFF7F3FE00BF0837BD4680BDCD
:1027E80080B582B000AF786039607B681B68184696
:1027F800FFF725FF02463B68934205D07B681B68BC
:1028080039681846FFF7E9FE00BF0837BD4680BDA6
:1028180080B584B000AF786087ED000A97ED000AB4
:102828007868FFF751FFF860F9687868FFF790FF5C
:1028380000BF1037BD4680BD80B584B000AF78605A
:1028480087ED000A97ED000A7868FFF73DFFF8600A
:10285800F9687868FFF794FF00BF1037BD4680BD60
:1028680080B584B000AF786087ED000A97ED000A64
:102878007868FFF729FFF860F9687868FFF798FF2C
:1028880000BF1037BD4680BD80B584B000AF78600A
:1028980087ED000A97ED000A7868FFF715FFF860E2
:1028A800F9687868FFF79CFF00BF1037BD4680BD08
:1028B80080B485B000AF78607B681B689A68074B66
:1028C8001340FB60FB68062B0CBF01230023DBB21F
:1028D80018461437BD465DF8047B704707000100B1
:1028E80080B584B000AF78600B46FB707B681B68CE
:1028F8001846FFF720FEF860FB78002B1ED07B6897
:102908001B68324A934213D07B681B68304A934253
:102918000ED07B681B682F4A934209D07B681B68DE
:102928002D4A934204D07B681B682C4A934205D1F8
:102938007B681B6800211846FFF717FEFB68042B0D
:1029480011D07B681B6804211846FFF7E1FD7B68FE
:102958001B681846FFF77FFE7B681B68F9681846F6
:10296800FFF7D6FD04E07B681B681846FFF773FE87
:102978007B681B681846FFF7ABFDFB78002B20D05F
:102988007B681B68114A934213D07B681B68104A06
:1029980093420ED07B681B680E4A934209D07B682D
:1029A8001B680D4A934204D07B681B680B4A93420C
:1029B80007D17B681A687B685B7919461046FFF770
:1029C800D4FD00BF1037BD4680BD00BF002C0140BC
:1029D80000340140004001400044014000480140EB
:1029E80080B582B000AF78607B681B681846FFF737
:1029F8007FFD00BF0837BD4680BD80B485B000AFFD
:102A0800786039607B68012283F8D8203B68D3E975
:102A180000237968C1E902237B6801221A60002338
:102A2800FB600CE07B68D3E902237868F96802311F
:102A3800C9000144C1E90023FB680133FB60FB685E
:102A4800182BEFDD00BF00BF1437BD465DF8047BCF
:102A5800704780B586B000AF87ED040BF860B960A9
:102A68007A60BB68D3E902017B68D3E90023FDF7EC
:102A7800ABFF0346002B05D17B68D3E90023B96877
:102A8800C1E90223F868BB681033C82219460DF063
:102A9800EBFDF968D7E90423C1E93223FB6803F1A8
:102AA800D000BB681033C02219460DF0DDFDBB68AD
:102AB80003F11000FB68C833C82219460DF0D4FD95
:102AC80000BF1837BD4680BD80B485B000AF7860C0
:102AD80039607B68012283F860203B68D3E90023D2
:102AE8007968C1E902237B6801221A600023FB6030
:102AF8000CE07B68D3E902237868F9680231C900E1
:102B08000144C1E90023FB680133FB60FB68092B22
:102B1800EFDD00BF00BF1437BD465DF8047B70478A
:102B280080B586B000AF87ED040BF860B9607A60B5
:102B3800BB68D3E902017B68D3E90023FDF744FFB2
:102B48000346002B05D17B68D3E90023B968C1E9A6
:102B58000223F868BB681033502219460DF084FD33
:102B6800F968D7E90423C1E91423FB6803F1580085
:102B7800BB681033482219460DF076FDBB6803F197
:102B88001000FB685033502219460DF06DFD00BF50
:102B98001837BD4680BD000080B584B000AF87ED12
:102BA800000B38687B6823F000414FF000022C4B83
:102BB800FDF714FF0346002B42D04FF00002294BCB
:102BC800D7E90001FDF71EFF0346002B13D04FF095
:102BD8000002244BD7E90001FDF7D8FA02460B465C
:102BE80043EC172BB0EE470AF0EE670A0DF040FBF6
:102BF80087ED020B28E04FF000021B4BD7E90001DC
:102C0800FDF70AFF0346002B06D04FF000024FF0F5
:102C18000003C7E9022317E04FF00002114BD7E980
:102C28000001FDF7B1FA02460B4643EC172BB0EE54
:102C3800470AF0EE670A0DF093FA87ED020B03E0FE
:102C4800D7E90023C7E90223D7E9022343EC172B6E
:102C5800B0EE470AF0EE670A1037BD4680BD00BFE8
:102C6800000030430000E03F0000E0BF80B58CB0BA
:102C780002AF78607B6800221A727B6801225A6072
:102C88007B681033BB6100237B741A4BFB611A4BC2
:102C98003B620123BB74002387F82430022387F8A2
:102CA80025300923FB6009233B7407F10C00082336
:102CB8000093042301220421FFF70CFA02467B68E3
:102CC800DA607B68DB6802211846FFF777FB7B68D0
:102CD800DB681846FFF78CFA7B68DB680121184629
:102CE800FFF7CFF97B6801221A7200BF2837BD466B
:102CF80080BD00BF000104500000024080B5A6B0AE
:102D080000AF78601A4BBB6000233B7300237B73D2
:102D180007F108031846FEF789FC02467B68DA606B
:102D28007B68DB6800211846FEF73BF97B68DB68A7
:102D380002211846FEF7AAFB7B68DB6802211846C9
:102D4800FEF74CFC7B68DB681846FFF7B1FD0346CD
:102D580087F8973097F89730002B05D17B68DB68A8
:102D680000211846FFF7BCFD00BF9837BD4680BD5F
:102D78000004004080B5A6B000AF78601A4BBB6075
:102D880000233B7300237B7307F108031846FEF703
:102D98004DFC02467B68DA607B68DB6800211846D8
:102DA800FEF7FFF87B68DB6802211846FEF72EFA6B
:102DB8007B68DB6802211846FEF7C8FA7B68DB6887
:102DC8001846FFF775FD034687F8973097F8973050
:102DD800002B05D17B68DB6800211846FFF780FDD2
:102DE80000BF9837BD4680BD0004004000000000C9
:102DF800B0B5B0B000AFA54BDB68A54A04211846B2
:102E0800FFF70BFAA24BDB89A24A1382A04B1B885F
:102E1800A04AD3839E4B9B899E4A53829C4B5B88D6
:102E28009C4A93839A4B5B899A4A9382984B9B88D6
:102E3800984A5383964B1B89964AD382944BDB88D6
:102E4800944A13830023C7F88C300FE0914AD7F8CF
:102E58008C30083332F813308E49D7F88C2021F89B
:102E68001230D7F88C300133C7F88C30D7F88C3053
:102E7800072BEBDD874B1B881846FDF7C3FA044682
:102E88000D46854A8549864845EC104BFFF7E1FD1C
:102E9800804B03F5D863D3E900237E49C1E91823A1
:102EA8000023C7F88C301EE0D7F88C300133794AFC
:102EB800D833DB001344D3E90023C7E92423754B37
:102EC800D3E91823D7E92401FDF7A6FD0346002B13
:102ED80004D07049D7E92423C1E91823D7F88C30E6
:102EE8000133C7F88C30D7F88C30172BDCDD694BF1
:102EF8005B881846FDF786FA04460D46694A6A4912
:102F08006A4845EC104BFFF70BFE624B03F5506324
:102F1800D3E900235F49C1E91A230023C7F88C309D
:102F28001FE0D7F88C3001335A4A03F5D073DB0021
:102F38001344D3E90023C7E92423564BD3E91A23C2
:102F4800D7E92401FDF768FD0346002B04D0514959
:102F5800D7E92423C1E91A23D7F88C300133C7F8FD
:102F68008C30D7F88C30082BDBDD4A4B93ED1A7B7D
:102F78004F4A50495048B0EE470AF0EE670AFFF74B
:102F880068FD444B03F57D63D3E90023C7E9282393
:102F98000023C7F88C301DE0D7F88C3001333D4A48
:102FA80003F5FD73DB001344D3E90023C7E92423A9
:102FB800D7E92423D7E92801FDF72EFD0346002B86
:102FC80003D0D7E92423C7E92823D7F88C30013365
:102FD800C7F88C30D7F88C30172BDDDD2D4B9B884C
:102FE8001846FDF70FFA04460D46344A3449354869
:102FF80045EC104BFFF72DFD264B03F50563D3E990
:1030080000232449C1E91A230023C7F88C301FE0A4
:10301800D7F88C3001331F4A03F58573DB0013445E
:10302800D3E90023C7E924231A4BD3E91A23D7E9A4
:103038002401FDF7F1FC0346002B04D01549D7E91C
:103048002423C1E91A23D7F88C300133C7F88C3010
:10305800D7F88C30172BDBDD0E4BDB881846FDF7D5
:10306800D1F904460D46184A1849194845EC104B41
:10307800FFF7EFFC074B03F5A663D3E900230549E7
:10308800C1E91C230023C7F88C3042E05815002002
:10309800A4030020F8030020A00000203819002015
:1030A800B80A0020C0000020B81C0020F81000203A
:1030B800D8000020681E0020C8130020A8000020A7
:1030C800181A0020480C00209800002058180020EA
:1030D80028090020D7F88C3001338B4AA633DB004F
:1030E8001344D3E90023C7E92423874BD3E91C23DE
:1030F800D7E92401FDF790FC0346002B04D0824950
:10310800D7E92423C1E91C23D7F88C300133C7F849
:103118008C30D7F88C30172BDCDD7B4B1B8918469D
:10312800FDF770F904460D46784A7949794845EC27
:10313800104BFFF78EFC744BD3E9E823C7E92E2325
:103148000023C7F88C301CE0D7F88C3001336E4A66
:103158007433DB001344D3E90023C7E92423D7E9F8
:103168002423D7E92E01FDF739FC0346002B03D0B1
:10317800D7E92423C7E92E23D7F88C300133C7F8C1
:103188008C30D7F88C30172BDEDD5F4B5B89184607
:10319800FDF738F904460D465F4A6049604845EC3A
:1031A800104BFFF756FC584BD3E98423C7E92C236F
:1031B8000023C7F88C301CE0D7F88C300133524A12
:1031C8004233DB001344D3E90023C7E92423D7E9BA
:1031D8002423D7E92C01FDF701FC0346002B03D07B
:1031E800D7E92423C7E92C23D7F88C300133C7F853
:1031F8008C30D7F88C30172BDEDD434B9B89184673
:10320800FDF700F904460D46464A4749474845EC4C
:10321800104BFFF785FC3C4B03F55A63D3E90023B9
:10322800C7E92A230023C7F88C301DE0D7F88C3073
:103238000133354A03F5DA73DB001344D3E900237D
:10324800C7E92423D7E92423D7E92A01FDF7C6FBD8
:103258000346002B03D0D7E92423C7E92A23D7F84C
:103268008C300133C7F88C30D7F88C30082BDDDD73
:103278002F4A3049304897ED2A0BFFF7EAFB224BDB
:1032880003F56463D3E90023C7E926230023C7F8BD
:103298008C301DE0D7F88C3001331B4A03F5E473FA
:1032A800DB001344D3E90023C7E92423D7E9242307
:1032B800D7E92601FDF7B0FB0346002B03D0D7E979
:1032C8002423C7E92623D7F88C300133C7F88C307C
:1032D800D7F88C30172BDDDD0B4BDB891846FDF753
:1032E80091F804460D46154A1549164845EC104B09
:1032F800FFF7AFFB044BD3E92023C7E92A230023B8
:10330800C7F88C303DE000BFF80300209000002093
:1033180078170020980700208800002098160020C1
:1033280008060020C8000020201D00209811002059
:10333800D0000020881D00203812002080000020C6
:10334800B815002078040020D7F88C300133B64A2D
:103358001033DB001344D3E90023C7E92423D7E95A
:103368002423D7E92A01FDF739FB0346002B03D0B4
:10337800D7E92423C7E92A23D7F88C300133C7F8C3
:103388008C30D7F88C30172BDEDDA74B93ED187BEC
:10339800B0EE470AF0EE670A0CF06AFFB0EE407A2A
:1033A800F0EE607A9FED9E1BB0EE470AF0EE670ADA
:1033B8000CF09EFE87ED240B4FF000024FF0000347
:1033C800D7E92401FDF70AFB0346002B10D0D7F8F4
:1033D8009030BB67D7F8943083F00043FB67D7E998
:1033E8001E01FDF739FB03469BB25B429BB205E029
:1033F800D7E92401FDF730FB03469BB28B4A1380C3
:1034080097ED280B0CF034FFB0EE407AF0EE607ABE
:103418009FED831BB0EE470AF0EE670A0CF068FEDA
:1034280087ED240B4FF000024FF00003D7E9240189
:10343800FDF7D4FA0346002B10D0D7F890303B673D
:10344800D7F8943083F000437B67D7E91C01FDF778
:1034580003FB03469BB25B429BB205E0D7E924011C
:10346800FDF7FAFA03469BB2704A53806E4B93ED10
:103478001A7BB0EE470AF0EE670A0CF0F9FEB0EEE0
:10348800407AF0EE607A9FED661BB0EE470AF0EEE8
:10349800670A0CF02DFE87ED240B4FF000024FF069
:1034A8000003D7E92401FDF799FA0346002B10D051
:1034B800D7F89030BB66D7F8943083F00043FB66AA
:1034C800D7E91A01FDF7C8FA03469BB25B429BB2E3
:1034D80005E0D7E92401FDF7BFFA03469BB2534A3A
:1034E8009380514B93ED1C7BB0EE470AF0EE670AD0
:1034F8000CF0BEFEB0EE407AF0EE607A9FED481B0D
:10350800B0EE470AF0EE670A0CF0F2FD87ED240BE7
:103518004FF000024FF00003D7E92401FDF75EFAEF
:103528000346002B10D0D7F890303B66D7F894307C
:1035380083F000437B66D7E91801FDF78DFA03464F
:103548009BB25B429BB205E0D7E92401FDF784FA00
:1035580003469BB2354AD38097ED2E0B0CF088FEBC
:10356800B0EE407AF0EE607A9FED2D1BB0EE470A80
:10357800F0EE670A0CF0BCFD87ED240B4FF000025B
:103588004FF00003D7E92401FDF728FA0346002B82
:1035980010D0D7F89030BB65D7F8943083F000434B
:1035A800FB65D7E91601FDF757FA03469BB25B4264
:1035B8009BB205E0D7E92401FDF74EFA03469BB21A
:1035C8001A4A138197ED2C0B0CF052FEB0EE407A9C
:1035D800F0EE607A9FED121BB0EE470AF0EE670A34
:1035E8000CF086FD87ED240B4FF000024FF000032E
:1035F800D7E92401FDF7F2F90346002B18D0D7F8D4
:1036080090303B65D7F8943083F000437B65D7E969
:103618001401FDF721FA03469BB25B429BB20DE011
:10362800000000000000F040F8030020B80300206C
:10363800D7E92401FDF710FA03469BB2A24A538149
:1036480097ED260B0CF014FEB0EE407AF0EE607A9F
:103658009FED9B1BB0EE470AF0EE670A0CF048FDA1
:1036680087ED240B4FF000024FF00003D7E9240147
:10367800FDF7B4F90346002B10D0D7F89030BB649F
:10368800D7F8943083F00043FB64D7E91201FDF7C3
:10369800E3F903469BB25B429BB205E0D7E92401FC
:1036A800FDF7DAF903469BB2874A938197ED2A0B17
:1036B8000CF0DEFDB0EE407AF0EE607A9FED801BF4
:1036C800B0EE470AF0EE670A0CF012FD87ED240B06
:1036D8004FF000024FF00003D7E92401FDF77EF90F
:1036E8000346002B10D0D7F890303B64D7F89430BD
:1036F80083F000437B64D7E91001FDF7ADF9034679
:103708009BB25B429BB205E0D7E92401FDF7A4F91F
:1037180003469BB26C4AD3816C4BB3F872306A4A49
:1037280013826B4B03F5D863D3E90023C7E9282339
:103738000023C7F88C301CE0D7F88C300133644A7A
:10374800D833DB001344D3E90023C7E92423D7E99E
:103758002423D7E92801FDF75FF90346002B03D09E
:10376800D7E92423C7E92823D7F88C300133C7F8D1
:103778008C30D7F88C30172BDEDD554B5B8818461C
:10378800FCF740FE04460D46524A5349534845EC5F
:10379800104BFFF75EF94E4B03F53763D3E900236F
:1037A800C7E926230023C7F88C301DE0D7F88C30F2
:1037B8000133474A03F5B773DB001344D3E9002309
:1037C800C7E92423D7E92423D7E92601FDF724F9FB
:1037D8000346002B03D0D7E92423C7E92623D7F8CB
:1037E8008C300133C7F88C30D7F88C30172BDDDDDF
:1037F800374B03F50563D3E900233549C1E91A239B
:103808000023C7F88C301FE0D7F88C300133304ADA
:1038180003F58573DB001344D3E90023C7E92423A8
:103828002B4BD3E91A23D7E92401FDF7D7F8034630
:10383800002B04D02649D7E92423C1E91A23D7F855
:103848008C300133C7F88C30D7F88C30172BDBDD80
:103858001F4B03F5A663D3E900231D49C1E91C23C7
:103868000023C7F88C301EE0D7F88C300133184A93
:10387800A633DB001344D3E90023C7E92423144B00
:10388800D3E91C23D7E92401FDF7A8F80346002B48
:1038980004D00F49D7E92423C1E91C23D7F88C3079
:1038A8000133C7F88C30D7F88C30172BDCDD084B88
:1038B800D3E9E823C7E92E230023C7F88C302CE08E
:1038C800000000000000F040B803002000000020C5
:1038D800F8030020B8000020D81B0020680F002043
:1038E800D7F88C300133AA4A7433DB001344D3E988
:1038F8000023C7E92423D7E92423D7E92E01FDF7BC
:103908008BF80346002B03D0D7E92423C7E92E23DD
:10391800D7F88C300133C7F88C30D7F88C30172B98
:10392800DEDD9B4BD3E98423C7E92C230023C7F8AA
:103938008C301CE0D7F88C300133954A4233DB00D9
:103948001344D3E90023C7E92423D7E92423D7E97B
:103958002C01FDF761F80346002B03D0D7E9242397
:10396800C7E92C23D7F88C300133C7F88C30D7F847
:103978008C30172BDEDD864B9B891846FCF742FD01
:1039880004460D46834A8449844845EC104BFFF7AA
:1039980060F87F4B03F51E63D3E90023C7E92A23A8
:1039A8000023C7F88C301DE0D7F88C300133784AF3
:1039B80003F59E73DB001344D3E90023C7E92423EE
:1039C800D7E92423D7E92A01FDF726F80346002B77
:1039D80003D0D7E92423C7E92A23D7F88C30013349
:1039E800C7F88C30D7F88C30172BDDDD684BD3E95E
:1039F80020236749C1E918230023C7F88C301EE04B
:103A0800D7F88C300133624A1033DB001344D3E912
:103A18000023C7E924235E4BD3E91823D7E92401FF
:103A2800FCF7DCFF0346002B04D05949D7E92423CF
:103A3800C1E91823D7F88C300133C7F88C30D7F890
:103A48008C30172BDCDD97ED280B0CF011FCB0EE59
:103A5800407AF0EE607A9FED4C1BB0EE470AF0EE2C
:103A6800670A0CF045FB87ED240B4FF000024FF07E
:103A78000003D7E92401FCF7B1FF0346002B10D05F
:103A8800D7F89030BB63D7F8943083F00043FB63DA
:103A9800D7E90E01FCF7E0FF03469BB25B429BB2FD
:103AA80005E0D7E92401FCF7D7FF03469BB23C4A5F
:103AB800138097ED260B0CF0DBFBB0EE407AF0EEAE
:103AC800607A9FED311BB0EE470AF0EE670A0CF002
:103AD8000FFB87ED240B4FF000024FF00003D7E9EE
:103AE8002401FCF77BFF0346002B10D0D7F8903059
:103AF8003B63D7F8943083F000437B63D7E90C012C
:103B0800FCF7AAFF03469BB25B429BB205E0D7E9EC
:103B18002401FCF7A1FF03469BB2214A53801C4BAA
:103B280093ED1A7BB0EE470AF0EE670A0CF0A0FBA3
:103B3800B0EE407AF0EE607A9FED131BB0EE470AC4
:103B4800F0EE670A0CF0D4FA87ED240B4FF0000270
:103B58004FF00003D7E92401FCF740FF0346002B90
:103B680020D0D7F89030BB62D7F8943083F0004368
:103B7800FB62D7E90A01FCF76FFF03469BB25B4281
:103B88009BB215E0AFF30080000000000000F04099
:103B9800F8030020B0000020F81A0020D80D0020FB
:103BA800CC030020D7E92401FCF756FF03469BB25B
:103BB800BD4A9380BD4B93ED1C7BB0EE470AF0EEF7
:103BC800670A0CF055FBB0EE407AF0EE607A9FED94
:103BD800B41BB0EE470AF0EE670A0CF089FA87EDDD
:103BE800240B4FF000024FF00003D7E92401FCF743
:103BF800F5FE0346002B10D0D7F890303B62D7F87B
:103C0800943083F000437B62D7E90801FCF724FF76
:103C180003469BB25B429BB205E0D7E92401FCF75F
:103C28001BFF03469BB2A04AD38097ED2E0B0CF0E6
:103C38001FFBB0EE407AF0EE607A9FED991BB0EE74
:103C4800470AF0EE670A0CF053FA87ED240B4FF0A1
:103C580000024FF00003D7E92401FCF7BFFE03463A
:103C6800002B10D0D7F89030BB61D7F8943083F090
:103C78000043FB61D7E90601FCF7EEFE03469BB261
:103C88005B429BB205E0D7E92401FCF7E5FE034659
:103C98009BB2854A138197ED2C0B0CF0E9FAB0EE34
:103CA800407AF0EE607A9FED7E1BB0EE470AF0EEA8
:103CB800670A0CF01DFA87ED240B4FF000024FF055
:103CC8000003D7E92401FCF789FE0346002B10D036
:103CD800D7F890303B61D7F8943083F000437B618C
:103CE800D7E90401FCF7B8FE03469BB25B429BB2DE
:103CF80005E0D7E92401FCF7AFFE03469BB26A4A08
:103D0800538197ED2A0B0CF0B3FAB0EE407AF0EE3F
:103D1800607A9FED631BB0EE470AF0EE670A0CF07D
:103D2800E7F987ED240B4FF000024FF00003D7E9C5
:103D38002401FCF753FE0346002B10D0D7F890302F
:103D4800BB60D7F8943083F00043FB60D7E90201E9
:103D5800FCF782FE03469BB25B429BB205E0D7E9C3
:103D68002401FCF779FE03469BB24F4A93814F4BDF
:103D780093ED187BB0EE470AF0EE670A0CF078FA7C
:103D8800B0EE407AF0EE607A9FED451BB0EE470A40
:103D9800F0EE670A0CF0ACF987ED240B4FF0000247
:103DA8004FF00003D7E92401FCF718FE0346002B67
:103DB80010D0D7F890303B60D7F8943083F00043A8
:103DC8007B60D7E90001FCF747FE03469BB25B42E4
:103DD8009BB205E0D7E92401FCF73EFE03469BB2FF
:103DE800314AD381324BB3F874202F4B1A82002307
:103DF800C7F88C3010E02F4AD7F88C3013440022D3
:103E08001A702D4AD7F88C30002122F81310D7F8F1
:103E18008C300133C7F88C30D7F88C30072BEADDAB
:103E2800264B00221A60264B00221A60254B93F875
:103E38005830062B07D8234B93F858300133DAB2A1
:103E4800204B83F858201F4B93F8543003F020037D
:103E5800DBB2002B38D11B4A92F8543043F02003D0
:103E680082F85430174B002283F85820154A92F8EC
:103E78005430022161F3C40382F854300B494FF0E7
:103E880000024FF00003C1E90A2308494FF000027D
:103E98004FF00003C1E90C23C8E000BFAFF3008076
:103EA800000000000000F040CC030020F8030020D0
:103EB80000000020F0030020E00300209C03002005
:103EC800A003002058150020B64B93F8543003F097
:103ED8001803DBB2082B2CD1B24B93F85830042BC3
:103EE8001AD9B04B002283F85820AE4A92F85430C1
:103EF800022161F3C40382F85430AB494FF0000249
:103F08004FF00003C1E90A23A7494FF000024FF020
:103F18000003C1E90C2389E0A3494FF00002A34B39
:103F2800C1E90A23A0494FF00002A04BC1E90C23C4
:103F38007CE09C4B93F85830042B77D9994B00229E
:103F480083F85820974A92F85430012161F3C4034A
:103F580082F85430964BB3F870301A46954B5B880C
:103F680002FB03F31846FCF74DFA4FF00002924BA0
:103F7800FCF7C2FA02460B46104619468C4BD3E9A9
:103F88000423FCF7E3FB02460B4643EC172BB0EE89
:103F9800470AF0EE670AFEF7FFFD51EC100B844B61
:103FA800D3E90423FCF7A8FA02460B4614461D463B
:103FB8007F4BB3F870301A467E4B9B8902FB03F3A4
:103FC8001846FCF71FFA4FF000027B4BFCF794FAF7
:103FD80002460B4610461946754BD3E90423FCF7F5
:103FE800B5FB02460B4643EC172BB0EE470AF0EE42
:103FF800670AFEF7D1FD51EC100B6D4BD3E9042392
:10400800FCF77AFA02460B4620462946FCF7BEF82A
:1040180002460B4610461946654BD3E90623FCF7C2
:104028006BFA02460B466049C1E90E235E4B634AB0
:104038001A625F4BD3E900014FF000024FF0000312
:10404800FCF7C2FC0346002B04D14FF40073C7F8F9
:104058008C3002E00023C7F88C30534B1B6AD7F82A
:104068008C2011461846FEF712FB4F4B1A6AD7F8F8
:104078008C30DB4303F4007319461046FEF715FB3A
:10408800494B4E4A1A624A4BD3E900014FF00002ED
:104098004FF00003FCF798FC0346002B04D14FF4C3
:1040A8008043C7F88C3002E00023C7F88C303E4BC1
:1040B8001B6AD7F88C2011461846FEF7E8FA3A4BE7
:1040C8001A6AD7F88C30DB4303F48043194610464C
:1040D800FEF7EBFA344B394A1A62354BD3E9020141
:1040E8004FF000024FF00003FCF76EFC0346002B74
:1040F80004D14FF48073C7F88C3002E00023C7F86E
:104108008C30294B1B6AD7F88C2011461846FEF7CD
:10411800BEFA254B1A6AD7F88C30DB4303F4807358
:1041280019461046FEF7C1FA1F4B244A1A62204B63
:10413800D3E902014FF000024FF00003FCF744FC02
:104148000346002B04D14FF40043C7F88C3002E03B
:104158000023C7F88C30144B1B6AD7F88C20114603
:104168001846FEF794FA104B1A6AD7F88C30DB43DE
:1041780003F4004319461046FEF797FA0A4B0F4A14
:104188001A62094BD3E90C01094BD3E90823FCF760
:1041980043FC0346002B13D0054BD3E90223C7E9A0
:1041A800242312E058150020F80300200000F03FF7
:1041B80000000020A40300200000503E001000482A
:1041C800A74BD3E90023C7E924234FF000024FF09F
:1041D8000003D7E92401FCF7F7FB0346002B04D1C1
:1041E8004FF48053C7F88C3002E00023C7F88C30B6
:1041F8009C4B1B6AD7F88C2011461846FEF747FAE5
:10420800984B1A6AD7F88C30DB4303F4805319466D
:104218001046FEF74AFA934B934A1A62904BD3E939
:1042280000014FF000024FF00003FCF7CDFB0346FE
:10423800002B04D14FF48053C7F88C3002E00023E0
:10424800C7F88C30874B1B6AD7F88C201146184664
:10425800FEF71DFA834B1A6AD7F88C30DB4303F458
:10426800805319461046FEF720FA7E4B7F4A1A62A1
:104278007B4BD3E900014FF000024FF00003FCF73D
:10428800A3FB0346002B04D14FF40053C7F88C302E
:1042980002E00023C7F88C30724B1B6AD7F88C20D9
:1042A80011461846FEF7F3F96E4B1A6AD7F88C30A8
:1042B800DB4303F4005319461046FEF7F6F9694B41
:1042C8006A4A1A62674BD3E90A01654BD3E90A23A4
:1042D800FCF7A2FB0346002B05D0614BD3E9022370
:1042E800C7E9242304E05E4BD3E90023C7E924236C
:1042F8004FF000024FF00003D7E92401FCF764FBFC
:104308000346002B04D14FF40063C7F88C3002E059
:104318000023C7F88C30534B1B6AD7F88C20114602
:104328001846FEF7B4F94F4B1A6AD7F88C30DB43BE
:1043380003F4006319461046FEF7B7F94B48FEF739
:104348009AF9C7F888004848FEF795F9C7F8840035
:10435800D7F8843003F00403002B0CBF012300239B
:10436800DBB287F883303E4BB3F870301A46404BC7
:104378001B8902FB03F31846FCF744F84FF00002D0
:104388003C4BFCF7B9F802460B4610461946344B2D
:10439800D3E90423FCF7DAF902460B4643EC172B62
:1043A800B0EE470AF0EE670AFEF7F6FB51EC100B89
:1043B8002B4BD3E90423FCF79FF802460B46104623
:1043C8001946274BD3E91023FCF71CFB0346002BA7
:1043D80005D0234BD3E90C23C7E9282304E0204B5D
:1043E800D3E90E23C7E928231D4BB3F870301A46CA
:1043F8001F4BDB8802FB03F31846FCF703F84FF06A
:1044080000021C4BFCF778F802460B46104619468A
:10441800134BD3E90423FCF799F902460B4643EC06
:10442800172BB0EE470AF0EE670AFEF7B5FB51EC22
:10443800100B0B4BD3E90423FCF75EF802460B463E
:1044480010461946064BD3E91223FCF7DBFA03465C
:10445800002B11D0024BD3E90C23C7E9262310E027
:1044680000000020F8030020000400480010004865
:10447800A40300200000503EAB4BD3E90E23C7E94C
:104488002623AA4B93F859301E2B07D8A74B93F82D
:1044980059300133DAB2A54B83F85920A34B93F86E
:1044A800543003F04003DBB2002B0FD19F4A92F83F
:1044B800543043F0400382F854309C4A92F8543008
:1044C800062161F3020382F85430C9E2974B93F84E
:1044D8005430C3F30203DBB2013B042B00F2988291
:1044E80001A252F823F000BF054500084147000823
:1044F800C747000887480008474900088C4BD3E99C
:104508000E014FF000028B4BFCF77CFA0346002BA0
:104518003CD04FF000024FF00003D7E92801FCF728
:1045280053FA0346002B31D04FF000024FF000033E
:10453800D7E92601FCF748FA0346002B26D17C4927
:104548004FF000024FF00003C1E9102378494FF003
:1045580000024FF00003C1E91423754B002283F8D1
:104568007820734B002283F87A20704B002283F85E
:1045780059206E4A92F85430032161F3020382F8FD
:1045880054306B4B012283F87920C7E097F88330C9
:10459800002B26D066494FF000024FF00003C1E916
:1045A800102363494FF000024FF00003C1E91423C0
:1045B8005E4B002283F859205C4A92F8543002215D
:1045C80061F3020382F85430594B012283F87820B2
:1045D800574B002283F87A20554B012283F8792023
:1045E8003EE2534BD3E90E014FF00002514BFCF76A
:1045F80009FA0346002B3CD04FF000024FF00003AD
:10460800D7E92801FCF7E0F90346002B31D14FF038
:1046180000024FF00003D7E92601FCF7D5F903465D
:10462800002B26D042494FF000024FF00003C1E9A9
:1046380010233F494FF000024FF00003C1E9142353
:104648003B4B002283F87A20394B002283F87920EB
:10465800364B002283F85920344A92F8543004210A
:1046680061F3020382F85430314B012283F8782039
:1046780054E02F4BD3E90E014FF000022D4BFCF70D
:10468800C1F90346002B3CD04FF000024FF0000365
:10469800D7E92801FCF798F90346002B31D14FF0F0
:1046A80000024FF00003D7E92601FCF78DF9034615
:1046B800002B26D11E494FF000024FF00003C1E93C
:1046C80010231B494FF000024FF00003C1E91423E7
:1046D800174B002283F87820154B002283F87920A5
:1046E800124B002283F85920104A92F854300521C1
:1046F80061F3020382F854300D4B012283F87A20CB
:104708000CE00B4906A3D3E90023C1E910230849AB
:1047180003A3D3E90023C1E91423A1E1A0E100BF69
:104728000000000000C05240000000205815002082
:10473800F80300200000F83FB34B93F85930042BDE
:1047480018D997F88330002B14D0B04B002283F887
:104758007820AE4B002283F87A20AC4B002283F8F5
:104768007920A94A92F85430062161F3020382F8AD
:10477800543075E1A54B93F87830002B0CBF01231A
:104788000023DBB21A46A14B83F878209F4B93F89D
:104798007A30002B0CBF01230023DBB21A469B4B57
:1047A80083F87A20994B93F87930002B0CBF0123BA
:1047B8000023DBB21A46954B83F8792050E1924BDF
:1047C80093F859300B2B22D990494FF000024FF043
:1047D8000003C1E910238D494FF000024FF0000398
:1047E800C1E91623884A92F85430012161F3020383
:1047F80082F85430854B012283F87820834B0122BC
:1048080083F87A20814B012283F8792028E197F8F0
:104818008330002B26D07D494FF000024FF0000373
:10482800C1E9102379494FF000024FF00003C1E9B4
:104838001623754B002283F85920734A92F8543096
:10484800022161F3020382F85430704B012283F88D
:1048580078206E4B002283F87A206C4B012283F873
:104868007920FDE0694966A3D3E90023C1E9102353
:10487800664963A3D3E90023C1E91623F0E0624B3C
:1048880093F859300B2B22D960494FF000024FF0B2
:104898000003C1E912235D494FF000024FF0000305
:1048A800C1E91423584A92F85430012161F30203F4
:1048B80082F85430554B012283F87820534B01225B
:1048C80083F87A20514B012283F87920C8E097F8C1
:1048D8008330002B26D04D494FF000024FF00003E3
:1048E800C1E9122349494FF000024FF00003C1E922
:1048F8001423454B002283F85920434A92F8543038
:10490800022161F3020382F85430404B012283F8FC
:1049180078203E4B002283F87A203C4B012283F812
:1049280079209DE0394936A3D3E90023C1E9122350
:10493800364933A3D3E90023C1E9142390E0324B6D
:1049480093F85930182B22D930494FF000024FF014
:104958000003C1E910232D494FF000024FF0000376
:10496800C1E91623284A92F85430012161F3020361
:1049780082F85430254B012283F87820234B0122FA
:1049880083F87A20214B012283F8792068E097F890
:104998008330002B26D01D494FF000024FF0000352
:1049A800C1E9102319494FF000024FF00003C1E993
:1049B8001623154B002283F85920134A92F85430D5
:1049C800022161F3020382F85430104B012283F86C
:1049D80078200E4B002283F87A200C4B012283F8B2
:1049E80079203DE0094906A3D3E90023C1E9102352
:1049F800064903A3D3E90023C1E9162330E000BF29
:104A08000000000000C0524058150020F8030020A4
:104A1800D7F8883003F04003002B14D1904A92F85D
:104A28005430012161F3020382F854308D4B012286
:104A380083F878208B4B012283F87A20894B012256
:104A480083F879200BE0874B93F87830002B0CBF64
:104A580001230023DBB21A46824B83F8782000BF7B
:104A68007F4B1C6D7F4BD3E9162310461946FCF784
:104A780013F8034600EE103A2046FDF7F1FE784B96
:104A88001C6D784BD3E9142310461946FCF704F83B
:104A9800034600EE103A2046FDF7F6FE704B1C6CFC
:104AA800704BD3E9102310461946FBF7F5FF034670
:104AB80000EE103A2046FDF7ABFE694B1C6C694BC3
:104AC800D3E9122310461946FBF7E6FF034600EE2A
:104AD800103A2046FDF7B0FE624B634A1A62634BF8
:104AE800D3E914014FF000024FF00003FBF76CFF0D
:104AF8000346002B03D18023C7F88C3002E0002343
:104B0800C7F88C30574B1B6AD7F88C2011461846CB
:104B1800FDF7BDFD534B1A6AD7F88C30DB4303F021
:104B2800800319461046FDF7C0FD4E4B504A1A62E5
:104B38004C4B93F87830002B04D04FF40053C7F84F
:104B48008C3002E00023C7F88C30464B1B6AD7F83C
:104B58008C2011461846FDF79AFD424B1A6AD7F881
:104B68008C30DB4303F4005319461046FDF79DFDD6
:104B78003C4B3F4A1A623B4B93F87A30002B04D0E7
:104B88004FF48043C7F88C3002E00023C7F88C301C
:104B9800344B1B6AD7F88C2011461846FDF777FD71
:104BA800304B1A6AD7F88C30DB4303F4804319463C
:104BB8001046FDF77AFD2B4B2D4A1A62294B93F8C4
:104BC8007930002B04D04FF40043C7F88C3002E052
:104BD8000023C7F88C30234B1B6AD7F88C2011466A
:104BE8001846FDF754FD1F4B1A6AD7F88C30DB4383
:104BF80003F4004319461046FDF757FD194B1D4AAB
:104C08001A621A4BD3E916014FF000024FF0000365
:104C1800FBF7DAFE0346002B03D10823C7F88C30D4
:104C280002E00023C7F88C300E4B1B6AD7F88C20A3
:104C380011461846FDF72BFD0A4B1A6AD7F88C3037
:104C4800DB4303F0080319461046FDF72EFD00F07C
:104C5800D5FA00F0E9FB00BFC037BD46B0BD00BFC4
:104C680058150020F8030020000C00480000002020
:104C7800000800480004004880B582B000AF002357
:104C88007B6017E05A4BB3F876105A4A7B6822F8D3
:104C98001310574BB3F87810574A7B6822F8131053
:104CA800534BB3F87A10554A7B6822F813107B6887
:104CB80001337B607B68082BE4DD00237B6011E017
:104CC8004B4B93F87E104E4A7B6813440A461A7081
:104CD800474BB3F87C104B4A7B6822F813107B686B
:104CE80001337B607B68072BEADD414B1B6E464A2C
:104CF80013603F4B5B6E454A13603D4B9B6E444AC5
:104D080013603B4BDB6E434A1360394B9B6E404A42
:104D18005360374BDB6E3F4A5360354B9B6E3C4AC2
:104D28009360334BDB6E3B4A936000F0FBFA3A4BDF
:104D380000225A60384B00221A703748FDF796FF58
:104D480036493748FDF759FE36493748FDF7BCFE66
:104D580036493748FDF751FE36493748FDF74DFECD
:104D680036493748FDF749FE36493748FDF745FECD
:104D780036493748FDF741FE36493748FDF7A4FE66
:104D880036493748FDF739FE36493748FDF735FECD
:104D980036493748FDF731FE36493748FDF72DFECD
:104DA8001D4B002283F844201B4B002283F84C2023
:104DB800194B01229A643148FDF7A0FF164B0122D6
:104DC80083F84C20144B002283F83420124B002225
:104DD80083F83C20104B01229A632948FDF7CAFF4B
:104DE8000D4B012283F83C2000BF0837BD4680BD2B
:104DF80000000020A4030020B8030020CC030020FA
:104E0800F0030020E00300209C030020A003002002
:104E1800840300209003002058150020A0000020E3
:104E280038190020C0000020B81C0020D80000203D
:104E3800681E0020A8000020181A002098000020F2
:104E480058180020900000207817002088000020C3
:104E580098160020C8000020201D0020D000002047
:104E6800881D002080000020B8150020B800002010
:104E7800D81B0020B0000020F81A00209C15002044
:104E88008C15002080B500AF344B1B78002B11D156
:104E9800324B01221A70314B5B68012B0AD12F4B20
:104EA8001B7A002B06D02D4BDB6801220421184603
:104EB800FDF70CFA294B93F84430002B23D1274BEC
:104EC800012283F84420254B9B6C012B1BD1234BDB
:104ED80093F84C30002B16D0204B1B6D1846FDF76D
:104EE8007FFD1E4B1B6D00211846FCF7F4F81B4B89
:104EF8001B6D02211846FCF71DFB184B1B6D022188
:104F08001846FCF77FFB154B93F83430002B23D160
:104F1800124B012283F83420104B9B6B012B1BD1C1
:104F28000E4B93F83C30002B16D00C4B1B6C1846DC
:104F3800FDF756FD094B1B6C00211846FCF7CBF812
:104F4800064B1B6C02211846FCF7B0F9034B1B6C8F
:104F580002211846FCF74AFA00BF80BD5815002008
:104F680080B489B000AFF860B9607A60FB68BB6153
:104F78000023FB61BB689B087B611B4B1B68B3F577
:104F8800C87F2AD00023FB6122E0174B1B68174912
:104F98007A6841F82320FB699B00BA691A44124BCE
:104FA8001B681268114903F5C87341F823200E4B9A
:104FB8001B680F4A12680D4903F5487341F823200E
:104FC800094B1B680133084A1360FB690133FB6115
:104FD800FA697B699A42D8D300E000BF2437BD46FE
:104FE8005DF8047B704700BF4C1F0020541F002051
:104FF800501F002080B584B000AF786072B600BF43
:1050080000F060FC0346FB6007F10C037A6804219A
:105018001846FFF7A5FF62B600BF00BF1037BD46B0
:1050280080BD000080B500AF124B1B785A1CD1B26E
:10503800104A1170002B09D00F4B01221A600D4B3A
:105048001B78013BDAB20B4B1A7011E062B600BF55
:1050580002200BF031F8FDF7CBFE02200BF037F8F9
:1050680072B600BF034B1B78013BDAB2014B1A70D2
:1050780080BD00BF183200201432002080B584B0F3
:1050880000AF78603960374BFB60374BBB60374BFC
:1050980000221A70364B00221A7001DF06F026FB38
:1050A80000F0E0FE00F02EFF00F08EFF01F054FF4C
:1050B80001F072FB02F09EF901F0BEFF02F04AFA1D
:1050C80001F00EFD02F00EFD02F066FC294B1B6894
:1050D80000221A6001200AF0EFFFFFF7CDFD012042
:1050E8000AF0F5FF72B600BF97ED030A00F08AFCDC
:1050F800204B1B681B68002B0CBF01230023DBB26D
:105108001A461B4B1A7062B600BF62B600BF15E0A4
:10511800184B1B681B68002B14BF01230023DBB24C
:105128001A46124B1A70114B1B78DBB2002B05D0B4
:10513800114B1B68104A23F0010313600C4B1B78BA
:10514800DBB2002BE4D103200AF0B6FFFFF79AFE8A
:1051580003200AF0BCFF72B600BF002318461037C0
:10516800BD4680BDCDCCCC3D0000A0421932002008
:105178001A3200200407010810E000E080B485B06E
:1051880000AF0346FB80B7F90630002B02DBFB8833
:10519800FB8101E0FB88FB81B7F90E301846143714
:1051A800BD465DF8047B704780B588B004AF034600
:1051B8000A46FB711346BB71FB799BB25B009BB23D
:1051C800013399B2BB799AB24FF0FF3302930223AD
:1051D800019307F10C0300930123074806F078FEBA
:1051E8003B7B1B021AB27B7B1BB213431BB29BB2E5
:1051F80018461037BD4680BD4432002080B500AF48
:105208003B216920FFF7D0FF03461846FFF7B6FF9A
:1052180003461A4613469B0013445B0007EE903A78
:10522800B8EEE77ADFED3B6AC7EE267A3A4BC3ED74
:10523800007A3D216920FFF7B7FF03461846FFF7BC
:105248009DFF03461A4613469B0013445B0007EE76
:10525800903AB8EEE77ADFED2F6AC7EE267A2E4B42
:10526800C3ED017A3F216920FFF79EFF03461846E8
:10527800FFF784FF03461A4613469B0013445B005E
:1052880007EE903AB8EEE77ADFED226AC7EE267AA3
:10529800214BC3ED027A43216920FFF785FF0346BE
:1052A8001846FFF76BFF034607EE903AB8EEE77A29
:1052B800DFED1A6AC7EE267A194BC3ED007A45214D
:1052C8006920FFF771FF03461846FFF757FF0346AB
:1052D80007EE903AB8EEE77ADFED106AC7EE267A65
:1052E8000F4BC3ED017A47216920FFF75DFF0346A5
:1052F8001846FFF743FF034607EE903AB8EEE77A01
:10530800DFED066AC7EE267A054BC3ED027A00BFC9
:1053180080BD00BF000080468403002000000343D6
:105328009003002080B586B004AF0023FB714FF0D6
:10533800FF33029301230193FB1D009301236B228A
:10534800D2211D4806F0B0FC4FF0FF330293012331
:1053580001930723009301231922D221164806F04E
:10536800A3FC4FF0FF330293012301930023009322
:1053780001231C22D221104806F096FC4FF0FF337F
:105388000293012301930023009301231B22D221BE
:10539800094806F089FC4FF0FF330293012301937B
:1053A800064B009301237522D321034806F090FD94
:1053B80000BF0837BD4680BD443200201B320020A4
:1053C80080B582B000AF00237B600FE07B68432B81
:1053D80008D07B68052B05D07B685BB2184607F0C0
:1053E800E5FA00E000BF7B6801337B607B68EF2B48
:1053F800ECD900BF00BF0837BD4680BD80B582B07C
:1054080000AF00237B6007E07B685BB2184607F0BB
:10541800BFFA7B6801337B607B68EF2BF4D900BF50
:1054280000BF0837BD4680BD80B500AF4021AA48FF
:1054380006F092FB0346002B14BF01230023DAB2C7
:10544800A64B1A700421A64806F086FB0346002BDB
:1054580014BF01230023DAB2A04B5A704FF4005155
:10546800A04806F079FB0346002B14BF0123002354
:10547800DAB29D4B1A704FF480419A4806F06CFBE3
:105488000346002B14BF01230023DAB2964B5A704F
:105498004FF40041934806F05FFB0346002B14BF0E
:1054A80001230023DAB2904B9A704FF480518C4854
:1054B80006F052FB0346002B14BF01230023DAB287
:1054C8008A4B1A704FF48071834806F045FB0346F7
:1054D800002B14BF01230023DAB2844B5A704FF417
:1054E80000717D4806F038FB0346002B14BF0123EA
:1054F8000023DAB27D4B9A704FF48051764806F05B
:105508002BFB0346002B14BF01230023DAB2774B91
:10551800DA704FF40061704806F01EFB0346002B5A
:1055280014BF01230023DAB2704B1A714FF4804183
:10553800694806F011FB0346002B14BF0123002322
:10554800DAB26A4B5A714FF40041634806F004FB23
:105558000346002B14BF01230023DAB2634B9A7170
:105568004FF400515C4806F0F7FA0346002B14BFCD
:1055780001230023DAB25D4BDA715D4B5B6B9AB2A3
:105588005C4B1A805A4B9B6B9AB25A4B5A80584BB9
:10559800DB6B9AB2584B1A80554B1B6C9AB2564B20
:1055A8005A80FFF70DFF08E04FF400714FF090406C
:1055B80006F0D2FA0346012B07D103214F4803F026
:1055C800C1F80346002BEFD10AE000BF08E04FF412
:1055D80000714FF0904006F0BFFA0346012B07D147
:1055E80002213E4803F0AEF80346002BEFD10AE053
:1055F80000BF08E04FF400714FF0904006F0ACFA9D
:105608000346012B07D10321374803F09BF80346D3
:10561800002BEFD10AE000BF08E04FF400714FF013
:10562800904006F099FA0346012B07D10C21344823
:1056380003F088F80346002BEFD10AE000BF08E02A
:105648004FF400714FF0904006F086FA0346012BA4
:1056580007D10C212B4803F075F80346002BEFD136
:105668000AE000BF08E04FF400714FF0904006F0E8
:1056780073FA0346012B07D11221234803F062F87D
:105688000346002BEFD10AE000BF08E04FF4007199
:105698004FF0904006F060FA0346012B07D1122123
:1056A8001A4803F04FF80346002BEFD10AE000BF79
:1056B80008E04FF400714FF0904006F04DFA0346B1
:1056C800012B07D11221124803F03CF80346002BA6
:1056D800EFD128E000BF26E0001000481C3200206F
:1056E800000400480008004820320020243200202E
:1056F800000400403432002030320020A80601089F
:105708008403002090030020A4030020B803002095
:10571800CC0300204FF400714FF0904006F01CFAC3
:105728000346012B07D10821514803F00BF8034623
:10573800002BEFD10AE000BF08E04FF400714FF0F2
:10574800904006F009FA0346012B07D10421494885
:1057580002F0F8FF0346002BEFD10AE000BF08E093
:105768004FF400714FF0904006F0F6F90346012B14
:1057780007D10421404802F0E5FF0346002BEFD192
:105788000AE000BF08E04FF400714FF0904006F0C7
:10579800E3F90346012B07D10421384802F0D2FF70
:1057A8000346002BEFD10AE000BF08E04FF4007178
:1057B8004FF0904006F0D0F90346012B07D108219D
:1057C8002F4802F0BFFF0346002BEFD10AE000BFCD
:1057D80008E04FF400714FF0904006F0BDF9034621
:1057E800012B07D11021274802F0ACFF0346002BFC
:1057F800EFD10AE000BF08E04FF400714FF090408D
:1058080006F0AAF90346012B07D104211E4802F02D
:1058180099FF0346002BEFD10AE000BF08E04FF4E0
:1058280000714FF0904006F097F90346012B07D11D
:105838000421164802F086FF0346002BEFD10AE048
:1058480000BF08E04FF400714FF0904006F084F973
:105858000346012B07D104210D4802F073FF0346CC
:10586800002BEFD100E000BFFFF7C8FD00BF80BDEF
:10587800243200202C320020303200203432002024
:10588800F0030020E0030020A00300209C03002078
:10589800AC06010880B584B000AF786005F052FF0F
:1058A800F8607B68BB6000BF05F04CFF0246FB68F0
:1058B800D31ABA689A42F7D800BF00BF1037BD465E
:1058C80080BD000010B50E4C82B0636A019305F0EC
:1058D80039FF0090626A019B9A4207D3009B0198A6
:1058E8004FF47A7202FB030002B010BD05F02AFFE4
:1058F800636A4FF47A7202FB003002B010BD00BF39
:10590800002C014080B483B000AF03463960FB71BE
:1059180097F90730002B0ADB3B68DAB20C4997F994
:1059280007301201D2B20B4483F800230AE03B6827
:10593800DAB20849FB7903F00F03043B1201D2B233
:105948000B441A7600BF0C37BD465DF8047B7047E0
:1059580000E100E000ED00E080B582B000AF7860C3
:105968007B68013BB3F1807F01D301230FE00A4A32
:105978007B68013B53600F214FF0FF30FFF7C2FFF8
:10598800054B00229A60044B07221A600023184630
:105998000837BD4680BD00BF10E000E080B500AF0D
:1059A800BFF34F8F00BFBFF36F8F00BF0B4B1A6859
:1059B8000B4B1B689A4202D3084B00221A60074B14
:1059C8001B685A1C05490A60002B05D172B600BF36
:1059D800FFF728FB62B600BF00BF80BD3832002049
:1059E8003C32002080B400AF054B5B68044A43F0AA
:1059F8008053536000BFBD465DF8047B704700BF0D
:105A080000ED00E080B584B000AF87ED010A234BBC
:105A18001B6807EE903AB8EE677AD7ED017A67EE21
:105A2800277AFCEEE77A17EE903AFB60FB68B3F151
:105A3800807F18D3FB6807EE903AB8EE677ADFEDFF
:105A4800186AC7EE267AFCEEE77A17EE903A013329
:105A5800144A1360134B1B68FA68B2FBF3F3184639
:105A6800FFF77AFF05E00F4B00221A60F868FFF78E
:105A780073FF0D4B00221A600C4A0D4B1A600F2160
:105A88006FF00400FFF73EFF0F216FF00100FFF7F2
:105A980039FF00BF1037BD4680BD00BF6C02002033
:105AA800FFFF7F4B3C32002038320020A559000808
:105AB80040320020EFF3008001B5EFF3118003B40A
:105AC8001EF0100F08BFB0EE400A0A48006803B481
