:020000040800F2
:1000000000800120A5060108078E00080D8E00085B
:10001000138E0008198E00081F8E000800000000D3
:100020000000000000000000000000004D6100081A
:10003000258E0008000000000961000839600008F2
:10004000F5060108F5060108F5060108F5060108A0
:10005000F5060108F5060108F5060108F506010890
:10006000F5060108F5060108F5060108338E0008BB
:1000700029200008F5060108F5060108F506010823
:10008000418E00084F8E00085D8E0008F5060108BD
:10009000F5060108F5060108F5060108F506010850
:1000A000F50601086D8E0008F5060108F506010841
:1000B000F5060108F5060108F5060108F506010830
:1000C000F5060108F5060108F5060108F506010820
:1000D000F5060108F5060108F5060108F506010810
:1000E000F5060108F5060108F5060108F506010800
:1000F000F5060108F5060108F5060108F5060108F0
:10010000F5060108F5060108F5060108F5060108DF
:10011000F5060108F5060108F5060108F5060108CF
:10012000F5060108F5060108F5060108F5060108BF
:10013000F5060108F5060108F5060108F5060108AF
:10014000F5060108F5060108F5060108818E00088C
:10015000F5060108F5060108F5060108F50601088F
:10016000F5060108F5060108F5060108F50601087F
:10017000F5060108F5060108F50601080000000073
:08018000F5060108F50601086F
:1001880081F0004102E000BF83F0004330B54FEA40
:1001980041044FEA430594EA050F08BF90EA020FAD
:1001A8001FBF54EA000C55EA020C7FEA645C7FEA40
:1001B800655C00F0E2804FEA5454D4EB5555B8BF63
:1001C8006D420CDD2C4480EA020281EA030382EAD4
:1001D800000083EA010180EA020281EA0303362D66
:1001E80088BF30BD11F0004F4FEA01314FF4801C39
:1001F8004CEA113102D0404261EB410113F0004F4B
:100208004FEA03334CEA133302D0524263EB430301
:1002180094EA050F00F0A780A4F10104D5F1200E9F
:100228000DDB02FA0EFC22FA05F2801841F10001FA
:1002380003FA0EF2801843FA05F359410EE0A5F1CE
:1002480020050EF1200E012A03FA0EFC28BF4CF0FF
:10025800020C43FA05F3C01851EBE37101F00045B5
:1002680007D54FF0000EDCF1000C7EEB00006EEBC2
:100278000101B1F5801F1BD3B1F5001F0CD349084C
:100288005FEA30004FEA3C0C04F101044FEA4452A3
:1002980012F5800F80F09A80BCF1004F08BF5FEA2A
:1002A800500C50F1000041EB045141EA050130BD0A
:1002B8005FEA4C0C404141EB0101013C28BFB1F51C
:1002C800801FE9D291F0000F04BF01460020B1FA67
:1002D80081F308BF2033A3F10B03B3F120020CDA3A
:1002E8000C3208DD02F1140CC2F10C0201FA0CF018
:1002F80021FA02F10CE002F11402D8BFC2F1200C7D
:1003080001FA02F120FA0CFCDCBF41EA0C01904032
:10031800E41AA2BF01EB0451294330BD6FEA04047B
:100328001F3C1CDA0C340EDC04F11404C4F1200266
:1003380020FA04F001FA02F340EA030021FA04F378
:1003480045EA030130BDC4F10C04C4F1200220FACF
:1003580002F001FA04F340EA0300294630BD21FA0D
:1003680004F0294630BD94F0000F83F4801306BFD3
:1003780081F480110134013D4EE77FEA645C18BFC7
:100388007FEA655C29D094EA050F08BF90EA020F5E
:1003980005D054EA000C04BF1946104630BD91EA56
:1003A800030F1EBF0021002030BD5FEA545C05D159
:1003B8004000494128BF41F0004130BD14F5800498
:1003C8003CBF01F5801130BD01F0004545F0FE410C
:1003D80041F470014FF0000030BD7FEA645C1ABF41
:1003E800194610467FEA655C1CBF0B46024650EA78
:1003F800013406BF52EA033591EA030F41F40021A4
:1004080030BD00BF90F0000F04BF0021704730B529
:100418004FF4806404F132044FF000054FF00001FE
:1004280050E700BF90F0000F04BF0021704730B5BF
:100438004FF4806404F1320410F0004548BF404294
:100448004FF000013EE700BF42004FEAE2014FEAE9
:1004580031014FEA02701FBF12F07F4393F07F4FC4
:1004680081F06051704732F07F4208BF704793F0C7
:100478007F4F04BF41F40021704730B54FF46074DA
:1004880001F0004521F000411CE700BF50EA0102DD
:1004980008BF704730B54FF000050AE050EA010286
:1004A80008BF704730B511F0004502D5404261EBF6
:1004B80041014FF4806404F132045FEA915C3FF437
:1004C800D8AE4FF003025FEADC0C18BF03325FEAD4
:1004D800DC0C18BF033202EBDC02C2F1200300FA85
:1004E80003FC20FA02F001FA03FE40EA0E0021FAAA
:1004F80002F11444BDE600BF70B54FF0FF0C4CF498
:10050800E06C1CEA11541DBF1CEA135594EA0C0F49
:1005180095EA0C0F00F0DEF82C4481EA030621EA84
:100528004C5123EA4C5350EA013518BF52EA0335BF
:1005380041F4801143F4801338D0A0FB02CE4FF071
:100548000005E1FB02E506F00042E0FB03E54FF0A1
:100558000006E1FB03569CF0000F18BF4EF0010E99
:10056800A4F1FF04B6F5007F64F5407404D25FEA95
:100578004E0E6D4146EB060642EAC62141EA555148
:100588004FEAC52040EA5E504FEACE2EB4F1FD0C8A
:1005980088BFBCF5E06F1ED8BEF1004F08BF5FEA08
:1005A800500E50F1000041EB045170BD06F00046BA
:1005B80046EA010140EA020081EA0301B4EB5C0467
:1005C800C2BFD4EB0C0541EA045170BD41F480115F
:1005D8004FF0000E013C00F3AB8014F1360FDEBF84
:1005E800002001F0004170BDC4F10004203C35DA60
:1005F8000C341BDC04F11404C4F1200500FA05F3E3
:1006080020FA04F001FA05F240EA020001F0004283
:1006180021F0004110EBD37021FA04F642EB0601F9
:100628005EEA430E08BF20EAD37070BDC4F10C0423
:10063800C4F1200500FA04F320FA05F001FA04F2E7
:1006480040EA020001F0004110EBD37041F10001D3
:100658005EEA430E08BF20EAD37070BDC4F12005DE
:1006680000FA05F24EEA020E20FA04F301FA05F246
:1006780043EA020321FA04F001F0004121FA04F2EE
:1006880020EA020000EBD3705EEA430E08BF20EABE
:10069800D37070BD94F0000F0FD101F000464000F8
:1006A80041EB010111F4801F08BF013CF7D041EA7A
:1006B800060195F0000F18BF704703F0004652007E
:1006C80043EB030313F4801F08BF013DF7D043EA4F
:1006D8000603704794EA0C0F0CEA135518BF95EA05
:1006E8000C0F0CD050EA410618BF52EA4306D1D18C
:1006F80081EA030101F000414FF0000070BD50EAAB
:10070800410606BF1046194652EA430619D094EA34
:100718000C0F02D150EA013613D195EA0C0F05D11E
:1007280052EA03361CBF104619460AD181EA030172
:1007380001F0004141F0FE4141F470014FF000002A
:1007480070BD41F0FE4141F4780170BD70B54FF0C5
:10075800FF0C4CF4E06C1CEA11541DBF1CEA135545
:1007680094EA0C0F95EA0C0F00F0A7F8A4EB050427
:1007780081EA030E52EA03354FEA013100F088801E
:100788004FEA03334FF0805545EA131343EA1263E7
:100798004FEA022245EA111545EA10654FEA00269C
:1007A8000EF000419D4208BF964244F1FD0404F555
:1007B800407402D25B084FEA3202B61A65EB0305B1
:1007C8005B084FEA32024FF480104FF4002CB6EB6E
:1007D800020E75EB030E22BFB61A754640EA0C00EE
:1007E8005B084FEA3202B6EB020E75EB030E22BF2E
:1007F800B61A754640EA5C005B084FEA3202B6EB6F
:10080800020E75EB030E22BFB61A754640EA9C002D
:100818005B084FEA3202B6EB020E75EB030E22BFFD
:10082800B61A754640EADC0055EA060E18D04FEABB
:10083800051545EA16754FEA06164FEAC30343EA5B
:1008480052734FEAC2025FEA1C1CC0D111F4801F28
:100858000BD141EA00014FF000004FF0004CB6E721
:1008680011F4801F04BF01430020B4F1FD0C88BFC0
:10087800BCF5E06F3FF6AFAEB5EB030C04BFB6EBCB
:10088800020C5FEA500C50F1000041EB045170BDBE
:100898000EF0004E4EEA113114EB5C04C2BFD4EBEB
:1008A8000C0541EA045170BD41F480114FF0000E6F
:1008B800013C90E645EA060E8DE60CEA135594EAEB
:1008C8000C0F08BF95EA0C0F3FF43BAF94EA0C0FEE
:1008D8000AD150EA01347FF434AF95EA0C0F7FF463
:1008E80025AF104619462CE795EA0C0F06D152EAB7
:1008F80003353FF4FDAE1046194622E750EA41069B
:1009080018BF52EA43067FF4C5AE50EA41047FF4AB
:100918000DAF52EA43057FF4EBAE12E74FF0FF3C10
:1009280006E000BF4FF0010C02E000BF4FF0010CE1
:100938004DF804CD4FEA410C7FEA6C5C4FEA430C5A
:1009480018BF7FEA6C5C1BD001B050EA410C0CBFA9
:1009580052EA430C91EA030F02BF90EA020F00200B
:10096800704710F1000F91EA030F58BF994208BF72
:1009780090422CBFD8176FEAE37040F0010070472F
:100988004FEA410C7FEA6C5C02D150EA013C07D186
:100998004FEA430C7FEA6C5CD6D152EA033CD3D0D1
:1009A8005DF8040B704700BF8446104662468C46CB
:1009B8001946634600E000BF01B5FFF7B7FF0028FE
:1009C80048BF10F1000F01BD4DF808EDFFF7F4FF27
:1009D8000CBF012000205DF808FB00BF4DF808EDB2
:1009E800FFF7EAFF34BF012000205DF808FB00BFD5
:1009F8004DF808EDFFF7E0FF94BF012000205DF8F7
:100A080008FB00BF4DF808EDFFF7CEFF94BF0120AB
:100A180000205DF808FB00BF4DF808EDFFF7C4FFA4
:100A280034BF012000205DF808FB00BF4FEA410CED
:100A38007FEA6C5C02D150EA013C0AD14FEA430CD0
:100A48007FEA6C5C02D152EA033C02D14FF000000D
:100A580070474FF0010070474A0011D212F500129A
:100A680011D20DD56FF47873B3EB62520ED44FEAFE
:100A7800C12343F0004343EA505323FA02F070477E
:100A88004FF00000704750EA013002D14FF0FF30BC
:100A980070474FF0000070474FEA4102B2F1E0435F
:100AA80024BFB3F5001CDCF1FE5C0DD901F0004C4D
:100AB8004FEAC0024CEA5070B2F1004F40EB83009D
:100AC80008BF20F00100704711F0804F21D113F1C9
:100AD8003872BCBF01F00040704741F480114FEA02
:100AE8005252C2F11802C2F1200C10FA0CF320FA8B
:100AF80002F018BF40F001004FEAC1234FEAD323A8
:100B080003FA0CFC40EA0C0023FA02F34FEA430311
:100B1800CCE77FEA625307D150EA01331EBF4FF09A
:100B2800FE4040F44000704701F0004040F0FE40B5
:100B380040F40000704700BF0348044B834202D0D2
:100B4800034B03B118477047A8020020A8020020F1
:100B5800000000000548064B1B1AD90F01EBA30142
:100B6800491002D0034B03B118477047A802002070
:100B7800A80200200000000010B5064C237843B9F5
:100B8800FFF7DAFF044B13B10448AFF300800123E9
:100B9800237010BDA802002000000000D40C01083A
:100BA80008B5054B1BB105490548AFF30080BDE802
:100BB8000840FFF7CFBF00BF00000000AC020020D4
:100BC800D40C010880B485B000AF78607B681B68DE
:100BD80003F06003FB60FB68002B04D17B681B6893
:100BE80003F01003FB60FB6818461437BD465DF838
:100BF800047B704780B483B000AF78607B681B6B60
:100C080018460C37BD465DF8047B704780B483B046
:100C180000AF786039607B681A6A3B681A437B6862
:100C28001A6200BF0C37BD465DF8047B704780B47C
:100C380083B000AF786039607B681A6A3B68DB4331
:100C48001A407B681A6200BF0C37BD465DF8047B0A
:100C5800704780B483B000AF78607B685B6C43F406
:100C680000427B685A6400BF0C37BD465DF8047BC0
:100C7800704780B483B000AF78607B68DB6843F06E
:100C880001027B68DA6000BF0C37BD465DF8047B63
:100C9800704780B483B000AF78607B68DB6823F06E
:100CA80001027B68DA6000BF0C37BD465DF8047B43
:100CB800704780B483B000AF78607B68DB6803F06E
:100CC8000103012B01D1012300E0002318460C3752
:100CD800BD465DF8047B704780B483B000AF786090
:100CE8007B68DB6843F002027B68DA6000BF0C3780
:100CF800BD465DF8047B704780B483B000AF786070
:100D08007B68DB6823F002027B68DA6000BF0C377F
:100D1800BD465DF8047B704780B483B000AF78604F
:100D28007B68DB6803F00203022B01D1012300E09A
:100D3800002318460C37BD465DF8047B704780B425
:100D480083B000AF78607B68DB6843F004027B689F
:100D5800DA6000BF0C37BD465DF8047B704780B48D
:100D680083B000AF78607B68DB6823F004027B689F
:100D7800DA6000BF0C37BD465DF8047B704780B46D
:100D880083B000AF78607B68DB6803F00403042B52
:100D980001D1012300E0002318460C37BD465DF859
:100DA800047B704780B483B000AF78607B68DB68F1
:100DB80043F008027B68DA6000BF0C37BD465DF877
:100DC800047B704780B483B000AF78607B68DB68D1
:100DD80023F008027B68DA6000BF0C37BD465DF877
:100DE800047B704780B483B000AF78607B68DB68B1
:100DF80003F00803082B01D1012300E00023184663
:100E08000C37BD465DF8047B704780B483B000AFF3
:100E180078607B68DB6843F010027B68DA6000BFAB
:100E28000C37BD465DF8047B704780B483B000AFD3
:100E380078607B68DB6823F010027B68DA6000BFAB
:100E48000C37BD465DF8047B704780B483B000AFB3
:100E580078607B68DB6803F01003102B01D1012355
:100E680000E0002318460C37BD465DF8047B704748
:100E780080B483B000AF78607B68DB6843F0200201
:100E88007B68DA6000BF0C37BD465DF8047B7047AD
:100E980080B483B000AF78607B68DB6823F0200201
:100EA8007B68DA6000BF0C37BD465DF8047B70478D
:100EB80080B483B000AF78607B68DB6803F0200300
:100EC800202B01D1012300E0002318460C37BD4632
:100ED8005DF8047B704780B483B000AF78607B68AE
:100EE800DB6843F040027B68DA6000BF0C37BD4620
:100EF8005DF8047B704780B483B000AF78607B688E
:100F0800DB6823F040027B68DA6000BF0C37BD461F
:100F18005DF8047B704780B483B000AF78607B686D
:100F2800DB6803F04003402B01D1012300E00023DC
:100F380018460C37BD465DF8047B704780B483B013
:100F480000AF78607B68DB6843F080027B68DA601A
:100F580000BF0C37BD465DF8047B704780B483B092
:100F680000AF78607B68DB6823F080027B68DA601A
:100F780000BF0C37BD465DF8047B704780B483B072
:100F880000AF78607B68DB6803F08003802B01D1B9
:100F9800012300E0002318460C37BD465DF8047BAA
:100FA800704780B582B000AF78600B467B807B8845
:100FB80003F00103002B0CD07B681B681846FFF771
:100FC800AAFF0346012B04D07B681B681846FFF76D
:100FD80082FF7B8803F00203002B0CD07B681B6820
:100FE8001846FFF799FE0346012B04D07B681B685F
:100FF8001846FFF771FE7B8803F00403002B0CD022
:101008007B681B681846FFF7BAFE0346012B04D01D
:101018007B681B681846FFF792FE7B8803F008037D
:10102800002B0CD07B681B681846FFF7DBFE0346D5
:10103800012B04D07B681B681846FFF7B3FE7B883A
:1010480003F01003002B0CD07B681B681846FFF7D1
:10105800FCFE0346012B04D07B681B681846FFF78B
:10106800D4FE7B8803F02003002B0CD07B681B6820
:101078001846FFF71EFE0346012B04D07B681B6849
:101088001846FFF7F6FD7B8803F04003002B0CD0D1
:101098007B681B681846FFF771FF0346012B04D0D5
:1010A8007B681B681846FFF749FF7B8803F08003BD
:1010B800002B0CD07B681B681846FFF7F9FE034627
:1010C800012B04D07B681B681846FFF7D1FE00BFD0
:1010D8000837BD4680BD80B582B000AF78600B464A
:1010E8007B807B8803F00103002B0CD07B681B6896
:1010F8001846FFF710FF0346012B04D17B681B68D5
:101108001846FFF7F8FE7B8803F00203002B0CD08B
:101118007B681B681846FFF7FFFD0346012B04D1C7
:101128007B681B681846FFF7E7FD7B8803F004031C
:10113800002B0CD07B681B681846FFF720FE03467F
:10114800012B04D17B681B681846FFF708FE7B88D3
:1011580003F00803002B0CD07B681B681846FFF7C8
:1011680041FE0346012B04D17B681B681846FFF734
:1011780029FE7B8803F01003002B0CD07B681B68CA
:101188001846FFF762FE0346012B04D17B681B68F3
:101198001846FFF74AFE7B8803F02003002B0CD08B
:1011A8007B681B681846FFF784FD0346012B04D0B3
:1011B8007B681B681846FFF76CFD7B8803F04003CB
:1011C800002B0CD07B681B681846FFF7D7FE034638
:1011D800012B04D17B681B681846FFF7BFFE7B888C
:1011E80003F08003002B0CD07B681B681846FFF7C0
:1011F8005FFE0346012B04D17B681B681846FFF786
:1012080047FE00BF0837BD4680BD000080B582B0EC
:1012180000AF78600B46FB70FB78022B06D17B6829
:101228001B6801211846FFF7F1FC31E07B681B6859
:10123800194A934213D07B681B68184A93420ED010
:101248007B681B68164A934209D07B681B68154A5D
:10125800934204D07B681B68134A934218D1FB78E9
:10126800032B06D17B681B6804211846FFF7CEFCC8
:101278000EE0FB78042B0BD17B681B680121184614
:10128800FFF7C4FC7B681B6804211846FFF7BEFC07
:1012980000BF0837BD4680BD002C01400034014026
:1012A80000400140004401400048014080B582B040
:1012B80000AF78600B46FB70FB78022B06D17B6889
:1012C8001B6801211846FFF7B2FC31E07B681B68F8
:1012D800194A934213D07B681B68184A93420ED070
:1012E8007B681B68164A934209D07B681B68154ABD
:1012F800934204D07B681B68134A934218D1FB7849
:10130800032B06D17B681B6804211846FFF78FFC66
:101318000EE0FB78042B0BD17B681B680121184673
:10132800FFF785FC7B681B6804211846FFF77FFCE4
:1013380000BF0837BD4680BD002C01400034014085
:1013480000400140004401400048014080B582B09F
:1013580000AF78600B46FB70FB78022B06D17B68E8
:101368001B6810211846FFF751FC31E07B681B68A9
:10137800194A934213D07B681B68184A93420ED0CF
:101388007B681B68164A934209D07B681B68154A1C
:10139800934204D07B681B68134A934218D1FB78A8
:1013A800032B06D17B681B6840211846FFF72EFCEB
:1013B8000EE0FB78042B0BD17B681B6810211846C4
:1013C800FFF724FC7B681B6840211846FFF71EFCCA
:1013D80000BF0837BD4680BD002C014000340140E5
:1013E80000400140004401400048014080B582B0FF
:1013F80000AF78600B46FB70FB78022B06D17B6848
:101408001B6810211846FFF712FC31E07B681B6847
:10141800194A934213D07B681B68184A93420ED02E
:101428007B681B68164A934209D07B681B68154A7B
:10143800934204D07B681B68134A934218D1FB7807
:10144800032B06D17B681B6840211846FFF7EFFB8A
:101458000EE0FB78042B0BD17B681B681021184623
:10146800FFF7E5FB7B681B6840211846FFF7DFFBA9
:1014780000BF0837BD4680BD002C01400034014044
:1014880000400140004401400048014080B582B05E
:1014980000AF78600B46FB70FB78022B07D17B68A6
:1014A8001B684FF480711846FFF7B0FB34E07B6887
:1014B8001B681B4A934213D07B681B68194A9342E6
:1014C8000ED07B681B68184A934209D07B681B685A
:1014D800164A934204D07B681B68154A93421BD175
:1014E800FB78032B07D17B681B684FF48061184693
:1014F800FFF78CFB10E0FB78042B0DD17B681B6891
:101508004FF480711846FFF781FB7B681B684FF426
:1015180080611846FFF77AFB00BF0837BD4680BDDB
:10152800002C0140003401400040014000440140CB
:101538000048014080B582B000AF78600B46FB7070
:10154800FB78022B07D17B681B684FF48071184623
:10155800FFF76DFB34E07B681B681B4A934213D08E
:101568007B681B68194A93420ED07B681B68184A2F
:10157800934209D07B681B68164A934204D07B6863
:101588001B68154A93421BD1FB78032B07D17B6854
:101598001B684FF480611846FFF749FB10E0FB78A1
:1015A800042B0DD17B681B684FF480711846FFF738
:1015B8003EFB7B681B684FF480611846FFF737FBDA
:1015C80000BF0837BD4680BD002C014000340140F3
:1015D80000400140004401400048014080B582B00D
:1015E80000AF78600B46FB70FB78022B06D17B6856
:1015F8001B684FF480511846FFF708FB00BF0837F7
:10160800BD4680BD80B582B000AF78600B46FB70E8
:10161800FB78022B06D17B681B684FF48051184673
:10162800FFF705FB00BF0837BD4680BD80B584B015
:1016380000AF78600023FB607B681B68304A9342E8
:1016480001D1304BFB607B681A68FB681A60FB6845
:101658001B681846FFF7B6FAB860BB68002B06D0BF
:10166800BB68102B03D0FB6801221A7102E0FB68EB
:1016780000221A71FB681B68234A934213D0FB6847
:101688001B68224A93420ED0FB681B68204A93428B
:1016980009D0FB681B681F4A934204D0FB681B688B
:1016A8001D4A934204D1FB681B681846FFF7D1FA1C
:1016B800FB681B68144A934213D0FB681B68134AE3
:1016C80093420ED0FB681B68114A934209D0FB680D
:1016D8001B68104A934204D0FB681B680E4A934269
:1016E80008D17B681B681846FFF784FA0346DAB20C
:1016F800FB685A71FB6818461037BD4680BD00BFAD
:1017080000040040C4020020002C014000340140C5
:1017180000400140004401400048014080B485B0C9
:1017280000AF786039603B68002B03D17B68403399
:10173800FB6001E0044BFB60FB6818461437BD46AC
:101748005DF8047B704700BF0C03045080B483B07D
:1017580000AF78607B68DB6803F44063002B01D13D
:10176800012300E0002318460C37BD465DF8047BD2
:10177800704780B483B000AF786039607B681B6BBA
:1017880023F00F023B681A437B681A6300BF0C37CB
:10179800BD465DF8047B704780B483B000AF7860C5
:1017A80039607B68DB6823F003023B681A437B6877
:1017B800DA6000BF0C37BD465DF8047B704780B423
:1017C80083B000AF78607B68DB6C03F0C003002B4C
:1017D80001D1012300E0002318460C37BD465DF80F
:1017E800047B704780B483B000AF78607B689B68E7
:1017F80023F0004323F03F0343F001027B689A6023
:1018080000BF0C37BD465DF8047B704780B483B0D9
:1018180000AF78607B689B6823F0004323F03F03A8
:1018280043F002027B689A6000BF0C37BD465DF842
:10183800047B704780B483B000AF78607B689B6896
:1018480003F00103012B01D1012300E00023184616
:101858000C37BD465DF8047B704780B483B000AF99
:10186800786039607B689B6823F0404323F03F032E
:101878003A6802F08042134343F000427B689A6062
:1018880000BF0C37BD465DF8047B704780B483B059
:1018980000AF78607B689B6803F00043B3F1004FAA
:1018A80001D1012300E0002318460C37BD465DF83E
:1018B800047B704780B483B000AF78607B689B6816
:1018C80023F0004323F03F0343F004027B689A604F
:1018D80000BF0C37BD465DF8047B704780B483B009
:1018E80000AF78607B689B6823F0004323F03F03D8
:1018F80043F008027B689A6000BF0C37BD465DF86C
:10190800047B704780B483B000AF78607B681B6845
:1019180003F00803082B01D1012300E00023184637
:101928000C37BD465DF8047B704780B483B000AFC8
:1019380078607B681B6803F01003102B01D101232A
:1019480000E0002318460C37BD465DF8047B70475D
:1019580080B483B000AF78607B6810221A6000BF43
:101968000C37BD465DF8047B704780B483B000AF88
:1019780078607B685B6843F008027B685A6000BF48
:101988000C37BD465DF8047B704780B483B000AF68
:1019980078607B685B6843F040027B685A6000BFF0
:1019A8000C37BD465DF8047B704780B483B000AF48
:1019B80078607B685B6823F008027B685A6000BF28
:1019C8000C37BD465DF8047B704780B483B000AF28
:1019D80078607B685B6823F010027B685A6000BF00
:1019E8000C37BD465DF8047B704780B483B000AF08
:1019F80078607B685B6823F040027B685A6000BFB0
:101A08000C37BD465DF8047B704780B483B000AFE7
:101A180078607B685B6823F080027B685A6000BF4F
:101A28000C37BD465DF8047B704780B483B000AFC7
:101A380078607B685B6803F01003102B01D10123E9
:101A480000E0002318460C37BD465DF8047B70475C
:101A580080B483B000AF78607B685B6803F0800374
:101A6800802B01D1012300E0002318460C37BD4626
:101A78005DF8047B7047000080B485B000AF7860E3
:101A880039607B68FB600C4A3B6813441B781A4634
:101A9800FB6813441B6808493A680A4412781146DF
:101AA800FA680A4443F00103136000BF1437BD46C7
:101AB8005DF8047B704700BF440D010880B485B011
:101AC80000AF786039607B68FB600C4A3B68134460
:101AD8001B781A46FB6813441B6808493A680A448D
:101AE80012781146FA680A4423F00103136000BF14
:101AF8001437BD465DF8047B704700BF440D0108EC
:101B080080B485B000AF786039607B68FB60084AB4
:101B18003B6813441B781A46FB6813441B6803F0A0
:101B2800200318461437BD465DF8047B704700BF94
:101B3800440D010880B487B000AFF860B9607A60DE
:101B4800FB687B610D4ABB6813441B781A467B69A6
:101B580013445B681B0C1B040849BA680A441278D2
:101B680011467A690A4411467A6813434B6000BFEC
:101B78001C37BD465DF8047B704700BF440D010863
:101B880080B487B000AFF860B9607A603B60FB68EA
:101B98007B613B6A102B14D1174ABB6813441B782E
:101BA8001A467B6913441A467B68D360124ABB689D
:101BB80013441B781A467B6913441A463B689360A2
:101BC80013E00D4ABB6813441B781A467B6913441B
:101BD8001A467B689360084ABB6813441B781A4608
:101BE8007B6913441A463B68D36000BF1C37BD4667
:101BF8005DF8047B704700BF440D010880B487B0CE
:101C080000AFF860B9607A60FB687B61074ABB681F
:101C180013441B781A467B6913441A467B68936001
:101C280000BF1C37BD465DF8047B7047440D0108B2
:101C380080B483B000AF78607B681B6803F0200332
:101C4800202B01D1012300E0002318460C37BD46A4
:101C58005DF8047B704780B483B000AF78607B6820
:101C680020225A6000BF0C37BD465DF8047B7047E0
:101C780080B485B000AF786039607B68FB600C4A3F
:101C88003B6813441B781A46FB6813441B680849D1
:101C98003A680A4412781146FA680A4443F0020383
:101CA800136000BF1437BD465DF8047B704700BF62
:101CB800440D010880B485B000AF786039607B6856
:101CC800FB600C4A3B6813441B781A46FB681344B4
:101CD8001B6808493A680A4412781146FA680A44A7
:101CE80043F00803136000BF1437BD465DF8047B5A
:101CF800704700BF440D010880B485B000AF78601C
:101D080039607B68FB600C4A3B6813441B781A46B1
:101D1800FB6813441B6808493A680A44127811465C
:101D2800FA680A4423F00203136000BF1437BD4663
:101D38005DF8047B704700BF440D010880B485B08E
:101D480000AF786039607B68FB600C4A3B681344DD
:101D58001B781A46FB6813441B6808493A680A440A
:101D680012781146FA680A4423F00403136000BF8E
:101D78001437BD465DF8047B704700BF440D010869
:101D880080B485B000AF786039607B68FB600C4A2E
:101D98003B6813441B781A46FB6813441B680849C0
:101DA8003A680A4412781146FA680A4423F008038C
:101DB800136000BF1437BD465DF8047B704700BF51
:101DC800440D010880B485B000AF786039607B6845
:101DD800FB600A4A3B6813441B781A46FB681344A5
:101DE8001B6803F00203022B01D1012300E000234A
:101DF80018461437BD465DF8047B7047440D01084A
:101E080080B584B000AF78600123FB817B681B69D3
:101E18001846FFF79BFC0346002B2FD07B685B7AA4
:101E2800DBB2022B11D07B685B7ADBB2042B0CD0BF
:101E38007B685B7ADBB2082B07D07B681B69184686
:101E4800FFF760FD0346012B18D1786800F0F8F819
:101E58000346002B12D17B685B7ADBB2082B03D1D7
:101E68007B6801225A7202E07B6820225A727B68E2
:101E78001B691846FFF71EFD0023FB81FB891846E6
:101E88001037BD4680BD80B586B002AFF860B96036
:101E98007A603B600021F868FFF740FC03461A4669
:101EA8007968B868FFF7AAFE0021F868FFF736FCE2
:101EB80002463B68002100917968B868FFF760FE28
:101EC800BA697968B868FFF735FE7968B868FFF7C6
:101ED800CFFE7968B868FFF7EDFE7968B868FFF754
:101EE800CBFD00BF1037BD4680BD80B584B000AFC4
:101EF800F860B9607A607968B868FFF7DFFD7968DB
:101F0800B868FFF71BFF7968B868FFF739FF796889
:101F1800B868FFF7F1FE00227968B868FFF70AFE93
:101F280000BF1037BD4680BD80B584B000AF786073
:101F380039600223FB737B68DB79012B0FD17B6847
:101F4800DA687B681B685B00D118FB7B7A681268CB
:101F580002FB03F31A4638680EF0AAFE0AE07B6813
:101F6800D968FB7B7A68126802FB03F31A46386863
:101F78000EF09EFE00BF1037BD4680BD80B586B00E
:101F880000AFF860B9607A60FB685A69FB689B79B2
:101F980019461046FFF716FF0346DBB2012B37D16F
:101FA800FB685A69BB68104698470346012B2FD136
:101FB800FB6804225A72FB685A697B681046984786
:101FC800FB685A69FB689B7919461046FFF798FD2C
:101FD8000346002B19D1FB685A69FB689B7919469F
:101FE8001046FFF76BFDFB685869FB689B7919463B
:101FF800FB681B681A46FFF79DFDFB685A69FB687A
:102008009B7919461046FFF737FD0123FB7501E060
:102018000023FB75FB7D18461837BD4680BD0000C0
:1020280080B500AF034A04490448FFF7A7FF00BF83
:1020380080BD00BF5F1C0008391C00085003002049
:1020480080B582B000AF78607B681B691846FFF7DF
:102058006CFC0346DBB2012B07D17B681B69184671
:10206800FFF776FC7B6810225A727B685B7ADBB2DA
:10207800102B0CBF01230023DBB218460837BD46DE
:1020880080BD80B582B000AF78600B46FB70FB78EE
:10209800012B0DD17B681B691846FFF757FB0346D8
:1020A800012B12D07B681B691846FFF703FC0CE074
:1020B8007B681B691846FFF782FB0346012B04D097
:1020C8007B681B691846FFF709FC00BF0837BD4647
:1020D80080BD000090B589B002AFF860084611468F
:1020E8001A4603467B810B463B811346FB8000233F
:1020F8007B61FB681B693C4A934201D13B4B7B6186
:102108007B69002B6BD0FB681A697B691A617B6954
:102118000022DA71FB88012B61D03B89002B47D064
:102128007B695B7ADBB2082B42D0FB68DA687B6993
:10213800DA60FB681A687B691A60FB685A697B6910
:102148005A61FB689A797B699A71FB681A797B698D
:102158001A717B691B69B96A1846FFF70AFB7B8904
:10216800012B21D07B89042B16D17B691B690321A4
:102178001846FFF711FB7B6918697B6959697B6908
:102188009B791C467B69DA687B691B680093134658
:102198002246FFF778FE07E07B89022B04D17B6992
:1021A8001B691846FFF7E1FB7B6908225A7216E0A3
:1021B8003B89002B13D17B699B7ADBB2082B0ED0AD
:1021C800FB685A797B695A717B89022B04D17B6938
:1021D8001B691846FFF7D9FB7B6908229A727B694D
:1021E80018461C37BD4690BD00010450500300201E
:1021F80080B582B000AF78607B681B691846FFF72E
:1022080019FB0346002B04D17B681B691846FFF7AE
:10221800E9FA00BF0837BD4680BD80B586B000AF7B
:10222800F8600B467A607B810123FB82FB681B699F
:10223800002B46D07B89012B05D1F868FFF7E0FD1C
:102248000346FB823DE07B89042B1FD1FB681B6999
:102258001846FFF77BFA0346002B32D0FB680122B1
:102268005A72FB681B691846FFF724FB00BFFB681E
:102278005B7ADBB2042BFAD17968F868FFF754FE71
:10228800FB6808225A720023FB821AE07B89022B22
:1022980017D1FB685B7ADBB2202B09D0FB685B7A2D
:1022A800DBB2042B04D0FB685B7ADBB2102B08D1BD
:1022B800FB6808225A727968F868FFF735FE002330
:1022C800FB82FB8A18461837BD4680BD80B582B0B0
:1022D80000AF78600B467B8013463B807B681B69A8
:1022E8001846FFF7A7FA0346002B04D07B681B6942
:1022F8001846FFF78BFA7B681B691846FFF7A8FB9F
:102308000346002B04D07B681B691846FFF77DFB4A
:102318007B681B691846FFF788FB0346002B04D02F
:102328007B681B691846FFF750FB3B88002B35D0AC
:102338007B88012B1AD07B88022B05D17B681B690F
:102348001846FFF732FB11E07B88042B0ED17B681F
:1023580018697B6859697B689B791A46FFF7C5FD40
:102368007B681B6900211846FFF716FA7B68002274
:10237800DA607B6800221A607B6800225A617B68F9
:1023880000229A717B6800221A717B681A697B683F
:102398001B7919461046FFF7ECF90AE07B68002222
:1023A8005A717B88022B04D17B681B691846FFF79A
:1023B8001CFB00BF0837BD4680BD000080B584B057
:1023C80000AF78600B46FB707B681B691846FFF707
:1023D80031FA0346FB7397F90F30012B04D17B6860
:1023E8001B691846FFF712FAFB78002B0FD17B68A0
:1023F8001B697F211846FFF730FA00BF7B681B690D
:102408001846FFF743FA0346012BF7D040E0FB7864
:10241800012B0FD17B681B692C491846FFF71DFA61
:1024280000BF7B681B691846FFF730FA0346012B8B
:10243800F7D02DE07B681B697F211846FFF70DFA5E
:1024480000BF7B681B691846FFF720FA0346012B7B
:10245800F7D00023BB8107E000BFBB891BB29BB24A
:1024680001339BB21BB2BB81BB891BB29BB2032B4E
:10247800F2D97B681B6915491846FFF7EEF900BFCA
:102488007B681B691846FFF701FA0346012BF7D052
:102498000023BB8107E000BFBB891BB29BB201339D
:1024A8009BB21BB2BB81BB891BB29BB2032BF2D977
:1024B80097F90F30012B04D17B681B691846FFF789
:1024C80091F900BF1037BD4680BD00BF00007F40B6
:1024D80080B483B000AF78607B681B6843F001026A
:1024E8007B681A6000BF0C37BD465DF8047B7047F7
:1024F80080B483B000AF78607B681B6823F001026A
:102508007B681A6000BF0C37BD465DF8047B7047D6
:1025180080B483B000AF786039607B681B6823F0B3
:1025280004023B681A437B681A6000BF0C37BD463B
:102538005DF8047B704780B483B000AF78607B6837
:102548001B6803F0040318460C37BD465DF8047B8E
:10255800704780B483B000AF78607B68DB6A184648
:102568000C37BD465DF8047B704780B483B000AF7C
:10257800786039607B683A681A6300BF0C37BD46DB
:102588005DF8047B704780B483B000AF7860396031
:102598007B683A685A6300BF0C37BD465DF8047B18
:1025A800704780B483B000AF786039607B683A6860
:1025B8009A6300BF0C37BD465DF8047B704780B452
:1025C80083B000AF786039607B683A68DA6300BF2F
:1025D8000C37BD465DF8047B704780B483B000AF0C
:1025E800786039607B683A681A6400BF0C37BD466A
:1025F8005DF8047B704780B483B000AF78607B6877
:102608005B6B18460C37BD465DF8047B704780B499
:1026180083B000AF78607B689B6B18460C37BD466B
:102628005DF8047B704780B483B000AF78607B6846
:10263800DB6B18460C37BD465DF8047B704780B4E9
:1026480083B000AF78607B681B6C18460C37BD46BA
:102658005DF8047B704780B483B000AF78607B6816
:102668005B6943F001027B685A6100BF0C37BD46C5
:102678005DF8047B704780B483B000AF78607B68F6
:102688001B6918460C37BD465DF8047B704780B45B
:1026980083B000AF786039607B683A689A6100BFA0
:1026A8000C37BD465DF8047B704780B483B000AF3B
:1026B800786039607B683A689A6200BF0C37BD461B
:1026C8005DF8047B7047000080B584B000AF786087
:1026D80087ED000AD7ED007AF5EEC07AF1EE10FA30
:1026E80003D54FF000033B600AE0D7ED007A9FED79
:1026F800167AF4EEC77AF1EE10FA01DD134B3B605F
:102708007B681B681846FFF724FFF8607B681B7915
:10271800002B0CBF01230023DBB21A46FB681344CD
:1027280007EE903AB8EE677AD7ED007A27EE277A67
:10273800DFED056AC7EE267AFCEEE77A17EE903AE7
:1027480018461037BD4680BD0000C8420000C84288
:1027580080B582B000AF786039607B681B68184626
:10276800FFF749FF02463B68934205D07B681B6828
:1027780039681846FFF707FF00BF0837BD4680BD18
:1027880080B582B000AF786039607B681B681846F6
:10279800FFF73DFF02463B68934205D07B681B6804
:1027A80039681846FFF7FDFE00BF0837BD4680BDF3
:1027B80080B582B000AF786039607B681B681846C6
:1027C800FFF731FF02463B68934205D07B681B68E0
:1027D80039681846FFF7F3FE00BF0837BD4680BDCD
:1027E80080B582B000AF786039607B681B68184696
:1027F800FFF725FF02463B68934205D07B681B68BC
:1028080039681846FFF7E9FE00BF0837BD4680BDA6
:1028180080B584B000AF786087ED000A97ED000AB4
:102828007868FFF751FFF860F9687868FFF790FF5C
:1028380000BF1037BD4680BD80B584B000AF78605A
:1028480087ED000A97ED000A7868FFF73DFFF8600A
:10285800F9687868FFF794FF00BF1037BD4680BD60
:1028680080B584B000AF786087ED000A97ED000A64
:102878007868FFF729FFF860F9687868FFF798FF2C
:1028880000BF1037BD4680BD80B584B000AF78600A
:1028980087ED000A97ED000A7868FFF715FFF860E2
:1028A800F9687868FFF79CFF00BF1037BD4680BD08
:1028B80080B485B000AF78607B681B689A68074B66
:1028C8001340FB60FB68062B0CBF01230023DBB21F
:1028D80018461437BD465DF8047B704707000100B1
:1028E80080B584B000AF78600B46FB707B681B68CE
:1028F8001846FFF720FEF860FB78002B1ED07B6897
:102908001B68324A934213D07B681B68304A934253
:102918000ED07B681B682F4A934209D07B681B68DE
:102928002D4A934204D07B681B682C4A934205D1F8
:102938007B681B6800211846FFF717FEFB68042B0D
:1029480011D07B681B6804211846FFF7E1FD7B68FE
:102958001B681846FFF77FFE7B681B68F9681846F6
:10296800FFF7D6FD04E07B681B681846FFF773FE87
:102978007B681B681846FFF7ABFDFB78002B20D05F
:102988007B681B68114A934213D07B681B68104A06
:1029980093420ED07B681B680E4A934209D07B682D
:1029A8001B680D4A934204D07B681B680B4A93420C
:1029B80007D17B681A687B685B7919461046FFF770
:1029C800D4FD00BF1037BD4680BD00BF002C0140BC
:1029D80000340140004001400044014000480140EB
:1029E80080B582B000AF78607B681B681846FFF737
:1029F8007FFD00BF0837BD4680BD80B485B000AFFD
:102A0800786039607B68012283F8D8203B68D3E975
:102A180000237968C1E902237B6801221A60002338
:102A2800FB600CE07B68D3E902237868F96802311F
:102A3800C9000144C1E90023FB680133FB60FB685E
:102A4800182BEFDD00BF00BF1437BD465DF8047BCF
:102A5800704780B586B000AF87ED040BF860B960A9
:102A68007A60BB68D3E902017B68D3E90023FDF7EC
:102A7800ABFF0346002B05D17B68D3E90023B96877
:102A8800C1E90223F868BB681033C82219460EF062
:102A98000FF9F968D7E90423C1E93223FB6803F188
:102AA800D000BB681033C02219460EF001F9BB688C
:102AB80003F11000FB68C833C82219460EF0F8F875
:102AC80000BF1837BD4680BD80B485B000AF7860C0
:102AD80039607B68012283F860203B68D3E90023D2
:102AE8007968C1E902237B6801221A600023FB6030
:102AF8000CE07B68D3E902237868F9680231C900E1
:102B08000144C1E90023FB680133FB60FB68092B22
:102B1800EFDD00BF00BF1437BD465DF8047B70478A
:102B280080B586B000AF87ED040BF860B9607A60B5
:102B3800BB68D3E902017B68D3E90023FDF744FFB2
:102B48000346002B05D17B68D3E90023B968C1E9A6
:102B58000223F868BB681033502219460EF0A8F813
:102B6800F968D7E90423C1E91423FB6803F1580085
:102B7800BB681033482219460EF09AF8BB6803F177
:102B88001000FB685033502219460EF091F800BF30
:102B98001837BD4680BD000080B584B000AF87ED12
:102BA800000B38687B6823F000414FF000022C4B83
:102BB800FDF714FF0346002B42D04FF00002294BCB
:102BC800D7E90001FDF71EFF0346002B13D04FF095
:102BD8000002244BD7E90001FDF7D8FA02460B465C
:102BE80043EC172BB0EE470AF0EE670A0DF064FECF
:102BF80087ED020B28E04FF000021B4BD7E90001DC
:102C0800FDF70AFF0346002B06D04FF000024FF0F5
:102C18000003C7E9022317E04FF00002114BD7E980
:102C28000001FDF7B1FA02460B4643EC172BB0EE54
:102C3800470AF0EE670A0DF0B7FD87ED020B03E0D7
:102C4800D7E90023C7E90223D7E9022343EC172B6E
:102C5800B0EE470AF0EE670A1037BD4680BD00BFE8
:102C6800000030430000E03F0000E0BF80B483B0C4
:102C780000AF494B93F8713003F00103DBB2002B2E
:102C88000CBF01230023DBB2FB71FB79002B09D0B9
:102C9800414B93F8713003F00203DBB2002B01D0F3
:102CA800012300E00023BB71BB79002B0CD03A4B09
:102CB800002283F87420384A92F870300C2161F3AE
:102CC800040382F8703060E0334B93F8713003F0FE
:102CD8000203DBB2002B0CBF01230023DBB2BB7164
:102CE8002D4B93F8713003F00103DBB2002B04D0B5
:102CF800BB79002B01D0012300E000237B717B7995
:102D0800002B0CD0244B002283F87420224A92F81E
:102D180070300B2161F3040382F8703035E01E4BEC
:102D280093F8713003F00103DBB2002B09D01A4B82
:102D380093F8713003F00203DBB2002B01D00123BA
:102D480000E000237B717B79002B0CD0124B002212
:102D580083F87420104A92F870300E2161F304034E
:102D680082F8703011E0FB79002B0ED0BB79002B74
:102D78000BD0094B002283F87420074A92F8703070
:102D8800082161F3040382F8703000BF0C37BD4698
:102D98005DF8047B704700BF4015002080B58CB0FB
:102DA80002AF78607B6800221A727B6801225A6041
:102DB8007B681033BB6100237B741A4BFB611A4B91
:102DC8003B620123BB74002387F82430022387F871
:102DD80025300923FB6009233B7407F10C00082305
:102DE8000093042301220421FFF774F902467B684B
:102DF800DA607B68DB6802211846FFF7DFFA7B6838
:102E0800DB681846FFF7F4F97B68DB680121184690
:102E1800FFF737F97B6801221A7200BF2837BD46D1
:102E280080BD00BF000104500000024080B5A6B07C
:102E380000AF78601A4BBB6000233B7300237B73A1
:102E480007F108031846FEF7F1FB02467B68DA60D3
:102E58007B68DB6800211846FEF7A3F87B68DB680F
:102E680002211846FEF712FB7B68DB680221184630
:102E7800FEF7B4FB7B68DB681846FFF719FD0346CD
:102E880087F8973097F89730002B05D17B68DB6877
:102E980000211846FFF724FD00BF9837BD4680BDC6
:102EA8000004004080B5A6B000AF78601A4BBB6044
:102EB80000233B7300237B7307F108031846FEF7D2
:102EC800B5FB02467B68DA607B68DB680021184640
:102ED800FEF767F87B68DB6802211846FEF796F96B
:102EE8007B68DB6802211846FEF730FA7B68DB68EE
:102EF8001846FFF7DDFC034687F8973097F89730B8
:102F0800002B05D17B68DB6800211846FFF7E8FC39
:102F180000BF9837BD4680BD000400400000000097
:102F2800B0B5B0B000AF884BDB68884A04211846BA
:102F3800FFF773F9854BDB89854A1382834B1B881E
:102F4800834AD383814B9B89814A53827F4B5B8819
:102F58007F4A93837D4B5B897D4A93827B4B9B8819
:102F68007B4A5383794B1B89794AD382774BDB8819
:102F7800774A13830023C7F88C300FE0744AD7F8D8
:102F88008C30083332F813307149D7F88C2021F887
:102F98001230D7F88C300133C7F88C30D7F88C3022
:102FA800072BEBDD6A4B1B881846FDF72BFA044606
:102FB8000D46684A6849694845EC104BFFF749FDDA
:102FC800634B03F5D863D3E900236149C1E91A23A8
:102FD8000023C7F88C301EE0D7F88C3001335C4AE8
:102FE800D833DB001344D3E90023C7E92423584B23
:102FF800D3E91A23D7E92401FDF70EFD0346002B78
:1030080004D05349D7E92423C1E91A23D7F88C30CF
:103018000133C7F88C30D7F88C30172BDCDD4C4BDC
:103028005B881846FDF7EEF904460D464C4A4D49B3
:103038004D4845EC104BFFF773FD454B03F55063C6
:10304800D3E900234249C1E91C230023C7F88C3087
:103058001FE0D7F88C3001333D4A03F5D073DB000D
:103068001344D3E90023C7E92423394BD3E91C23AC
:10307800D7E92401FDF7D0FC0346002B04D03449DE
:10308800D7E92423C1E91C23D7F88C300133C7F8CA
:103098008C30D7F88C30082BDBDD2D4B93ED1C7B67
:1030A800324A33493348B0EE470AF0EE670AFFF771
:1030B800D0FC274B03F57D63D3E900232449C1E9FC
:1030C80018230023C7F88C301FE0D7F88C30013361
:1030D8001F4A03F5FD73DB001344D3E90023C7E956
:1030E80024231B4BD3E91823D7E92401FDF776FCE9
:1030F8000346002B04D01649D7E92423C1E9182335
:10310800D7F88C300133C7F88C30D7F88C30172BB0
:10311800DBDD0F4B9B881846FDF774F904460D4616
:10312800154A1649164845EC104BFFF792FC084B18
:1031380003F50563D3E900230549C1E91C230023EE
:10314800C7F88C303EE000BF401500208C030020FB
:10315800E00300208800002038190020A00A002081
:10316800A8000020B81C0020E0100020C0000020AB
:10317800681E0020B013002090000020181A0020BC
:10318800300C0020D7F88C300133A84A03F585733A
:10319800DB001344D3E90023C7E92423A34BD3E975
:1031A8001C23D7E92401FDF737FC0346002B04D084
:1031B8009E49D7E92423C1E91C23D7F88C30013371
:1031C800C7F88C30D7F88C30172BDBDD974BDB88B2
:1031D8001846FDF717F904460D46954A954996484D
:1031E80045EC104BFFF735FC904B03F5A663D3E98C
:1031F8000023C7E92C230023C7F88C301CE0D7F83C
:103208008C300133894AA633DB001344D3E9002309
:10321800C7E92423D7E92423D7E92C01FDF7DEFBEE
:103228000346002B03D0D7E92423C7E92C23D7F87A
:103238008C300133C7F88C30D7F88C30172BDEDD93
:103248007A4B1B891846FDF7DDF804460D467B4A84
:103258007B497C4845EC104BFFF7FBFB734BD3E9EC
:10326800E823C7E92A230023C7F88C301CE0D7F8E5
:103278008C3001336D4A7433DB001344D3E90023E7
:10328800C7E92423D7E92423D7E92A01FDF7A6FBB8
:103298000346002B03D0D7E92423C7E92A23D7F80C
:1032A8008C300133C7F88C30D7F88C30172BDEDD23
:1032B8005E4B5B891846FDF7A5F804460D46624A41
:1032C8006249634845EC104BFFF7C3FB574BD3E902
:1032D8008423C7E92E230023C7F88C301CE0D7F8D5
:1032E8008C300133514A4233DB001344D3E90023C5
:1032F800C7E92423D7E92423D7E92E01FDF76EFB7C
:103308000346002B03D0D7E92423C7E92E23D7F897
:103318008C300133C7F88C30D7F88C30172BDEDDB2
:10332800424B9B891846FDF76DF804460D46494AFD
:1033380049494A4845EC104BFFF7F2FB3B4B03F574
:103348005A63D3E90023C7E928230023C7F88C3040
:103358001DE0D7F88C300133344A03F5DA73DB000B
:103368001344D3E90023C7E92423D7E92423D7E961
:103378002801FDF733FB0346002B03D0D7E92423AC
:10338800C7E92823D7F88C300133C7F88C30D7F831
:103398008C30082BDDDD324A3249334897ED280B53
:1033A800FFF757FB214B03F56463D3E90023C7E913
:1033B80026230023C7F88C301DE0D7F88C30013362
:1033C8001A4A03F5E473DB001344D3E90023C7E981
:1033D8002423D7E92423D7E92601FDF71DFB03465B
:1033E800002B03D0D7E92423C7E92623D7F88C304C
:1033F8000133C7F88C30D7F88C30172BDDDD0B4B39
:10340800DB891846FCF7FEFF04460D46174A1849A3
:10341800184845EC104BFFF71CFB044BD3E920235D
:10342800C7E928230023C7F88C3042E0E0030020D6
:103438008000002058180020100900207800002083
:1034480078170020800700207000002098160020C0
:10345800F0050020B0000020201D00208011002071
:10346800B8000020881D00202012002068000020DD
:10347800B815002060040020D7F88C300133B64A14
:103488001033DB001344D3E90023C7E92423D7E929
:103498002423D7E92801FDF7A1FA0346002B03D01E
:1034A800D7E92423C7E92823D7F88C300133C7F894
:1034B8008C30D7F88C30172BDEDDA74B93ED1A7BB9
:1034C800B0EE470AF0EE670A0DF0F6F9B0EE407A72
:1034D800F0EE607A9FED9E1BB0EE470AF0EE670AA9
:1034E8000DF02CF987ED240B4FF000024FF000038C
:1034F800D7E92401FDF772FA0346002B10D0D7F85C
:103508009030BB67D7F8943083F00043FB67D7E966
:103518001E01FDF7A1FA03469BB25B429BB205E090
:10352800D7E92401FDF798FA03469BB28B4A13802A
:10353800894B93ED187BB0EE470AF0EE670A0DF061
:10354800BBF9B0EE407AF0EE607A9FED811BB0EEE9
:10355800470AF0EE670A0DF0F1F887ED240B4FF0FB
:1035680000024FF00003D7E92401FDF737FA0346BC
:10357800002B10D0D7F890303B67D7F8943083F001
:1035880000437B67D7E91C01FDF766FA03469BB247
:103598005B429BB205E0D7E92401FDF75DFA0346DB
:1035A8009BB26E4A53806C4B93ED1C7BB0EE470A7E
:1035B800F0EE670A0DF080F9B0EE407AF0EE607A2E
:1035C8009FED631BB0EE470AF0EE670A0DF0B6F800
:1035D80087ED240B4FF000024FF00003D7E92401D8
:1035E800FDF7FCF90346002B10D0D7F89030BB66E6
:1035F800D7F8943083F00043FB66D7E91A01FDF74A
:103608002BFA03469BB25B429BB205E0D7E9240143
:10361800FDF722FA03469BB2504A938097ED2C0B94
:103628000DF04AF9B0EE407AF0EE607A9FED481B53
:10363800B0EE470AF0EE670A0DF080F887ED240B2C
:103648004FF000024FF00003D7E92401FDF7C6F957
:103658000346002B10D0D7F890303B66D7F894304B
:1036680083F000437B66D7E91801FDF7F5F90346B7
:103678009BB25B429BB205E0D7E92401FDF7ECF968
:1036880003469BB2354AD38097ED2A0B0DF014F907
:10369800B0EE407AF0EE607A9FED2D1BB0EE470A4F
:1036A800F0EE670A0DF04AF887ED240B4FF00002A0
:1036B8004FF00003D7E92401FDF790F90346002BEA
:1036C80010D0D7F89030BB65D7F8943083F000431A
:1036D800FB65D7E91601FDF7BFF903469BB25B42CC
:1036E8009BB205E0D7E92401FDF7B6F903469BB282
:1036F8001A4A138197ED2E0B0DF0DEF8B0EE407AE2
:10370800F0EE607A9FED121BB0EE470AF0EE670A02
:103718000DF014F887ED240B4FF000024FF0000372
:10372800D7E92401FDF75AF90346002B18D0D7F83A
:1037380090303B65D7F8943083F000437B65D7E938
:103748001401FDF789F903469BB25B429BB20DE079
:10375800000000000000F040E0030020A00300206B
:10376800D7E92401FDF778F903469BB2A24A5381B1
:1037780097ED260B0DF0A0F8B0EE407AF0EE607AE7
:103788009FED9B1BB0EE470AF0EE670A0CF0D6FFE0
:1037980087ED240B4FF000024FF00003D7E9240116
:1037A800FDF71CF90346002B10D0D7F89030BB6406
:1037B800D7F8943083F00043FB64D7E91201FDF792
:1037C8004BF903469BB25B429BB205E0D7E9240163
:1037D800FDF742F903469BB2874A938197ED280B80
:1037E8000DF06AF8B0EE407AF0EE607A9FED801B3B
:1037F800B0EE470AF0EE670A0CF0A0FF87ED240B45
:103808004FF000024FF00003D7E92401FDF7E6F876
:103818000346002B10D0D7F890303B64D7F894308B
:1038280083F000437B64D7E91001FDF715F90346DF
:103838009BB25B429BB205E0D7E92401FDF70CF986
:1038480003469BB26C4AD3816C4BB3F85A306A4A30
:1038580013826B4B03F5D863D3E900236849C1E9A8
:1038680018230023C7F88C301EE0D7F88C300133BA
:10387800634AD833DB001344D3E90023C7E9242380
:103888005F4BD3E91823D7E92401FDF7A7F80346CE
:10389800002B04D05A49D7E92423C1E91823D7F8C3
:1038A8008C300133C7F88C30D7F88C30172BDCDD1F
:1038B800534B5B881846FCF7A5FD04460D46514A54
:1038C8005149524845EC104BFFF7C3F84C4B03F5F0
:1038D8003763D3E90023C7E926230023C7F88C30D0
:1038E8001DE0D7F88C300133454A03F5B773DB0088
:1038F8001344D3E90023C7E92423D7E92423D7E9CC
:103908002601FDF789F80346002B03D0D7E92423C5
:10391800C7E92623D7F88C300133C7F88C30D7F89D
:103928008C30172BDDDD364B03F50563D3E9002317
:103938003349C1E91C230023C7F88C301FE0D7F8AE
:103948008C3001332E4A03F58573DB001344D3E929
:103958000023C7E924232A4BD3E91C23D7E92401F0
:10396800FDF73CF80346002B04D02549D7E924236A
:10397800C1E91C23D7F88C300133C7F88C30D7F84D
:103988008C30172BDBDD1E4B03F5A663D3E9002330
:10399800C7E92C230023C7F88C301CE0D7F88C30FB
:1039A8000133174AA633DB001344D3E90023C7E9E0
:1039B8002423D7E92423D7E92C01FDF72DF8034662
:1039C800002B03D0D7E92423C7E92C23D7F88C3060
:1039D8000133C7F88C30D7F88C30172BDEDD084B55
:1039E800D3E9E823C7E92A230023C7F88C302CE061
:1039F800000000000000F040A003002000000020AC
:103A0800E0030020A0000020D81B0020500F002059
:103A1800D7F88C300133AC4A7433DB001344D3E954
:103A28000023C7E92423D7E92423D7E92A01FCF78F
:103A3800F3FF0346002B03D0D7E92423C7E92A2341
:103A4800D7F88C300133C7F88C30D7F88C30172B67
:103A5800DEDD9D4BD3E98423C7E92E230023C7F875
:103A68008C301CE0D7F88C300133974A4233DB00A6
:103A78001344D3E90023C7E92423D7E92423D7E94A
:103A88002E01FCF7C9FF0346002B03D0D7E92423F6
:103A9800C7E92E23D7F88C300133C7F88C30D7F814
:103AA8008C30172BDEDD884B9B891846FCF7AAFC67
:103AB80004460D46854A8649864845EC104BFEF774
:103AC800C8FF814B03F51E63D3E90023C7E9282308
:103AD8000023C7F88C301DE0D7F88C3001337A4AC0
:103AE80003F59E73DB001344D3E90023C7E92423BD
:103AF800D7E92423D7E92801FCF78EFF0346002BDA
:103B080003D0D7E92423C7E92823D7F88C30013319
:103B1800C7F88C30D7F88C30172BDDDD6A4BD3E92A
:103B280020236949C1E91A230023C7F88C301EE015
:103B3800D7F88C300133644A1033DB001344D3E9DF
:103B48000023C7E92423604BD3E91A23D7E92401CA
:103B5800FCF744FF0346002B04D05B49D7E9242334
:103B6800C1E91A23D7F88C300133C7F88C30D7F85D
:103B78008C30172BDCDD544B93ED187BB0EE470AE5
:103B8800F0EE670A0CF098FEB0EE407AF0EE607A3C
:103B98009FED4B1BB0EE470AF0EE670A0CF0CEFD26
:103BA80087ED240B4FF000024FF00003D7E9240102
:103BB800FCF714FF0346002B10D0D7F89030BB63F6
:103BC800D7F8943083F00043FB63D7E90E01FCF784
:103BD80043FF03469BB25B429BB205E0D7E9240151
:103BE800FCF73AFF03469BB23B4A138097ED260B3E
:103BF8000CF062FEB0EE407AF0EE607A9FED301B7A
:103C0800B0EE470AF0EE670A0CF098FD87ED240B3A
:103C18004FF000024FF00003D7E92401FCF7DEFE65
:103C28000346002B10D0D7F890303B63D7F8943078
:103C380083F000437B63D7E90C01FCF70DFF0346D3
:103C48009BB25B429BB205E0D7E92401FCF704FF75
:103C580003469BB2204A53801B4B93ED1C7BB0EE6E
:103C6800470AF0EE670A0CF027FEB0EE407AF0EE55
:103C7800607A9FED131BB0EE470AF0EE670A0CF06E
:103C88005DFD87ED240B4FF000024FF00003D7E9EC
:103C98002401FCF7A3FE0346002B1FD0D7F8903071
:103CA800BB62D7F8943083F00043FB62D7E90A017E
:103CB800FCF7D2FE03469BB25B429BB214E000BF06
:103CC800000000000000F040E00300209800002001
:103CD800F81A0020C00D0020B4030020D7E9240101
:103CE800FCF7BAFE03469BB2914A938097ED2C0BE2
:103CF8000CF0E2FDB0EE407AF0EE607A9FED8A1BA0
:103D0800B0EE470AF0EE670A0CF018FD87ED240BB9
:103D18004FF000024FF00003D7E92401FCF75EFEE4
:103D28000346002B10D0D7F890303B62D7F8943078
:103D380083F000437B62D7E90801FCF78DFE034658
:103D48009BB25B429BB205E0D7E92401FCF784FEF5
:103D580003469BB2764AD38097ED2A0B0CF0ACFD54
:103D6800B0EE407AF0EE607A9FED6F1BB0EE470A36
:103D7800F0EE670A0CF0E2FC87ED240B4FF000022E
:103D88004FF00003D7E92401FCF728FE0346002B77
:103D980010D0D7F89030BB61D7F8943083F0004347
:103DA800FB61D7E90601FCF757FE03469BB25B426D
:103DB8009BB205E0D7E92401FCF74EFE03469BB20F
:103DC8005B4A138197ED2E0B0CF076FDB0EE407A2E
:103DD800F0EE607A9FED541BB0EE470AF0EE670AEA
:103DE8000CF0ACFC87ED240B4FF000024FF0000301
:103DF800D7E92401FCF7F2FD0346002B10D0D7F8D1
:103E080090303B61D7F8943083F000437B61D7E969
:103E18000401FCF721FE03469BB25B429BB205E01E
:103E2800D7E92401FCF718FE03469BB2404A5381A8
:103E380097ED280B0CF040FDB0EE407AF0EE607A7A
:103E48009FED391BB0EE470AF0EE670A0CF076FCDE
:103E580087ED240B4FF000024FF00003D7E924014F
:103E6800FCF7BCFD0346002B10D0D7F89030BB60A0
:103E7800D7F8943083F00043FB60D7E90201FCF7E0
:103E8800EBFD03469BB25B429BB205E0D7E92401F8
:103E9800FCF7E2FD03469BB2254A9381254B93ED3F
:103EA8001A7BB0EE470AF0EE670A0CF005FDB0EE9B
:103EB800407AF0EE607A9FED1C1BB0EE470AF0EEF8
:103EC800670A0CF03BFC87ED240B4FF000024FF023
:103ED8000003D7E92401FCF781FD0346002B10D02D
:103EE800D7F890303B60D7F8943083F000437B607C
:103EF800D7E90001FCF7B0FD03469BB25B429BB2D9
:103F080005E0D7E92401FCF7A7FD03469BB2084A60
:103F1800D381094BB3F85C20054B1A820023C7F8FC
:103F28008C301CE0AFF30080000000000000F0407F
:103F3800B4030020E003002000000020C84AD7F89E
:103F48008C30134400221A70C64AD7F88C300021EE
:103F580022F81310D7F88C300133C7F88C30D7F813
:103F68008C30072BEADDC04B00221A60BF4B0022C1
:103F78001A60BF4BB3F858301A46BE4B1B8802FB79
:103F880003F31846FCF73EFA4FF00002BA4BFCF771
:103F9800B3FA02460B4610461946B54BD3E902233D
:103FA800FCF7D4FB02460B4643EC172BB0EE470A4E
:103FB800F0EE670AFEF7F0FD51EC100BAC4BD3E9BD
:103FC8000223FCF799FA02460B46AC49C1E91823CB
:103FD800A74BB3F858301A46A64B9B8802FB03F34D
:103FE8001846FCF70FFA4FF00002A34BFCF784FACF
:103FF80002460B46104619469D4BD3E90223FCF7AF
:10400800A5FB02460B4643EC172BB0EE470AF0EE31
:10401800670AFEF7C1FD51EC100B954BD3E902235B
:10402800FCF76AFA02460B46C7E92623904BB3F819
:1040380058301A468F4BDB8802FB03F31846FCF70F
:10404800E1F94FF000028C4BFCF756FA02460B469A
:1040580010461946864BD3E90223FCF777FB024644
:104068000B4643EC172BB0EE470AF0EE670AFEF753
:1040780093FD51EC100B7E4BD3E90223FCF73CFA7D
:1040880002460B46C7E92423794BB3F858301A4641
:10409800784B1B8902FB03F31846FCF7B3F94FF082
:1040A8000002754BFCF728FA02460B4610461946E3
:1040B8006F4BD3E90223FCF749FB02460B4643EC5E
:1040C800172BB0EE470AF0EE670AFEF765FD51ECD4
:1040D800100B674BD3E90223FCF70EFA02460B4696
:1040E8006649C1E91C23624BB3F858301A46614B44
:1040F8005B8902FB03F31846FCF784F94FF00002D2
:104108005D4BFCF7F9F902460B4610461946584B29
:10411800D3E90223FCF71AFB02460B4643EC172BA4
:10412800B0EE470AF0EE670AFEF736FD51EC100BC9
:104138004F4BD3E90223FCF7DFF902460B46C7E9E8
:104148002C234B4BB3F858301A464A4BDB8902FBF9
:1041580003F31846FCF756F94FF00002464BFCF7FC
:10416800CBF902460B4610461946414BD3E90223C8
:10417800FCF7ECFA02460B4643EC172BB0EE470A65
:10418800F0EE670AFEF708FD51EC100B384BD3E947
:104198000223FCF7B1F902460B46C7E92A2338483F
:1041A800FEF769FAC7F88800D7F8883003F04003AB
:1041B800002B0CBF01230023DBB287F8873031487E
:1041C800FEF759FAC7F88800D7F8883003F00403D7
:1041D800002B0CBF01230023DBB287F88630244B69
:1041E800B3F858301A46234B5B8802FB03F3184692
:1041F800FCF708F94FF000021F4BFCF77DF9024667
:104208000B46104619461A4BD3E90223FCF79EFACF
:1042180002460B4643EC172BB0EE470AF0EE670A4E
:10422800FEF7BAFC51EC100B114BD3E90223FCF753
:1042380063F902460B4614461D460D4BB3F8583039
:104248001A460C4B9B8902FB03F31846FCF7DAF875
:104258004FF00002084BFCF74FF9024614E000BF8C
:10426800D8030020C803002084030020880300200E
:10427800000000208C0300200000503EE0030020D6
:1042880000100048000400480B46104619469E4B93
:10429800D3E90223FCF75AFA02460B4643EC172BE4
:1042A800B0EE470AF0EE670AFEF776FC51EC100B09
:1042B800954BD3E90223FCF71FF902460B4620462B
:1042C8002946FBF763FF02460B46104619468E4BFC
:1042D800D3E90423FCF710F902460B46C7E92E235D
:1042E8008A4B93F874300E2B07D8884B93F87430A8
:1042F8000133DAB2854B83F87420844B93F870301D
:1043080023F07F03DBB2002B1CD1804A92F8703077
:1043180043F0800382F870307C4A92F870300221B2
:1043280061F3461382F87030794B012283F87820C4
:10433800774B012283F87A20754B012283F8792084
:1043480000F011BD714B93F8703003F06003DBB2DD
:10435800202B40F0CB846D4B93F87030C3F30403EB
:10436800DBB2013B0E2B00F2BE8401A252F823F00F
:10437800B543000815440008C7440008B1450008C3
:104388001147000857470008C1480008EF490008CE
:10439800094A0008234A00083F4A0008114B000850
:1043A800B14B0008034C0008A34C0008574B93F886
:1043B8007430012B1CD956494FF00002554BC1E906
:1043C8000C2353494FF000024FF00003C1E90E23BC
:1043D8004F494FF000024F4BC1E90A234B4A92F86C
:1043E80070300F2161F3040382F8703000F0BBBC19
:1043F8003FA3D3E90023D7E92E01FCF77DF8024655
:104408000B464249C1E91A2300F0ADBC3F4B93F873
:104418007430022B20D93D4B002283F874203B4A8C
:1044280092F87030012161F3040382F87030384942
:104438004FF00002374BC1E90C2335494FF0000219
:104448004FF00003C1E90E2331494FF00002314B10
:10445800C1E90A2300F087BC2D4B93F87830002B74
:104468000CBF01230023DBB21A46294B83F87820BE
:10447800274B93F87930002B0CBF01230023DBB2C4
:104488001A46234B83F879201BA3D3E90023D7E9E5
:104498002401FCF731F802460B461C49C1E91623F2
:1044A8001B4BD3E91C0116A3D3E90023FCF724F81E
:1044B80002460B461549C1E9182300F054BC134BBA
:1044C80093F87430072B27D9104A92F870300721D7
:1044D80061F3040382F870300D4B002283F87820D2
:1044E8000B4B002283F87A2000F03DBCAFF300802C
:1044F8009A9999999999E93F666666666666EE3F64
:10450800333333333333EB3F0000002040150020B2
:10451800E00300200000F03FD7E92C23D7E926016B
:10452800FBF732FE02460B46104619464FF00002D2
:10453800B74BFBF7E1FF02460B4610461946AEA300
:10454800D3E90023FCF702F902460B46B149C1E959
:104558001823B04BD3E91801A9A3D3E90023FBF72B
:10456800CBFF02460B46A8A1D1E90001FBF70CFEE0
:1045780002460B46A749C1E91423A64BD3E9180103
:104588009FA3D3E90023FBF7B7FF02460B4610466B
:1045980019464FF00002A04BFBF7F8FD02460B4608
:1045A8009C49C1E91023DEE39C4B93F87130C3F3B7
:1045B8008003DBB287F8873097F88730002B15D057
:1045C80094494FF00002964BC1E90C2391494FF0F2
:1045D80000024FF00003C1E90E23904A92F87030B0
:1045E800102161F3040382F87030BCE38B4B93F81D
:1045F800713003F00403DBB2002B06D1874B93F82C
:104608007430012B01D9012300E0002387F887309B
:1046180097F88730002B4AD07E494FF00002804B34
:10462800C1E90C237B494FF000024FF00003C1E9B8
:104638000E237A4B002283F87420784A92F870305F
:10464800092161F3040382F8703072494FF00002C7
:104658004FF00003C1E914236E494FF000024FF0F8
:104668000003C1E910236B494FF000024FF000032B
:10467800C1E9162367494FF000024FF00003C1E972
:104688001223664A92F871306FF3820382F8713010
:10469800624A92F871306FF3000382F871305F4A12
:1046A80092F871306FF3410382F871305BE35B4B32
:1046B800D3E9162301210C46D7E92401FCF7ACF90C
:1046C8000346002B01D100231C46E1B2534A92F85D
:1046D800713061F3000382F871304E4BD3E91C014D
:1046E8004E4BD3E918230124FCF796F90346002B17
:1046F80001D100231C46E1B2484A92F8713061F3B7
:10470800410382F871302EE3424B002283F87A206D
:1047180097F88630002B00F02183404B002283F865
:1047280074203E4A92F87030022161F3040382F843
:10473800703038494FF000024FF00003C1E90C23F4
:1047480034494FF00002364BC1E90E2306E3314BE2
:10475800D3E918014FF00002324BFCF75DF903462C
:10476800002B61D04FF000022E4BD7E92A01FCF74D
:1047780053F90346002B57D026494FF000024FF05B
:104788000003C1E9142323494FF000024FF000034E
:10479800C1E91023214B002283F874201F4A92F8A4
:1047A8007030042161F3040382F870301B4BD3E9A5
:1047B8001A2301210C46D7E92E01FCF72DF90346EF
:1047C800002B01D100231C46E1B2144A92F8713043
:1047D80061F3820382F871300E494FF000024FF006
:1047E8000003C1E90C230B494FF000020C4BC1E94F
:1047F8000E23B8E2AFF300806666666666660A4016
:104808007B14AE47E17AC43F0000000000E053404B
:1048180000005940E00300200000544040150020EB
:104828000000F03F00000A40D7E92C23D7E9260111
:10483800FBF7AAFC02460B46104619464FF0000249
:10484800AB4BFBF759FE02460B4610461946A2A38E
:10485800D3E90023FBF77AFF02460B46A549C1E9D5
:104868001823A44BD3E918019DA3D3E90023FBF730
:1048780043FE02460B464FF000009F49FBF784FCBD
:1048880002460B469B49C1E914239A4BD3E9180108
:1048980093A3D3E90023FBF72FFE02460B461046ED
:1048A80019464FF00002944BFBF770FC02460B468A
:1048B8009049C1E9102356E28E4B002283F87A20F2
:1048C80097F88630002B28D08C4A92F870300A214D
:1048D80061F3040382F87030864B002283F8782055
:1048E80084494FF000024FF00003C1E914238149C5
:1048F8004FF000024FF00003C1E910237D494FF04B
:1049080000024FF00003C1E916237A494FF0000274
:104918004FF00003C1E9122325E2764BD3E91801D1
:104928004FF00002764BFCF759F80346002B12D0E3
:104938004FF00002724BD7E92A01FCF74FF8034603
:10494800002B08D06D4A92F87030062161F30403F9
:1049580082F8703007E2D7E92C23D7E92601FBF764
:1049680013FC02460B46104619464FF00002604BF6
:10497800FBF7C2FD02460B461046194656A3D3E97B
:104988000023FBF7E3FE02460B465A49C1E9182308
:10499800584BD3E9180152A3D3E90023FBF7ACFD28
:1049A80002460B4650A1D1E90001FBF7EDFB024698
:1049B8000B465049C1E914234E4BD3E9180148A3CB
:1049C800D3E90023FBF798FD02460B46104619462B
:1049D8004FF00002484BFBF7D9FB02460B4645490E
:1049E800C1E91023BFE1454B002283F87420434AF4
:1049F80092F870300B2161F3040382F87030B2E151
:104A08003E4B002283F874203C4A92F87030032110
:104A180061F3040382F87030A5E197F88730002B22
:104A280000F09E81354A92F870300F2161F304033B
:104A380082F8703094E1314B93F87430052B3DD9EE
:104A48002E4B002283F874202C4A92F870300921EA
:104A580061F3040382F8703026494FF000024FF0EA
:104A68000003C1E9142323494FF000024FF000036B
:104A7800C1E910231F494FF000024FF00003C1E9BC
:104A880016231C494FF000024FF00003C1E912231E
:104A98001A4A92F871306FF3820382F87130174A1C
:104AA80092F871306FF3000382F87130134A92F86C
:104AB80071306FF3410382F8713054E10D494FF0C2
:104AC8000002104BC1E910230A494FF000020D4BB8
:104AD800C1E9162347E100BF6666666666660A4056
:104AE8009A9999999999D93F0000000000E053409C
:104AF80000005940E0030020000054404015002009
:104B080000000A4000805640AB4B93F87430052BE8
:104B18003DD9A94B002283F87420A74A92F8703037
:104B2800092161F3040382F87030A4494FF00002B0
:104B38004FF00003C1E91423A0494FF000024FF0E1
:104B48000003C1E910239D494FF000024FF0000314
:104B5800C1E9162399494FF000024FF00003C1E95B
:104B68001223954A92F871306FF3820382F87130FC
:104B7800914A92F871306FF3000382F871308E4ACF
:104B880092F871306FF3410382F87130EBE08B4992
:104B98004FF000028A4BC1E9122388494FF0000206
:104BA800874BC1E91423DEE0834B93F874300A2B5A
:104BB80016D982494FF000024FF00003C1E91023D3
:104BC8007E494FF000024FF00003C1E916237A4AEC
:104BD80092F870300F2161F3040382F87030C2E05C
:104BE80076494FF00002764BC1E9102373494FF024
:104BF8000002734BC1E91623B5E06F4B93F874308C
:104C08000A2B3DD96C4B002283F874206A4A92F82B
:104C18007030092161F3040382F8703067494FF05E
:104C280000024FF00003C1E9142364494FF0000269
:104C38004FF00003C1E9102360494FF000024FF024
:104C48000003C1E916235D494FF000024FF000034D
:104C5800C1E91223584A92F871306FF3820382F83F
:104C68007130554A92F871306FF3000382F8713051
:104C7800514A92F871306FF3410382F8713072E053
:104C88004E494FF000024E4BC1E910234B494FF0FB
:104C980000024B4BC1E9162365E097F88730002BDB
:104CA80010D0454A92F87030072161F3040382F866
:104CB8007030424B002283F87820404B002283F862
:104CC8007A204FE097F88630002B4BD03A4B0022E1
:104CD80083F87420384A92F870300D2161F3040388
:104CE80082F870303EE0FDF7C1FF3CE0334B012213
:104CF80083F87A2097F88730002B34D02E4A92F820
:104D08007030012161F3461382F870302A4A92F814
:104D18007030052161F3040382F8703027494FF0A1
:104D28000002284BC1E90A2324494FF00002254B11
:104D3800C1E90C2321494FF000024FF00003C1E9FB
:104D48000E231E4B002283F878201C4B002283F888
:104D58007A201A4B002283F8792004E000BF02E091
:104D680000BF00E000BF154BD3E90A01164BD3E999
:104D78000823FBF751FE0346002B06D0124BD3E95C
:104D880000230E49C1E9182305E00F4BD3E9062398
:104D98000A49C1E91823094BD3E90C010A4BD3E9A5
:104DA8000A23FBF739FE0346002B0FD0064BD3E945
:104DB8000023C7E926230EE040150020E003002069
:104DC800008056400000F03F00000020A84BD3E9C7
:104DD8000623C7E92623A74BD3E90E01A44BD3E941
:104DE8000C23FBF719FE0346002B05D0A04BD3E993
:104DF8000023C7E9242304E09D4BD3E90623C7E930
:104E080024239C4B9C4A1A629A4BD3E918014FF011
:104E180000024FF00003FBF7D7FD0346002B04D137
:104E28004FF40073C7F88C3002E00023C7F88C30C9
:104E3800904B1B6AD7F88C2011461846FDF727FCC3
:104E48008C4B1A6AD7F88C30DB4303F4007319468D
:104E58001046FDF72AFC874B874A1A62854BD3E92F
:104E680018014FF000024FF00003FBF7ADFD0346B9
:104E7800002B04D14FF48043C7F88C3002E00023A4
:104E8800C7F88C307B4B1B6AD7F88C201146184624
:104E9800FDF7FDFB774B1A6AD7F88C30DB4303F438
:104EA800804319461046FDF700FC724B724A1A629D
:104EB8004FF000024FF00003D7E92601FBF784FD0D
:104EC8000346002B04D14FF48073C7F88C3002E0FE
:104ED8000023C7F88C30674B1B6AD7F88C20114623
:104EE8001846FDF7D4FB634B1A6AD7F88C30DB43BE
:104EF80003F4807319461046FDF7D7FB5D4B5E4AF5
:104F08001A624FF000024FF00003D7E92601FBF7C1
:104F18005BFD0346002B04D14FF40043C7F88C30E7
:104F280002E00023C7F88C30524B1B6AD7F88C205C
:104F380011461846FDF7ABFB4E4B1A6AD7F88C3072
:104F4800DB4303F4004319461046FDF7AEFB494B1B
:104F5800494A1A624FF000024FF00003D7E92401D2
:104F6800FBF732FD0346002B04D14FF48053C7F8FA
:104F78008C3002E00023C7F88C303E4B1B6AD7F810
:104F88008C2011461846FDF782FB3A4B1A6AD7F86F
:104F98008C30DB4303F4805319461046FDF785FB3C
:104FA800344B364A1A62334BD3E918014FF00002EA
:104FB8004FF00003FBF708FD0346002B04D14FF424
:104FC8008053C7F88C3002E00023C7F88C30294B97
:104FD8001B6AD7F88C2011461846FDF758FB254B5D
:104FE8001A6AD7F88C30DB4303F48053194610460D
:104FF800FDF75BFB1F4B204A1A621E4BD3E91801D1
:105008004FF000024FF00003FBF7DEFC0346002BD5
:1050180004D14FF40053C7F88C3002E00023C7F8DE
:105028008C30144B1B6AD7F88C2011461846FDF7B4
:105038002EFB104B1A6AD7F88C30DB4303F400536D
:1050480019461046FDF731FB0A4B0B4A1A624FF01E
:1050580000024FF00003D7E92401FBF7B5FC034633
:10506800002B0DD14FF40063C7F88C300BE000BF64
:1050780000000020E0030020001000480004004861
:105088000023C7F88C30894B1B6AD7F88C2011464F
:105098001846FDF7FCFA854B1A6AD7F88C30DB43C3
:1050A80003F4006319461046FDF7FFFA804B1C6DA8
:1050B8007E4BD3E9162310461946FBF7EDFC034651
:1050C80000EE103A2046FDF7CBFB794B1C6D774B71
:1050D800D3E9142310461946FBF7DEFC034600EE1D
:1050E800103A2046FDF7D0FB714B1C6C6F4BD3E98F
:1050F800102310461946FBF7CFFC034600EE103A82
:105108002046FDF785FB6A4B1C6C684BD3E91223DC
:1051180010461946FBF7C0FC034600EE103A20463D
:10512800FDF78AFB614B634A1A62634BD3E90E01B0
:105138004FF000024FF00003FBF746FC0346002B3C
:1051480003D18023C7F88C3002E00023C7F88C30E5
:10515800564B1B6AD7F88C2011461846FDF797FA6C
:10516800524B1A6AD7F88C30DB4303F08003194698
:105178001046FDF79AFA4D4B504A1A624B4B93F87A
:105188007830002B04D04FF40053C7F88C3002E07D
:105198000023C7F88C30454B1B6AD7F88C20114682
:1051A8001846FDF774FA414B1A6AD7F88C30DB437E
:1051B80003F4005319461046FDF777FA3B4B3F4A74
:1051C8001A623A4B93F87A30002B04D04FF480439C
:1051D800C7F88C3002E00023C7F88C30334B1B6AC9
:1051E800D7F88C2011461846FDF751FA2F4B1A6A4A
:1051F800D7F88C30DB4303F4804319461046FDF79B
:1052080054FA2A4B2D4A1A62284B93F87930002B0E
:1052180004D04FF40043C7F88C3002E00023C7F8ED
:105228008C30224B1B6AD7F88C2011461846FDF7A4
:105238002EFA1E4B1A6AD7F88C30DB4303F400436E
:1052480019461046FDF731FA184B1D4A1A621A4BD7
:10525800D3E910014FF000024FF00003FBF7B4FB55
:105268000346002B03D10823C7F88C3002E0002343
:10527800C7F88C300D4B1B6AD7F88C20114618469E
:10528800FDF705FA094B1A6AD7F88C30DB4303F0AF
:10529800080319461046FDF708FA00F0D5FA00F0A1
:1052A800E9FB00BFC037BD46B0BD00BFE00300202A
:1052B80040150020000C00480000002000080048AD
:1052C8000004004880B582B000AF00237B6017E07F
:1052D8005A4BB3F85E105A4A7B6822F81310574BA2
:1052E800B3F86010574A7B6822F81310534BB3F891
:1052F8006210554A7B6822F813107B6801337B6083
:105308007B68082BE4DD00237B6011E04B4B93F8AE
:1053180066104E4A7B6813440A461A70474BB3F826
:1053280064104B4A7B6822F813107B6801337B605A
:105338007B68072BEADD414B9B6C464A13603F4B69
:10534800DB6C454A13603D4B1B6D444A13603B4B75
:105358005B6D434A1360394B1B6D404A5360374BB2
:105368005B6D3F4A5360354B1B6D3C4A9360334B32
:105378005B6D3B4A936000F0FBFA3A4B00225A609F
:10538800384B00221A703748FDF708FD3649374870
:10539800FDF733FB36493748FDF796FB3649374862
:1053A800FDF72BFB36493748FDF727FB36493748C9
:1053B800FDF723FB36493748FDF71FFB36493748C9
:1053C800FDF71BFB36493748FDF77EFB3649374862
:1053D800FDF713FB36493748FDF70FFB36493748C9
:1053E800FDF70BFB36493748FDF707FB1D4B00223D
:1053F80083F844201B4B002283F84C20194B0122D0
:105408009A643148FDF712FD164B012283F84C20AF
:10541800144B002283F83420124B002283F83C20DE
:10542800104B01229A632948FDF73CFD0D4B0122E0
:1054380083F83C2000BF0837BD4680BD000000202F
:105448008C030020A0030020B4030020D803002010
:10545800C803002084030020880300206C03002078
:10546800780300204015002088000020381900200B
:10547800A8000020B81C0020C0000020681E0020E2
:1054880090000020181A00208000002058180020E2
:10549800780000207817002070000020981600205F
:1054A800B0000020201D0020B8000020881D00202A
:1054B80068000020B8150020A0000020D81B00209C
:1054C80098000020F81A0020841500207415002088
:1054D80080B500AF344B1B78002B11D1324B012221
:1054E8001A70314B5B68012B0AD12F4B1B7A002BAA
:1054F80006D02D4BDB68012204211846FCF7E6FE96
:10550800294B93F84430002B23D1274B012283F8F1
:105518004420254B9B6C012B1BD1234B93F84C301B
:10552800002B16D0204B1B6D1846FDF759FA1E4B61
:105538001B6D00211846FBF7CEFD1B4B1B6D02218E
:105548001846FBF7F7FF184B1B6D02211846FCF7AE
:1055580059F8154B93F83430002B23D1124B012204
:1055680083F83420104B9B6B012B1BD10E4B93F807
:105578003C30002B16D00C4B1B6C1846FDF730FA4C
:10558800094B1B6C00211846FBF7A5FD064B1B6C4D
:1055980002211846FBF78AFE034B1B6C02211846B2
:1055A800FBF724FF00BF80BD4015002080B489B000
:1055B80000AFF860B9607A60FB68BB610023FB61EB
:1055C800BB689B087B611B4B1B68B3F5C87F2AD05F
:1055D8000023FB6122E0174B1B6817497A6841F8E2
:1055E8002320FB699B00BA691A44124B1B68126896
:1055F800114903F5C87341F823200E4B1B680F4A65
:1056080012680D4903F5487341F82320094B1B68BC
:105618000133084A1360FB690133FB61FA697B694E
:105628009A42D8D300E000BF2437BD465DF8047B1A
:10563800704700BF4C1F0020541F0020501F00203F
:1056480080B584B000AF786072B600BF00F060FC2F
:105658000346FB6007F10C037A6804211846FFF73C
:10566800A5FF62B600BF00BF1037BD4680BD000071
:1056780080B500AF124B1B785A1CD1B2104A11707A
:10568800002B09D00F4B01221A600D4B1B78013BF0
:10569800DAB20B4B1A7011E062B600BF02200BF0B1
:1056A80031F8FDF73DFC02200BF037F872B600BF69
:1056B800034B1B78013BDAB2014B1A7080BD00BF67
:1056C800183200201432002080B584B000AF786012
:1056D8003960374BFB60374BBB60374B00221A7081
:1056E800364B00221A7001DF06F026FB00F0E0FEC0
:1056F80000F02EFF00F08EFF01F054FF01F072FB66
:1057080002F09EF901F0BEFF02F04AFA01F00EFD28
:1057180002F00EFD02F066FC294B1B6800221A609D
:1057280001200AF0EFFFFFF7CDFD01200AF0F5FF99
:1057380072B600BF97ED030A00F08AFC204B1B6885
:105748001B68002B0CBF01230023DBB21A461B4B3E
:105758001A7062B600BF62B600BF15E0184B1B682E
:105768001B68002B14BF01230023DBB21A46124B1F
:105778001A70114B1B78DBB2002B05D0114B1B683C
:10578800104A23F0010313600C4B1B78DBB2002B8B
:10579800E4D103200AF0B6FFFFF79AFE03200AF0CF
:1057A800BCFF72B600BF002318461037BD4680BD47
:1057B800CDCCCC3D0000A042193200201A32002086
:1057C8004C0D010810E000E080B485B000AF03463E
:1057D800FB80B7F90630002B02DBFB88FB8101E078
:1057E800FB88FB81B7F90E3018461437BD465DF8C3
:1057F800047B704780B588B004AF03460A46FB7146
:105808001346BB71FB799BB25B009BB2013399B223
:10581800BB799AB24FF0FF3302930223019307F149
:105828000C0300930123074806F078FE3B7B1B021C
:105838001AB27B7B1BB213431BB29BB218461037BC
:10584800BD4680BD4432002080B500AF3B216920B1
:10585800FFF7D0FF03461846FFF7B6FF03461A4680
:1058680013469B0013445B0007EE903AB8EEE77AC4
:10587800DFED3B6AC7EE267A3A4BC3ED007A3D214D
:105888006920FFF7B7FF03461846FFF79DFF034659
:105898001A4613469B0013445B0007EE903AB8EE95
:1058A800E77ADFED2F6AC7EE267A2E4BC3ED017A31
:1058B8003F216920FFF79EFF03461846FFF784FF44
:1058C80003461A4613469B0013445B0007EE903AC2
:1058D800B8EEE77ADFED226AC7EE267A214BC3EDF0
:1058E800027A43216920FFF785FF03461846FFF730
:1058F8006BFF034607EE903AB8EEE77ADFED1A6AD7
:10590800C7EE267A194BC3ED007A45216920FFF7C7
:1059180071FF03461846FFF757FF034607EE903A14
:10592800B8EEE77ADFED106AC7EE267A0F4BC3EDC3
:10593800017A47216920FFF75DFF03461846FFF704
:1059480043FF034607EE903AB8EEE77ADFED066AC2
:10595800C7EE267A054BC3ED027A00BF80BD00BFB3
:10596800000080466C0300200000034378030020F9
:1059780080B586B004AF0023FB714FF0FF3302936C
:1059880001230193FB1D009301236B22D2211D48A3
:1059980006F0B0FC4FF0FF33029301230193072375
:1059A800009301231922D221164806F0A3FC4FF0D8
:1059B800FF330293012301930023009301231C2248
:1059C800D221104806F096FC4FF0FF3302930123D2
:1059D80001930023009301231B22D221094806F0DA
:1059E80089FC4FF0FF33029301230193064B009388
:1059F80001237522D321034806F090FD00BF083724
:105A0800BD4680BD443200201B32002080B582B0E4
:105A180000AF00237B600FE07B68432B08D07B68D6
:105A2800052B05D07B685BB2184607F0E5FA00E065
:105A380000BF7B6801337B607B68EF2BECD900BF2C
:105A480000BF0837BD4680BD80B582B000AF0023D7
:105A58007B6007E07B685BB2184607F0BFFA7B689B
:105A680001337B607B68EF2BF4D900BF00BF083798
:105A7800BD4680BD80B500AF4021AA4806F092FB24
:105A88000346002B14BF01230023DAB2A64B1A7079
:105A98000421A64806F086FB0346002B14BF012309
:105AA8000023DAB2A04B5A704FF40051A04806F018
:105AB80079FB0346002B14BF01230023DAB29D4B68
:105AC8001A704FF480419A4806F06CFB0346002B8D
