:020000040800F2
:1000000000800120BD0801081F900008259000080D
:100010002B90000831900008379000080000000085
:100020000000000000000000000000006563000800
:100030003D900008000000002163000851620008A4
:100040000D0901080D0901080D0901080D09010834
:100050000D0901080D0901080D0901080D09010824
:100060000D0901080D0901080D0901084B90000850
:10007000292000080D0901080D0901080D090108D2
:100080005990000867900008759000080D09010854
:100090000D0901080D0901080D0901080D090108E4
:1000A0000D090108859000080D0901080D090108D6
:1000B0000D0901080D0901080D0901080D090108C4
:1000C0000D0901080D0901080D0901080D090108B4
:1000D0000D0901080D0901080D0901080D090108A4
:1000E0000D0901080D0901080D0901080D09010894
:1000F0000D0901080D0901080D0901080D09010884
:100100000D0901080D0901080D0901080D09010873
:100110000D0901080D0901080D0901080D09010863
:100120000D0901080D0901080D0901080D09010853
:100130000D0901080D0901080D0901080D09010843
:100140000D0901080D0901080D0901089990000821
:100150000D0901080D0901080D0901080D09010823
:100160000D0901080D0901080D0901080D09010813
:100170000D0901080D0901080D0901080000000022
:080180000D0901080D09010839
:1001880081F0004102E000BF83F0004330B54FEA40
:1001980041044FEA430594EA050F08BF90EA020FAD
:1001A8001FBF54EA000C55EA020C7FEA645C7FEA40
:1001B800655C00F0E2804FEA5454D4EB5555B8BF63
:1001C8006D420CDD2C4480EA020281EA030382EAD4
:1001D800000083EA010180EA020281EA0303362D66
:1001E80088BF30BD11F0004F4FEA01314FF4801C39
:1001F8004CEA113102D0404261EB410113F0004F4B
:100208004FEA03334CEA133302D0524263EB430301
:1002180094EA050F00F0A780A4F10104D5F1200E9F
:100228000DDB02FA0EFC22FA05F2801841F10001FA
:1002380003FA0EF2801843FA05F359410EE0A5F1CE
:1002480020050EF1200E012A03FA0EFC28BF4CF0FF
:10025800020C43FA05F3C01851EBE37101F00045B5
:1002680007D54FF0000EDCF1000C7EEB00006EEBC2
:100278000101B1F5801F1BD3B1F5001F0CD349084C
:100288005FEA30004FEA3C0C04F101044FEA4452A3
:1002980012F5800F80F09A80BCF1004F08BF5FEA2A
:1002A800500C50F1000041EB045141EA050130BD0A
:1002B8005FEA4C0C404141EB0101013C28BFB1F51C
:1002C800801FE9D291F0000F04BF01460020B1FA67
:1002D80081F308BF2033A3F10B03B3F120020CDA3A
:1002E8000C3208DD02F1140CC2F10C0201FA0CF018
:1002F80021FA02F10CE002F11402D8BFC2F1200C7D
:1003080001FA02F120FA0CFCDCBF41EA0C01904032
:10031800E41AA2BF01EB0451294330BD6FEA04047B
:100328001F3C1CDA0C340EDC04F11404C4F1200266
:1003380020FA04F001FA02F340EA030021FA04F378
:1003480045EA030130BDC4F10C04C4F1200220FACF
:1003580002F001FA04F340EA0300294630BD21FA0D
:1003680004F0294630BD94F0000F83F4801306BFD3
:1003780081F480110134013D4EE77FEA645C18BFC7
:100388007FEA655C29D094EA050F08BF90EA020F5E
:1003980005D054EA000C04BF1946104630BD91EA56
:1003A800030F1EBF0021002030BD5FEA545C05D159
:1003B8004000494128BF41F0004130BD14F5800498
:1003C8003CBF01F5801130BD01F0004545F0FE410C
:1003D80041F470014FF0000030BD7FEA645C1ABF41
:1003E800194610467FEA655C1CBF0B46024650EA78
:1003F800013406BF52EA033591EA030F41F40021A4
:1004080030BD00BF90F0000F04BF0021704730B529
:100418004FF4806404F132044FF000054FF00001FE
:1004280050E700BF90F0000F04BF0021704730B5BF
:100438004FF4806404F1320410F0004548BF404294
:100448004FF000013EE700BF42004FEAE2014FEAE9
:1004580031014FEA02701FBF12F07F4393F07F4FC4
:1004680081F06051704732F07F4208BF704793F0C7
:100478007F4F04BF41F40021704730B54FF46074DA
:1004880001F0004521F000411CE700BF50EA0102DD
:1004980008BF704730B54FF000050AE050EA010286
:1004A80008BF704730B511F0004502D5404261EBF6
:1004B80041014FF4806404F132045FEA915C3FF437
:1004C800D8AE4FF003025FEADC0C18BF03325FEAD4
:1004D800DC0C18BF033202EBDC02C2F1200300FA85
:1004E80003FC20FA02F001FA03FE40EA0E0021FAAA
:1004F80002F11444BDE600BF70B54FF0FF0C4CF498
:10050800E06C1CEA11541DBF1CEA135594EA0C0F49
:1005180095EA0C0F00F0DEF82C4481EA030621EA84
:100528004C5123EA4C5350EA013518BF52EA0335BF
:1005380041F4801143F4801338D0A0FB02CE4FF071
:100548000005E1FB02E506F00042E0FB03E54FF0A1
:100558000006E1FB03569CF0000F18BF4EF0010E99
:10056800A4F1FF04B6F5007F64F5407404D25FEA95
:100578004E0E6D4146EB060642EAC62141EA555148
:100588004FEAC52040EA5E504FEACE2EB4F1FD0C8A
:1005980088BFBCF5E06F1ED8BEF1004F08BF5FEA08
:1005A800500E50F1000041EB045170BD06F00046BA
:1005B80046EA010140EA020081EA0301B4EB5C0467
:1005C800C2BFD4EB0C0541EA045170BD41F480115F
:1005D8004FF0000E013C00F3AB8014F1360FDEBF84
:1005E800002001F0004170BDC4F10004203C35DA60
:1005F8000C341BDC04F11404C4F1200500FA05F3E3
:1006080020FA04F001FA05F240EA020001F0004283
:1006180021F0004110EBD37021FA04F642EB0601F9
:100628005EEA430E08BF20EAD37070BDC4F10C0423
:10063800C4F1200500FA04F320FA05F001FA04F2E7
:1006480040EA020001F0004110EBD37041F10001D3
:100658005EEA430E08BF20EAD37070BDC4F12005DE
:1006680000FA05F24EEA020E20FA04F301FA05F246
:1006780043EA020321FA04F001F0004121FA04F2EE
:1006880020EA020000EBD3705EEA430E08BF20EABE
:10069800D37070BD94F0000F0FD101F000464000F8
:1006A80041EB010111F4801F08BF013CF7D041EA7A
:1006B800060195F0000F18BF704703F0004652007E
:1006C80043EB030313F4801F08BF013DF7D043EA4F
:1006D8000603704794EA0C0F0CEA135518BF95EA05
:1006E8000C0F0CD050EA410618BF52EA4306D1D18C
:1006F80081EA030101F000414FF0000070BD50EAAB
:10070800410606BF1046194652EA430619D094EA34
:100718000C0F02D150EA013613D195EA0C0F05D11E
:1007280052EA03361CBF104619460AD181EA030172
:1007380001F0004141F0FE4141F470014FF000002A
:1007480070BD41F0FE4141F4780170BD70B54FF0C5
:10075800FF0C4CF4E06C1CEA11541DBF1CEA135545
:1007680094EA0C0F95EA0C0F00F0A7F8A4EB050427
:1007780081EA030E52EA03354FEA013100F088801E
:100788004FEA03334FF0805545EA131343EA1263E7
:100798004FEA022245EA111545EA10654FEA00269C
:1007A8000EF000419D4208BF964244F1FD0404F555
:1007B800407402D25B084FEA3202B61A65EB0305B1
:1007C8005B084FEA32024FF480104FF4002CB6EB6E
:1007D800020E75EB030E22BFB61A754640EA0C00EE
:1007E8005B084FEA3202B6EB020E75EB030E22BF2E
:1007F800B61A754640EA5C005B084FEA3202B6EB6F
:10080800020E75EB030E22BFB61A754640EA9C002D
:100818005B084FEA3202B6EB020E75EB030E22BFFD
:10082800B61A754640EADC0055EA060E18D04FEABB
:10083800051545EA16754FEA06164FEAC30343EA5B
:1008480052734FEAC2025FEA1C1CC0D111F4801F28
:100858000BD141EA00014FF000004FF0004CB6E721
:1008680011F4801F04BF01430020B4F1FD0C88BFC0
:10087800BCF5E06F3FF6AFAEB5EB030C04BFB6EBCB
:10088800020C5FEA500C50F1000041EB045170BDBE
:100898000EF0004E4EEA113114EB5C04C2BFD4EBEB
:1008A8000C0541EA045170BD41F480114FF0000E6F
:1008B800013C90E645EA060E8DE60CEA135594EAEB
:1008C8000C0F08BF95EA0C0F3FF43BAF94EA0C0FEE
:1008D8000AD150EA01347FF434AF95EA0C0F7FF463
:1008E80025AF104619462CE795EA0C0F06D152EAB7
:1008F80003353FF4FDAE1046194622E750EA41069B
:1009080018BF52EA43067FF4C5AE50EA41047FF4AB
:100918000DAF52EA43057FF4EBAE12E74FF0FF3C10
:1009280006E000BF4FF0010C02E000BF4FF0010CE1
:100938004DF804CD4FEA410C7FEA6C5C4FEA430C5A
:1009480018BF7FEA6C5C1BD001B050EA410C0CBFA9
:1009580052EA430C91EA030F02BF90EA020F00200B
:10096800704710F1000F91EA030F58BF994208BF72
:1009780090422CBFD8176FEAE37040F0010070472F
:100988004FEA410C7FEA6C5C02D150EA013C07D186
:100998004FEA430C7FEA6C5CD6D152EA033CD3D0D1
:1009A8005DF8040B704700BF8446104662468C46CB
:1009B8001946634600E000BF01B5FFF7B7FF0028FE
:1009C80048BF10F1000F01BD4DF808EDFFF7F4FF27
:1009D8000CBF012000205DF808FB00BF4DF808EDB2
:1009E800FFF7EAFF34BF012000205DF808FB00BFD5
:1009F8004DF808EDFFF7E0FF94BF012000205DF8F7
:100A080008FB00BF4DF808EDFFF7CEFF94BF0120AB
:100A180000205DF808FB00BF4DF808EDFFF7C4FFA4
:100A280034BF012000205DF808FB00BF4FEA410CED
:100A38007FEA6C5C02D150EA013C0AD14FEA430CD0
:100A48007FEA6C5C02D152EA033C02D14FF000000D
:100A580070474FF0010070474A0011D212F500129A
:100A680011D20DD56FF47873B3EB62520ED44FEAFE
:100A7800C12343F0004343EA505323FA02F070477E
:100A88004FF00000704750EA013002D14FF0FF30BC
:100A980070474FF0000070474FEA4102B2F1E0435F
:100AA80024BFB3F5001CDCF1FE5C0DD901F0004C4D
:100AB8004FEAC0024CEA5070B2F1004F40EB83009D
:100AC80008BF20F00100704711F0804F21D113F1C9
:100AD8003872BCBF01F00040704741F480114FEA02
:100AE8005252C2F11802C2F1200C10FA0CF320FA8B
:100AF80002F018BF40F001004FEAC1234FEAD323A8
:100B080003FA0CFC40EA0C0023FA02F34FEA430311
:100B1800CCE77FEA625307D150EA01331EBF4FF09A
:100B2800FE4040F44000704701F0004040F0FE40B5
:100B380040F40000704700BF0348044B834202D0D2
:100B4800034B03B118477047A8020020A8020020F1
:100B5800000000000548064B1B1AD90F01EBA30142
:100B6800491002D0034B03B118477047A802002070
:100B7800A80200200000000010B5064C237843B9F5
:100B8800FFF7DAFF044B13B10448AFF300800123E9
:100B9800237010BDA802002000000000EC0E010820
:100BA80008B5054B1BB105490548AFF30080BDE802
:100BB8000840FFF7CFBF00BF00000000AC020020D4
:100BC800EC0E010880B485B000AF78607B681B68C4
:100BD80003F06003FB60FB68002B04D17B681B6893
:100BE80003F01003FB60FB6818461437BD465DF838
:100BF800047B704780B483B000AF78607B681B6B60
:100C080018460C37BD465DF8047B704780B483B046
:100C180000AF786039607B681A6A3B681A437B6862
:100C28001A6200BF0C37BD465DF8047B704780B47C
:100C380083B000AF786039607B681A6A3B68DB4331
:100C48001A407B681A6200BF0C37BD465DF8047B0A
:100C5800704780B483B000AF78607B685B6C43F406
:100C680000427B685A6400BF0C37BD465DF8047BC0
:100C7800704780B483B000AF78607B68DB6843F06E
:100C880001027B68DA6000BF0C37BD465DF8047B63
:100C9800704780B483B000AF78607B68DB6823F06E
:100CA80001027B68DA6000BF0C37BD465DF8047B43
:100CB800704780B483B000AF78607B68DB6803F06E
:100CC8000103012B01D1012300E0002318460C3752
:100CD800BD465DF8047B704780B483B000AF786090
:100CE8007B68DB6843F002027B68DA6000BF0C3780
:100CF800BD465DF8047B704780B483B000AF786070
:100D08007B68DB6823F002027B68DA6000BF0C377F
:100D1800BD465DF8047B704780B483B000AF78604F
:100D28007B68DB6803F00203022B01D1012300E09A
:100D3800002318460C37BD465DF8047B704780B425
:100D480083B000AF78607B68DB6843F004027B689F
:100D5800DA6000BF0C37BD465DF8047B704780B48D
:100D680083B000AF78607B68DB6823F004027B689F
:100D7800DA6000BF0C37BD465DF8047B704780B46D
:100D880083B000AF78607B68DB6803F00403042B52
:100D980001D1012300E0002318460C37BD465DF859
:100DA800047B704780B483B000AF78607B68DB68F1
:100DB80043F008027B68DA6000BF0C37BD465DF877
:100DC800047B704780B483B000AF78607B68DB68D1
:100DD80023F008027B68DA6000BF0C37BD465DF877
:100DE800047B704780B483B000AF78607B68DB68B1
:100DF80003F00803082B01D1012300E00023184663
:100E08000C37BD465DF8047B704780B483B000AFF3
:100E180078607B68DB6843F010027B68DA6000BFAB
:100E28000C37BD465DF8047B704780B483B000AFD3
:100E380078607B68DB6823F010027B68DA6000BFAB
:100E48000C37BD465DF8047B704780B483B000AFB3
:100E580078607B68DB6803F01003102B01D1012355
:100E680000E0002318460C37BD465DF8047B704748
:100E780080B483B000AF78607B68DB6843F0200201
:100E88007B68DA6000BF0C37BD465DF8047B7047AD
:100E980080B483B000AF78607B68DB6823F0200201
:100EA8007B68DA6000BF0C37BD465DF8047B70478D
:100EB80080B483B000AF78607B68DB6803F0200300
:100EC800202B01D1012300E0002318460C37BD4632
:100ED8005DF8047B704780B483B000AF78607B68AE
:100EE800DB6843F040027B68DA6000BF0C37BD4620
:100EF8005DF8047B704780B483B000AF78607B688E
:100F0800DB6823F040027B68DA6000BF0C37BD461F
:100F18005DF8047B704780B483B000AF78607B686D
:100F2800DB6803F04003402B01D1012300E00023DC
:100F380018460C37BD465DF8047B704780B483B013
:100F480000AF78607B68DB6843F080027B68DA601A
:100F580000BF0C37BD465DF8047B704780B483B092
:100F680000AF78607B68DB6823F080027B68DA601A
:100F780000BF0C37BD465DF8047B704780B483B072
:100F880000AF78607B68DB6803F08003802B01D1B9
:100F9800012300E0002318460C37BD465DF8047BAA
:100FA800704780B582B000AF78600B467B807B8845
:100FB80003F00103002B0CD07B681B681846FFF771
:100FC800AAFF0346012B04D07B681B681846FFF76D
:100FD80082FF7B8803F00203002B0CD07B681B6820
:100FE8001846FFF799FE0346012B04D07B681B685F
:100FF8001846FFF771FE7B8803F00403002B0CD022
:101008007B681B681846FFF7BAFE0346012B04D01D
:101018007B681B681846FFF792FE7B8803F008037D
:10102800002B0CD07B681B681846FFF7DBFE0346D5
:10103800012B04D07B681B681846FFF7B3FE7B883A
:1010480003F01003002B0CD07B681B681846FFF7D1
:10105800FCFE0346012B04D07B681B681846FFF78B
:10106800D4FE7B8803F02003002B0CD07B681B6820
:101078001846FFF71EFE0346012B04D07B681B6849
:101088001846FFF7F6FD7B8803F04003002B0CD0D1
:101098007B681B681846FFF771FF0346012B04D0D5
:1010A8007B681B681846FFF749FF7B8803F08003BD
:1010B800002B0CD07B681B681846FFF7F9FE034627
:1010C800012B04D07B681B681846FFF7D1FE00BFD0
:1010D8000837BD4680BD80B582B000AF78600B464A
:1010E8007B807B8803F00103002B0CD07B681B6896
:1010F8001846FFF710FF0346012B04D17B681B68D5
:101108001846FFF7F8FE7B8803F00203002B0CD08B
:101118007B681B681846FFF7FFFD0346012B04D1C7
:101128007B681B681846FFF7E7FD7B8803F004031C
:10113800002B0CD07B681B681846FFF720FE03467F
:10114800012B04D17B681B681846FFF708FE7B88D3
:1011580003F00803002B0CD07B681B681846FFF7C8
:1011680041FE0346012B04D17B681B681846FFF734
:1011780029FE7B8803F01003002B0CD07B681B68CA
:101188001846FFF762FE0346012B04D17B681B68F3
:101198001846FFF74AFE7B8803F02003002B0CD08B
:1011A8007B681B681846FFF784FD0346012B04D0B3
:1011B8007B681B681846FFF76CFD7B8803F04003CB
:1011C800002B0CD07B681B681846FFF7D7FE034638
:1011D800012B04D17B681B681846FFF7BFFE7B888C
:1011E80003F08003002B0CD07B681B681846FFF7C0
:1011F8005FFE0346012B04D17B681B681846FFF786
:1012080047FE00BF0837BD4680BD000080B582B0EC
:1012180000AF78600B46FB70FB78022B06D17B6829
:101228001B6801211846FFF7F1FC31E07B681B6859
:10123800194A934213D07B681B68184A93420ED010
:101248007B681B68164A934209D07B681B68154A5D
:10125800934204D07B681B68134A934218D1FB78E9
:10126800032B06D17B681B6804211846FFF7CEFCC8
:101278000EE0FB78042B0BD17B681B680121184614
:10128800FFF7C4FC7B681B6804211846FFF7BEFC07
:1012980000BF0837BD4680BD002C01400034014026
:1012A80000400140004401400048014080B582B040
:1012B80000AF78600B46FB70FB78022B06D17B6889
:1012C8001B6801211846FFF7B2FC31E07B681B68F8
:1012D800194A934213D07B681B68184A93420ED070
:1012E8007B681B68164A934209D07B681B68154ABD
:1012F800934204D07B681B68134A934218D1FB7849
:10130800032B06D17B681B6804211846FFF78FFC66
:101318000EE0FB78042B0BD17B681B680121184673
:10132800FFF785FC7B681B6804211846FFF77FFCE4
:1013380000BF0837BD4680BD002C01400034014085
:1013480000400140004401400048014080B582B09F
:1013580000AF78600B46FB70FB78022B06D17B68E8
:101368001B6810211846FFF751FC31E07B681B68A9
:10137800194A934213D07B681B68184A93420ED0CF
:101388007B681B68164A934209D07B681B68154A1C
:10139800934204D07B681B68134A934218D1FB78A8
:1013A800032B06D17B681B6840211846FFF72EFCEB
:1013B8000EE0FB78042B0BD17B681B6810211846C4
:1013C800FFF724FC7B681B6840211846FFF71EFCCA
:1013D80000BF0837BD4680BD002C014000340140E5
:1013E80000400140004401400048014080B582B0FF
:1013F80000AF78600B46FB70FB78022B06D17B6848
:101408001B6810211846FFF712FC31E07B681B6847
:10141800194A934213D07B681B68184A93420ED02E
:101428007B681B68164A934209D07B681B68154A7B
:10143800934204D07B681B68134A934218D1FB7807
:10144800032B06D17B681B6840211846FFF7EFFB8A
:101458000EE0FB78042B0BD17B681B681021184623
:10146800FFF7E5FB7B681B6840211846FFF7DFFBA9
:1014780000BF0837BD4680BD002C01400034014044
:1014880000400140004401400048014080B582B05E
:1014980000AF78600B46FB70FB78022B07D17B68A6
:1014A8001B684FF480711846FFF7B0FB34E07B6887
:1014B8001B681B4A934213D07B681B68194A9342E6
:1014C8000ED07B681B68184A934209D07B681B685A
:1014D800164A934204D07B681B68154A93421BD175
:1014E800FB78032B07D17B681B684FF48061184693
:1014F800FFF78CFB10E0FB78042B0DD17B681B6891
:101508004FF480711846FFF781FB7B681B684FF426
:1015180080611846FFF77AFB00BF0837BD4680BDDB
:10152800002C0140003401400040014000440140CB
:101538000048014080B582B000AF78600B46FB7070
:10154800FB78022B07D17B681B684FF48071184623
:10155800FFF76DFB34E07B681B681B4A934213D08E
:101568007B681B68194A93420ED07B681B68184A2F
:10157800934209D07B681B68164A934204D07B6863
:101588001B68154A93421BD1FB78032B07D17B6854
:101598001B684FF480611846FFF749FB10E0FB78A1
:1015A800042B0DD17B681B684FF480711846FFF738
:1015B8003EFB7B681B684FF480611846FFF737FBDA
:1015C80000BF0837BD4680BD002C014000340140F3
:1015D80000400140004401400048014080B582B00D
:1015E80000AF78600B46FB70FB78022B06D17B6856
:1015F8001B684FF480511846FFF708FB00BF0837F7
:10160800BD4680BD80B582B000AF78600B46FB70E8
:10161800FB78022B06D17B681B684FF48051184673
:10162800FFF705FB00BF0837BD4680BD80B584B015
:1016380000AF78600023FB607B681B68304A9342E8
:1016480001D1304BFB607B681A68FB681A60FB6845
:101658001B681846FFF7B6FAB860BB68002B06D0BF
:10166800BB68102B03D0FB6801221A7102E0FB68EB
:1016780000221A71FB681B68234A934213D0FB6847
:101688001B68224A93420ED0FB681B68204A93428B
:1016980009D0FB681B681F4A934204D0FB681B688B
:1016A8001D4A934204D1FB681B681846FFF7D1FA1C
:1016B800FB681B68144A934213D0FB681B68134AE3
:1016C80093420ED0FB681B68114A934209D0FB680D
:1016D8001B68104A934204D0FB681B680E4A934269
:1016E80008D17B681B681846FFF784FA0346DAB20C
:1016F800FB685A71FB6818461037BD4680BD00BFAD
:1017080000040040C4020020002C014000340140C5
:1017180000400140004401400048014080B485B0C9
:1017280000AF786039603B68002B03D17B68403399
:10173800FB6001E0044BFB60FB6818461437BD46AC
:101748005DF8047B704700BF0C03045080B483B07D
:1017580000AF78607B68DB6803F44063002B01D13D
:10176800012300E0002318460C37BD465DF8047BD2
:10177800704780B483B000AF786039607B681B6BBA
:1017880023F00F023B681A437B681A6300BF0C37CB
:10179800BD465DF8047B704780B483B000AF7860C5
:1017A80039607B68DB6823F003023B681A437B6877
:1017B800DA6000BF0C37BD465DF8047B704780B423
:1017C80083B000AF78607B68DB6C03F0C003002B4C
:1017D80001D1012300E0002318460C37BD465DF80F
:1017E800047B704780B483B000AF78607B689B68E7
:1017F80023F0004323F03F0343F001027B689A6023
:1018080000BF0C37BD465DF8047B704780B483B0D9
:1018180000AF78607B689B6823F0004323F03F03A8
:1018280043F002027B689A6000BF0C37BD465DF842
:10183800047B704780B483B000AF78607B689B6896
:1018480003F00103012B01D1012300E00023184616
:101858000C37BD465DF8047B704780B483B000AF99
:10186800786039607B689B6823F0404323F03F032E
:101878003A6802F08042134343F000427B689A6062
:1018880000BF0C37BD465DF8047B704780B483B059
:1018980000AF78607B689B6803F00043B3F1004FAA
:1018A80001D1012300E0002318460C37BD465DF83E
:1018B800047B704780B483B000AF78607B689B6816
:1018C80023F0004323F03F0343F004027B689A604F
:1018D80000BF0C37BD465DF8047B704780B483B009
:1018E80000AF78607B689B6823F0004323F03F03D8
:1018F80043F008027B689A6000BF0C37BD465DF86C
:10190800047B704780B483B000AF78607B681B6845
:1019180003F00803082B01D1012300E00023184637
:101928000C37BD465DF8047B704780B483B000AFC8
:1019380078607B681B6803F01003102B01D101232A
:1019480000E0002318460C37BD465DF8047B70475D
:1019580080B483B000AF78607B6810221A6000BF43
:101968000C37BD465DF8047B704780B483B000AF88
:1019780078607B685B6843F008027B685A6000BF48
:101988000C37BD465DF8047B704780B483B000AF68
:1019980078607B685B6843F040027B685A6000BFF0
:1019A8000C37BD465DF8047B704780B483B000AF48
:1019B80078607B685B6823F008027B685A6000BF28
:1019C8000C37BD465DF8047B704780B483B000AF28
:1019D80078607B685B6823F010027B685A6000BF00
:1019E8000C37BD465DF8047B704780B483B000AF08
:1019F80078607B685B6823F040027B685A6000BFB0
:101A08000C37BD465DF8047B704780B483B000AFE7
:101A180078607B685B6823F080027B685A6000BF4F
:101A28000C37BD465DF8047B704780B483B000AFC7
:101A380078607B685B6803F01003102B01D10123E9
:101A480000E0002318460C37BD465DF8047B70475C
:101A580080B483B000AF78607B685B6803F0800374
:101A6800802B01D1012300E0002318460C37BD4626
:101A78005DF8047B7047000080B485B000AF7860E3
:101A880039607B68FB600C4A3B6813441B781A4634
:101A9800FB6813441B6808493A680A4412781146DF
:101AA800FA680A4443F00103136000BF1437BD46C7
:101AB8005DF8047B704700BF5C0F010880B485B0F7
:101AC80000AF786039607B68FB600C4A3B68134460
:101AD8001B781A46FB6813441B6808493A680A448D
:101AE80012781146FA680A4423F00103136000BF14
:101AF8001437BD465DF8047B704700BF5C0F0108D2
:101B080080B485B000AF786039607B68FB60084AB4
:101B18003B6813441B781A46FB6813441B6803F0A0
:101B2800200318461437BD465DF8047B704700BF94
:101B38005C0F010880B487B000AFF860B9607A60C4
:101B4800FB687B610D4ABB6813441B781A467B69A6
:101B580013445B681B0C1B040849BA680A441278D2
:101B680011467A690A4411467A6813434B6000BFEC
:101B78001C37BD465DF8047B704700BF5C0F010849
:101B880080B487B000AFF860B9607A603B60FB68EA
:101B98007B613B6A102B14D1174ABB6813441B782E
:101BA8001A467B6913441A467B68D360124ABB689D
:101BB80013441B781A467B6913441A463B689360A2
:101BC80013E00D4ABB6813441B781A467B6913441B
:101BD8001A467B689360084ABB6813441B781A4608
:101BE8007B6913441A463B68D36000BF1C37BD4667
:101BF8005DF8047B704700BF5C0F010880B487B0B4
:101C080000AFF860B9607A60FB687B61074ABB681F
:101C180013441B781A467B6913441A467B68936001
:101C280000BF1C37BD465DF8047B70475C0F010898
:101C380080B483B000AF78607B681B6803F0200332
:101C4800202B01D1012300E0002318460C37BD46A4
:101C58005DF8047B704780B483B000AF78607B6820
:101C680020225A6000BF0C37BD465DF8047B7047E0
:101C780080B485B000AF786039607B68FB600C4A3F
:101C88003B6813441B781A46FB6813441B680849D1
:101C98003A680A4412781146FA680A4443F0020383
:101CA800136000BF1437BD465DF8047B704700BF62
:101CB8005C0F010880B485B000AF786039607B683C
:101CC800FB600C4A3B6813441B781A46FB681344B4
:101CD8001B6808493A680A4412781146FA680A44A7
:101CE80043F00803136000BF1437BD465DF8047B5A
:101CF800704700BF5C0F010880B485B000AF786002
:101D080039607B68FB600C4A3B6813441B781A46B1
:101D1800FB6813441B6808493A680A44127811465C
:101D2800FA680A4423F00203136000BF1437BD4663
:101D38005DF8047B704700BF5C0F010880B485B074
:101D480000AF786039607B68FB600C4A3B681344DD
:101D58001B781A46FB6813441B6808493A680A440A
:101D680012781146FA680A4423F00403136000BF8E
:101D78001437BD465DF8047B704700BF5C0F01084F
:101D880080B485B000AF786039607B68FB600C4A2E
:101D98003B6813441B781A46FB6813441B680849C0
:101DA8003A680A4412781146FA680A4423F008038C
:101DB800136000BF1437BD465DF8047B704700BF51
:101DC8005C0F010880B485B000AF786039607B682B
:101DD800FB600A4A3B6813441B781A46FB681344A5
:101DE8001B6803F00203022B01D1012300E000234A
:101DF80018461437BD465DF8047B70475C0F010830
:101E080080B584B000AF78600123FB817B681B69D3
:101E18001846FFF79BFC0346002B2FD07B685B7AA4
:101E2800DBB2022B11D07B685B7ADBB2042B0CD0BF
:101E38007B685B7ADBB2082B07D07B681B69184686
:101E4800FFF760FD0346012B18D1786800F0F8F819
:101E58000346002B12D17B685B7ADBB2082B03D1D7
:101E68007B6801225A7202E07B6820225A727B68E2
:101E78001B691846FFF71EFD0023FB81FB891846E6
:101E88001037BD4680BD80B586B002AFF860B96036
:101E98007A603B600021F868FFF740FC03461A4669
:101EA8007968B868FFF7AAFE0021F868FFF736FCE2
:101EB80002463B68002100917968B868FFF760FE28
:101EC800BA697968B868FFF735FE7968B868FFF7C6
:101ED800CFFE7968B868FFF7EDFE7968B868FFF754
:101EE800CBFD00BF1037BD4680BD80B584B000AFC4
:101EF800F860B9607A607968B868FFF7DFFD7968DB
:101F0800B868FFF71BFF7968B868FFF739FF796889
:101F1800B868FFF7F1FE00227968B868FFF70AFE93
:101F280000BF1037BD4680BD80B584B000AF786073
:101F380039600223FB737B68DB79012B0FD17B6847
:101F4800DA687B681B685B00D118FB7B7A681268CB
:101F580002FB03F31A4638680EF0B6FF0AE07B6806
:101F6800D968FB7B7A68126802FB03F31A46386863
:101F78000EF0AAFF00BF1037BD4680BD80B586B001
:101F880000AFF860B9607A60FB685A69FB689B79B2
:101F980019461046FFF716FF0346DBB2012B37D16F
:101FA800FB685A69BB68104698470346012B2FD136
:101FB800FB6804225A72FB685A697B681046984786
:101FC800FB685A69FB689B7919461046FFF798FD2C
:101FD8000346002B19D1FB685A69FB689B7919469F
:101FE8001046FFF76BFDFB685869FB689B7919463B
:101FF800FB681B681A46FFF79DFDFB685A69FB687A
:102008009B7919461046FFF737FD0123FB7501E060
:102018000023FB75FB7D18461837BD4680BD0000C0
:1020280080B500AF034A04490448FFF7A7FF00BF83
:1020380080BD00BF5F1C0008391C00085003002049
:1020480080B582B000AF78607B681B691846FFF7DF
:102058006CFC0346DBB2012B07D17B681B69184671
:10206800FFF776FC7B6810225A727B685B7ADBB2DA
:10207800102B0CBF01230023DBB218460837BD46DE
:1020880080BD80B582B000AF78600B46FB70FB78EE
:10209800012B0DD17B681B691846FFF757FB0346D8
:1020A800012B12D07B681B691846FFF703FC0CE074
:1020B8007B681B691846FFF782FB0346012B04D097
:1020C8007B681B691846FFF709FC00BF0837BD4647
:1020D80080BD000090B589B002AFF860084611468F
:1020E8001A4603467B810B463B811346FB8000233F
:1020F8007B61FB681B693C4A934201D13B4B7B6186
:102108007B69002B6BD0FB681A697B691A617B6954
:102118000022DA71FB88012B61D03B89002B47D064
:102128007B695B7ADBB2082B42D0FB68DA687B6993
:10213800DA60FB681A687B691A60FB685A697B6910
:102148005A61FB689A797B699A71FB681A797B698D
:102158001A717B691B69B96A1846FFF70AFB7B8904
:10216800012B21D07B89042B16D17B691B690321A4
:102178001846FFF711FB7B6918697B6959697B6908
:102188009B791C467B69DA687B691B680093134658
:102198002246FFF778FE07E07B89022B04D17B6992
:1021A8001B691846FFF7E1FB7B6908225A7216E0A3
:1021B8003B89002B13D17B699B7ADBB2082B0ED0AD
:1021C800FB685A797B695A717B89022B04D17B6938
:1021D8001B691846FFF7D9FB7B6908229A727B694D
:1021E80018461C37BD4690BD00010450500300201E
:1021F80080B582B000AF78607B681B691846FFF72E
:1022080019FB0346002B04D17B681B691846FFF7AE
:10221800E9FA00BF0837BD4680BD80B586B000AF7B
:10222800F8600B467A607B810123FB82FB681B699F
:10223800002B46D07B89012B05D1F868FFF7E0FD1C
:102248000346FB823DE07B89042B1FD1FB681B6999
:102258001846FFF77BFA0346002B32D0FB680122B1
:102268005A72FB681B691846FFF724FB00BFFB681E
:102278005B7ADBB2042BFAD17968F868FFF754FE71
:10228800FB6808225A720023FB821AE07B89022B22
:1022980017D1FB685B7ADBB2202B09D0FB685B7A2D
:1022A800DBB2042B04D0FB685B7ADBB2102B08D1BD
:1022B800FB6808225A727968F868FFF735FE002330
:1022C800FB82FB8A18461837BD4680BD80B582B0B0
:1022D80000AF78600B467B8013463B807B681B69A8
:1022E8001846FFF7A7FA0346002B04D07B681B6942
:1022F8001846FFF78BFA7B681B691846FFF7A8FB9F
:102308000346002B04D07B681B691846FFF77DFB4A
:102318007B681B691846FFF788FB0346002B04D02F
:102328007B681B691846FFF750FB3B88002B35D0AC
:102338007B88012B1AD07B88022B05D17B681B690F
:102348001846FFF732FB11E07B88042B0ED17B681F
:1023580018697B6859697B689B791A46FFF7C5FD40
:102368007B681B6900211846FFF716FA7B68002274
:10237800DA607B6800221A607B6800225A617B68F9
:1023880000229A717B6800221A717B681A697B683F
:102398001B7919461046FFF7ECF90AE07B68002222
:1023A8005A717B88022B04D17B681B691846FFF79A
:1023B8001CFB00BF0837BD4680BD000080B584B057
:1023C80000AF78600B46FB707B681B691846FFF707
:1023D80031FA0346FB7397F90F30012B04D17B6860
:1023E8001B691846FFF712FAFB78002B0FD17B68A0
:1023F8001B697F211846FFF730FA00BF7B681B690D
:102408001846FFF743FA0346012BF7D040E0FB7864
:10241800012B0FD17B681B692C491846FFF71DFA61
:1024280000BF7B681B691846FFF730FA0346012B8B
:10243800F7D02DE07B681B697F211846FFF70DFA5E
:1024480000BF7B681B691846FFF720FA0346012B7B
:10245800F7D00023BB8107E000BFBB891BB29BB24A
:1024680001339BB21BB2BB81BB891BB29BB2032B4E
:10247800F2D97B681B6915491846FFF7EEF900BFCA
:102488007B681B691846FFF701FA0346012BF7D052
:102498000023BB8107E000BFBB891BB29BB201339D
:1024A8009BB21BB2BB81BB891BB29BB2032BF2D977
:1024B80097F90F30012B04D17B681B691846FFF789
:1024C80091F900BF1037BD4680BD00BF00007F40B6
:1024D80080B483B000AF78607B681B6843F001026A
:1024E8007B681A6000BF0C37BD465DF8047B7047F7
:1024F80080B483B000AF78607B681B6823F001026A
:102508007B681A6000BF0C37BD465DF8047B7047D6
:1025180080B483B000AF786039607B681B6823F0B3
:1025280004023B681A437B681A6000BF0C37BD463B
:102538005DF8047B704780B483B000AF78607B6837
:102548001B6803F0040318460C37BD465DF8047B8E
:10255800704780B483B000AF78607B68DB6A184648
:102568000C37BD465DF8047B704780B483B000AF7C
:10257800786039607B683A681A6300BF0C37BD46DB
:102588005DF8047B704780B483B000AF7860396031
:102598007B683A685A6300BF0C37BD465DF8047B18
:1025A800704780B483B000AF786039607B683A6860
:1025B8009A6300BF0C37BD465DF8047B704780B452
:1025C80083B000AF786039607B683A68DA6300BF2F
:1025D8000C37BD465DF8047B704780B483B000AF0C
:1025E800786039607B683A681A6400BF0C37BD466A
:1025F8005DF8047B704780B483B000AF78607B6877
:102608005B6B18460C37BD465DF8047B704780B499
:1026180083B000AF78607B689B6B18460C37BD466B
:102628005DF8047B704780B483B000AF78607B6846
:10263800DB6B18460C37BD465DF8047B704780B4E9
:1026480083B000AF78607B681B6C18460C37BD46BA
:102658005DF8047B704780B483B000AF78607B6816
:102668005B6943F001027B685A6100BF0C37BD46C5
:102678005DF8047B704780B483B000AF78607B68F6
:102688001B6918460C37BD465DF8047B704780B45B
:1026980083B000AF786039607B683A689A6100BFA0
:1026A8000C37BD465DF8047B704780B483B000AF3B
:1026B800786039607B683A689A6200BF0C37BD461B
:1026C8005DF8047B7047000080B584B000AF786087
:1026D80087ED000AD7ED007AF5EEC07AF1EE10FA30
:1026E80003D54FF000033B600AE0D7ED007A9FED79
:1026F800167AF4EEC77AF1EE10FA01DD134B3B605F
:102708007B681B681846FFF724FFF8607B681B7915
:10271800002B0CBF01230023DBB21A46FB681344CD
:1027280007EE903AB8EE677AD7ED007A27EE277A67
:10273800DFED056AC7EE267AFCEEE77A17EE903AE7
:1027480018461037BD4680BD0000C8420000C84288
:1027580080B582B000AF786039607B681B68184626
:10276800FFF749FF02463B68934205D07B681B6828
:1027780039681846FFF707FF00BF0837BD4680BD18
:1027880080B582B000AF786039607B681B681846F6
:10279800FFF73DFF02463B68934205D07B681B6804
:1027A80039681846FFF7FDFE00BF0837BD4680BDF3
:1027B80080B582B000AF786039607B681B681846C6
:1027C800FFF731FF02463B68934205D07B681B68E0
:1027D80039681846FFF7F3FE00BF0837BD4680BDCD
:1027E80080B582B000AF786039607B681B68184696
:1027F800FFF725FF02463B68934205D07B681B68BC
:1028080039681846FFF7E9FE00BF0837BD4680BDA6
:1028180080B584B000AF786087ED000A97ED000AB4
:102828007868FFF751FFF860F9687868FFF790FF5C
:1028380000BF1037BD4680BD80B584B000AF78605A
:1028480087ED000A97ED000A7868FFF73DFFF8600A
:10285800F9687868FFF794FF00BF1037BD4680BD60
:1028680080B584B000AF786087ED000A97ED000A64
:102878007868FFF729FFF860F9687868FFF798FF2C
:1028880000BF1037BD4680BD80B584B000AF78600A
:1028980087ED000A97ED000A7868FFF715FFF860E2
:1028A800F9687868FFF79CFF00BF1037BD4680BD08
:1028B80080B485B000AF78607B681B689A68074B66
:1028C8001340FB60FB68062B0CBF01230023DBB21F
:1028D80018461437BD465DF8047B704707000100B1
:1028E80080B584B000AF78600B46FB707B681B68CE
:1028F8001846FFF720FEF860FB78002B1ED07B6897
:102908001B68324A934213D07B681B68304A934253
:102918000ED07B681B682F4A934209D07B681B68DE
:102928002D4A934204D07B681B682C4A934205D1F8
:102938007B681B6800211846FFF717FEFB68042B0D
:1029480011D07B681B6804211846FFF7E1FD7B68FE
:102958001B681846FFF77FFE7B681B68F9681846F6
:10296800FFF7D6FD04E07B681B681846FFF773FE87
:102978007B681B681846FFF7ABFDFB78002B20D05F
:102988007B681B68114A934213D07B681B68104A06
:1029980093420ED07B681B680E4A934209D07B682D
:1029A8001B680D4A934204D07B681B680B4A93420C
:1029B80007D17B681A687B685B7919461046FFF770
:1029C800D4FD00BF1037BD4680BD00BF002C0140BC
:1029D80000340140004001400044014000480140EB
:1029E80080B582B000AF78607B681B681846FFF737
:1029F8007FFD00BF0837BD4680BD80B485B000AFFD
:102A0800786039607B68012283F8D8203B68D3E975
:102A180000237968C1E902237B6801221A60002338
:102A2800FB600CE07B68D3E902237868F96802311F
:102A3800C9000144C1E90023FB680133FB60FB685E
:102A4800182BEFDD00BF00BF1437BD465DF8047BCF
:102A5800704780B586B000AF87ED040BF860B960A9
:102A68007A60BB68D3E902017B68D3E90023FDF7EC
:102A7800ABFF0346002B05D17B68D3E90023B96877
:102A8800C1E90223F868BB681033C82219460EF062
:102A98001BFAF968D7E90423C1E93223FB6803F17B
:102AA800D000BB681033C02219460EF00DFABB687F
:102AB80003F11000FB68C833C82219460EF004FA67
:102AC80000BF1837BD4680BD80B485B000AF7860C0
:102AD80039607B68012283F860203B68D3E90023D2
:102AE8007968C1E902237B6801221A600023FB6030
:102AF8000CE07B68D3E902237868F9680231C900E1
:102B08000144C1E90023FB680133FB60FB68092B22
:102B1800EFDD00BF00BF1437BD465DF8047B70478A
:102B280080B586B000AF87ED040BF860B9607A60B5
:102B3800BB68D3E902017B68D3E90023FDF744FFB2
:102B48000346002B05D17B68D3E90023B968C1E9A6
:102B58000223F868BB681033502219460EF0B4F906
:102B6800F968D7E90423C1E91423FB6803F1580085
:102B7800BB681033482219460EF0A6F9BB6803F16A
:102B88001000FB685033502219460EF09DF900BF23
:102B98001837BD4680BD000080B584B000AF87ED12
:102BA800000B38687B6823F000414FF000022C4B83
:102BB800FDF714FF0346002B42D04FF00002294BCB
:102BC800D7E90001FDF71EFF0346002B13D04FF095
:102BD8000002244BD7E90001FDF7D8FA02460B465C
:102BE80043EC172BB0EE470AF0EE670A0DF070FFC2
:102BF80087ED020B28E04FF000021B4BD7E90001DC
:102C0800FDF70AFF0346002B06D04FF000024FF0F5
:102C18000003C7E9022317E04FF00002114BD7E980
:102C28000001FDF7B1FA02460B4643EC172BB0EE54
:102C3800470AF0EE670A0DF0C3FE87ED020B03E0CA
:102C4800D7E90023C7E90223D7E9022343EC172B6E
:102C5800B0EE470AF0EE670A1037BD4680BD00BFE8
:102C6800000030430000E03F0000E0BF90B585B0B1
:102C780000AF7860934B93F8813003F00103DBB227
:102C8800002B06D18F4B93F88430012B01D90123F7
:102C980000E00023FB73FB7B002B26D08A494FF012
:102CA80000028A4BC1E9182387494FF000024FF010
:102CB8000003C1E91A23834B002283F88420814A48
:102CC80092F88030102161F3040382F880307D4B44
:102CD800D3E91E014FF000027C4BFDF757FA02467C
:102CE8000B467849C1E91E23E8E0764B93F881301A
:102CF80003F00403DBB2002B06D1724B93F8843047
:102D0800012B01D9012300E00023FB73FB7B002B7F
:102D180027D06D494FF000026C4BC1E918236A496E
:102D28004FF000024FF00003C1E91A23654B00225F
:102D380083F88420634A92F88030092161F3040300
:102D480082F880305F494FF000024FF00003C1E97C
:102D58001E235C494FF000024FF00003C1E91C2319
:102D6800ACE0584B93F8813003F00203DBB2002B40
:102D780006D1544B93F88430012B01D9012300E08C
:102D88000023FB73FB7B002B26D04F494FF000023A
:102D98004E4BC1E918234C494FF000024FF0000395
:102DA800C1E91A23474B002283F88420454A92F848
:102DB80080300F2161F3040382F88030414BD3E95E
:102DC8001C014FF00002414BFDF7E0F902460B46AB
:102DD8003C49C1E91C2371E03A4B93F8813003F078
:102DE8000103DBB2002B0ED0364B93F8813003F091
:102DF8000203DBB2002B06D0324B93F88430012B50
:102E080001D9012300E00023FB73FB7B002B27D0B3
:102E18002D494FF000022D4BC1E918232A494FF0E4
:102E280000024FF00003C1E91A23264B002283F861
:102E38008420244A92F88030122161F3040382F836
:102E4800803020494FF000024FF00003C1E91E23F3
:102E58001C494FF000024FF00003C1E91C232DE08C
:102E68007B681833D3E90001164BD3E916230124F4
:102E7800FDF7D2FD0346002B01D100231C46E1B229
:102E8800104A92F8813061F3000382F881307B6840
:102E98002033D3E900010B4BD3E918230124FDF7B4
:102EA800BBFD0346002B01D100231C46E1B2054AB5
:102EB80092F8813061F3410382F8813000BF143702
:102EC800BD4690BD70150020E00300200000F03FD3
:102ED80080B500AF30494FF000024FF00003C1E960
:102EE80020232D494FF000024FF00003C1E91C23B5
:102EF80029494FF000024FF00003C1E92223264977
:102F08004FF000024FF00003C1E91E23234BD3E921
:102F18001E014FF00002224BFDF756FD0346002B21
:102F28000AD11E4BD3E91C014FF000021C4BFDF7E0
:102F38004BFD0346002B01D0012300E0002303F0E2
:102F48000103D9B2154A92F8813061F3C30382F8BC
:102F58008130124A92F881306FF3820382F881300F
:102F68000E4A92F881306FF3000382F881300B4AE1
:102F780092F881306FF3410382F88130064B0022CA
:102F880083F8A820044B002283F8AA20024B0022D1
:102F980083F8A92000BF80BDE00300207015002041
:102FA8000000084080B58CB002AF78607B680022D2
:102FB8001A727B6801225A607B681033BB61002358
:102FC8007B741A4BFB611A4B3B620123BB740023D1
:102FD80087F82430022387F825300923FB6009236A
:102FE8003B7407F10C0008230093042301220421F9
:102FF800FFF770F802467B68DA607B68DB680221BD
:103008001846FFF7DBF97B68DB681846FFF7F0F82E
:103018007B68DB6801211846FFF733F87B680122DB
:103028001A7200BF2837BD4680BD00BF000104509A
:103038000000024080B5A6B000AF78601A4BBB60B4
:1030480000233B7300237B7307F108031846FEF740
:10305800EDFA02467B68DA607B68DB680021184677
:10306800FDF79FFF7B68DB6802211846FEF70EFA22
:103078007B68DB6802211846FEF7B0FA7B68DB68DC
:103088001846FFF715FC034687F8973097F89730EE
:10309800002B05D17B68DB6800211846FFF720FC70
:1030A80000BF9837BD4680BD0004004080B5A6B07B
:1030B80000AF78601A4BBB6000233B7300237B731F
:1030C80007F108031846FEF7B1FA02467B68DA6092
:1030D8007B68DB6800211846FDF763FF7B68DB68C7
:1030E80002211846FEF792F87B68DB680221184631
:1030F800FEF72CF97B68DB681846FFF7D9FB034617
:1031080087F8973097F89730002B05D17B68DB68F4
:1031180000211846FFF7E4FB00BF9837BD4680BD85
:103128000004004000000000B0B5AEB000AFA94BED
:10313800DB68A94A04211846FFF76FF8A64BDB891C
:10314800A64AA2F84030A44B1B88A44AA2F84E30E5
:10315800A14B9B89A14AA2F842309F4B5B889F4AAA
:10316800A2F84C309C4B5B899C4AA2F844309A4B9D
:103178009B889A4AA2F84A30974B1B89974AA2F82B
:103188004630954BDB88954AA2F848300023C7F8AB
:10319800843014E0914AD7F88430203332F8133061
:1031A8001846FDF72FF98D4AD7F88430DB00134411
:1031B800C3E90001D7F884300133C7F88430D7F861
:1031C8008430072BE6DD854B93ED007B844A8549E7
:1031D8008548B0EE470AF0EE670AFFF73AFC7F4BE6
:1031E80003F5DE63D3E900237C49C1E926230023E4
:1031F800C7F884301EE0D7F884300133774ADE33CD
:10320800DB001344D3E90023C7E92223734BD3E936
:103218002623D7E92201FDF7FFFB0346002B04D044
:103228006E49D7E92223C1E92623D7F88430013330
:10323800C7F88430D7F88430172BDCDD674B93ED63
:10324800027B6A4A6A496B48B0EE470AF0EE670AA1
:10325800FFF766FC614B03F55363D3E900235F492D
:10326800C1E928230023C7F884301FE0D7F8843049
:1032780001335A4A03F5D373DB001344D3E900231F
:10328800C7E92223554BD3E92823D7E92201FDF7C3
:10329800C3FB0346002B04D05049D7E92223C1E9D8
:1032A8002823D7F884300133C7F88430D7F884301E
:1032B800082BDBDD494B93ED287B4F4A4F4950489B
:1032C800B0EE470AF0EE670AFFF7C3FB434B03F57E
:1032D8008053D3E900234149C1E924230023C7F8D7
:1032E80084301FE0D7F8843001333C4A03F500737B
:1032F800DB001344D3E90023C7E92223374BD3E982
:103308002423D7E92201FDF769FB0346002B04D0EB
:103318003249D7E92223C1E92423D7F8843001337D
:10332800C7F88430D7F88430172BDBDD2B4B93EDAF
:10333800047B344A34493548B0EE470AF0EE670A50
:10334800FFF787FB254B03F50863D3E900232349DF
:10335800C1E928230023C7F884301FE0D7F8843058
:1033680001331E4A03F58873DB001344D3E90023B5
:10337800C7E92223194BD3E92823D7E92201FDF70E
:103388004BFB0346002B04D01449D7E92223C1E99B
:103398002823D7F884300133C7F88430D7F884302D
:1033A800172BDBDD0D4B93ED067B194A19491A489B
:1033B800B0EE470AF0EE670AFFF74BFB074B03F541
:1033C800AC63D3E90023C7E92A230023C7F8843074
:1033D80041E000BF701500208C030020E0030020AE
:1033E8008800002078190020D00A0020A8000020BA
:1033F800F81C002010110020C0000020A81E00208A
:10340800E013002090000020581A0020600C0020D3
:10341800800000209818002040090020D7F8843048
:103428000133864AAC33DB001344D3E90023C7E9F0
:103438002223D7E92223D7E92A01FDF7CFFA034649
:10344800002B03D0D7E92223C7E92A23D7F88430F1
:103458000133C7F88430D7F88430172BDEDD774B7B
:1034680093ED087B764A77497748B0EE470AF0EE45
:10347800670AFFF7EEFA714BD3E9F423C7E928236B
:103488000023C7F884301CE0D7F8843001336B4A36
:103498007A33DB001344D3E90023C7E92223D7E9B1
:1034A8002223D7E92801FDF799FA0346002B03D018
:1034B800D7E92223C7E92823D7F884300133C7F88E
:1034C8008430D7F88430172BDEDD5C4B93ED0A7B14
:1034D8005E4A5F495F48B0EE470AF0EE670AFFF7B9
:1034E800B8FA564BD3E99023C7E92C230023C7F831
:1034F80084301CE0D7F884300133504A4833DB006D
:103508001344D3E90023C7E92223D7E92223D7E9C3
:103518002C01FDF763FA0346002B03D0D7E92223D9
:10352800C7E92C23D7F884300133C7F88430D7F89B
:103538008430172BDEDD414B93ED0C7B464A47491F
:103548004748B0EE470AF0EE670AFFF7E9FA3B4B47
:1035580003F55D63D3E90023C7E926230023C7F8F1
:1035680084301DE0D7F884300133344A03F5DD7325
:10357800DB001344D3E90023C7E92223D7E9222338
:10358800D7E92601FDF72AFA0346002B03D0D7E92D
:103598002223C7E92623D7F884300133C7F88430BB
:1035A800D7F88430082BDDDD2E4A2F492F4897EDB8
:1035B800260BFFF74EFA214B03F56763D3E9002387
:1035C800C7E924230023C7F884301DE0D7F88430E6
:1035D80001331A4A03F5E773DB001344D3E90023E8
:1035E800C7E92223D7E92223D7E92401FDF714FAF2
:1035F8000346002B03D0D7E92223C7E92423D7F8B1
:1036080084300133C7F88430D7F88430172BDDDDD8
:103618000A4B93ED0E7B164A16491748B0EE470A37
:10362800F0EE670AFFF715FA044BD3E92C23C7E934
:1036380026230023C7F884303DE000BFE0030020C4
:1036480078000020B8170020B00700207000002084
:10365800D816002020060020B0000020601D0020A1
:10366800B0110020B8000020C81D00205012002012
:1036780068000020F815002090040020D7F8843056
:103688000133B54A1633DB001344D3E90023C7E9F5
:103698002223D7E92223D7E92601FDF79FF903461C
:1036A800002B03D0D7E92223C7E92623D7F8843093
:1036B8000133C7F88430D7F88430172BDEDDA64BEA
:1036C80093ED267BB0EE470AF0EE670A0DF000FA9C
:1036D800B0EE407AF0EE607A9FED9D1BB0EE470A9F
:1036E800F0EE670A0DF036F987ED220B4FF0000275
:1036F8004FF00003D7E92201FDF770F90346002BCC
:103708000ED0D7F88840D7F88C3083F00045204693
:103718002946FDF7A1F903469BB25B429BB205E03F
:10372800D7E92201FDF798F903469BB28B4A13802B
:10373800894B93ED247BB0EE470AF0EE670A0DF053
:10374800C7F9B0EE407AF0EE607A9FED811BB0EEDB
:10375800470AF0EE670A0DF0FDF887ED220B4FF0EF
:1037680000024FF00003D7E92201FDF737F90346BD
:10377800002B10D0D7F888303B67D7F88C3083F00F
:1037880000437B67D7E91C01FDF766F903469BB246
:103798005B429BB205E0D7E92201FDF75DF90346DC
:1037A8009BB26E4A53806C4B93ED287BB0EE470A70
:1037B800F0EE670A0DF08CF9B0EE407AF0EE607A20
:1037C8009FED631BB0EE470AF0EE670A0DF0C2F8F2
:1037D80087ED220B4FF000024FF00003D7E92201DA
:1037E800FDF7FCF80346002B10D0D7F88830BB66ED
:1037F800D7F88C3083F00043FB66D7E91A01FDF750
:103808002BF903469BB25B429BB205E0D7E9220144
:10381800FDF722F903469BB2504A938097ED2A0B95
:103828000DF056F9B0EE407AF0EE607A9FED481B45
:10383800B0EE470AF0EE670A0DF08CF887ED220B20
:103848004FF000024FF00003D7E92201FDF7C6F858
:103858000346002B10D0D7F888303B66D7F88C3059
:1038680083F000437B66D7E91801FDF7F5F80346B6
:103878009BB25B429BB205E0D7E92201FDF7ECF869
:1038880003469BB2354AD38097ED280B0DF020F9FB
:10389800B0EE407AF0EE607A9FED2D1BB0EE470A4D
:1038A800F0EE670A0DF056F887ED220B4FF0000294
:1038B8004FF00003D7E92201FDF790F80346002BEB
:1038C80010D0D7F88830BB65D7F88C3083F0004328
:1038D800FB65D7E91601FDF7BFF803469BB25B42CB
:1038E8009BB205E0D7E92201FDF7B6F803469BB283
:1038F8001A4A138197ED2C0B0DF0EAF8B0EE407AD6
:10390800F0EE607A9FED121BB0EE470AF0EE670A00
:103918000DF020F887ED220B4FF000024FF0000366
:10392800D7E92201FDF75AF80346002B18D0D7F83B
:1039380088303B65D7F88C3083F000437B65D7E946
:103948001401FDF789F803469BB25B429BB20DE078
:10395800000000000000F040E0030020A003002069
:10396800D7E92201FDF778F803469BB2A24A5381B2
:1039780097ED240B0DF0ACF8B0EE407AF0EE607ADB
:103988009FED9B1BB0EE470AF0EE670A0CF0E2FFD2
:1039980087ED220B4FF000024FF00003D7E9220118
:1039A800FDF71CF80346002B10D0D7F88830BB640D
:1039B800D7F88C3083F00043FB64D7E91201FDF798
:1039C8004BF803469BB25B429BB205E0D7E9220164
:1039D800FDF742F803469BB2874A938197ED260B81
:1039E8000DF076F8B0EE407AF0EE607A9FED801B2D
:1039F800B0EE470AF0EE670A0CF0ACFF87ED220B39
:103A08004FF000024FF00003D7E92201FCF7E6FF70
:103A18000346002B10D0D7F888303B64D7F88C3099
:103A280083F000437B64D7E91001FDF715F80346DE
:103A38009BB25B429BB205E0D7E92201FDF70CF887
:103A480003469BB26C4AD3816C4BB3F85A306A4A2E
:103A580013826B4B03F5DE63D3E900236849C1E9A0
:103A680024230023C7F884301EE0D7F884300133BC
:103A7800634ADE33DB001344D3E90023C7E922237A
:103A88005F4BD3E92423D7E92201FCF7A7FF0346BC
:103A9800002B04D05A49D7E92223C1E92423D7F8B7
:103AA80084300133C7F88430D7F88430172BDCDD35
:103AB800534B93ED027B534A53495448B0EE470A9F
:103AC800F0EE670AFEF7C5FF4D4B03F53A63D3E9FD
:103AD8000023C7E924230023C7F884301DE0D7F862
:103AE80084300133464A03F5BA73DB001344D3E943
:103AF8000023C7E92223D7E92223D7E92401FCF7C9
:103B08008BFF0346002B03D0D7E92223C7E92423E0
:103B1800D7F884300133C7F88430D7F88430172BAE
:103B2800DDDD374B03F50863D3E900233449C1E9E8
:103B380028230023C7F884301FE0D7F884300133E6
:103B48002F4A03F58873DB001344D3E90023C7E940
:103B580022232B4BD3E92823D7E92201FCF73EFF88
:103B68000346002B04D02649D7E92223C1E928239C
:103B7800D7F884300133C7F88430D7F88430172B4E
:103B8800DBDD1F4B03F5AC63D3E90023C7E92A2328
:103B98000023C7F884301CE0D7F884300133184A72
:103BA800AC33DB001344D3E90023C7E92223D7E968
:103BB8002223D7E92A01FCF72FFF0346002B03D065
:103BC800D7E92223C7E92A23D7F884300133C7F875
:103BD8008430D7F88430172BDEDD094BD3E9F42382
:103BE800C7E928230023C7F884302EE0AFF300800C
:103BF800000000000000F040A003002000000020AA
:103C0800E0030020A0000020181C0020800F0020E6
:103C1800D7F884300133AC4A7A33DB001344D3E954
:103C28000023C7E92223D7E92223D7E92801FCF793
:103C3800F3FE0346002B03D0D7E92223C7E9282344
:103C4800D7F884300133C7F88430D7F88430172B7D
:103C5800DEDD9D4BD3E99023C7E92C230023C7F869
:103C680084301CE0D7F884300133974A4833DB00AE
:103C78001344D3E90023C7E92223D7E92223D7E94C
:103C88002C01FCF7C9FE0346002B03D0D7E92223F9
:103C9800C7E92C23D7F884300133C7F88430D7F824
:103CA8008430172BDEDD884B93ED0C7B874A8849DF
:103CB8008848B0EE470AF0EE670AFEF7CAFE824B64
:103CC80003F52163D3E90023C7E926230023C7F8B6
:103CD80084301DE0D7F8843001337B4A03F5A173A3
:103CE800DB001344D3E90023C7E92223D7E92223C1
:103CF800D7E92601FCF790FE0346002B03D0D7E94D
:103D08002223C7E92623D7F884300133C7F8843043
:103D1800D7F88430172BDDDD6B4BD3E92C236A49A8
:103D2800C1E926230023C7F884301EE0D7F8843081
:103D38000133654A1633DB001344D3E90023C7E98E
:103D48002223614BD3E92623D7E92201FCF746FE5B
:103D58000346002B04D05C49D7E92223C1E9262376
:103D6800D7F884300133C7F88430D7F88430172B5C
:103D7800DCDD554B93ED247BB0EE470AF0EE670A85
:103D88000CF0A6FEB0EE407AF0EE607A9FED4C1B88
:103D9800B0EE470AF0EE670A0CF0DCFD87ED220B67
:103DA8004FF000024FF00003D7E92201FCF716FE9E
:103DB8000346002B10D0D7F88830BB63D7F88C3077
:103DC80083F00043FB63D7E90E01FCF745FE034689
:103DD8009BB25B429BB205E0D7E92201FCF73CFEAF
:103DE80003469BB23C4A138097ED240B0CF070FEFF
:103DF800B0EE407AF0EE607A9FED311BB0EE470AE4
:103E0800F0EE670A0CF0A6FD87ED220B4FF00002DA
:103E18004FF00003D7E92201FCF7E0FD0346002B31
:103E280010D0D7F888303B63D7F88C3083F0004344
:103E38007B63D7E90C01FCF70FFE03469BB25B429C
:103E48009BB205E0D7E92201FCF706FE03469BB2C8
:103E5800214A53801C4B93ED287BB0EE470AF0EEC5
:103E6800670A0CF035FEB0EE407AF0EE607A9FED0E
:103E7800141BB0EE470AF0EE670A0CF06BFD87EDF5
:103E8800220B4FF000024FF00003D7E92201FCF7A4
:103E9800A5FD0346002B21D0D7F88830BB62D7F8A0
:103EA8008C3083F00043FB62D7E90A01FCF7D4FDAC
:103EB80003469BB25B429BB216E000BFAFF30080A3
:103EC800000000000000F040E003002098000020FF
:103ED800381B0020F00D0020B4030020D7E9220190
:103EE800FCF7BAFD03469BB2914A938097ED2A0BE3
:103EF8000CF0EEFDB0EE407AF0EE607A9FED8A1B92
:103F0800B0EE470AF0EE670A0CF024FD87ED220BAD
:103F18004FF000024FF00003D7E92201FCF75EFDE5
:103F28000346002B10D0D7F888303B62D7F88C3086
:103F380083F000437B62D7E90801FCF78DFD034657
:103F48009BB25B429BB205E0D7E92201FCF784FDF6
:103F580003469BB2764AD38097ED280B0CF0B8FD48
:103F6800B0EE407AF0EE607A9FED6F1BB0EE470A34
:103F7800F0EE670A0CF0EEFC87ED220B4FF0000222
:103F88004FF00003D7E92201FCF728FD0346002B78
:103F980010D0D7F88830BB61D7F88C3083F0004355
:103FA800FB61D7E90601FCF757FD03469BB25B426C
:103FB8009BB205E0D7E92201FCF74EFD03469BB210
:103FC8005B4A138197ED2C0B0CF082FDB0EE407A22
:103FD800F0EE607A9FED541BB0EE470AF0EE670AE8
:103FE8000CF0B8FC87ED220B4FF000024FF00003F5
:103FF800D7E92201FCF7F2FC0346002B10D0D7F8D2
:1040080088303B61D7F88C3083F000437B61D7E977
:104018000401FCF721FD03469BB25B429BB205E01D
:10402800D7E92201FCF718FD03469BB2404A5381A9
:1040380097ED260B0CF04CFDB0EE407AF0EE607A6E
:104048009FED391BB0EE470AF0EE670A0CF082FCD0
:1040580087ED220B4FF000024FF00003D7E9220151
:10406800FCF7BCFC0346002B10D0D7F88830BB60A7
:10407800D7F88C3083F00043FB60D7E90201FCF7E6
:10408800EBFC03469BB25B429BB205E0D7E92201F9
:10409800FCF7E2FC03469BB2254A9381254B93ED3E
:1040A800267BB0EE470AF0EE670A0CF011FDB0EE81
:1040B800407AF0EE607A9FED1C1BB0EE470AF0EEF6
:1040C800670A0CF047FC87ED220B4FF000024FF017
:1040D8000003D7E92201FCF781FC0346002B10D02E
:1040E800D7F888303B60D7F88C3083F000437B608A
:1040F800D7E90001FCF7B0FC03469BB25B429BB2D8
:1041080005E0D7E92201FCF7A7FC03469BB2084A61
:10411800D381094BB3F85C20054B1A820023C7F8FA
:1041280084301CE0AFF30080000000000000F04085
:10413800B4030020E003002000000020BE4AD7F8A6
:104148008430134400221A70BC4AD7F88430002106
:1041580022F81310D7F884300133C7F88430D7F821
:104168008430072BEADDB64B00221A60B54B0022DB
:104178001A60B54BB3F858301A46B44B1B8802FB8B
:1041880003F31846FCF73EF94FF00002B04BFCF77A
:10419800B3F902460B4610461946AB4BD3E9022346
:1041A800FCF7D4FA02460B4643EC172BB0EE470A4D
:1041B800F0EE670AFEF7F0FC51EC100BA24BD3E9C6
:1041C8000223FCF799F902460B46A249C1E92423C8
:1041D800A04BD3E924239F49C1E900239A4BB3F8A4
:1041E80058301A46994B5B8802FB03F31846FCF7D4
:1041F80009F94FF00002964BFCF77EF902460B4690
:1042080010461946904BD3E90223FCF79FFA024661
:104218000B4643EC172BB0EE470AF0EE670AFEF7A1
:10422800BBFC51EC100B884BD3E90223FCF764F973
:1042380002460B46C7E92C238649D7E92C23C1E956
:104248000223814BB3F858301A46804B9B8802FBF7
:1042580003F31846FCF7D6F84FF000027C4BFCF746
:104268004BF902460B4610461946774BD3E9022311
:10427800FCF76CFA02460B4643EC172BB0EE470AE4
:10428800F0EE670AFEF788FC51EC100B6E4BD3E991
:104298000223FCF731F902460B46C7E924236D498E
:1042A800D7E92423C1E90423674BB3F858301A46E9
:1042B800664BDB8802FB03F31846FCF7A3F84FF0C4
:1042C8000002634BFCF718F902460B4610461946E4
:1042D8005D4BD3E90223FCF739FA02460B4643EC5F
:1042E800172BB0EE470AF0EE670AFEF755FC51ECC3
:1042F800100B554BD3E90223FCF7FEF802460B4698
:10430800C7E922235349D7E92223C1E906234E4BA3
:10431800B3F858301A464D4B1B8902FB03F3184675
:10432800FCF770F84FF00002494BFCF7E5F802463D
:104338000B4610461946444BD3E90223FCF706FA0C
:1043480002460B4643EC172BB0EE470AF0EE670A1D
:10435800FEF722FC51EC100B3B4BD3E90223FCF790
:10436800CBF802460B463B49C1E92823394BD3E930
:1043780028233849C1E90823334BB3F858301A4683
:10438800324B5B8902FB03F31846FCF73BF84FF00E
:1043980000022F4BFCF7B0F802460B4610461946B0
:1043A800294BD3E90223FCF7D1F902460B4643EC2B
:1043B800172BB0EE470AF0EE670AFEF7EDFB51EC5B
:1043C800100B214BD3E90223FCF796F802460B4663
:1043D800C7E92A231F49D7E92A23C1E90A231A4B27
:1043E800B3F858301A46194B9B8902FB03F3184659
:1043F800FCF708F84FF00002154BFCF77DF8024671
:104408000B4610461946104BD3E90223FCF79EF9D8
:1044180002460B4643EC172BB0EE470AF0EE670A4C
:10442800FEF7BAFB51EC100B074BD3E90223FCF75C
:1044380063F802460B460FE0D8030020C8030020AB
:104448008403002088030020000000208C03002043
:104458000000503EE0030020C7E92623B449D7E90D
:104468002623C1E90C23B34BB3F858301A46B24B94
:10447800DB8902FB03F31846FBF7C4FF4FF0000289
:10448800AE4BFCF739F802460B4610461946A94BC5
:10449800D3E90223FCF75AF902460B4643EC172BE3
:1044A800B0EE470AF0EE670AFEF776FB51EC100B08
:1044B800A04BD3E90223FCF71FF802460B46C7E9D5
:1044C80028239B49D7E92823C1E90E239C48FEF7F6
:1044D800D2F8C7F88000D7F8803003F04003002BEB
:1044E8000CBF01230023DBB287F87F309548FEF725
:1044F800C2F8C7F88000D7F8803003F00403002B17
:104508000CBF01230023DBB287F87E30D7E92623CE
:10451800D7E92C01FBF73AFE02460B46104619462E
:10452800844BD3E90423FBF7E7FF02460B46C7E9B0
:104538002C23854B93F884300E2B07D8824B93F8A5
:1045480084300133DAB2804B83F884207E4B93F8B1
:10455800803023F07F03DBB2002B1CD17A4A92F81B
:10456800803043F0800382F88030774A92F88030B8
:10457800022161F3461382F880306D4B012283F8E3
:10458800A8206B4B012283F8AA20694B012283F8EB
:10459800A92000F0F4BC6C4B93F8803003F0600362
:1045A800DBB2202B40F0A284674B93F88030C3F332
:1045B8000403DBB2013B112B00F2728401A252F812
:1045C80023F000BF15460008754600085947000843
:1045D800174800081F480008A5480008E3480008D5
:1045E800514A0008774B0008954B0008B34B000868
:1045F8000F4C0008814C0008DB4C0008F74C000801
:10460800834D0008DD4D00084F4E00084E4B93F8CF
:104618008430022B1CD946494FF000024B4BC1E9AC
:10462800182343494FF000024FF00003C1E91A2351
:104638003F494FF00002454BC1E91623424A92F820
:104648008030132161F3040382F8803000F097BCB6
:1046580033A3D3E90023D7E92C01FBF74DFF02462A
:104668000B463949C1E91A2300F089BC364B93F847
:104678008430022B20D9344B002283F88420324A1C
:1046880092F88030012161F3040382F880302849D0
:104698004FF000022D4BC1E9182325494FF00002C5
:1046A8004FF00003C1E91A2321494FF00002274BBC
:1046B800C1E9162300F063BC1D4B93F8A830002B0A
:1046C8000CBF01230023DBB21A46194B83F8A8203C
:1046D800174B93F8A930002B0CBF01230023DBB242
:1046E8001A46134B83F8A9200FA3D3E90023D7E96F
:1046F8002201FBF701FF02460B461349C1E91623C5
:104708000B4BD3E9280106A3D3E90023FBF7F4FEFA
:1047180002460B460C49C1E9182300F030BC00BF23
:104728009A9999999999E93F666666666666EE3F31
:10473800E0030020000000208C0300200000503E11
:104748000010004800040048701500200000F03FE9
:10475800B74B93F88430072B11D9B54A92F88030BB
:10476800082161F3040382F88030B24B002283F8F9
:10477800A820B04B002283F8AA2000F000BCD7E99B
:104788002A23D7E92401FBF7FFFC02460B46104613
:1047980019464FF00002A84BFBF7AEFE02460B4647
:1047A800104619469AA3D3E90023FBF7CFFF024628
:1047B8000B46A049C1E924239E4BD3E9240196A3C3
:1047C800D3E90023FBF798FE02460B4694A1D1E9F2
:1047D8000001FBF7D9FC02460B469649C1E92023A4
:1047E800944BD3E924018CA3D3E90023FBF784FE7F
:1047F80002460B46104619464FF000028F4BFBF756
:10480800C5FC02460B468B49C1E91C23B7E389481E
:10481800FEF72CFAB3E3864B93F88430012B18D9B2
:10482800844B002283F8A820824B002283F8AA2018
:10483800804B002283F8A9207D4B002283F8842036
:104848007B4A92F880300D2161F3040382F88030AE
:1048580095E3784B93F8A830002B0CBF0123002375
:10486800DBB21A46734B83F8A820724B93F8AA3030
:10487800002B0CBF01230023DBB21A466D4B83F8D3
:10488800AA206C4B93F8A930002B0CBF01230023FE
:10489800DBB21A46674B83F8A92070E397F87E309D
:1048A800002B00F06583624B002283F88420604A65
:1048B80092F88030022161F3040382F880305D4968
:1048C8004FF000024FF00003C1E9182359494FF097
:1048D80000025B4BC1E91A234AE3564BD3E9240192
:1048E8004FF00002574BFCF797F80346002B47D0D0
:1048F8004FF00002534BD7E92801FCF78DF8034627
:10490800002B3DD04B494FF000024FF00003C1E9A6
:10491800202348494FF000024FF00003C1E91C234F
:10492800434B002283F88420414A92F880300421C6
:1049380061F3040382F880303D4BD3E91A23012147
:104948000C46D7E92C01FCF767F80346002B01D188
:1049580000231C46E1B2364A92F8813061F38203A3
:1049680082F8813033494FF000024FF00003C1E96B
:10497800182330494FF00002314BC1E91A23FEE2F7
:10498800D7E92A23D7E92401FBF7FEFB02460B46A9
:10499800104619464FF00002274BFBF7ADFD0246C3
:1049A8000B46104619461AA3D3E90023FBF7CEFE9F
:1049B80002460B461F49C1E924231E4BD3E92401B3
:1049C80019A3D3E90023FBF797FD02460B464FF0E6
:1049D80000001A49FBF7D8FB02460B461549C1E906
:1049E8002023144BD3E924010FA3D3E90023FBF7B9
:1049F80083FD02460B46104619464FF000020F4B46
:104A0800FBF7C4FB02460B460A49C1E91C23B6E280
:104A18006666666666660A407B14AE47E17AC43FFE
:104A28000000000000E053409A9999999999D93F5C
:104A380070150020E0030020000059400000544099
:104A48000000F03F00000A4097F87E30002B28D085
:104A5800B74A92F880300E2161F3040382F880305F
:104A6800B44B002283F8A820B2494FF000024FF05F
:104A78000003C1E92023AF494FF000024FF00003C3
:104A8800C1E91C23AB494FF000024FF00003C1E914
:104A98002223A8494FF000024FF00003C1E91E236A
:104AA8006DE2A44BD3E924014FF00002A24BFBF7BF
:104AB80095FF0346002B12D04FF000029E4BD7E91A
:104AC8002801FBF78BFF0346002B08D0984A92F881
:104AD8008030072161F3040382F880304FE2D7E980
:104AE8002A23D7E92401FBF74FFB02460B46104661
:104AF80019464FF00002914BFBF7FEFC02460B46AD
:104B08001046194684A3D3E90023FBF71FFE02468B
:104B18000B468849C1E92423864BD3E9240180A3A5
:104B2800D3E90023FBF7E8FC02460B467EA1D1E956
:104B38000001FBF729FB02460B467E49C1E9202309
:104B48007C4BD3E9240176A3D3E90023FBF7D4FCFB
:104B580002460B46104619464FF00002784BFBF709
:104B680015FB02460B467349C1E91C2307E2704B4B
:104B7800002283F884206E4A92F880300B2161F37A
:104B8800040382F88030FEF7A3F9F8E1684B93F844
:104B98008430012B40F2EE81654A92F8803013216F
:104BA80061F3040382F88030E4E1614B93F88130CB
:104BB80003F00803DBB2002B18D05D4B002283F80A
:104BC80084205B4A92F88030052161F3040382F85F
:104BD8008030584B012283F8A820564B002283F8D6
:104BE800AA20544B012283F8A920C8E1504B002287
:104BF80083F884204E4A92F88030032161F304033D
:104C080082F88030BBE14A4B93F884300A2B26D9CE
:104C1800474B002283F88420454A92F880300A21C5
:104C280061F3040382F8803042494FF000024FF0EC
:104C38000003C1E91C233F494FF000024FF0000375
:104C4800C1E922233B4B002283F8A820394B0022DC
:104C580083F8AA20374B002283F8A9208FE1354931
:104C68004FF00002374BC1E91C2332494FF00002D4
:104C7800344BC1E9222382E12D4B93F884300A2B6F
:104C88001AD92C494FF000024FF00003C1E91E2346
:104C980028494FF000024FF00003C1E92023244BBC
:104CA800002283F88420224A92F880300C2161F394
:104CB800040382F8803062E11E494FF00002214B64
:104CC800C1E91E231B494FF000021E4BC1E92023F6
:104CD80055E197F87F30002B00F04E81144A92F886
:104CE8008030132161F3040382F8803044E1104BD3
:104CF80093F88430052B27D90D4B002283F88420A4
:104D08000B4A92F880300B2161F3040382F880305B
:104D1800FEF7DEF833E100BF6666666666660A403F
:104D28009A9999999999D93F0000000000E0534059
:104D380070150020E003002000000A4000005940E0
:104D48000000544000805640A14B93F8A830002B37
:104D58000CBF01230023DBB21A469D4B83F8A82021
:104D68009B494FF000029B4BC1E91C2398494FF027
:104D78000002984BC1E9222301E1974B93F8843054
:104D8800052B0ED9944B002283F88420924A92F87E
:104D980080300B2161F3040382F88030FEF798F825
:104DA800EDE08B4B93F8A930002B0CBF01230023B7
:104DB800DBB21A46864B83F8A92085494FF00002DA
:104DC800844BC1E91E2382494FF00002814BC1E99F
:104DD8002023D4E0804B93F884300A2B1AD97C4BDB
:104DE800002283F8AA207A494FF000024FF000030E
:104DF800C1E91C2376494FF000024FF00003C1E9D6
:104E08002223754A92F88030132161F3040382F853
:104E18008030B4E06E4B93F8AA30002B0CBF01230E
:104E28000023DBB21A466A4B83F8AA2068494FF080
:104E38000002684BC1E91C2365494FF00002654B2D
:104E4800C1E922239BE0644B93F884300A2B0ED9E6
:104E5800614B002283F884205F4A92F880300B214E
:104E680061F3040382F88030FEF732F887E0584B8C
:104E780093F8AA30002B0CBF01230023DBB21A469B
:104E8800534B83F8AA2052494FF00002514BC1E915
:104E98001C234F494FF000024E4BC1E922236EE01C
:104EA80097F87F30002B10D04B4A92F880300821B9
:104EB80061F3040382F88030454B002283F8A82070
:104EC800434B002283F8AA2058E097F87E30002B45
:104ED80054D0414B002283F884203F4A92F8803016
:104EE800112161F3040382F8803047E097F87F309E
:104EF800002B44D0384A92F88030012161F34613E0
:104F080082F88030344A92F88030062161F3040335
:104F180082F880302E494FF00002304BC1E9162349
:104F28002B494FF000022D4BC1E9182328494FF0B7
:104F380000024FF00003C1E91A23254B002283F831
:104F4800A820234B002283F8AA20214B002283F8B3
:104F5800A92021494FF000024FF00003C1E91E23A8
:104F68001D494FF000024FF00003C1E91C2306E081
:104F780000BF04E000BF02E000BF00E000BF144B28
:104F8800D3E91601164BD3E90823FBF745FD034681
:104F9800002B06D0124BD3E900230D49C1E9242385
:104FA80005E00F4BD3E906230949C1E92423084B3F
:104FB800D3E918010A4BD3E90A23FBF72DFD034671
:104FC800002B0FD0064BD3E90023C7E924230EE0BA
:104FD800E003002000805640701500200000F03FDC
:104FE80000000020A84BD3E90623C7E92423A74BD8
:104FF800D3E91A01A44BD3E90C23FBF70DFD0346B3
:10500800002B05D0A04BD3E90023C7E9222304E0F5
:105018009D4BD3E90623C7E922239C4B9C4A1A657A
:105028009A4BD3E924014FF000024FF00003FBF73D
:10503800CBFC0346002B04D14FF40073C7F884302F
:1050480002E00023C7F88430904B1B6DD7F884200A
:1050580011461846FDF71BFB8C4B1A6DD7F88430A8
:10506800DB4303F4007319461046FDF71EFB874B1C
:10507800874A1A65854BD3E924014FF000024FF0A7
:105088000003FBF7A1FC0346002B04D14FF4804337
:10509800C7F8843002E00023C7F884307B4B1B6DCF
:1050A800D7F8842011461846FDF7F1FA774B1A6DA8
:1050B800D7F88430DB4303F4804319461046FDF7E4
:1050C800F4FA724B724A1A654FF000024FF000036F
:1050D800D7E92401FBF778FC0346002B04D14FF4F1
:1050E8008073C7F8843002E00023C7F88430674B28
:1050F8001B6DD7F8842011461846FDF7C8FA634B94
:105108001A6DD7F88430DB4303F4807319461046D0
:10511800FDF7CBFA5D4B5E4A1A654FF000024FF07F
:105128000003D7E92401FBF74FFC0346002B04D109
:105138004FF40043C7F8843002E00023C7F88430F6
:10514800524B1B6DD7F8842011461846FDF79FFA7D
:105158004E4B1A6DD7F88430DB4303F400431946ED
:105168001046FDF7A2FA494B494A1A654FF000026A
:105178004FF00003D7E92201FBF726FC0346002B7A
:1051880004D14FF48053C7F8843002E00023C7F8F5
:1051980084303E4B1B6DD7F8842011461846FDF726
:1051A80076FA3A4B1A6DD7F88430DB4303F4805310
:1051B80019461046FDF779FA344B364A1A65334BCF
:1051C800D3E924014FF000024FF00003FBF7FCFB8A
:1051D8000346002B04D14FF48053C7F8843002E013
:1051E8000023C7F88430294B1B6DD7F8842011465B
:1051F8001846FDF74CFA254B1A6DD7F88430DB4377
:1052080003F4805319461046FDF74FFA1F4B204A06
:105218001A651E4BD3E924014FF000024FF000033A
:10522800FBF7D2FB0346002B04D14FF40053C7F819
:10523800843002E00023C7F88430144B1B6DD7F884
:10524800842011461846FDF722FA104B1A6DD7F83C
:105258008430DB4303F4005319461046FDF725FA62
:105268000A4B0B4A1A654FF000024FF00003D7E9CA
:105278002201FBF7A9FB0346002B0DD14FF4006375
:10528800C7F884300BE000BF00000020E0030020D6
:1052980000100048000400480023C7F88430894BF8
:1052A8001B6DD7F8842011461846FDF7F0F9854B99
:1052B8001A6DD7F88430DB4303F4006319461046AF
:1052C800FDF7F3F9804B1C6D7E4BD3E92223104682
:1052D8001946FBF7E1FB034600EE103A2046FDF7BE
:1052E800BFFA794B1C6D774BD3E92023104619463A
:1052F800FBF7D2FB034600EE103A2046FDF7C4FA4E
:10530800714B1C6C6F4BD3E91C2310461946FBF7F5
:10531800C3FB034600EE103A2046FDF779FA6A4BC4
:105328001C6C684BD3E91E2310461946FBF7B4FBE7
:10533800034600EE103A2046FDF77EFA614B634AB9
:105348001A65634BD3E90E014FF000024FF00003DA
:10535800FBF73AFB0346002B03D18023C7F88430C0
:1053680002E00023C7F88430564B1B6DD7F8842021
:1053780011461846FDF78BF9524B1A6DD7F8843051
:10538800DB4303F0800319461046FDF78EF94D4BB9
:10539800504A1A654B4B93F8A830002B04D04FF4B1
:1053A8000053C7F8843002E00023C7F88430454B27
:1053B8001B6DD7F8842011461846FDF768F9414B54
:1053C8001A6DD7F88430DB4303F4005319461046AE
:1053D800FDF76BF93B4B3F4A1A653A4B93F8AA30F5
:1053E800002B04D04FF48043C7F8843002E0002338
:1053F800C7F88430334B1B6DD7F884201146184604
:10540800FDF745F92F4B1A6DD7F88430DB4303F4C9
:10541800804319461046FDF748F92A4B2D4A1A656C
:10542800284B93F8A930002B04D04FF40043C7F859
:10543800843002E00023C7F88430224B1B6DD7F874
:10544800842011461846FDF722F91E4B1A6DD7F82D
:105458008430DB4303F4004319461046FDF725F971
:10546800184B1D4A1A651A4BD3E910014FF0000278
:105478004FF00003FBF7A8FA0346002B03D10823DB
:10548800C7F8843002E00023C7F884300D4B1B6D49
:10549800D7F8842011461846FDF7F9F8094B1A6D1C
:1054A800D7F88430DB4303F0080319461046FDF7AC
:1054B800FCF800F0D5FA00F0E9FB00BFB837BD46AC
:1054C800B0BD00BFE003002070150020000C0048AC
:1054D80000000020000800480004004880B582B0A1
:1054E80000AF00237B6017E05A4BB3F85E105A4AAE
:1054F8007B6822F81310574BB3F86010574A7B6843
:1055080022F81310534BB3F86210554A7B6822F8FF
:1055180013107B6801337B607B68082BE4DD002374
:105528007B6011E04B4B93F866104E4A7B6813443E
:105538000A461A70474BB3F864104B4A7B6822F846
:1055480013107B6801337B607B68072BEADD414BD6
:105558009B6C464A13603F4BDB6C454A13603D4BDE
:105568001B6D444A13603B4B5B6D434A1360394BD8
:105578001B6D404A5360374B5B6D3F4A5360354B58
:105588001B6D3C4A9360334B5B6D3B4A936000F064
:10559800FBFA3A4B00225A60384B00221A703748FF
:1055A800FDF700FD36493748FDF727FA36493748F1
:1055B800FDF78AFA36493748FDF71FFA3649374862
:1055C800FDF71BFA36493748FDF717FA36493748C9
:1055D800FDF713FA36493748FDF70FFA36493748C9
:1055E800FDF772FA36493748FDF707FA3649374862
:1055F800FDF703FA36493748FDF7FFF936493748CA
:10560800FDF7FBF91D4B002283F844201B4B0022B9
:1056180083F84C20194B01229A643148FDF70AFDA2
:10562800164B012283F84C20144B002283F83420B7
:10563800124B002283F83C20104B01229A63294820
:10564800FDF734FD0D4B012283F83C2000BF0837DD
:10565800BD4680BD000000208C030020A003002070
:10566800B4030020D8030020C803002084030020CE
:10567800880300206C0300207803002070150020A8
:105688008800002078190020A8000020F81C0020BD
:10569800C0000020A81E002090000020581A0020FA
:1056A800800000209818002078000020B8170020FB
:1056B80070000020D8160020B0000020601D0020D7
:1056C800B8000020C81D002068000020F815002040
:1056D800A0000020181C002098000020381B002083
:1056E800B4150020A415002080B500AF344B1B78FA
:1056F800002B11D1324B01221A70314B5B68012B00
:105708000AD12F4B1B7A002B06D02D4BDB680122C8
:1057180004211846FCF7DAFD294B93F84430002B96
:1057280023D1274B012283F84420254B9B6C012B66
:105738001BD1234B93F84C30002B16D0204B1B6DFC
:105748001846FDF74DF91E4B1B6D00211846FBF757
:10575800C2FC1B4B1B6D02211846FBF7EBFE184BD6
:105768001B6D02211846FBF74DFF154B93F834309B
:10577800002B23D1124B012283F83420104B9B6B52
:10578800012B1BD10E4B93F83C30002B16D00C4B41
:105798001B6C1846FDF724F9094B1B6C00211846B1
:1057A800FBF799FC064B1B6C02211846FBF77EFDA4
:1057B800034B1B6C02211846FBF718FE00BF80BD87
:1057C8007015002080B489B000AFF860B9607A60C5
:1057D800FB68BB610023FB61BB689B087B611B4BBB
:1057E8001B68B3F5C87F2AD00023FB6122E0174B62
:1057F8001B6817497A6841F82320FB699B00BA693E
:105808001A44124B1B681268114903F5C87341F812
:1058180023200E4B1B680F4A12680D4903F5487385
:1058280041F82320094B1B680133084A1360FB69C0
:105838000133FB61FA697B699A42D8D300E000BF63
:105848002437BD465DF8047B704700BF8C1F0020DD
:10585800941F0020901F002080B584B000AF7860AE
:1058680072B600BF00F060FC0346FB6007F10C0352
:105878007A6804211846FFF7A5FF62B600BF00BF8B
:105888001037BD4680BD000080B500AF124B1B78B5
:105898005A1CD1B2104A1170002B09D00F4B0122AB
:1058A8001A600D4B1B78013BDAB20B4B1A7011E0F2
:1058B80062B600BF02200BF031F8FDF735FC02207C
:1058C8000BF037F872B600BF034B1B78013BDAB216
:1058D800014B1A7080BD00BF58320020543200209E
:1058E80080B584B000AF78603960374BFB60374BC8
:1058F800BB60374B00221A70364B00221A7001DF4A
:1059080006F026FB00F0E0FE00F02EFF00F08EFF10
:1059180001F054FF01F072FB02F09EF901F0BEFFA6
:1059280002F04AFA01F00EFD02F00EFD02F066FCEC
:10593800294B1B6800221A6001200AF0EFFFFFF7CD
:10594800CDFD01200AF0F5FF72B600BF97ED030AFE
:1059580000F08AFC204B1B681B68002B0CBF01233E
:105968000023DBB21A461B4B1A7062B600BF62B640
:1059780000BF15E0184B1B681B68002B14BF0123E0
:105988000023DBB21A46124B1A70114B1B78DBB29C
:10599800002B05D0114B1B68104A23F0010313603C
:1059A8000C4B1B78DBB2002BE4D103200AF0B6FFC6
:1059B800FFF79AFE03200AF0BCFF72B600BF00236F
:1059C80018461037BD4680BDCDCCCC3D0000A04266
:1059D800593200205A320020640F010810E000E01C
:1059E80080B485B000AF0346FB80B7F90630002BC2
:1059F80002DBFB88FB8101E0FB88FB81B7F90E30F5
:105A080018461437BD465DF8047B704780B588B0EA
:105A180004AF03460A46FB711346BB71FB799BB280
:105A28005B009BB2013399B2BB799AB24FF0FF3356
:105A380002930223019307F10C0300930123074803
:105A480006F078FE3B7B1B021AB27B7B1BB213432A
:105A58001BB29BB218461037BD4680BD8432002069
:105A680080B500AF3B216920FFF7D0FF03461846F9
:105A7800FFF7B6FF03461A4613469B0013445B0024
:105A880007EE903AB8EEE77ADFED3B6AC7EE267A82
:105A98003A4BC3ED007A3D216920FFF7B7FF034673
:105AA8001846FFF79DFF03461A4613469B0013440A
:105AB8005B0007EE903AB8EEE77ADFED2F6AC7EEA3
:105AC800267A2E4BC3ED017A3F216920FFF79EFF0E
