:020000040800F2
:100000000080012045040108A78B0008AD8B000883
:10001000B38B0008B98B0008BF8B000800000000FC
:10002000000000000000000000000000ED5E00087D
:10003000C58B000800000000A95E0008D95D00081B
:100040009504010895040108950401089504010828
:100050009504010895040108950401089504010818
:10006000950401089504010895040108D38B000844
:100070002920000895040108950401089504010849
:10008000E18B0008EF8B0008FD8B00089504010848
:1000900095040108950401089504010895040108D8
:1000A000950401080D8C00089504010895040108C9
:1000B00095040108950401089504010895040108B8
:1000C00095040108950401089504010895040108A8
:1000D0009504010895040108950401089504010898
:1000E0009504010895040108950401089504010888
:1000F0009504010895040108950401089504010878
:100100009504010895040108950401089504010867
:100110009504010895040108950401089504010857
:100120009504010895040108950401089504010847
:100130009504010895040108950401089504010837
:10014000950401089504010895040108218C000814
:100150009504010895040108950401089504010817
:100160009504010895040108950401089504010807
:100170009504010895040108950401080000000099
:08018000950401089504010833
:1001880081F0004102E000BF83F0004330B54FEA40
:1001980041044FEA430594EA050F08BF90EA020FAD
:1001A8001FBF54EA000C55EA020C7FEA645C7FEA40
:1001B800655C00F0E2804FEA5454D4EB5555B8BF63
:1001C8006D420CDD2C4480EA020281EA030382EAD4
:1001D800000083EA010180EA020281EA0303362D66
:1001E80088BF30BD11F0004F4FEA01314FF4801C39
:1001F8004CEA113102D0404261EB410113F0004F4B
:100208004FEA03334CEA133302D0524263EB430301
:1002180094EA050F00F0A780A4F10104D5F1200E9F
:100228000DDB02FA0EFC22FA05F2801841F10001FA
:1002380003FA0EF2801843FA05F359410EE0A5F1CE
:1002480020050EF1200E012A03FA0EFC28BF4CF0FF
:10025800020C43FA05F3C01851EBE37101F00045B5
:1002680007D54FF0000EDCF1000C7EEB00006EEBC2
:100278000101B1F5801F1BD3B1F5001F0CD349084C
:100288005FEA30004FEA3C0C04F101044FEA4452A3
:1002980012F5800F80F09A80BCF1004F08BF5FEA2A
:1002A800500C50F1000041EB045141EA050130BD0A
:1002B8005FEA4C0C404141EB0101013C28BFB1F51C
:1002C800801FE9D291F0000F04BF01460020B1FA67
:1002D80081F308BF2033A3F10B03B3F120020CDA3A
:1002E8000C3208DD02F1140CC2F10C0201FA0CF018
:1002F80021FA02F10CE002F11402D8BFC2F1200C7D
:1003080001FA02F120FA0CFCDCBF41EA0C01904032
:10031800E41AA2BF01EB0451294330BD6FEA04047B
:100328001F3C1CDA0C340EDC04F11404C4F1200266
:1003380020FA04F001FA02F340EA030021FA04F378
:1003480045EA030130BDC4F10C04C4F1200220FACF
:1003580002F001FA04F340EA0300294630BD21FA0D
:1003680004F0294630BD94F0000F83F4801306BFD3
:1003780081F480110134013D4EE77FEA645C18BFC7
:100388007FEA655C29D094EA050F08BF90EA020F5E
:1003980005D054EA000C04BF1946104630BD91EA56
:1003A800030F1EBF0021002030BD5FEA545C05D159
:1003B8004000494128BF41F0004130BD14F5800498
:1003C8003CBF01F5801130BD01F0004545F0FE410C
:1003D80041F470014FF0000030BD7FEA645C1ABF41
:1003E800194610467FEA655C1CBF0B46024650EA78
:1003F800013406BF52EA033591EA030F41F40021A4
:1004080030BD00BF90F0000F04BF0021704730B529
:100418004FF4806404F132044FF000054FF00001FE
:1004280050E700BF90F0000F04BF0021704730B5BF
:100438004FF4806404F1320410F0004548BF404294
:100448004FF000013EE700BF42004FEAE2014FEAE9
:1004580031014FEA02701FBF12F07F4393F07F4FC4
:1004680081F06051704732F07F4208BF704793F0C7
:100478007F4F04BF41F40021704730B54FF46074DA
:1004880001F0004521F000411CE700BF50EA0102DD
:1004980008BF704730B54FF000050AE050EA010286
:1004A80008BF704730B511F0004502D5404261EBF6
:1004B80041014FF4806404F132045FEA915C3FF437
:1004C800D8AE4FF003025FEADC0C18BF03325FEAD4
:1004D800DC0C18BF033202EBDC02C2F1200300FA85
:1004E80003FC20FA02F001FA03FE40EA0E0021FAAA
:1004F80002F11444BDE600BF70B54FF0FF0C4CF498
:10050800E06C1CEA11541DBF1CEA135594EA0C0F49
:1005180095EA0C0F00F0DEF82C4481EA030621EA84
:100528004C5123EA4C5350EA013518BF52EA0335BF
:1005380041F4801143F4801338D0A0FB02CE4FF071
:100548000005E1FB02E506F00042E0FB03E54FF0A1
:100558000006E1FB03569CF0000F18BF4EF0010E99
:10056800A4F1FF04B6F5007F64F5407404D25FEA95
:100578004E0E6D4146EB060642EAC62141EA555148
:100588004FEAC52040EA5E504FEACE2EB4F1FD0C8A
:1005980088BFBCF5E06F1ED8BEF1004F08BF5FEA08
:1005A800500E50F1000041EB045170BD06F00046BA
:1005B80046EA010140EA020081EA0301B4EB5C0467
:1005C800C2BFD4EB0C0541EA045170BD41F480115F
:1005D8004FF0000E013C00F3AB8014F1360FDEBF84
:1005E800002001F0004170BDC4F10004203C35DA60
:1005F8000C341BDC04F11404C4F1200500FA05F3E3
:1006080020FA04F001FA05F240EA020001F0004283
:1006180021F0004110EBD37021FA04F642EB0601F9
:100628005EEA430E08BF20EAD37070BDC4F10C0423
:10063800C4F1200500FA04F320FA05F001FA04F2E7
:1006480040EA020001F0004110EBD37041F10001D3
:100658005EEA430E08BF20EAD37070BDC4F12005DE
:1006680000FA05F24EEA020E20FA04F301FA05F246
:1006780043EA020321FA04F001F0004121FA04F2EE
:1006880020EA020000EBD3705EEA430E08BF20EABE
:10069800D37070BD94F0000F0FD101F000464000F8
:1006A80041EB010111F4801F08BF013CF7D041EA7A
:1006B800060195F0000F18BF704703F0004652007E
:1006C80043EB030313F4801F08BF013DF7D043EA4F
:1006D8000603704794EA0C0F0CEA135518BF95EA05
:1006E8000C0F0CD050EA410618BF52EA4306D1D18C
:1006F80081EA030101F000414FF0000070BD50EAAB
:10070800410606BF1046194652EA430619D094EA34
:100718000C0F02D150EA013613D195EA0C0F05D11E
:1007280052EA03361CBF104619460AD181EA030172
:1007380001F0004141F0FE4141F470014FF000002A
:1007480070BD41F0FE4141F4780170BD70B54FF0C5
:10075800FF0C4CF4E06C1CEA11541DBF1CEA135545
:1007680094EA0C0F95EA0C0F00F0A7F8A4EB050427
:1007780081EA030E52EA03354FEA013100F088801E
:100788004FEA03334FF0805545EA131343EA1263E7
:100798004FEA022245EA111545EA10654FEA00269C
:1007A8000EF000419D4208BF964244F1FD0404F555
:1007B800407402D25B084FEA3202B61A65EB0305B1
:1007C8005B084FEA32024FF480104FF4002CB6EB6E
:1007D800020E75EB030E22BFB61A754640EA0C00EE
:1007E8005B084FEA3202B6EB020E75EB030E22BF2E
:1007F800B61A754640EA5C005B084FEA3202B6EB6F
:10080800020E75EB030E22BFB61A754640EA9C002D
:100818005B084FEA3202B6EB020E75EB030E22BFFD
:10082800B61A754640EADC0055EA060E18D04FEABB
:10083800051545EA16754FEA06164FEAC30343EA5B
:1008480052734FEAC2025FEA1C1CC0D111F4801F28
:100858000BD141EA00014FF000004FF0004CB6E721
:1008680011F4801F04BF01430020B4F1FD0C88BFC0
:10087800BCF5E06F3FF6AFAEB5EB030C04BFB6EBCB
:10088800020C5FEA500C50F1000041EB045170BDBE
:100898000EF0004E4EEA113114EB5C04C2BFD4EBEB
:1008A8000C0541EA045170BD41F480114FF0000E6F
:1008B800013C90E645EA060E8DE60CEA135594EAEB
:1008C8000C0F08BF95EA0C0F3FF43BAF94EA0C0FEE
:1008D8000AD150EA01347FF434AF95EA0C0F7FF463
:1008E80025AF104619462CE795EA0C0F06D152EAB7
:1008F80003353FF4FDAE1046194622E750EA41069B
:1009080018BF52EA43067FF4C5AE50EA41047FF4AB
:100918000DAF52EA43057FF4EBAE12E74FF0FF3C10
:1009280006E000BF4FF0010C02E000BF4FF0010CE1
:100938004DF804CD4FEA410C7FEA6C5C4FEA430C5A
:1009480018BF7FEA6C5C1BD001B050EA410C0CBFA9
:1009580052EA430C91EA030F02BF90EA020F00200B
:10096800704710F1000F91EA030F58BF994208BF72
:1009780090422CBFD8176FEAE37040F0010070472F
:100988004FEA410C7FEA6C5C02D150EA013C07D186
:100998004FEA430C7FEA6C5CD6D152EA033CD3D0D1
:1009A8005DF8040B704700BF8446104662468C46CB
:1009B8001946634600E000BF01B5FFF7B7FF0028FE
:1009C80048BF10F1000F01BD4DF808EDFFF7F4FF27
:1009D8000CBF012000205DF808FB00BF4DF808EDB2
:1009E800FFF7EAFF34BF012000205DF808FB00BFD5
:1009F8004DF808EDFFF7E0FF94BF012000205DF8F7
:100A080008FB00BF4DF808EDFFF7CEFF94BF0120AB
:100A180000205DF808FB00BF4DF808EDFFF7C4FFA4
:100A280034BF012000205DF808FB00BF4FEA410CED
:100A38007FEA6C5C02D150EA013C0AD14FEA430CD0
:100A48007FEA6C5C02D152EA033C02D14FF000000D
:100A580070474FF0010070474A0011D212F500129A
:100A680011D20DD56FF47873B3EB62520ED44FEAFE
:100A7800C12343F0004343EA505323FA02F070477E
:100A88004FF00000704750EA013002D14FF0FF30BC
:100A980070474FF0000070474FEA4102B2F1E0435F
:100AA80024BFB3F5001CDCF1FE5C0DD901F0004C4D
:100AB8004FEAC0024CEA5070B2F1004F40EB83009D
:100AC80008BF20F00100704711F0804F21D113F1C9
:100AD8003872BCBF01F00040704741F480114FEA02
:100AE8005252C2F11802C2F1200C10FA0CF320FA8B
:100AF80002F018BF40F001004FEAC1234FEAD323A8
:100B080003FA0CFC40EA0C0023FA02F34FEA430311
:100B1800CCE77FEA625307D150EA01331EBF4FF09A
:100B2800FE4040F44000704701F0004040F0FE40B5
:100B380040F40000704700BF0348044B834202D0D2
:100B4800034B03B118477047A8020020A8020020F1
:100B5800000000000548064B1B1AD90F01EBA30142
:100B6800491002D0034B03B118477047A802002070
:100B7800A80200200000000010B5064C237843B9F5
:100B8800FFF7DAFF044B13B10448AFF300800123E9
:100B9800237010BDA802002000000000740A01089C
:100BA80008B5054B1BB105490548AFF30080BDE802
:100BB8000840FFF7CFBF00BF00000000AC020020D4
:100BC800740A010880B485B000AF78607B681B6840
:100BD80003F06003FB60FB68002B04D17B681B6893
:100BE80003F01003FB60FB6818461437BD465DF838
:100BF800047B704780B483B000AF78607B681B6B60
:100C080018460C37BD465DF8047B704780B483B046
:100C180000AF786039607B681A6A3B681A437B6862
:100C28001A6200BF0C37BD465DF8047B704780B47C
:100C380083B000AF786039607B681A6A3B68DB4331
:100C48001A407B681A6200BF0C37BD465DF8047B0A
:100C5800704780B483B000AF78607B685B6C43F406
:100C680000427B685A6400BF0C37BD465DF8047BC0
:100C7800704780B483B000AF78607B68DB6843F06E
:100C880001027B68DA6000BF0C37BD465DF8047B63
:100C9800704780B483B000AF78607B68DB6823F06E
:100CA80001027B68DA6000BF0C37BD465DF8047B43
:100CB800704780B483B000AF78607B68DB6803F06E
:100CC8000103012B01D1012300E0002318460C3752
:100CD800BD465DF8047B704780B483B000AF786090
:100CE8007B68DB6843F002027B68DA6000BF0C3780
:100CF800BD465DF8047B704780B483B000AF786070
:100D08007B68DB6823F002027B68DA6000BF0C377F
:100D1800BD465DF8047B704780B483B000AF78604F
:100D28007B68DB6803F00203022B01D1012300E09A
:100D3800002318460C37BD465DF8047B704780B425
:100D480083B000AF78607B68DB6843F004027B689F
:100D5800DA6000BF0C37BD465DF8047B704780B48D
:100D680083B000AF78607B68DB6823F004027B689F
:100D7800DA6000BF0C37BD465DF8047B704780B46D
:100D880083B000AF78607B68DB6803F00403042B52
:100D980001D1012300E0002318460C37BD465DF859
:100DA800047B704780B483B000AF78607B68DB68F1
:100DB80043F008027B68DA6000BF0C37BD465DF877
:100DC800047B704780B483B000AF78607B68DB68D1
:100DD80023F008027B68DA6000BF0C37BD465DF877
:100DE800047B704780B483B000AF78607B68DB68B1
:100DF80003F00803082B01D1012300E00023184663
:100E08000C37BD465DF8047B704780B483B000AFF3
:100E180078607B68DB6843F010027B68DA6000BFAB
:100E28000C37BD465DF8047B704780B483B000AFD3
:100E380078607B68DB6823F010027B68DA6000BFAB
:100E48000C37BD465DF8047B704780B483B000AFB3
:100E580078607B68DB6803F01003102B01D1012355
:100E680000E0002318460C37BD465DF8047B704748
:100E780080B483B000AF78607B68DB6843F0200201
:100E88007B68DA6000BF0C37BD465DF8047B7047AD
:100E980080B483B000AF78607B68DB6823F0200201
:100EA8007B68DA6000BF0C37BD465DF8047B70478D
:100EB80080B483B000AF78607B68DB6803F0200300
:100EC800202B01D1012300E0002318460C37BD4632
:100ED8005DF8047B704780B483B000AF78607B68AE
:100EE800DB6843F040027B68DA6000BF0C37BD4620
:100EF8005DF8047B704780B483B000AF78607B688E
:100F0800DB6823F040027B68DA6000BF0C37BD461F
:100F18005DF8047B704780B483B000AF78607B686D
:100F2800DB6803F04003402B01D1012300E00023DC
:100F380018460C37BD465DF8047B704780B483B013
:100F480000AF78607B68DB6843F080027B68DA601A
:100F580000BF0C37BD465DF8047B704780B483B092
:100F680000AF78607B68DB6823F080027B68DA601A
:100F780000BF0C37BD465DF8047B704780B483B072
:100F880000AF78607B68DB6803F08003802B01D1B9
:100F9800012300E0002318460C37BD465DF8047BAA
:100FA800704780B582B000AF78600B467B807B8845
:100FB80003F00103002B0CD07B681B681846FFF771
:100FC800AAFF0346012B04D07B681B681846FFF76D
:100FD80082FF7B8803F00203002B0CD07B681B6820
:100FE8001846FFF799FE0346012B04D07B681B685F
:100FF8001846FFF771FE7B8803F00403002B0CD022
:101008007B681B681846FFF7BAFE0346012B04D01D
:101018007B681B681846FFF792FE7B8803F008037D
:10102800002B0CD07B681B681846FFF7DBFE0346D5
:10103800012B04D07B681B681846FFF7B3FE7B883A
:1010480003F01003002B0CD07B681B681846FFF7D1
:10105800FCFE0346012B04D07B681B681846FFF78B
:10106800D4FE7B8803F02003002B0CD07B681B6820
:101078001846FFF71EFE0346012B04D07B681B6849
:101088001846FFF7F6FD7B8803F04003002B0CD0D1
:101098007B681B681846FFF771FF0346012B04D0D5
:1010A8007B681B681846FFF749FF7B8803F08003BD
:1010B800002B0CD07B681B681846FFF7F9FE034627
:1010C800012B04D07B681B681846FFF7D1FE00BFD0
:1010D8000837BD4680BD80B582B000AF78600B464A
:1010E8007B807B8803F00103002B0CD07B681B6896
:1010F8001846FFF710FF0346012B04D17B681B68D5
:101108001846FFF7F8FE7B8803F00203002B0CD08B
:101118007B681B681846FFF7FFFD0346012B04D1C7
:101128007B681B681846FFF7E7FD7B8803F004031C
:10113800002B0CD07B681B681846FFF720FE03467F
:10114800012B04D17B681B681846FFF708FE7B88D3
:1011580003F00803002B0CD07B681B681846FFF7C8
:1011680041FE0346012B04D17B681B681846FFF734
:1011780029FE7B8803F01003002B0CD07B681B68CA
:101188001846FFF762FE0346012B04D17B681B68F3
:101198001846FFF74AFE7B8803F02003002B0CD08B
:1011A8007B681B681846FFF784FD0346012B04D0B3
:1011B8007B681B681846FFF76CFD7B8803F04003CB
:1011C800002B0CD07B681B681846FFF7D7FE034638
:1011D800012B04D17B681B681846FFF7BFFE7B888C
:1011E80003F08003002B0CD07B681B681846FFF7C0
:1011F8005FFE0346012B04D17B681B681846FFF786
:1012080047FE00BF0837BD4680BD000080B582B0EC
:1012180000AF78600B46FB70FB78022B06D17B6829
:101228001B6801211846FFF7F1FC31E07B681B6859
:10123800194A934213D07B681B68184A93420ED010
:101248007B681B68164A934209D07B681B68154A5D
:10125800934204D07B681B68134A934218D1FB78E9
:10126800032B06D17B681B6804211846FFF7CEFCC8
:101278000EE0FB78042B0BD17B681B680121184614
:10128800FFF7C4FC7B681B6804211846FFF7BEFC07
:1012980000BF0837BD4680BD002C01400034014026
:1012A80000400140004401400048014080B582B040
:1012B80000AF78600B46FB70FB78022B06D17B6889
:1012C8001B6801211846FFF7B2FC31E07B681B68F8
:1012D800194A934213D07B681B68184A93420ED070
:1012E8007B681B68164A934209D07B681B68154ABD
:1012F800934204D07B681B68134A934218D1FB7849
:10130800032B06D17B681B6804211846FFF78FFC66
:101318000EE0FB78042B0BD17B681B680121184673
:10132800FFF785FC7B681B6804211846FFF77FFCE4
:1013380000BF0837BD4680BD002C01400034014085
:1013480000400140004401400048014080B582B09F
:1013580000AF78600B46FB70FB78022B06D17B68E8
:101368001B6810211846FFF751FC31E07B681B68A9
:10137800194A934213D07B681B68184A93420ED0CF
:101388007B681B68164A934209D07B681B68154A1C
:10139800934204D07B681B68134A934218D1FB78A8
:1013A800032B06D17B681B6840211846FFF72EFCEB
:1013B8000EE0FB78042B0BD17B681B6810211846C4
:1013C800FFF724FC7B681B6840211846FFF71EFCCA
:1013D80000BF0837BD4680BD002C014000340140E5
:1013E80000400140004401400048014080B582B0FF
:1013F80000AF78600B46FB70FB78022B06D17B6848
:101408001B6810211846FFF712FC31E07B681B6847
:10141800194A934213D07B681B68184A93420ED02E
:101428007B681B68164A934209D07B681B68154A7B
:10143800934204D07B681B68134A934218D1FB7807
:10144800032B06D17B681B6840211846FFF7EFFB8A
:101458000EE0FB78042B0BD17B681B681021184623
:10146800FFF7E5FB7B681B6840211846FFF7DFFBA9
:1014780000BF0837BD4680BD002C01400034014044
:1014880000400140004401400048014080B582B05E
:1014980000AF78600B46FB70FB78022B07D17B68A6
:1014A8001B684FF480711846FFF7B0FB34E07B6887
:1014B8001B681B4A934213D07B681B68194A9342E6
:1014C8000ED07B681B68184A934209D07B681B685A
:1014D800164A934204D07B681B68154A93421BD175
:1014E800FB78032B07D17B681B684FF48061184693
:1014F800FFF78CFB10E0FB78042B0DD17B681B6891
:101508004FF480711846FFF781FB7B681B684FF426
:1015180080611846FFF77AFB00BF0837BD4680BDDB
:10152800002C0140003401400040014000440140CB
:101538000048014080B582B000AF78600B46FB7070
:10154800FB78022B07D17B681B684FF48071184623
:10155800FFF76DFB34E07B681B681B4A934213D08E
:101568007B681B68194A93420ED07B681B68184A2F
:10157800934209D07B681B68164A934204D07B6863
:101588001B68154A93421BD1FB78032B07D17B6854
:101598001B684FF480611846FFF749FB10E0FB78A1
:1015A800042B0DD17B681B684FF480711846FFF738
:1015B8003EFB7B681B684FF480611846FFF737FBDA
:1015C80000BF0837BD4680BD002C014000340140F3
:1015D80000400140004401400048014080B582B00D
:1015E80000AF78600B46FB70FB78022B06D17B6856
:1015F8001B684FF480511846FFF708FB00BF0837F7
:10160800BD4680BD80B582B000AF78600B46FB70E8
:10161800FB78022B06D17B681B684FF48051184673
:10162800FFF705FB00BF0837BD4680BD80B584B015
:1016380000AF78600023FB607B681B68304A9342E8
:1016480001D1304BFB607B681A68FB681A60FB6845
:101658001B681846FFF7B6FAB860BB68002B06D0BF
:10166800BB68102B03D0FB6801221A7102E0FB68EB
:1016780000221A71FB681B68234A934213D0FB6847
:101688001B68224A93420ED0FB681B68204A93428B
:1016980009D0FB681B681F4A934204D0FB681B688B
:1016A8001D4A934204D1FB681B681846FFF7D1FA1C
:1016B800FB681B68144A934213D0FB681B68134AE3
:1016C80093420ED0FB681B68114A934209D0FB680D
:1016D8001B68104A934204D0FB681B680E4A934269
:1016E80008D17B681B681846FFF784FA0346DAB20C
:1016F800FB685A71FB6818461037BD4680BD00BFAD
:1017080000040040C4020020002C014000340140C5
:1017180000400140004401400048014080B485B0C9
:1017280000AF786039603B68002B03D17B68403399
:10173800FB6001E0044BFB60FB6818461437BD46AC
:101748005DF8047B704700BF0C03045080B483B07D
:1017580000AF78607B68DB6803F44063002B01D13D
:10176800012300E0002318460C37BD465DF8047BD2
:10177800704780B483B000AF786039607B681B6BBA
:1017880023F00F023B681A437B681A6300BF0C37CB
:10179800BD465DF8047B704780B483B000AF7860C5
:1017A80039607B68DB6823F003023B681A437B6877
:1017B800DA6000BF0C37BD465DF8047B704780B423
:1017C80083B000AF78607B68DB6C03F0C003002B4C
:1017D80001D1012300E0002318460C37BD465DF80F
:1017E800047B704780B483B000AF78607B689B68E7
:1017F80023F0004323F03F0343F001027B689A6023
:1018080000BF0C37BD465DF8047B704780B483B0D9
:1018180000AF78607B689B6823F0004323F03F03A8
:1018280043F002027B689A6000BF0C37BD465DF842
:10183800047B704780B483B000AF78607B689B6896
:1018480003F00103012B01D1012300E00023184616
:101858000C37BD465DF8047B704780B483B000AF99
:10186800786039607B689B6823F0404323F03F032E
:101878003A6802F08042134343F000427B689A6062
:1018880000BF0C37BD465DF8047B704780B483B059
:1018980000AF78607B689B6803F00043B3F1004FAA
:1018A80001D1012300E0002318460C37BD465DF83E
:1018B800047B704780B483B000AF78607B689B6816
:1018C80023F0004323F03F0343F004027B689A604F
:1018D80000BF0C37BD465DF8047B704780B483B009
:1018E80000AF78607B689B6823F0004323F03F03D8
:1018F80043F008027B689A6000BF0C37BD465DF86C
:10190800047B704780B483B000AF78607B681B6845
:1019180003F00803082B01D1012300E00023184637
:101928000C37BD465DF8047B704780B483B000AFC8
:1019380078607B681B6803F01003102B01D101232A
:1019480000E0002318460C37BD465DF8047B70475D
:1019580080B483B000AF78607B6810221A6000BF43
:101968000C37BD465DF8047B704780B483B000AF88
:1019780078607B685B6843F008027B685A6000BF48
:101988000C37BD465DF8047B704780B483B000AF68
:1019980078607B685B6843F040027B685A6000BFF0
:1019A8000C37BD465DF8047B704780B483B000AF48
:1019B80078607B685B6823F008027B685A6000BF28
:1019C8000C37BD465DF8047B704780B483B000AF28
:1019D80078607B685B6823F010027B685A6000BF00
:1019E8000C37BD465DF8047B704780B483B000AF08
:1019F80078607B685B6823F040027B685A6000BFB0
:101A08000C37BD465DF8047B704780B483B000AFE7
:101A180078607B685B6823F080027B685A6000BF4F
:101A28000C37BD465DF8047B704780B483B000AFC7
:101A380078607B685B6803F01003102B01D10123E9
:101A480000E0002318460C37BD465DF8047B70475C
:101A580080B483B000AF78607B685B6803F0800374
:101A6800802B01D1012300E0002318460C37BD4626
:101A78005DF8047B7047000080B485B000AF7860E3
:101A880039607B68FB600C4A3B6813441B781A4634
:101A9800FB6813441B6808493A680A4412781146DF
:101AA800FA680A4443F00103136000BF1437BD46C7
:101AB8005DF8047B704700BFE40A010880B485B074
:101AC80000AF786039607B68FB600C4A3B68134460
:101AD8001B781A46FB6813441B6808493A680A448D
:101AE80012781146FA680A4423F00103136000BF14
:101AF8001437BD465DF8047B704700BFE40A01084F
:101B080080B485B000AF786039607B68FB60084AB4
:101B18003B6813441B781A46FB6813441B6803F0A0
:101B2800200318461437BD465DF8047B704700BF94
:101B3800E40A010880B487B000AFF860B9607A6041
:101B4800FB687B610D4ABB6813441B781A467B69A6
:101B580013445B681B0C1B040849BA680A441278D2
:101B680011467A690A4411467A6813434B6000BFEC
:101B78001C37BD465DF8047B704700BFE40A0108C6
:101B880080B487B000AFF860B9607A603B60FB68EA
:101B98007B613B6A102B14D1174ABB6813441B782E
:101BA8001A467B6913441A467B68D360124ABB689D
:101BB80013441B781A467B6913441A463B689360A2
:101BC80013E00D4ABB6813441B781A467B6913441B
:101BD8001A467B689360084ABB6813441B781A4608
:101BE8007B6913441A463B68D36000BF1C37BD4667
:101BF8005DF8047B704700BFE40A010880B487B031
:101C080000AFF860B9607A60FB687B61074ABB681F
:101C180013441B781A467B6913441A467B68936001
:101C280000BF1C37BD465DF8047B7047E40A010815
:101C380080B483B000AF78607B681B6803F0200332
:101C4800202B01D1012300E0002318460C37BD46A4
:101C58005DF8047B704780B483B000AF78607B6820
:101C680020225A6000BF0C37BD465DF8047B7047E0
:101C780080B485B000AF786039607B68FB600C4A3F
:101C88003B6813441B781A46FB6813441B680849D1
:101C98003A680A4412781146FA680A4443F0020383
:101CA800136000BF1437BD465DF8047B704700BF62
:101CB800E40A010880B485B000AF786039607B68B9
:101CC800FB600C4A3B6813441B781A46FB681344B4
:101CD8001B6808493A680A4412781146FA680A44A7
:101CE80043F00803136000BF1437BD465DF8047B5A
:101CF800704700BFE40A010880B485B000AF78607F
:101D080039607B68FB600C4A3B6813441B781A46B1
:101D1800FB6813441B6808493A680A44127811465C
:101D2800FA680A4423F00203136000BF1437BD4663
:101D38005DF8047B704700BFE40A010880B485B0F1
:101D480000AF786039607B68FB600C4A3B681344DD
:101D58001B781A46FB6813441B6808493A680A440A
:101D680012781146FA680A4423F00403136000BF8E
:101D78001437BD465DF8047B704700BFE40A0108CC
:101D880080B485B000AF786039607B68FB600C4A2E
:101D98003B6813441B781A46FB6813441B680849C0
:101DA8003A680A4412781146FA680A4423F008038C
:101DB800136000BF1437BD465DF8047B704700BF51
:101DC800E40A010880B485B000AF786039607B68A8
:101DD800FB600A4A3B6813441B781A46FB681344A5
:101DE8001B6803F00203022B01D1012300E000234A
:101DF80018461437BD465DF8047B7047E40A0108AD
:101E080080B584B000AF78600123FB817B681B69D3
:101E18001846FFF79BFC0346002B2FD07B685B7AA4
:101E2800DBB2022B11D07B685B7ADBB2042B0CD0BF
:101E38007B685B7ADBB2082B07D07B681B69184686
:101E4800FFF760FD0346012B18D1786800F0F8F819
:101E58000346002B12D17B685B7ADBB2082B03D1D7
:101E68007B6801225A7202E07B6820225A727B68E2
:101E78001B691846FFF71EFD0023FB81FB891846E6
:101E88001037BD4680BD80B586B002AFF860B96036
:101E98007A603B600021F868FFF740FC03461A4669
:101EA8007968B868FFF7AAFE0021F868FFF736FCE2
:101EB80002463B68002100917968B868FFF760FE28
:101EC800BA697968B868FFF735FE7968B868FFF7C6
:101ED800CFFE7968B868FFF7EDFE7968B868FFF754
:101EE800CBFD00BF1037BD4680BD80B584B000AFC4
:101EF800F860B9607A607968B868FFF7DFFD7968DB
:101F0800B868FFF71BFF7968B868FFF739FF796889
:101F1800B868FFF7F1FE00227968B868FFF70AFE93
:101F280000BF1037BD4680BD80B584B000AF786073
:101F380039600223FB737B68DB79012B0FD17B6847
:101F4800DA687B681B685B00D118FB7B7A681268CB
:101F580002FB03F31A4638680EF07AFD0AE07B6844
:101F6800D968FB7B7A68126802FB03F31A46386863
:101F78000EF06EFD00BF1037BD4680BD80B586B03F
:101F880000AFF860B9607A60FB685A69FB689B79B2
:101F980019461046FFF716FF0346DBB2012B37D16F
:101FA800FB685A69BB68104698470346012B2FD136
:101FB800FB6804225A72FB685A697B681046984786
:101FC800FB685A69FB689B7919461046FFF798FD2C
:101FD8000346002B19D1FB685A69FB689B7919469F
:101FE8001046FFF76BFDFB685869FB689B7919463B
:101FF800FB681B681A46FFF79DFDFB685A69FB687A
:102008009B7919461046FFF737FD0123FB7501E060
:102018000023FB75FB7D18461837BD4680BD0000C0
:1020280080B500AF034A04490448FFF7A7FF00BF83
:1020380080BD00BF5F1C0008391C00085003002049
:1020480080B582B000AF78607B681B691846FFF7DF
:102058006CFC0346DBB2012B07D17B681B69184671
:10206800FFF776FC7B6810225A727B685B7ADBB2DA
:10207800102B0CBF01230023DBB218460837BD46DE
:1020880080BD80B582B000AF78600B46FB70FB78EE
:10209800012B0DD17B681B691846FFF757FB0346D8
:1020A800012B12D07B681B691846FFF703FC0CE074
:1020B8007B681B691846FFF782FB0346012B04D097
:1020C8007B681B691846FFF709FC00BF0837BD4647
:1020D80080BD000090B589B002AFF860084611468F
:1020E8001A4603467B810B463B811346FB8000233F
:1020F8007B61FB681B693C4A934201D13B4B7B6186
:102108007B69002B6BD0FB681A697B691A617B6954
:102118000022DA71FB88012B61D03B89002B47D064
:102128007B695B7ADBB2082B42D0FB68DA687B6993
:10213800DA60FB681A687B691A60FB685A697B6910
:102148005A61FB689A797B699A71FB681A797B698D
:102158001A717B691B69B96A1846FFF70AFB7B8904
:10216800012B21D07B89042B16D17B691B690321A4
:102178001846FFF711FB7B6918697B6959697B6908
:102188009B791C467B69DA687B691B680093134658
:102198002246FFF778FE07E07B89022B04D17B6992
:1021A8001B691846FFF7E1FB7B6908225A7216E0A3
:1021B8003B89002B13D17B699B7ADBB2082B0ED0AD
:1021C800FB685A797B695A717B89022B04D17B6938
:1021D8001B691846FFF7D9FB7B6908229A727B694D
:1021E80018461C37BD4690BD00010450500300201E
:1021F80080B582B000AF78607B681B691846FFF72E
:1022080019FB0346002B04D17B681B691846FFF7AE
:10221800E9FA00BF0837BD4680BD80B586B000AF7B
:10222800F8600B467A607B810123FB82FB681B699F
:10223800002B46D07B89012B05D1F868FFF7E0FD1C
:102248000346FB823DE07B89042B1FD1FB681B6999
:102258001846FFF77BFA0346002B32D0FB680122B1
:102268005A72FB681B691846FFF724FB00BFFB681E
:102278005B7ADBB2042BFAD17968F868FFF754FE71
:10228800FB6808225A720023FB821AE07B89022B22
:1022980017D1FB685B7ADBB2202B09D0FB685B7A2D
:1022A800DBB2042B04D0FB685B7ADBB2102B08D1BD
:1022B800FB6808225A727968F868FFF735FE002330
:1022C800FB82FB8A18461837BD4680BD80B582B0B0
:1022D80000AF78600B467B8013463B807B681B69A8
:1022E8001846FFF7A7FA0346002B04D07B681B6942
:1022F8001846FFF78BFA7B681B691846FFF7A8FB9F
:102308000346002B04D07B681B691846FFF77DFB4A
:102318007B681B691846FFF788FB0346002B04D02F
:102328007B681B691846FFF750FB3B88002B35D0AC
:102338007B88012B1AD07B88022B05D17B681B690F
:102348001846FFF732FB11E07B88042B0ED17B681F
:1023580018697B6859697B689B791A46FFF7C5FD40
:102368007B681B6900211846FFF716FA7B68002274
:10237800DA607B6800221A607B6800225A617B68F9
:1023880000229A717B6800221A717B681A697B683F
:102398001B7919461046FFF7ECF90AE07B68002222
:1023A8005A717B88022B04D17B681B691846FFF79A
:1023B8001CFB00BF0837BD4680BD000080B584B057
:1023C80000AF78600B46FB707B681B691846FFF707
:1023D80031FA0346FB7397F90F30012B04D17B6860
:1023E8001B691846FFF712FAFB78002B0FD17B68A0
:1023F8001B697F211846FFF730FA00BF7B681B690D
:102408001846FFF743FA0346012BF7D040E0FB7864
:10241800012B0FD17B681B692C491846FFF71DFA61
:1024280000BF7B681B691846FFF730FA0346012B8B
:10243800F7D02DE07B681B697F211846FFF70DFA5E
:1024480000BF7B681B691846FFF720FA0346012B7B
:10245800F7D00023BB8107E000BFBB891BB29BB24A
:1024680001339BB21BB2BB81BB891BB29BB2032B4E
:10247800F2D97B681B6915491846FFF7EEF900BFCA
:102488007B681B691846FFF701FA0346012BF7D052
:102498000023BB8107E000BFBB891BB29BB201339D
:1024A8009BB21BB2BB81BB891BB29BB2032BF2D977
:1024B80097F90F30012B04D17B681B691846FFF789
:1024C80091F900BF1037BD4680BD00BF00007F40B6
:1024D80080B483B000AF78607B681B6843F001026A
:1024E8007B681A6000BF0C37BD465DF8047B7047F7
:1024F80080B483B000AF78607B681B6823F001026A
:102508007B681A6000BF0C37BD465DF8047B7047D6
:1025180080B483B000AF786039607B681B6823F0B3
:1025280004023B681A437B681A6000BF0C37BD463B
:102538005DF8047B704780B483B000AF78607B6837
:102548001B6803F0040318460C37BD465DF8047B8E
:10255800704780B483B000AF78607B68DB6A184648
:102568000C37BD465DF8047B704780B483B000AF7C
:10257800786039607B683A681A6300BF0C37BD46DB
:102588005DF8047B704780B483B000AF7860396031
:102598007B683A685A6300BF0C37BD465DF8047B18
:1025A800704780B483B000AF786039607B683A6860
:1025B8009A6300BF0C37BD465DF8047B704780B452
:1025C80083B000AF786039607B683A68DA6300BF2F
:1025D8000C37BD465DF8047B704780B483B000AF0C
:1025E800786039607B683A681A6400BF0C37BD466A
:1025F8005DF8047B704780B483B000AF78607B6877
:102608005B6B18460C37BD465DF8047B704780B499
:1026180083B000AF78607B689B6B18460C37BD466B
:102628005DF8047B704780B483B000AF78607B6846
:10263800DB6B18460C37BD465DF8047B704780B4E9
:1026480083B000AF78607B681B6C18460C37BD46BA
:102658005DF8047B704780B483B000AF78607B6816
:102668005B6943F001027B685A6100BF0C37BD46C5
:102678005DF8047B704780B483B000AF78607B68F6
:102688001B6918460C37BD465DF8047B704780B45B
:1026980083B000AF786039607B683A689A6100BFA0
:1026A8000C37BD465DF8047B704780B483B000AF3B
:1026B800786039607B683A689A6200BF0C37BD461B
:1026C8005DF8047B7047000080B584B000AF786087
:1026D80087ED000AD7ED007AF5EEC07AF1EE10FA30
:1026E80003D54FF000033B600AE0D7ED007A9FED79
:1026F800167AF4EEC77AF1EE10FA01DD134B3B605F
:102708007B681B681846FFF724FFF8607B681B7915
:10271800002B0CBF01230023DBB21A46FB681344CD
:1027280007EE903AB8EE677AD7ED007A27EE277A67
:10273800DFED056AC7EE267AFCEEE77A17EE903AE7
:1027480018461037BD4680BD0000C8420000C84288
:1027580080B582B000AF786039607B681B68184626
:10276800FFF749FF02463B68934205D07B681B6828
:1027780039681846FFF707FF00BF0837BD4680BD18
:1027880080B582B000AF786039607B681B681846F6
:10279800FFF73DFF02463B68934205D07B681B6804
:1027A80039681846FFF7FDFE00BF0837BD4680BDF3
:1027B80080B582B000AF786039607B681B681846C6
:1027C800FFF731FF02463B68934205D07B681B68E0
:1027D80039681846FFF7F3FE00BF0837BD4680BDCD
:1027E80080B582B000AF786039607B681B68184696
:1027F800FFF725FF02463B68934205D07B681B68BC
:1028080039681846FFF7E9FE00BF0837BD4680BDA6
:1028180080B584B000AF786087ED000A97ED000AB4
:102828007868FFF751FFF860F9687868FFF790FF5C
:1028380000BF1037BD4680BD80B584B000AF78605A
:1028480087ED000A97ED000A7868FFF73DFFF8600A
:10285800F9687868FFF794FF00BF1037BD4680BD60
:1028680080B584B000AF786087ED000A97ED000A64
:102878007868FFF729FFF860F9687868FFF798FF2C
:1028880000BF1037BD4680BD80B584B000AF78600A
:1028980087ED000A97ED000A7868FFF715FFF860E2
:1028A800F9687868FFF79CFF00BF1037BD4680BD08
:1028B80080B485B000AF78607B681B689A68074B66
:1028C8001340FB60FB68062B0CBF01230023DBB21F
:1028D80018461437BD465DF8047B704707000100B1
:1028E80080B584B000AF78600B46FB707B681B68CE
:1028F8001846FFF720FEF860FB78002B1ED07B6897
:102908001B68324A934213D07B681B68304A934253
:102918000ED07B681B682F4A934209D07B681B68DE
:102928002D4A934204D07B681B682C4A934205D1F8
:102938007B681B6800211846FFF717FEFB68042B0D
:1029480011D07B681B6804211846FFF7E1FD7B68FE
:102958001B681846FFF77FFE7B681B68F9681846F6
:10296800FFF7D6FD04E07B681B681846FFF773FE87
:102978007B681B681846FFF7ABFDFB78002B20D05F
:102988007B681B68114A934213D07B681B68104A06
:1029980093420ED07B681B680E4A934209D07B682D
:1029A8001B680D4A934204D07B681B680B4A93420C
:1029B80007D17B681A687B685B7919461046FFF770
:1029C800D4FD00BF1037BD4680BD00BF002C0140BC
:1029D80000340140004001400044014000480140EB
:1029E80080B582B000AF78607B681B681846FFF737
:1029F8007FFD00BF0837BD4680BD80B485B000AFFD
:102A0800786039607B68012283F8D8203B68D3E975
:102A180000237968C1E902237B6801221A60002338
:102A2800FB600CE07B68D3E902237868F96802311F
:102A3800C9000144C1E90023FB680133FB60FB685E
:102A4800182BEFDD00BF00BF1437BD465DF8047BCF
:102A5800704780B586B000AF87ED040BF860B960A9
:102A68007A60BB68D3E902017B68D3E90023FDF7EC
:102A7800ABFF0346002B05D17B68D3E90023B96877
:102A8800C1E90223F868BB681033C82219460DF063
:102A9800DFFFF968D7E90423C1E93223FB6803F1B2
:102AA800D000BB681033C02219460DF0D1FFBB68B7
:102AB80003F11000FB68C833C82219460DF0C8FF9F
:102AC80000BF1837BD4680BD80B485B000AF7860C0
:102AD80039607B68012283F860203B68D3E90023D2
:102AE8007968C1E902237B6801221A600023FB6030
:102AF8000CE07B68D3E902237868F9680231C900E1
:102B08000144C1E90023FB680133FB60FB68092B22
:102B1800EFDD00BF00BF1437BD465DF8047B70478A
:102B280080B586B000AF87ED040BF860B9607A60B5
:102B3800BB68D3E902017B68D3E90023FDF744FFB2
:102B48000346002B05D17B68D3E90023B968C1E9A6
:102B58000223F868BB681033502219460DF078FF3D
:102B6800F968D7E90423C1E91423FB6803F1580085
:102B7800BB681033482219460DF06AFFBB6803F1A1
:102B88001000FB685033502219460DF061FF00BF5A
:102B98001837BD4680BD000080B584B000AF87ED12
:102BA800000B38687B6823F000414FF000022C4B83
:102BB800FDF714FF0346002B42D04FF00002294BCB
:102BC800D7E90001FDF71EFF0346002B13D04FF095
:102BD8000002244BD7E90001FDF7D8FA02460B465C
:102BE80043EC172BB0EE470AF0EE670A0DF034FD00
:102BF80087ED020B28E04FF000021B4BD7E90001DC
:102C0800FDF70AFF0346002B06D04FF000024FF0F5
:102C18000003C7E9022317E04FF00002114BD7E980
:102C28000001FDF7B1FA02460B4643EC172BB0EE54
:102C3800470AF0EE670A0DF087FC87ED020B03E008
:102C4800D7E90023C7E90223D7E9022343EC172B6E
:102C5800B0EE470AF0EE670A1037BD4680BD00BFE8
:102C6800000030430000E03F0000E0BF000000002B
:102C7800B0B584B000AF7860B1494FF000024FF0B2
:102C88000003C1E90C237B681B78002B26D0AC49D4
:102C98004FF000024FF00003C1E90A23A8494FF0A2
:102CA80000024FF00003C1E90E23A64B002283F86F
:102CB8007C20A44A92F87830022161F3020382F85A
:102CC80078309F4B012283F8A8209D4B002283F87F
:102CD800AA209B4B012283F8A9201BE1984BD3E93A
:102CE8001A01984BD3E91823FDF78CFE0346002BF5
:102CF80038D0934BD3E91201924BD3E91A23FDF74D
:102D080081FE0346002B2DD08D4BD3E918018D4B46
:102D1800D3E91623FDF762FE0346002B22D088492B
:102D28004FF000024FF00003C1E90A2384494FF035
:102D380000024FF00003C1E90E23824A92F878306E
:102D4800032161F3020382F878307D4B012283F876
:102D5800A9207B4B012283F8AA20794B002283F813
:102D6800A820D7E0764BD3E91201764BD3E91A2392
:102D7800FDF748FE0346002B38D0714BD3E91A0102
:102D8800704BD3E91823FDF729FE0346002B2DD0FD
:102D98006B4BD3E918016B4BD3E91623FDF732FED1
:102DA8000346002B22D066494FF000024FF0000383
:102DB800C1E90A2362494FF000024FF00003C1E95C
:102DC8000E23604A92F87830042161F3020382F8F6
:102DD80078305B4B012283F8A820594B012283F8F5
:102DE800AA20574B002283F8A92093E0544BD3E93B
:102DF8001201544BD3E91A23FDF704FE0346002BB6
:102E080038D04F4BD3E91A014E4BD3E91823FDF7BD
:102E1800F9FD0346002B2DD0494BD3E91801494B46
:102E2800D3E91623FDF7EEFD0346002B22D04449D3
:102E38004FF000024FF00003C1E90A2340494FF068
:102E480000024FF00003C1E90E233E4A92F87830A1
:102E5800052161F3020382F87830394B012283F8A7
:102E6800A820374B012283F8AA20354B012283F88A
:102E7800A9204FE0334BD3E91C45314BD3E9160168
:102E88002F4BD3E91423FDF77FF902460B46204662
:102E98002946FDF779F902460B461046194620A344
:102EA800D3E90023FDF752FC02460B4610461946AB
:102EB8004FF00002244BFDF71FFB02460B46C7E903
:102EC800022319A3D3E90023D7E90201FDF714FB74
:102ED80002460B461046194615A3D3E90023FDF711
:102EE80055F902460B461649C1E90E230EA3D3E94C
:102EF8000023D7E90201FDF7FFFA02460B460EA1AF
:102F0800D1E90001FDF740F902460B460C49C1E939
:102F18000A23FFE700BF1037BD46B0BDAFF30080FE
:102F28006666666666660A40295C8FC2F528AC3F0D
:102F3800D7A3703D0A075340D7A3703D0AC7524034
:102F4800E0030020701500200000594080B58CB0C7
:102F580002AF78607B6800221A727B6801225A608F
:102F68007B681033BB6100237B741A4BFB611A4BDF
:102F78003B620123BB74002387F82430022387F8BF
:102F880025300923FB6009233B7407F10C00082353
:102F98000093042301220421FFF79CF802467B6872
:102FA800DA607B68DB6802211846FFF707FA7B685E
:102FB800DB681846FFF71CF97B68DB6801211846B7
:102FC800FFF75FF87B6801221A7200BF2837BD46F9
:102FD80080BD00BF000104500000024080B5A6B0CB
:102FE80000AF78601A4BBB6000233B7300237B73F0
:102FF80007F108031846FEF719FB02467B68DA60FA
:103008007B68DB6800211846FDF7CBFF7B68DB682F
:1030180002211846FEF73AFA7B68DB680221184657
:10302800FEF7DCFA7B68DB681846FFF741FC0346CD
:1030380087F8973097F89730002B05D17B68DB68C5
:1030480000211846FFF74CFC00BF9837BD4680BDED
:103058000004004080B5A6B000AF78601A4BBB6092
:1030680000233B7300237B7307F108031846FEF720
:10307800DDFA02467B68DA607B68DB680021184667
:10308800FDF78FFF7B68DB6802211846FEF7BEF864
:103098007B68DB6802211846FEF758F97B68DB6815
:1030A8001846FFF705FC034687F8973097F89730DE
:1030B800002B05D17B68DB6800211846FFF710FC60
:1030C80000BF9837BD4680BD0004004000000000E6
:1030D800B0B5AEB000AFA54BDB68A54A04211846D1
:1030E800FFF79BF8A24BDB89A24A1382A04B1B88EF
:1030F800A04AD3839E4B9B899E4A53829C4B5B88F4
:103108009C4A93839A4B5B899A4A9382984B9B88F3
:10311800984A5383964B1B89964AD382944BDB88F3
:10312800944A13830023C7F88C300FE0914AD7F8EC
:103138008C30083332F813308E49D7F88C2021F8B8
:103148001230D7F88C300133C7F88C30D7F88C3070
:10315800072BEBDD874B1B881846FDF753F9044610
:103168000D46854A8549864845EC104BFFF771FCAA
:10317800804B03F5DE63D3E900237E49C1E92223AE
:103188000023C7F88C301EE0D7F88C300133794A19
:10319800DE33DB001344D3E90023C7E92423754B4E
:1031A800D3E92223D7E92401FDF736FC0346002B97
:1031B80004D07049D7E92423C1E92223D7F88C30F9
:1031C8000133C7F88C30D7F88C30172BDCDD694B0E
:1031D8005B881846FDF716F904460D46694A6A49A0
:1031E8006A4845EC104BFFF79BFC624B03F55363B1
:1031F800D3E900235F49C1E924230023C7F88C30B1
:103208001FE0D7F88C3001335A4A03F5D373DB003B
:103218001344D3E90023C7E92423564BD3E92423D5
:10322800D7E92401FDF7F8FB0346002B04D05149E8
:10323800D7E92423C1E92423D7F88C300133C7F810
:103248008C30D7F88C30082BDBDD4A4B93ED247B90
:103258004F4A50495048B0EE470AF0EE670AFFF768
:10326800F8FB444B03F58053D3E90023C7E9262331
:103278000023C7F88C301DE0D7F88C3001333D4A65
:1032880003F50073DB001344D3E90023C7E92423C3
:10329800D7E92423D7E92601FDF7BEFB0346002B17
:1032A80003D0D7E92423C7E92623D7F88C30013384
:1032B800C7F88C30D7F88C30172BDDDD2D4B9B8869
:1032C8001846FDF79FF804460D46344A34493548F8
:1032D80045EC104BFFF7BDFB264B03F50863D3E91C
:1032E80000232449C1E924230023C7F88C301FE0B8
:1032F800D7F88C3001331F4A03F58873DB00134479
:10330800D3E90023C7E924231A4BD3E92423D7E9B7
:103318002401FDF781FB0346002B04D01549D7E9AA
:103328002423C1E92423D7F88C300133C7F88C3023
:10333800D7F88C30172BDBDD0E4BDB881846FDF7F2
:1033480061F804460D46184A1849194845EC104BCF
:10335800FFF77FFB074B03F5AC63D3E9002305496F
:10336800C1E926230023C7F88C3042E070150020FD
:103378008C030020E0030020880000207019002042
:10338800D00A0020A8000020F01C00201011002006
:10339800C0000020A01E0020E013002090000020A4
:1033A800501A0020600C0020800000209018002097
:1033B80040090020D7F88C3001338C4AAC33DB004D
:1033C8001344D3E90023C7E92423884BD3E92623F0
:1033D800D7E92401FDF720FB0346002B04D08349DD
:1033E800D7E92423C1E92623D7F88C300133C7F85D
:1033F8008C30D7F88C30172BDCDD7C4B1B891846BA
:10340800FDF700F804460D46794A7A497A4845ECB2
:10341800104BFFF71EFB754BD3E9F4237349C1E941
:1034280028230023C7F88C301EE0D7F88C300133EE
:103438006E4A7A33DB001344D3E90023C7E9242317
:103448006A4BD3E92823D7E92401FDF7E5FA0346B7
:10345800002B04D06549D7E92423C1E92823D7F8EC
:103468008C300133C7F88C30D7F88C30172BDCDD63
:103478005E4B5B891846FCF7C5FF04460D465F4A5C
:103488005F49604845EC104BFFF7E3FA574BD3E927
:103498009023C7E92C230023C7F88C301CE0D7F809
:1034A8008C300133514A4833DB001344D3E90023FD
:1034B800C7E92423D7E92423D7E92C01FDF78EFA9D
:1034C8000346002B03D0D7E92423C7E92C23D7F8D8
:1034D8008C300133C7F88C30D7F88C30172BDEDDF1
:1034E800424B9B891846FCF78DFF04460D46464A19
:1034F8004649474845EC104BFFF712FB3B4B03F599
:103508005D63D3E90023C7E92A230023C7F88C3079
:103518001DE0D7F88C300133344A03F5DD73DB0046
:103528001344D3E90023C7E92423D7E92423D7E99F
:103538002A01FDF753FA0346002B03D0D7E92423C9
:10354800C7E92A23D7F88C300133C7F88C30D7F86D
:103558008C30082BDDDD2F4A2F49304897ED2A0B98
:10356800FFF777FA214B03F56763D3E90023C7E92F
:1035780028230023C7F88C301DE0D7F88C3001339E
:103588001A4A03F5E773DB001344D3E90023C7E9BC
:103598002423D7E92423D7E92801FDF73DFA034678
:1035A800002B03D0D7E92423C7E92823D7F88C3088
:1035B8000133C7F88C30D7F88C30172BDDDD0B4B77
:1035C800DB891846FCF71EFF04460D46144A1549C8
:1035D800154845EC104BFFF73CFA044BD3E92C2374
:1035E800C7E92A230023C7F88C303CE0E003002019
:1035F80078000020B0170020B007002070000020DD
:10360800D016002020060020B0000020581D002001
:10361800B0110020B8000020C01D0020501200206A
:1036280068000020F015002090040020D7F88C30A6
:103638000133B94A1633DB001344D3E90023C7E941
:103648002423D7E92423D7E92A01FDF7C7F903463C
:10365800002B03D0D7E92423C7E92A23D7F88C30D5
:103668000133C7F88C30D7F88C30172BDEDDAA4B26
:1036780093ED227BB0EE470AF0EE670A0CF0ECFF00
:10368800B0EE407AF0EE607A9FEDA11BB0EE470AEB
:10369800F0EE670A0CF022FF87ED240B4FF00002D2
:1036A8004FF00003D7E92401FDF798F90346002BF2
:1036B80010D0D7F89030BB67D7F8943083F0004328
:1036C800FB67D7E91E01FDF7C7F903469BB25B42CA
:1036D8009BB205E0D7E92401FDF7BEF903469BB28A
:1036E8008E4A138097ED260B0CF0B6FFB0EE407AA9
:1036F800F0EE607A9FED861BB0EE470AF0EE670A9F
:103708000CF0ECFE87ED240B4FF000024FF00003A5
:10371800D7E92401FDF762F90346002B10D0D7F84A
:1037280090303B67D7F8943083F000437B67D7E944
:103738001C01FDF791F903469BB25B429BB205E081
:10374800D7E92401FDF788F903469BB2734A5380F1
:10375800714B93ED247BB0EE470AF0EE670A0CF04C
:103768007BFFB0EE407AF0EE607A9FED691BB0EE19
:10377800470AF0EE670A0CF0B1FE87ED240B4FF014
:1037880000024FF00003D7E92401FDF727F90346AB
:10379800002B10D0D7F89030BB66D7F8943083F060
:1037A8000043FB66D7E91A01FDF756F903469BB2B9
:1037B8005B429BB205E0D7E92401FDF74DF90346CA
:1037C8009BB2564A9380544B93ED267BB0EE470A42
:1037D800F0EE670A0CF040FFB0EE407AF0EE607A47
:1037E8009FED4B1BB0EE470AF0EE670A0CF076FE31
:1037F80087ED240B4FF000024FF00003D7E92401B6
:10380800FDF7ECF80346002B10D0D7F890303B6654
:10381800D7F8943083F000437B66D7E91801FDF7A9
:103828001BF903469BB25B429BB205E0D7E9240132
:10383800FDF712F903469BB2384AD380364B93ED15
:10384800287BB0EE470AF0EE670A0CF005FFB0EEF1
:10385800407AF0EE607A9FED2E1BB0EE470AF0EE4C
:10386800670A0CF03BFE87ED240B4FF000024FF087
:103878000003D7E92401FDF7B1F80346002B10D067
:10388800D7F89030BB65D7F8943083F00043FB65D8
:10389800D7E91601FDF7E0F803469BB25B429BB2FD
:1038A80005E0D7E92401FDF7D7F803469BB21B4A88
:1038B800138197ED2C0B0CF0CFFEB0EE407AF0EEB2
:1038C800607A9FED131BB0EE470AF0EE670A0CF022
:1038D80005FE87ED240B4FF000024FF00003D7E9F7
:1038E8002401FDF77BF80346002B19D0D7F8903058
:1038F8003B65D7F8943083F000437B65D7E9140122
:10390800FDF7AAF803469BB25B429BB20EE000BFEC
:10391800000000000000F040E0030020A0030020A9
:10392800D7E92401FDF798F803469BB2A44A5381CE
:1039380097ED280B0CF090FEB0EE407AF0EE607A2E
:103948009FED9D1BB0EE470AF0EE670A0CF0C6FD2E
:1039580087ED240B4FF000024FF00003D7E9240154
:10396800FDF73CF80346002B10D0D7F89030BB6425
:10397800D7F8943083F00043FB64D7E91201FDF7D0
:103988006BF803469BB25B429BB205E0D7E9240182
:10399800FDF762F803469BB2894A938197ED2A0B9B
:1039A8000CF05AFEB0EE407AF0EE607A9FED821B82
:1039B800B0EE470AF0EE670A0CF090FD87ED240B95
:1039C8004FF000024FF00003D7E92401FDF706F895
:1039D8000346002B10D0D7F890303B64D7F89430CA
:1039E80083F000437B64D7E91001FDF735F80346FF
:1039F8009BB25B429BB205E0D7E92401FDF72CF8A6
:103A080003469BB26E4AD3816E4BB3F85A306C4A68
:103A180013826D4B03F5DE63D3E90023C7E9262340
:103A28000023C7F88C301CE0D7F88C300133664A85
:103A3800DE33DB001344D3E90023C7E92423D7E9A5
:103A48002423D7E92601FCF7E7FF0346002B03D020
:103A5800D7E92423C7E92623D7F88C300133C7F8E0
:103A68008C30D7F88C30172BDEDD574B5B88184627
:103A7800FCF7C8FC04460D46544A5549554845ECE0
:103A8800104BFEF7E6FF504B03F53A63D3E90023EA
:103A9800C7E928230023C7F88C301DE0D7F88C30FD
:103AA8000133494A03F5BA73DB001344D3E9002311
:103AB800C7E92423D7E92423D7E92801FCF7ACFF79
:103AC8000346002B03D0D7E92423C7E92823D7F8D6
:103AD8008C300133C7F88C30D7F88C30172BDDDDEC
:103AE800394B03F50863D3E900233749C1E9242397
:103AF8000023C7F88C301FE0D7F88C300133324AE6
:103B080003F58873DB001344D3E90023C7E92423B2
:103B18002D4BD3E92423D7E92401FCF75FFF0346A3
:103B2800002B04D02849D7E92423C1E92423D7F856
:103B38008C300133C7F88C30D7F88C30172BDBDD8D
:103B4800214B03F5AC63D3E900231F49C1E92623C0
:103B58000023C7F88C301EE0D7F88C3001331A4A9E
:103B6800AC33DB001344D3E90023C7E92423164B05
:103B7800D3E92623D7E92401FCF730FF0346002BBD
:103B880004D01149D7E92423C1E92623D7F88C307A
:103B98000133C7F88C30D7F88C30172BDCDD0A4B93
:103BA800D3E9F4230849C1E928230023C7F88C3056
:103BB80031E000BFAFF30080000000000000F040DB
:103BC800A003002000000020E0030020A000002047
:103BD800101C0020800F0020D7F88C300133AA4A2F
:103BE8007A33DB001344D3E90023C7E92423A64B27
:103BF800D3E92823D7E92401FCF7F0FE0346002B7C
:103C080004D0A149D7E92423C1E92823D7F88C3067
:103C18000133C7F88C30D7F88C30172BDCDD9A4B82
:103C2800D3E99023C7E92C230023C7F88C301CE084
:103C3800D7F88C300133944A4833DB001344D3E976
:103C48000023C7E92423D7E92423D7E92C01FCF76B
:103C5800E3FE0346002B03D0D7E92423C7E92C232E
:103C6800D7F88C300133C7F88C30D7F88C30172B45
:103C7800DEDD854B9B891846FCF7C4FB04460D46E0
:103C8800824A8349834845EC104BFEF7E2FE7E4B9F
:103C980003F52163D3E90023C7E92A230023C7F8E2
:103CA8008C301DE0D7F88C300133774A03F5A173C7
:103CB800DB001344D3E90023C7E92423D7E92423ED
:103CC800D7E92A01FCF7A8FE0346002B03D0D7E961
:103CD8002423C7E92A23D7F88C300133C7F88C305E
:103CE800D7F88C30172BDDDD674BD3E92C236649D9
:103CF800C1E922230023C7F88C301EE0D7F88C30A6
:103D08000133614A1633DB001344D3E90023C7E9C2
:103D180024235D4BD3E92223D7E92401FCF75EFE77
:103D28000346002B04D05849D7E92423C1E92223AC
:103D3800D7F88C300133C7F88C30D7F88C30172B74
:103D4800DCDD97ED260B0CF087FCB0EE407AF0EE48
:103D5800607A9FED4B1BB0EE470AF0EE670A0CF055
:103D6800BDFB87ED240B4FF000024FF00003D7E9AD
:103D78002401FCF733FE0346002B10D0D7F890300F
:103D8800BB63D7F8943083F00043FB63D7E90E0197
:103D9800FCF762FE03469BB25B429BB205E0D7E9A3
:103DA8002401FCF759FE03469BB23B4A138097ED6A
:103DB800280B0CF051FCB0EE407AF0EE607A9FEDE3
:103DC800301BB0EE470AF0EE670A0CF087FB87ED70
:103DD800240B4FF000024FF00003D7E92401FCF751
:103DE800FDFD0346002B10D0D7F890303B63D7F881
:103DF800943083F000437B63D7E90C01FCF72CFE79
:103E080003469BB25B429BB205E0D7E92401FCF76D
:103E180023FE03469BB2204A53801B4B93ED247B21
:103E2800B0EE470AF0EE670A0CF016FCB0EE407AE6
:103E3800F0EE607A9FED121BB0EE470AF0EE670ACB
:103E48000CF04CFB87ED240B4FF000024FF0000301
:103E5800D7E92401FCF7C2FD0346002B1ED0D7F892
:103E68009030BB62D7F8943083F00043FB62D7E907
:103E78000A01FCF7F1FD03469BB25B429BB213E0DB
:103E8800000000000000F040E0030020980000203F
:103E9800301B0020F00D0020B4030020D7E92401D6
:103EA800FCF7DAFD03469BB2C14A9380C14B93ED00
:103EB800267BB0EE470AF0EE670A0CF0CDFBB0EEB9
:103EC800407AF0EE607A9FEDB81BB0EE470AF0EE4C
:103ED800670A0CF003FB87ED240B4FF000024FF04C
:103EE8000003D7E92401FCF779FD0346002B10D025
:103EF800D7F890303B62D7F8943083F000437B6268
:103F0800D7E90801FCF7A8FD03469BB25B429BB2C8
:103F180005E0D7E92401FCF79FFD03469BB2A44ABC
:103F2800D380A44B93ED287BB0EE470AF0EE670AE6
:103F38000CF092FBB0EE407AF0EE607A9FED9A1B9F
:103F4800B0EE470AF0EE670A0CF0C8FA87ED240BCA
:103F58004FF000024FF00003D7E92401FCF73EFDC3
:103F68000346002B10D0D7F89030BB61D7F89430B7
:103F780083F00043FB61D7E90601FCF76DFD0346BA
:103F88009BB25B429BB205E0D7E92401FCF764FDD4
:103F980003469BB2864A138197ED2C0B0CF05CFB11
:103FA800B0EE407AF0EE607A9FED7F1BB0EE470AE4
:103FB800F0EE670A0CF092FA87ED240B4FF000023E
:103FC8004FF00003D7E92401FCF708FD0346002B56
:103FD80010D0D7F890303B61D7F8943083F0004385
:103FE8007B61D7E90401FCF737FD03469BB25B42CE
:103FF8009BB205E0D7E92401FCF72EFD03469BB2EE
:104008006B4A538197ED2A0B0CF026FBB0EE407AF1
:10401800F0EE607A9FED641BB0EE470AF0EE670A97
:104028000CF05CFA87ED240B4FF000024FF0000310
:10403800D7E92401FCF7D2FC0346002B10D0D7F8AF
:104048009030BB60D7F8943083F00043FB60D7E929
:104058000201FCF701FD03469BB25B429BB205E0FF
:10406800D7E92401FCF7F8FC03469BB2504A938138
:10407800504B93ED227BB0EE470AF0EE670A0CF046
:10408800EBFAB0EE407AF0EE607A9FED471BB0EEA7
:10409800470AF0EE670A0CF021FA87ED240B4FF07F
:1040A80000024FF00003D7E92401FCF797FC034610
:1040B800002B10D0D7F890303B60D7F8943083F0BD
:1040C80000437B60D7E90001FCF7C6FC03469BB2BE
:1040D8005B429BB205E0D7E92401FCF7BDFC03462F
:1040E8009BB2334AD381344BB3F85C20304B1A82ED
:1040F8000023C7F88C3010E0304AD7F88C301344CE
:1041080000221A702E4AD7F88C30002122F813109A
:10411800D7F88C300133C7F88C30D7F88C30072BA0
:10412800EADD284B00221A60274B00221A60274B31
:1041380093F87D30022B07D8244B93F87D30013358
:10414800DAB2224B83F87D20204B93F8793003F0C4
:104158000103DBB2002B18D11C4A92F8793043F0E6
:10416800010382F87930194B002283F87D20174A21
:1041780092F8783043F0600382F878300D494FF0B8
:104188000002134BC1E91E23B7E1104B93F87830B6
:10419800C3F34113DBB2012B1CD0022B00F0978034
:1041A80013E100BFAFF30080000000000000F04002
:1041B800B4030020E003002000000020D803002002
:1041C800C803002084030020880300207015002005
:1041D8000000F03F8C4B93F87D30012B18D98B49A8
:1041E8004FF000024FF00003C1E92023864B002264
:1041F80083F87D20844A92F8783043F0600382F88F
:10420800783082494FF00002814BC1E91E2374E1E6
:10421800804BB3F858301A467F4B1B8902FB03F3D7
:104228001846FCF7EFF84FF000027C4BFCF764F9F6
:1042380002460B4610461946764BD3E90423FCF791
:1042480085FA02460B4643EC172BB0EE470AF0EE10
:10425800670AFEF7A1FC51EC100B6E4BD3E904235F
:10426800FCF74AF902460B466849C1E91823694B2D
:10427800B3F858301A46684BDB8802FB03F318463C
:10428800FCF7C0F84FF00002644BFCF735F9024622
:104298000B46104619465F4BD3E90423FCF756FA40
:1042A80002460B4643EC172BB0EE470AF0EE670ABE
:1042B800FEF772FC51EC100B564BD3E90423FCF7C4
:1042C8001BF902460B465149C1E91A2315E14E4B29
:1042D80093F87D30012B19D94C494FF000024FF06B
:1042E8000003C1E91C23484B002283F87D20464A7D
:1042F80092F87830012161F3461382F87830434907
:104308004FF00002424BC1E92023F6E0414BB3F8DD
:1043180058301A46404B5B8902FB03F31846FCF7FA
:1043280071F84FF000023D4BFCF7E6F802460B46E9
:1043380010461946374BD3E90423FCF707FA02461F
:104348000B4643EC172BB0EE470AF0EE670AFEF770
:1043580023FC51EC100B2F4BD3E90423FCF7CCF8CA
:1043680002460B462949C1E914232A4BB3F85830B1
:104378001A46294B9B8802FB03F31846FCF742F8C0
:104388004FF00002254BFCF7B7F802460B461046E3
:104398001946204BD3E90423FCF7D8F902460B460B
:1043A80043EC172BB0EE470AF0EE670AFEF7F4FB72
:1043B80051EC100B174BD3E90423FCF79DF8024688
:1043C8000B461249C1E9162397E00F4B93F87D304D
:1043D800012B25D90D494FF000024FF00003C1E928
:1043E8001E23094B002283F87D20074A92F8783073
:1043F800022161F3461382F8783004494FF0000235
:10440800034BC1E91C2377E070150020E00300206E
:104418000000F03F000000208C0300200000503E08
:10442800B24BB3F858301A46B14B5B8802FB03F322
:104438001846FBF7E7FF4FF00002AE4BFCF75CF8BD
:1044480002460B4610461946A84BD3E90423FCF74D
:104458007DF902460B4643EC172BB0EE470AF0EE07
:10446800670AFEF799FB51EC100BA04BD3E9042324
:10447800FCF742F802460B4614461D469B4BB3F820
:1044880058301A469A4B9B8902FB03F31846FBF7F0
:10449800B9FF4FF00002974BFCF72EF802460B4687
:1044A80010461946914BD3E90423FCF74FF902460D
:1044B8000B4643EC172BB0EE470AF0EE670AFEF7FF
:1044C8006BFB51EC100B894BD3E90423FCF714F870
:1044D80002460B4620462946FBF758FE02460B4685
:1044E80010461946814BD3E90623FCF705F8024626
:1044F8000B468149C1E9122300BF7F4BD3E91E0156
:104508007A4BD3E90823FCF787FA0346002B05D03A
:10451800764BD3E90223C7E9262304E0734BD3E99A
:104528000023C7E92623744BD3E91C016F4BD3E959
:104538000A23FCF771FA0346002B05D06B4BD3E92D
:104548000223C7E9282304E0684BD3E90023C7E91D
:104558002823694BD3E92001644BD3E90C23FCF7EA
:104568005BFA0346002B05D0604BD3E90223C7E969
:10457800242304E05D4BD3E90023C7E924235E4BE1
:104588005E4A1A624FF000024FF00003D7E9280193
:10459800FCF71AFA0346002B04D14FF40073C7F84E
:1045A8008C3002E00023C7F88C30534B1B6AD7F8D5
:1045B8008C2011461846FEF76AF84F4B1A6AD7F84E
:1045C8008C30DB4303F4007319461046FEF76DF890
:1045D800494B4A4A1A624FF000024FF00003D7E9EC
:1045E8002801FCF7F1F90346002B04D14FF480436E
:1045F800C7F88C3002E00023C7F88C303E4B1B6AAA
:10460800D7F88C2011461846FEF741F83A4B1A6A3B
:10461800D7F88C30DB4303F4804319461046FEF785
:1046280044F8354B354A1A624FF000024FF0000348
:10463800D7E92601FCF7C8F90346002B04D14FF44B
:104648008073C7F88C3002E00023C7F88C302A4BFF
:104658001B6AD7F88C2011461846FEF718F8264B27
:104668001A6AD7F88C30DB4303F480731946104676
:10467800FEF71BF8204B214A1A624FF000024FF058
:104688000003D7E92601FCF79FF90346002B04D164
:104698004FF40043C7F88C3002E00023C7F88C3091
:1046A800154B1B6AD7F88C2011461846FDF7EFFF0B
:1046B800114B1A6AD7F88C30DB4303F400431946D0
:1046C8001046FDF7F2FF0C4B0C4A1A624FF000023D
:1046D8004FF00003D7E92401FCF776F90346002BD5
:1046E8000ED14FF48053C7F88C300CE00000002046
:1046F8008C0300200000503EE0030020001000481A
:104708000023C7F88C30A74B1B6AD7F88C201146BA
:104718001846FDF7BCFFA34B1A6AD7F88C30DB4369
:1047280003F4805319461046FDF7BFFF9D4B9E4A80
:104738001A629E4BD3E900014FF000024FF00003CC
:10474800FCF742F90346002B04D14FF48053C7F815
:104758008C3002E00023C7F88C30924B1B6AD7F8E4
:104768008C2011461846FDF792FF8E4B1A6AD7F82F
:104778008C30DB4303F4805319461046FDF795FF50
:10478800884B8B4A1A62894BD3E900014FF000022B
:104798004FF00003FCF718F90346002B04D14FF43F
:1047A8000053C7F88C3002E00023C7F88C307D4BEB
:1047B8001B6AD7F88C2011461846FDF768FF794B1D
:1047C8001A6AD7F88C30DB4303F4005319461046B5
:1047D800FDF76BFF734B764A1A624FF000024FF0F9
:1047E8000003D7E92401FCF7EFF80346002B04D1B6
:1047F8004FF40063C7F88C3002E00023C7F88C3010
:10480800684B1B6AD7F88C2011461846FDF73FFF06
:10481800644B1A6AD7F88C30DB4303F400631946FB
:104828001046FDF742FF6248FDF725FFC7F88800EC
:10483800D7F8883003F04003002B0CBF0123002376
:10484800DBB287F887305848FDF715FFC7F88800AE
:10485800D7F8883003F00403002B0CBF0123002392
:10486800DBB287F88630534B93F87C300E2B07D891
:10487800504B93F87C300133DAB24E4B83F87C20EE
:104888004C4B93F8783023F07F03DBB2002B1BD11D
:10489800484A92F8783043F0800382F87830454AE5
:1048A80092F87830062161F3020382F87830414BA0
:1048B800002283F87C203F4A92F87830012161F386
:1048C800C40382F87830B1E23A4B93F87830C3F3F6
:1048D8000203DBB2013B042B00F2808101A252F8F3
:1048E80023F000BF014900080D490008C14900082C
:1048F800814A0008254B000807F186031846FEF791
:10490800B7F993E22B4B93F87C30042B24D997F812
:104918008630002B20D0234B002283F8A820214B7F
:10492800002283F8AA201F4B002283F8A920214ADD
:1049380092F87830062161F3020382F878301D4B33
:10494800002283F87C201B4A92F87830012161F319
:10495800C40382F8783069E2124B93F8A830002B30
:104968000CBF01230023DBB21A460E4B83F8A820A4
:104978000C4B93F8AA30002B0CBF01230023DBB2A9
:104988001A46084B83F8AA20064B93F8A930002B47
:104998000CBF01230023DBB21A46024B83F8A9207F
:1049A80044E200BFE00300200004004800000020AB
:1049B800001000487015002097F88730002B2FD082
:1049C800B34A92F87830012161F3020382F8783013
:1049D800B04B002283F8A820AE4B002283F8AA200F
:1049E800AC4B002283F8A920AA494FF000024FF0EF
:1049F8000003C1E90C23A7494FF000024FF0000360
:104A0800C1E91023A34BD3E91601A24BD3E9142320
:104A1800FBF7BAFB02460B469D49C1E91C2305E298
:104A280097F88630002B18D0994B002283F87C2009
:104A3800974A92F87830022161F3020382F87830BD
:104A4800944B012283F8A820924B002283F8AA20D5
:104A5800904B012283F8A920E8E18E494FF000022B
:104A68004FF00003C1E90A238A494FF000024FF0D2
:104A78000003C1E90E23D9E197F88630002B18D03E
:104A8800834B002283F87C20814A92F878300221F7
:104A980061F3020382F878307E4B012283F8A82064
:104AA8007C4B002283F8AA207A4B012283F8A920A4
:104AB800B9E197F88730002B00F0B581744A92F875
:104AC8007830012161F3020382F87830714B0022BB
:104AD80083F8A8206F4B002283F8AA206D4B002290
:104AE80083F8A9206B494FF000024FF00003C1E999
:104AF8000C2368494FF000024FF00003C1E910236E
:104B0800644BD3E91601634BD3E91423FBF73CFB51
:104B180002460B465E49C1E91C2384E197F88630BA
:104B2800002B18D05A4B002283F87C20584A92F860
:104B38007830022161F3020382F87830554B012264
:104B480083F8A820534B002283F8AA20514B012256
:104B580083F8A9206AE197F88730002B2FD04C4AB8
:104B680092F87830012161F3020382F87830494BDA
:104B7800002283F8A820474B002283F8AA20454B3F
:104B8800002283F8A92043494FF000024FF00003A8
:104B9800C1E90C233F494FF000024FF00003C1E97F
:104BA80010233C4BD3E916013A4BD3E91423FBF706
:104BB800EBFA02460B463649C1E91C2336E1354972
:104BC8004FF000024FF00003C1E90A2331494FF0CA
:104BD80000024FF00003C1E9102327E197F887305E
:104BE800002B59D02A4B93F8783003F01803DBB226
:104BF800102B15D1264A92F879306FF3410382F8C9
:104C0800793024494FF000024FF00003C1E90A232C
:104C18001F4A92F878306FF3C40382F8783006E0C0
:104C28001B4A92F878306FF3C40382F87830184A38
:104C380092F87830012161F3020382F87830154B3D
:104C4800002283F8A820134B002283F8AA20114BD6
:104C5800002283F8A9200F494FF000024FF000030B
:104C6800C1E90C230B494FF000024FF00003C1E9E2
:104C78001023084BD3E91601064BD3E91423FBF79D
:104C880083FA02460B460249C1E91C23CDE000BF66
:104C980070150020E0030020B34B93F8A830002BD8
:104CA8000CBF01230023DBB21A46AF4B83F8A820C0
:104CB800AE4B93F8783003F01803DBB2082B5ED1C3
:104CC800AA4B93F87C30012B09D9A84B93F879307B
:104CD80003F00203DBB2002B01D0012300E0002324
:104CE80087F8873097F88730002B14D09F4B002225
:104CF80083F87C209D4A92F87830022161F3C4033E
:104D080082F87830984B012283F8A820964B00222D
:104D180083F8A92089E097F88630002B00F0858079
:104D2800914BD3E912018CA3D3E90023FBF72CFAAA
:104D380002460B468D49C1E91A238B4BD3E918016A
:104D480087A3D3E90023FBF71FFA02460B468749DE
:104D5800C1E91623844BD3E91A0181A3D3E90023BF
:104D6800FBF712FA02460B468049C1E918237F4A2D
:104D780092F8793043F0020382F8793055E07B4BA2
:104D880093F87C300E2B29D9784A92F879306FF352
:104D9800410382F87930744B002283F8A820724BC3
:104DA800002283F8A92070494FF000024FF0000359
:104DB800C1E90A236C494FF000024FF00003C1E932
:104DC80010236A4B002283F87C20684A92F87830D6
:104DD800012161F3C40382F8783026E062494FF07C
:104DE8000002634BC1E90A235F494FF00002604BA0
:104DF800C1E910235C4B93F8A830002B0CBF0123AA
:104E08000023DBB21A46584B83F8A820564B93F878
:104E1800A930002B0CBF01230023DBB21A46524BEA
:104E280083F8A92001E000BF00E000BF4F4B1C6DD4
:104E38004D4BD3E9102310461946FBF72DFE0346C8
:104E480000EE103A2046FDF70BFD484B1C6D464B13
:104E5800D3E90E2310461946FBF71EFE034600EE63
:104E6800103A2046FDF710FD404B1C6C3E4BD3E931
:104E78000A2310461946FBF70FFE034600EE103AC8
:104E88002046FDF7C5FC394B1C6C374BD3E90C2386
:104E980010461946FBF700FE034600EE103A20467E
:104EA800FDF7CAFC304B334A1A62334BD3E90E0183
:104EB8004FF000024FF00003FBF786FD0346002B7E
:104EC80003D18023C7F88C3002E00023C7F88C3068
:104ED800254B1B6AD7F88C2011461846FDF7D7FBDF
:104EE800214B1A6AD7F88C30DB4303F0800319464C
:104EF8001046FDF7DAFB1C4B204A1A621A4B93F84E
:104F0800A830002B04D04FF40053C7F88C3002E0CF
:104F18000023C7F88C30144B1B6AD7F88C20114635
:104F28001846FDF7B4FB104B1A6AD7F88C30DB43F0
:104F380003F4005319461046FDF7B7FB0A4B0F4A16
:104F48001A62094B93F8AA30002B19D04FF480430A
:104F5800C7F88C3017E000BFEC51B81E85EBC13F95
:104F68009A9999999999A93FE00300207015002012
:104F780000405540000C0048000000200008004890
:104F88000023C7F88C30334B1B6AD7F88C201146A6
:104F98001846FDF77CFB2F4B1A6AD7F88C30DB4399
:104FA80003F4804319461046FDF77FFB294B2A4A34
:104FB8001A62284B93F8A930002B04D04FF4004311
:104FC800C7F88C3002E00023C7F88C30214B1B6AED
:104FD800D7F88C2011461846FDF759FB1D4B1A6A65
:104FE800D7F88C30DB4303F4004319461046FDF72D
:104FF8005CFB184B194A1A62194BD3E910014FF0A0
:1050080000024FF00003FBF7DFFC0346002B03D13F
:105018000823C7F88C3002E00023C7F88C300D4B0A
:105028001B6AD7F88C2011461846FDF730FB094B50
:105038001A6AD7F88C30DB4303F008031946104688
:10504800FDF733FB00F0D0FA00F0E4FB00BFB837FF
:10505800BD46B0BDE0030020000800480004004839
:105068000000002080B582B000AF00237B6017E00D
:105078005A4BB3F85E105A4A7B6822F81310574B04
:10508800B3F86010574A7B6822F81310534BB3F8F3
:105098006210554A7B6822F813107B6801337B60E5
:1050A8007B68082BE4DD00237B6011E04B4B93F811
:1050B80066104E4A7B6813440A461A70474BB3F889
:1050C80064104B4A7B6822F813107B6801337B60BD
:1050D8007B68072BEADD414B9B6C464A13603F4BCC
:1050E800DB6C454A13603D4B1B6D444A13603B4BD8
:1050F8005B6D434A1360394B1B6D404A5360374B15
:105108005B6D3F4A5360354B1B6D3C4A9360334B94
:105118005B6D3B4A936000F0FBFA3A4B00225A6001
:10512800384B00221A703748FDF710FF36493748C8
:10513800FDF763FC36493748FDF7C6FC3649374862
:10514800FDF75BFC36493748FDF757FC36493748C9
:10515800FDF753FC36493748FDF74FFC36493748C9
:10516800FDF74BFC36493748FDF7AEFC3649374862
:10517800FDF743FC36493748FDF73FFC36493748C9
:10518800FDF73BFC36493748FDF737FC1D4B00223D
:1051980083F844201B4B002283F84C20194B012232
:1051A8009A643148FDF71AFF164B012283F84C2008
:1051B800144B002283F83420124B002283F83C2041
:1051C800104B01229A632948FDF744FF0D4B012239
:1051D80083F83C2000BF0837BD4680BD0000002092
:1051E8008C030020A0030020B4030020D803002073
:1051F800C803002084030020880300206C030020DB
:105208007803002070150020880000207019002005
:10521800A8000020F01C0020C0000020A01E0020D4
:1052280090000020501A00208000002090180020D4
:1052380078000020B017002070000020D016002051
:10524800B0000020581D0020B8000020C01D00201C
:1052580068000020F0150020A0000020101C00208D
:1052680098000020301B0020B4150020A415002051
:1052780080B500AF344B1B78002B11D1324B012283
:105288001A70314B5B68012B0AD12F4B1B7A002B0C
:1052980006D02D4BDB68012204211846FDF716F8CD
:1052A800294B93F84430002B23D1274B012283F854
:1052B8004420254B9B6C012B1BD1234B93F84C307E
:1052C800002B16D0204B1B6D1846FDF789FB1E4B93
:1052D8001B6D00211846FBF7FEFE1B4B1B6D0221C0
:1052E8001846FCF727F9184B1B6D02211846FCF7E6
:1052F80089F9154B93F83430002B23D1124B012236
:1053080083F83420104B9B6B012B1BD10E4B93F869
:105318003C30002B16D00C4B1B6C1846FDF760FB7D
:10532800094B1B6C00211846FBF7D5FE064B1B6C7E
:1053380002211846FBF7BAFF034B1B6C02211846E3
:10534800FCF754F800BF80BD7015002080B489B008
:1053580000AFF860B9607A60FB68BB610023FB614D
:10536800BB689B087B611B4B1B68B3F5C87F2AD0C1
:105378000023FB6122E0174B1B6817497A6841F844
:105388002320FB699B00BA691A44124B1B681268F8
:10539800114903F5C87341F823200E4B1B680F4AC7
:1053A80012680D4903F5487341F82320094B1B681F
:1053B8000133084A1360FB690133FB61FA697B69B1
:1053C8009A42D8D300E000BF2437BD465DF8047B7D
:1053D800704700BF841F00208C1F0020881F0020FA
:1053E80080B584B000AF786072B600BF00F060FC92
:1053F8000346FB6007F10C037A6804211846FFF79F
:10540800A5FF62B600BF00BF1037BD4680BD0000D3
:1054180080B500AF124B1B785A1CD1B2104A1170DC
:10542800002B09D00F4B01221A600D4B1B78013B52
:10543800DAB20B4B1A7011E062B600BF02200BF013
:1054480031F8FDF745FE02200BF037F872B600BFC1
:10545800034B1B78013BDAB2014B1A7080BD00BFC9
:10546800503200204C32002080B584B000AF786004
:105478003960374BFB60374BBB60374B00221A70E3
:10548800364B00221A7001DF06F026FB00F0E0FE22
:1054980000F02EFF00F08EFF01F054FF01F072FBC8
:1054A80002F09EF901F0BEFF02F04AFA01F00EFD8B
:1054B80002F00EFD02F066FC294B1B6800221A6000
:1054C80001200AF0EFFFFFF7CDFD01200AF0F5FFFC
:1054D80072B600BF97ED030A00F08AFC204B1B68E8
:1054E8001B68002B0CBF01230023DBB21A461B4BA1
:1054F8001A7062B600BF62B600BF15E0184B1B6891
:105508001B68002B14BF01230023DBB21A46124B81
:105518001A70114B1B78DBB2002B05D0114B1B689E
:10552800104A23F0010313600C4B1B78DBB2002BED
:10553800E4D103200AF0B6FFFFF79AFE03200AF031
:10554800BCFF72B600BF002318461037BD4680BDA9
:10555800CDCCCC3D0000A042513200205232002078
:10556800EC0A010810E000E080B485B000AF034603
:10557800FB80B7F90630002B02DBFB88FB8101E0DA
:10558800FB88FB81B7F90E3018461437BD465DF825
:10559800047B704780B588B004AF03460A46FB71A8
:1055A8001346BB71FB799BB25B009BB2013399B286
:1055B800BB799AB24FF0FF3302930223019307F1AC
:1055C8000C0300930123074806F078FE3B7B1B027F
:1055D8001AB27B7B1BB213431BB29BB2184610371F
:1055E800BD4680BD7C32002080B500AF3B216920DC
:1055F800FFF7D0FF03461846FFF7B6FF03461A46E3
:1056080013469B0013445B0007EE903AB8EEE77A26
:10561800DFED3B6AC7EE267A3A4BC3ED007A3D21AF
:105628006920FFF7B7FF03461846FFF79DFF0346BB
:105638001A4613469B0013445B0007EE903AB8EEF7
:10564800E77ADFED2F6AC7EE267A2E4BC3ED017A93
:105658003F216920FFF79EFF03461846FFF784FFA6
:1056680003461A4613469B0013445B0007EE903A24
:10567800B8EEE77ADFED226AC7EE267A214BC3ED52
:10568800027A43216920FFF785FF03461846FFF792
:105698006BFF034607EE903AB8EEE77ADFED1A6A39
:1056A800C7EE267A194BC3ED007A45216920FFF72A
:1056B80071FF03461846FFF757FF034607EE903A77
:1056C800B8EEE77ADFED106AC7EE267A0F4BC3ED26
:1056D800017A47216920FFF75DFF03461846FFF767
:1056E80043FF034607EE903AB8EEE77ADFED066A25
:1056F800C7EE267A054BC3ED027A00BF80BD00BF16
:10570800000080466C03002000000343780300205B
:1057180080B586B004AF0023FB714FF0FF330293CE
:1057280001230193FB1D009301236B22D2211D4805
:1057380006F0B0FC4FF0FF330293012301930723D7
:10574800009301231922D221164806F0A3FC4FF03A
:10575800FF330293012301930023009301231C22AA
:10576800D221104806F096FC4FF0FF330293012334
:1057780001930023009301231B22D221094806F03C
:1057880089FC4FF0FF33029301230193064B0093EA
:1057980001237522D321034806F090FD00BF083786
:1057A800BD4680BD7C3200205332002080B582B0D7
:1057B80000AF00237B600FE07B68432B08D07B6839
:1057C800052B05D07B685BB2184607F0E5FA00E0C8
:1057D80000BF7B6801337B607B68EF2BECD900BF8F
:1057E80000BF0837BD4680BD80B582B000AF00233A
:1057F8007B6007E07B685BB2184607F0BFFA7B68FE
:1058080001337B607B68EF2BF4D900BF00BF0837FA
:10581800BD4680BD80B500AF4021AA4806F092FB86
:105828000346002B14BF01230023DAB2A64B1A70DB
:105838000421A64806F086FB0346002B14BF01236B
:105848000023DAB2A04B5A704FF40051A04806F07A
:1058580079FB0346002B14BF01230023DAB29D4BCA
:105868001A704FF480419A4806F06CFB0346002BEF
:1058780014BF01230023DAB2964B5A704FF400414B
:10588800934806F05FFB0346002B14BF0123002357
:10589800DAB2904B9A704FF480518C4806F052FB64
:1058A8000346002B14BF01230023DAB28A4B1A7077
:1058B8004FF48071834806F045FB0346002B14BF64
:1058C80001230023DAB2844B5A704FF400717D48EB
:1058D80006F038FB0346002B14BF01230023DAB27D
:1058E8007D4B9A704FF48051764806F02BFB0346A7
:1058F800002B14BF01230023DAB2774BDA704FF480
:105908000061704806F01EFB0346002B14BF0123FC
:105918000023DAB2704B1A714FF48041694806F0DF
:1059280011FB0346002B14BF01230023DAB26A4B94
:105938005A714FF40041634806F004FB0346002BFC
:1059480014BF01230023DAB2634B9A714FF400515C
:105958005C4806F0F7FA0346002B14BF0123002326
:10596800DAB25D4BDA715D4B5B6B9AB25C4B1A80B5
:105978005A4B9B6B9AB25A4B5A80584BDB6B9AB274
:10598800584B1A80554B1B6C9AB2564B5A80FFF7EE
:105998000DFF08E04FF400714FF0904006F0D2FA86
:1059A8000346012B07D103214F4803F0C1F80346F2
:1059B800002BEFD10AE000BF08E04FF400714FF070
:1059C800904006F0BFFA0346012B07D102213E485A
:1059D80003F0AEF80346002BEFD10AE000BF08E061
:1059E8004FF400714FF0904006F0ACFA0346012BDB
:1059F80007D10321374803F09BF80346002BEFD16A
:105A08000AE000BF08E04FF400714FF0904006F044
:105A180099FA0346012B07D10C21344803F088F882
:105A28000346002BEFD10AE000BF08E04FF40071F5
:105A38004FF0904006F086FA0346012B07D10C215F
:105A48002B4803F075F80346002BEFD10AE000BF9E
:105A580008E04FF400714FF0904006F073FA0346E7
:105A6800012B07D11221234803F062F80346002BCB
:105A7800EFD10AE000BF08E04FF400714FF090400A
:105A880006F060FA0346012B07D112211A4803F0E9
:105A98004FF80346002BEFD10AE000BF08E04FF4AF
:105AA80000714FF0904006F04DFA0346012B07D1E4
:105AB8001221124803F03CF80346002BEFD128E0EE
:105AC80000BF26E0001000485432002000040048BF
