:020000040800F2
:100000000080012071FE0008D3850008D985000812
:10001000DF850008E5850008EB850008000000008A
:100020000000000000000000000000001959000856
:10003000F185000800000000D558000805580008A8
:10004000C1FE0008C1FE0008C1FE0008C1FE000894
:10005000C1FE0008C1FE0008C1FE0008C1FE000884
:10006000C1FE0008C1FE0008C1FE0008FF850008AF
:1000700029200008C1FE0008C1FE0008C1FE0008DA
:100080000D8600081B86000829860008C1FE0008AE
:10009000C1FE0008C1FE0008C1FE0008C1FE000844
:1000A000C1FE000839860008C1FE0008C1FE000834
:1000B000C1FE0008C1FE0008C1FE0008C1FE000824
:1000C000C1FE0008C1FE0008C1FE0008C1FE000814
:1000D000C1FE0008C1FE0008C1FE0008C1FE000804
:1000E000C1FE0008C1FE0008C1FE0008C1FE0008F4
:1000F000C1FE0008C1FE0008C1FE0008C1FE0008E4
:10010000C1FE0008C1FE0008C1FE0008C1FE0008D3
:10011000C1FE0008C1FE0008C1FE0008C1FE0008C3
:10012000C1FE0008C1FE0008C1FE0008C1FE0008B3
:10013000C1FE0008C1FE0008C1FE0008C1FE0008A3
:10014000C1FE0008C1FE0008C1FE00084D8600087F
:10015000C1FE0008C1FE0008C1FE0008C1FE000883
:10016000C1FE0008C1FE0008C1FE0008C1FE000873
:10017000C1FE0008C1FE0008C1FE0008000000002A
:08018000C1FE0008C1FE0008E9
:1001880081F0004102E000BF83F0004330B54FEA40
:1001980041044FEA430594EA050F08BF90EA020FAD
:1001A8001FBF54EA000C55EA020C7FEA645C7FEA40
:1001B800655C00F0E2804FEA5454D4EB5555B8BF63
:1001C8006D420CDD2C4480EA020281EA030382EAD4
:1001D800000083EA010180EA020281EA0303362D66
:1001E80088BF30BD11F0004F4FEA01314FF4801C39
:1001F8004CEA113102D0404261EB410113F0004F4B
:100208004FEA03334CEA133302D0524263EB430301
:1002180094EA050F00F0A780A4F10104D5F1200E9F
:100228000DDB02FA0EFC22FA05F2801841F10001FA
:1002380003FA0EF2801843FA05F359410EE0A5F1CE
:1002480020050EF1200E012A03FA0EFC28BF4CF0FF
:10025800020C43FA05F3C01851EBE37101F00045B5
:1002680007D54FF0000EDCF1000C7EEB00006EEBC2
:100278000101B1F5801F1BD3B1F5001F0CD349084C
:100288005FEA30004FEA3C0C04F101044FEA4452A3
:1002980012F5800F80F09A80BCF1004F08BF5FEA2A
:1002A800500C50F1000041EB045141EA050130BD0A
:1002B8005FEA4C0C404141EB0101013C28BFB1F51C
:1002C800801FE9D291F0000F04BF01460020B1FA67
:1002D80081F308BF2033A3F10B03B3F120020CDA3A
:1002E8000C3208DD02F1140CC2F10C0201FA0CF018
:1002F80021FA02F10CE002F11402D8BFC2F1200C7D
:1003080001FA02F120FA0CFCDCBF41EA0C01904032
:10031800E41AA2BF01EB0451294330BD6FEA04047B
:100328001F3C1CDA0C340EDC04F11404C4F1200266
:1003380020FA04F001FA02F340EA030021FA04F378
:1003480045EA030130BDC4F10C04C4F1200220FACF
:1003580002F001FA04F340EA0300294630BD21FA0D
:1003680004F0294630BD94F0000F83F4801306BFD3
:1003780081F480110134013D4EE77FEA645C18BFC7
:100388007FEA655C29D094EA050F08BF90EA020F5E
:1003980005D054EA000C04BF1946104630BD91EA56
:1003A800030F1EBF0021002030BD5FEA545C05D159
:1003B8004000494128BF41F0004130BD14F5800498
:1003C8003CBF01F5801130BD01F0004545F0FE410C
:1003D80041F470014FF0000030BD7FEA645C1ABF41
:1003E800194610467FEA655C1CBF0B46024650EA78
:1003F800013406BF52EA033591EA030F41F40021A4
:1004080030BD00BF90F0000F04BF0021704730B529
:100418004FF4806404F132044FF000054FF00001FE
:1004280050E700BF90F0000F04BF0021704730B5BF
:100438004FF4806404F1320410F0004548BF404294
:100448004FF000013EE700BF42004FEAE2014FEAE9
:1004580031014FEA02701FBF12F07F4393F07F4FC4
:1004680081F06051704732F07F4208BF704793F0C7
:100478007F4F04BF41F40021704730B54FF46074DA
:1004880001F0004521F000411CE700BF50EA0102DD
:1004980008BF704730B54FF000050AE050EA010286
:1004A80008BF704730B511F0004502D5404261EBF6
:1004B80041014FF4806404F132045FEA915C3FF437
:1004C800D8AE4FF003025FEADC0C18BF03325FEAD4
:1004D800DC0C18BF033202EBDC02C2F1200300FA85
:1004E80003FC20FA02F001FA03FE40EA0E0021FAAA
:1004F80002F11444BDE600BF70B54FF0FF0C4CF498
:10050800E06C1CEA11541DBF1CEA135594EA0C0F49
:1005180095EA0C0F00F0DEF82C4481EA030621EA84
:100528004C5123EA4C5350EA013518BF52EA0335BF
:1005380041F4801143F4801338D0A0FB02CE4FF071
:100548000005E1FB02E506F00042E0FB03E54FF0A1
:100558000006E1FB03569CF0000F18BF4EF0010E99
:10056800A4F1FF04B6F5007F64F5407404D25FEA95
:100578004E0E6D4146EB060642EAC62141EA555148
:100588004FEAC52040EA5E504FEACE2EB4F1FD0C8A
:1005980088BFBCF5E06F1ED8BEF1004F08BF5FEA08
:1005A800500E50F1000041EB045170BD06F00046BA
:1005B80046EA010140EA020081EA0301B4EB5C0467
:1005C800C2BFD4EB0C0541EA045170BD41F480115F
:1005D8004FF0000E013C00F3AB8014F1360FDEBF84
:1005E800002001F0004170BDC4F10004203C35DA60
:1005F8000C341BDC04F11404C4F1200500FA05F3E3
:1006080020FA04F001FA05F240EA020001F0004283
:1006180021F0004110EBD37021FA04F642EB0601F9
:100628005EEA430E08BF20EAD37070BDC4F10C0423
:10063800C4F1200500FA04F320FA05F001FA04F2E7
:1006480040EA020001F0004110EBD37041F10001D3
:100658005EEA430E08BF20EAD37070BDC4F12005DE
:1006680000FA05F24EEA020E20FA04F301FA05F246
:1006780043EA020321FA04F001F0004121FA04F2EE
:1006880020EA020000EBD3705EEA430E08BF20EABE
:10069800D37070BD94F0000F0FD101F000464000F8
:1006A80041EB010111F4801F08BF013CF7D041EA7A
:1006B800060195F0000F18BF704703F0004652007E
:1006C80043EB030313F4801F08BF013DF7D043EA4F
:1006D8000603704794EA0C0F0CEA135518BF95EA05
:1006E8000C0F0CD050EA410618BF52EA4306D1D18C
:1006F80081EA030101F000414FF0000070BD50EAAB
:10070800410606BF1046194652EA430619D094EA34
:100718000C0F02D150EA013613D195EA0C0F05D11E
:1007280052EA03361CBF104619460AD181EA030172
:1007380001F0004141F0FE4141F470014FF000002A
:1007480070BD41F0FE4141F4780170BD70B54FF0C5
:10075800FF0C4CF4E06C1CEA11541DBF1CEA135545
:1007680094EA0C0F95EA0C0F00F0A7F8A4EB050427
:1007780081EA030E52EA03354FEA013100F088801E
:100788004FEA03334FF0805545EA131343EA1263E7
:100798004FEA022245EA111545EA10654FEA00269C
:1007A8000EF000419D4208BF964244F1FD0404F555
:1007B800407402D25B084FEA3202B61A65EB0305B1
:1007C8005B084FEA32024FF480104FF4002CB6EB6E
:1007D800020E75EB030E22BFB61A754640EA0C00EE
:1007E8005B084FEA3202B6EB020E75EB030E22BF2E
:1007F800B61A754640EA5C005B084FEA3202B6EB6F
:10080800020E75EB030E22BFB61A754640EA9C002D
:100818005B084FEA3202B6EB020E75EB030E22BFFD
:10082800B61A754640EADC0055EA060E18D04FEABB
:10083800051545EA16754FEA06164FEAC30343EA5B
:1008480052734FEAC2025FEA1C1CC0D111F4801F28
:100858000BD141EA00014FF000004FF0004CB6E721
:1008680011F4801F04BF01430020B4F1FD0C88BFC0
:10087800BCF5E06F3FF6AFAEB5EB030C04BFB6EBCB
:10088800020C5FEA500C50F1000041EB045170BDBE
:100898000EF0004E4EEA113114EB5C04C2BFD4EBEB
:1008A8000C0541EA045170BD41F480114FF0000E6F
:1008B800013C90E645EA060E8DE60CEA135594EAEB
:1008C8000C0F08BF95EA0C0F3FF43BAF94EA0C0FEE
:1008D8000AD150EA01347FF434AF95EA0C0F7FF463
:1008E80025AF104619462CE795EA0C0F06D152EAB7
:1008F80003353FF4FDAE1046194622E750EA41069B
:1009080018BF52EA43067FF4C5AE50EA41047FF4AB
:100918000DAF52EA43057FF4EBAE12E74FF0FF3C10
:1009280006E000BF4FF0010C02E000BF4FF0010CE1
:100938004DF804CD4FEA410C7FEA6C5C4FEA430C5A
:1009480018BF7FEA6C5C1BD001B050EA410C0CBFA9
:1009580052EA430C91EA030F02BF90EA020F00200B
:10096800704710F1000F91EA030F58BF994208BF72
:1009780090422CBFD8176FEAE37040F0010070472F
:100988004FEA410C7FEA6C5C02D150EA013C07D186
:100998004FEA430C7FEA6C5CD6D152EA033CD3D0D1
:1009A8005DF8040B704700BF8446104662468C46CB
:1009B8001946634600E000BF01B5FFF7B7FF0028FE
:1009C80048BF10F1000F01BD4DF808EDFFF7F4FF27
:1009D8000CBF012000205DF808FB00BF4DF808EDB2
:1009E800FFF7EAFF34BF012000205DF808FB00BFD5
:1009F8004DF808EDFFF7E0FF94BF012000205DF8F7
:100A080008FB00BF4DF808EDFFF7CEFF94BF0120AB
:100A180000205DF808FB00BF4DF808EDFFF7C4FFA4
:100A280034BF012000205DF808FB00BF4FEA410CED
:100A38007FEA6C5C02D150EA013C0AD14FEA430CD0
:100A48007FEA6C5C02D152EA033C02D14FF000000D
:100A580070474FF0010070474A0011D212F500129A
:100A680011D20DD56FF47873B3EB62520ED44FEAFE
:100A7800C12343F0004343EA505323FA02F070477E
:100A88004FF00000704750EA013002D14FF0FF30BC
:100A980070474FF0000070474FEA4102B2F1E0435F
:100AA80024BFB3F5001CDCF1FE5C0DD901F0004C4D
:100AB8004FEAC0024CEA5070B2F1004F40EB83009D
:100AC80008BF20F00100704711F0804F21D113F1C9
:100AD8003872BCBF01F00040704741F480114FEA02
:100AE8005252C2F11802C2F1200C10FA0CF320FA8B
:100AF80002F018BF40F001004FEAC1234FEAD323A8
:100B080003FA0CFC40EA0C0023FA02F34FEA430311
:100B1800CCE77FEA625307D150EA01331EBF4FF09A
:100B2800FE4040F44000704701F0004040F0FE40B5
:100B380040F40000704700BF0348044B834202D0D2
:100B4800034B03B118477047B0020020B0020020E1
:100B5800000000000548064B1B1AD90F01EBA30142
:100B6800491002D0034B03B118477047B002002068
:100B7800B00200200000000010B5064C237843B9ED
:100B8800FFF7DAFF044B13B10448AFF300800123E9
:100B9800237010BDB002002000000000A40401086A
:100BA80008B5054B1BB105490548AFF30080BDE802
:100BB8000840FFF7CFBF00BF00000000B4020020CC
:100BC800A404010880B485B000AF78607B681B6816
:100BD80003F06003FB60FB68002B04D17B681B6893
:100BE80003F01003FB60FB6818461437BD465DF838
:100BF800047B704780B483B000AF78607B681B6B60
:100C080018460C37BD465DF8047B704780B483B046
:100C180000AF786039607B681A6A3B681A437B6862
:100C28001A6200BF0C37BD465DF8047B704780B47C
:100C380083B000AF786039607B681A6A3B68DB4331
:100C48001A407B681A6200BF0C37BD465DF8047B0A
:100C5800704780B483B000AF78607B685B6C43F406
:100C680000427B685A6400BF0C37BD465DF8047BC0
:100C7800704780B483B000AF78607B68DB6843F06E
:100C880001027B68DA6000BF0C37BD465DF8047B63
:100C9800704780B483B000AF78607B68DB6823F06E
:100CA80001027B68DA6000BF0C37BD465DF8047B43
:100CB800704780B483B000AF78607B68DB6803F06E
:100CC8000103012B01D1012300E0002318460C3752
:100CD800BD465DF8047B704780B483B000AF786090
:100CE8007B68DB6843F002027B68DA6000BF0C3780
:100CF800BD465DF8047B704780B483B000AF786070
:100D08007B68DB6823F002027B68DA6000BF0C377F
:100D1800BD465DF8047B704780B483B000AF78604F
:100D28007B68DB6803F00203022B01D1012300E09A
:100D3800002318460C37BD465DF8047B704780B425
:100D480083B000AF78607B68DB6843F004027B689F
:100D5800DA6000BF0C37BD465DF8047B704780B48D
:100D680083B000AF78607B68DB6823F004027B689F
:100D7800DA6000BF0C37BD465DF8047B704780B46D
:100D880083B000AF78607B68DB6803F00403042B52
:100D980001D1012300E0002318460C37BD465DF859
:100DA800047B704780B483B000AF78607B68DB68F1
:100DB80043F008027B68DA6000BF0C37BD465DF877
:100DC800047B704780B483B000AF78607B68DB68D1
:100DD80023F008027B68DA6000BF0C37BD465DF877
:100DE800047B704780B483B000AF78607B68DB68B1
:100DF80003F00803082B01D1012300E00023184663
:100E08000C37BD465DF8047B704780B483B000AFF3
:100E180078607B68DB6843F010027B68DA6000BFAB
:100E28000C37BD465DF8047B704780B483B000AFD3
:100E380078607B68DB6823F010027B68DA6000BFAB
:100E48000C37BD465DF8047B704780B483B000AFB3
:100E580078607B68DB6803F01003102B01D1012355
:100E680000E0002318460C37BD465DF8047B704748
:100E780080B483B000AF78607B68DB6843F0200201
:100E88007B68DA6000BF0C37BD465DF8047B7047AD
:100E980080B483B000AF78607B68DB6823F0200201
:100EA8007B68DA6000BF0C37BD465DF8047B70478D
:100EB80080B483B000AF78607B68DB6803F0200300
:100EC800202B01D1012300E0002318460C37BD4632
:100ED8005DF8047B704780B483B000AF78607B68AE
:100EE800DB6843F040027B68DA6000BF0C37BD4620
:100EF8005DF8047B704780B483B000AF78607B688E
:100F0800DB6823F040027B68DA6000BF0C37BD461F
:100F18005DF8047B704780B483B000AF78607B686D
:100F2800DB6803F04003402B01D1012300E00023DC
:100F380018460C37BD465DF8047B704780B483B013
:100F480000AF78607B68DB6843F080027B68DA601A
:100F580000BF0C37BD465DF8047B704780B483B092
:100F680000AF78607B68DB6823F080027B68DA601A
:100F780000BF0C37BD465DF8047B704780B483B072
:100F880000AF78607B68DB6803F08003802B01D1B9
:100F9800012300E0002318460C37BD465DF8047BAA
:100FA800704780B582B000AF78600B467B807B8845
:100FB80003F00103002B0CD07B681B681846FFF771
:100FC800AAFF0346012B04D07B681B681846FFF76D
:100FD80082FF7B8803F00203002B0CD07B681B6820
:100FE8001846FFF799FE0346012B04D07B681B685F
:100FF8001846FFF771FE7B8803F00403002B0CD022
:101008007B681B681846FFF7BAFE0346012B04D01D
:101018007B681B681846FFF792FE7B8803F008037D
:10102800002B0CD07B681B681846FFF7DBFE0346D5
:10103800012B04D07B681B681846FFF7B3FE7B883A
:1010480003F01003002B0CD07B681B681846FFF7D1
:10105800FCFE0346012B04D07B681B681846FFF78B
:10106800D4FE7B8803F02003002B0CD07B681B6820
:101078001846FFF71EFE0346012B04D07B681B6849
:101088001846FFF7F6FD7B8803F04003002B0CD0D1
:101098007B681B681846FFF771FF0346012B04D0D5
:1010A8007B681B681846FFF749FF7B8803F08003BD
:1010B800002B0CD07B681B681846FFF7F9FE034627
:1010C800012B04D07B681B681846FFF7D1FE00BFD0
:1010D8000837BD4680BD80B582B000AF78600B464A
:1010E8007B807B8803F00103002B0CD07B681B6896
:1010F8001846FFF710FF0346012B04D17B681B68D5
:101108001846FFF7F8FE7B8803F00203002B0CD08B
:101118007B681B681846FFF7FFFD0346012B04D1C7
:101128007B681B681846FFF7E7FD7B8803F004031C
:10113800002B0CD07B681B681846FFF720FE03467F
:10114800012B04D17B681B681846FFF708FE7B88D3
:1011580003F00803002B0CD07B681B681846FFF7C8
:1011680041FE0346012B04D17B681B681846FFF734
:1011780029FE7B8803F01003002B0CD07B681B68CA
:101188001846FFF762FE0346012B04D17B681B68F3
:101198001846FFF74AFE7B8803F02003002B0CD08B
:1011A8007B681B681846FFF784FD0346012B04D0B3
:1011B8007B681B681846FFF76CFD7B8803F04003CB
:1011C800002B0CD07B681B681846FFF7D7FE034638
:1011D800012B04D17B681B681846FFF7BFFE7B888C
:1011E80003F08003002B0CD07B681B681846FFF7C0
:1011F8005FFE0346012B04D17B681B681846FFF786
:1012080047FE00BF0837BD4680BD000080B582B0EC
:1012180000AF78600B46FB70FB78022B06D17B6829
:101228001B6801211846FFF7F1FC31E07B681B6859
:10123800194A934213D07B681B68184A93420ED010
:101248007B681B68164A934209D07B681B68154A5D
:10125800934204D07B681B68134A934218D1FB78E9
:10126800032B06D17B681B6804211846FFF7CEFCC8
:101278000EE0FB78042B0BD17B681B680121184614
:10128800FFF7C4FC7B681B6804211846FFF7BEFC07
:1012980000BF0837BD4680BD002C01400034014026
:1012A80000400140004401400048014080B582B040
:1012B80000AF78600B46FB70FB78022B06D17B6889
:1012C8001B6801211846FFF7B2FC31E07B681B68F8
:1012D800194A934213D07B681B68184A93420ED070
:1012E8007B681B68164A934209D07B681B68154ABD
:1012F800934204D07B681B68134A934218D1FB7849
:10130800032B06D17B681B6804211846FFF78FFC66
:101318000EE0FB78042B0BD17B681B680121184673
:10132800FFF785FC7B681B6804211846FFF77FFCE4
:1013380000BF0837BD4680BD002C01400034014085
:1013480000400140004401400048014080B582B09F
:1013580000AF78600B46FB70FB78022B06D17B68E8
:101368001B6810211846FFF751FC31E07B681B68A9
:10137800194A934213D07B681B68184A93420ED0CF
:101388007B681B68164A934209D07B681B68154A1C
:10139800934204D07B681B68134A934218D1FB78A8
:1013A800032B06D17B681B6840211846FFF72EFCEB
:1013B8000EE0FB78042B0BD17B681B6810211846C4
:1013C800FFF724FC7B681B6840211846FFF71EFCCA
:1013D80000BF0837BD4680BD002C014000340140E5
:1013E80000400140004401400048014080B582B0FF
:1013F80000AF78600B46FB70FB78022B06D17B6848
:101408001B6810211846FFF712FC31E07B681B6847
:10141800194A934213D07B681B68184A93420ED02E
:101428007B681B68164A934209D07B681B68154A7B
:10143800934204D07B681B68134A934218D1FB7807
:10144800032B06D17B681B6840211846FFF7EFFB8A
:101458000EE0FB78042B0BD17B681B681021184623
:10146800FFF7E5FB7B681B6840211846FFF7DFFBA9
:1014780000BF0837BD4680BD002C01400034014044
:1014880000400140004401400048014080B582B05E
:1014980000AF78600B46FB70FB78022B07D17B68A6
:1014A8001B684FF480711846FFF7B0FB34E07B6887
:1014B8001B681B4A934213D07B681B68194A9342E6
:1014C8000ED07B681B68184A934209D07B681B685A
:1014D800164A934204D07B681B68154A93421BD175
:1014E800FB78032B07D17B681B684FF48061184693
:1014F800FFF78CFB10E0FB78042B0DD17B681B6891
:101508004FF480711846FFF781FB7B681B684FF426
:1015180080611846FFF77AFB00BF0837BD4680BDDB
:10152800002C0140003401400040014000440140CB
:101538000048014080B582B000AF78600B46FB7070
:10154800FB78022B07D17B681B684FF48071184623
:10155800FFF76DFB34E07B681B681B4A934213D08E
:101568007B681B68194A93420ED07B681B68184A2F
:10157800934209D07B681B68164A934204D07B6863
:101588001B68154A93421BD1FB78032B07D17B6854
:101598001B684FF480611846FFF749FB10E0FB78A1
:1015A800042B0DD17B681B684FF480711846FFF738
:1015B8003EFB7B681B684FF480611846FFF737FBDA
:1015C80000BF0837BD4680BD002C014000340140F3
:1015D80000400140004401400048014080B582B00D
:1015E80000AF78600B46FB70FB78022B06D17B6856
:1015F8001B684FF480511846FFF708FB00BF0837F7
:10160800BD4680BD80B582B000AF78600B46FB70E8
:10161800FB78022B06D17B681B684FF48051184673
:10162800FFF705FB00BF0837BD4680BD80B584B015
:1016380000AF78600023FB607B681B68304A9342E8
:1016480001D1304BFB607B681A68FB681A60FB6845
:101658001B681846FFF7B6FAB860BB68002B06D0BF
:10166800BB68102B03D0FB6801221A7102E0FB68EB
:1016780000221A71FB681B68234A934213D0FB6847
:101688001B68224A93420ED0FB681B68204A93428B
:1016980009D0FB681B681F4A934204D0FB681B688B
:1016A8001D4A934204D1FB681B681846FFF7D1FA1C
:1016B800FB681B68144A934213D0FB681B68134AE3
:1016C80093420ED0FB681B68114A934209D0FB680D
:1016D8001B68104A934204D0FB681B680E4A934269
:1016E80008D17B681B681846FFF784FA0346DAB20C
:1016F800FB685A71FB6818461037BD4680BD00BFAD
:1017080000040040CC020020002C014000340140BD
:1017180000400140004401400048014080B485B0C9
:1017280000AF786039603B68002B03D17B68403399
:10173800FB6001E0044BFB60FB6818461437BD46AC
:101748005DF8047B704700BF0C03045080B483B07D
:1017580000AF78607B68DB6803F44063002B01D13D
:10176800012300E0002318460C37BD465DF8047BD2
:10177800704780B483B000AF786039607B681B6BBA
:1017880023F00F023B681A437B681A6300BF0C37CB
:10179800BD465DF8047B704780B483B000AF7860C5
:1017A80039607B68DB6823F003023B681A437B6877
:1017B800DA6000BF0C37BD465DF8047B704780B423
:1017C80083B000AF78607B68DB6C03F0C003002B4C
:1017D80001D1012300E0002318460C37BD465DF80F
:1017E800047B704780B483B000AF78607B689B68E7
:1017F80023F0004323F03F0343F001027B689A6023
:1018080000BF0C37BD465DF8047B704780B483B0D9
:1018180000AF78607B689B6823F0004323F03F03A8
:1018280043F002027B689A6000BF0C37BD465DF842
:10183800047B704780B483B000AF78607B689B6896
:1018480003F00103012B01D1012300E00023184616
:101858000C37BD465DF8047B704780B483B000AF99
:10186800786039607B689B6823F0404323F03F032E
:101878003A6802F08042134343F000427B689A6062
:1018880000BF0C37BD465DF8047B704780B483B059
:1018980000AF78607B689B6803F00043B3F1004FAA
:1018A80001D1012300E0002318460C37BD465DF83E
:1018B800047B704780B483B000AF78607B689B6816
:1018C80023F0004323F03F0343F004027B689A604F
:1018D80000BF0C37BD465DF8047B704780B483B009
:1018E80000AF78607B689B6823F0004323F03F03D8
:1018F80043F008027B689A6000BF0C37BD465DF86C
:10190800047B704780B483B000AF78607B681B6845
:1019180003F00803082B01D1012300E00023184637
:101928000C37BD465DF8047B704780B483B000AFC8
:1019380078607B681B6803F01003102B01D101232A
:1019480000E0002318460C37BD465DF8047B70475D
:1019580080B483B000AF78607B6810221A6000BF43
:101968000C37BD465DF8047B704780B483B000AF88
:1019780078607B685B6843F008027B685A6000BF48
:101988000C37BD465DF8047B704780B483B000AF68
:1019980078607B685B6843F040027B685A6000BFF0
:1019A8000C37BD465DF8047B704780B483B000AF48
:1019B80078607B685B6823F008027B685A6000BF28
:1019C8000C37BD465DF8047B704780B483B000AF28
:1019D80078607B685B6823F010027B685A6000BF00
:1019E8000C37BD465DF8047B704780B483B000AF08
:1019F80078607B685B6823F040027B685A6000BFB0
:101A08000C37BD465DF8047B704780B483B000AFE7
:101A180078607B685B6823F080027B685A6000BF4F
:101A28000C37BD465DF8047B704780B483B000AFC7
:101A380078607B685B6803F01003102B01D10123E9
:101A480000E0002318460C37BD465DF8047B70475C
:101A580080B483B000AF78607B685B6803F0800374
:101A6800802B01D1012300E0002318460C37BD4626
:101A78005DF8047B7047000080B485B000AF7860E3
:101A880039607B68FB600C4A3B6813441B781A4634
:101A9800FB6813441B6808493A680A4412781146DF
:101AA800FA680A4443F00103136000BF1437BD46C7
:101AB8005DF8047B704700BF1405010880B485B049
:101AC80000AF786039607B68FB600C4A3B68134460
:101AD8001B781A46FB6813441B6808493A680A448D
:101AE80012781146FA680A4423F00103136000BF14
:101AF8001437BD465DF8047B704700BF1405010824
:101B080080B485B000AF786039607B68FB60084AB4
:101B18003B6813441B781A46FB6813441B6803F0A0
:101B2800200318461437BD465DF8047B704700BF94
:101B38001405010880B487B000AFF860B9607A6016
:101B4800FB687B610D4ABB6813441B781A467B69A6
:101B580013445B681B0C1B040849BA680A441278D2
:101B680011467A690A4411467A6813434B6000BFEC
:101B78001C37BD465DF8047B704700BF140501089B
:101B880080B487B000AFF860B9607A603B60FB68EA
:101B98007B613B6A102B14D1174ABB6813441B782E
:101BA8001A467B6913441A467B68D360124ABB689D
:101BB80013441B781A467B6913441A463B689360A2
:101BC80013E00D4ABB6813441B781A467B6913441B
:101BD8001A467B689360084ABB6813441B781A4608
:101BE8007B6913441A463B68D36000BF1C37BD4667
:101BF8005DF8047B704700BF1405010880B487B006
:101C080000AFF860B9607A60FB687B61074ABB681F
:101C180013441B781A467B6913441A467B68936001
:101C280000BF1C37BD465DF8047B704714050108EA
:101C380080B483B000AF78607B681B6803F0200332
:101C4800202B01D1012300E0002318460C37BD46A4
:101C58005DF8047B704780B483B000AF78607B6820
:101C680020225A6000BF0C37BD465DF8047B7047E0
:101C780080B485B000AF786039607B68FB600C4A3F
:101C88003B6813441B781A46FB6813441B680849D1
:101C98003A680A4412781146FA680A4443F0020383
:101CA800136000BF1437BD465DF8047B704700BF62
:101CB8001405010880B485B000AF786039607B688E
:101CC800FB600C4A3B6813441B781A46FB681344B4
:101CD8001B6808493A680A4412781146FA680A44A7
:101CE80043F00803136000BF1437BD465DF8047B5A
:101CF800704700BF1405010880B485B000AF786054
:101D080039607B68FB600C4A3B6813441B781A46B1
:101D1800FB6813441B6808493A680A44127811465C
:101D2800FA680A4423F00203136000BF1437BD4663
:101D38005DF8047B704700BF1405010880B485B0C6
:101D480000AF786039607B68FB600C4A3B681344DD
:101D58001B781A46FB6813441B6808493A680A440A
:101D680012781146FA680A4423F00403136000BF8E
:101D78001437BD465DF8047B704700BF14050108A1
:101D880080B485B000AF786039607B68FB600C4A2E
:101D98003B6813441B781A46FB6813441B680849C0
:101DA8003A680A4412781146FA680A4423F008038C
:101DB800136000BF1437BD465DF8047B704700BF51
:101DC8001405010880B485B000AF786039607B687D
:101DD800FB600A4A3B6813441B781A46FB681344A5
:101DE8001B6803F00203022B01D1012300E000234A
:101DF80018461437BD465DF8047B70471405010882
:101E080080B584B000AF78600123FB817B681B69D3
:101E18001846FFF79BFC0346002B2FD07B685B7AA4
:101E2800DBB2022B11D07B685B7ADBB2042B0CD0BF
:101E38007B685B7ADBB2082B07D07B681B69184686
:101E4800FFF760FD0346012B18D1786800F0F8F819
:101E58000346002B12D17B685B7ADBB2082B03D1D7
:101E68007B6801225A7202E07B6820225A727B68E2
:101E78001B691846FFF71EFD0023FB81FB891846E6
:101E88001037BD4680BD80B586B002AFF860B96036
:101E98007A603B600021F868FFF740FC03461A4669
:101EA8007968B868FFF7AAFE0021F868FFF736FCE2
:101EB80002463B68002100917968B868FFF760FE28
:101EC800BA697968B868FFF735FE7968B868FFF7C6
:101ED800CFFE7968B868FFF7EDFE7968B868FFF754
:101EE800CBFD00BF1037BD4680BD80B584B000AFC4
:101EF800F860B9607A607968B868FFF7DFFD7968DB
:101F0800B868FFF71BFF7968B868FFF739FF796889
:101F1800B868FFF7F1FE00227968B868FFF70AFE93
:101F280000BF1037BD4680BD80B584B000AF786073
:101F380039600223FB737B68DB79012B0FD17B6847
:101F4800DA687B681B685B00D118FB7B7A681268CB
:101F580002FB03F31A4638680EF092FA0AE07B682F
:101F6800D968FB7B7A68126802FB03F31A46386863
:101F78000EF086FA00BF1037BD4680BD80B586B02A
:101F880000AFF860B9607A60FB685A69FB689B79B2
:101F980019461046FFF716FF0346DBB2012B37D16F
:101FA800FB685A69BB68104698470346012B2FD136
:101FB800FB6804225A72FB685A697B681046984786
:101FC800FB685A69FB689B7919461046FFF798FD2C
:101FD8000346002B19D1FB685A69FB689B7919469F
:101FE8001046FFF76BFDFB685869FB689B7919463B
:101FF800FB681B681A46FFF79DFDFB685A69FB687A
:102008009B7919461046FFF737FD0123FB7501E060
:102018000023FB75FB7D18461837BD4680BD0000C0
:1020280080B500AF034A04490448FFF7A7FF00BF83
:1020380080BD00BF5F1C0008391C00085803002041
:1020480080B582B000AF78607B681B691846FFF7DF
:102058006CFC0346DBB2012B07D17B681B69184671
:10206800FFF776FC7B6810225A727B685B7ADBB2DA
:10207800102B0CBF01230023DBB218460837BD46DE
:1020880080BD80B582B000AF78600B46FB70FB78EE
:10209800012B0DD17B681B691846FFF757FB0346D8
:1020A800012B12D07B681B691846FFF703FC0CE074
:1020B8007B681B691846FFF782FB0346012B04D097
:1020C8007B681B691846FFF709FC00BF0837BD4647
:1020D80080BD000090B589B002AFF860084611468F
:1020E8001A4603467B810B463B811346FB8000233F
:1020F8007B61FB681B693C4A934201D13B4B7B6186
:102108007B69002B6BD0FB681A697B691A617B6954
:102118000022DA71FB88012B61D03B89002B47D064
:102128007B695B7ADBB2082B42D0FB68DA687B6993
:10213800DA60FB681A687B691A60FB685A697B6910
:102148005A61FB689A797B699A71FB681A797B698D
:102158001A717B691B69B96A1846FFF70AFB7B8904
:10216800012B21D07B89042B16D17B691B690321A4
:102178001846FFF711FB7B6918697B6959697B6908
:102188009B791C467B69DA687B691B680093134658
:102198002246FFF778FE07E07B89022B04D17B6992
:1021A8001B691846FFF7E1FB7B6908225A7216E0A3
:1021B8003B89002B13D17B699B7ADBB2082B0ED0AD
:1021C800FB685A797B695A717B89022B04D17B6938
:1021D8001B691846FFF7D9FB7B6908229A727B694D
:1021E80018461C37BD4690BD000104505803002016
:1021F80080B582B000AF78607B681B691846FFF72E
:1022080019FB0346002B04D17B681B691846FFF7AE
:10221800E9FA00BF0837BD4680BD80B586B000AF7B
:10222800F8600B467A607B810123FB82FB681B699F
:10223800002B46D07B89012B05D1F868FFF7E0FD1C
:102248000346FB823DE07B89042B1FD1FB681B6999
:102258001846FFF77BFA0346002B32D0FB680122B1
:102268005A72FB681B691846FFF724FB00BFFB681E
:102278005B7ADBB2042BFAD17968F868FFF754FE71
:10228800FB6808225A720023FB821AE07B89022B22
:1022980017D1FB685B7ADBB2202B09D0FB685B7A2D
:1022A800DBB2042B04D0FB685B7ADBB2102B08D1BD
:1022B800FB6808225A727968F868FFF735FE002330
:1022C800FB82FB8A18461837BD4680BD80B582B0B0
:1022D80000AF78600B467B8013463B807B681B69A8
:1022E8001846FFF7A7FA0346002B04D07B681B6942
:1022F8001846FFF78BFA7B681B691846FFF7A8FB9F
:102308000346002B04D07B681B691846FFF77DFB4A
:102318007B681B691846FFF788FB0346002B04D02F
:102328007B681B691846FFF750FB3B88002B35D0AC
:102338007B88012B1AD07B88022B05D17B681B690F
:102348001846FFF732FB11E07B88042B0ED17B681F
:1023580018697B6859697B689B791A46FFF7C5FD40
:102368007B681B6900211846FFF716FA7B68002274
:10237800DA607B6800221A607B6800225A617B68F9
:1023880000229A717B6800221A717B681A697B683F
:102398001B7919461046FFF7ECF90AE07B68002222
:1023A8005A717B88022B04D17B681B691846FFF79A
:1023B8001CFB00BF0837BD4680BD000080B584B057
:1023C80000AF78600B46FB707B681B691846FFF707
:1023D80031FA0346FB7397F90F30012B04D17B6860
:1023E8001B691846FFF712FAFB78002B0FD17B68A0
:1023F8001B697F211846FFF730FA00BF7B681B690D
:102408001846FFF743FA0346012BF7D040E0FB7864
:10241800012B0FD17B681B692C491846FFF71DFA61
:1024280000BF7B681B691846FFF730FA0346012B8B
:10243800F7D02DE07B681B697F211846FFF70DFA5E
:1024480000BF7B681B691846FFF720FA0346012B7B
:10245800F7D00023BB8107E000BFBB891BB29BB24A
:1024680001339BB21BB2BB81BB891BB29BB2032B4E
:10247800F2D97B681B6915491846FFF7EEF900BFCA
:102488007B681B691846FFF701FA0346012BF7D052
:102498000023BB8107E000BFBB891BB29BB201339D
:1024A8009BB21BB2BB81BB891BB29BB2032BF2D977
:1024B80097F90F30012B04D17B681B691846FFF789
:1024C80091F900BF1037BD4680BD00BF00007F40B6
:1024D80080B483B000AF78607B681B6843F001026A
:1024E8007B681A6000BF0C37BD465DF8047B7047F7
:1024F80080B483B000AF78607B681B6823F001026A
:102508007B681A6000BF0C37BD465DF8047B7047D6
:1025180080B483B000AF786039607B681B6823F0B3
:1025280004023B681A437B681A6000BF0C37BD463B
:102538005DF8047B704780B483B000AF78607B6837
:102548001B6803F0040318460C37BD465DF8047B8E
:10255800704780B483B000AF78607B68DB6A184648
:102568000C37BD465DF8047B704780B483B000AF7C
:10257800786039607B683A681A6300BF0C37BD46DB
:102588005DF8047B704780B483B000AF7860396031
:102598007B683A685A6300BF0C37BD465DF8047B18
:1025A800704780B483B000AF786039607B683A6860
:1025B8009A6300BF0C37BD465DF8047B704780B452
:1025C80083B000AF786039607B683A68DA6300BF2F
:1025D8000C37BD465DF8047B704780B483B000AF0C
:1025E800786039607B683A681A6400BF0C37BD466A
:1025F8005DF8047B704780B483B000AF78607B6877
:102608005B6B18460C37BD465DF8047B704780B499
:1026180083B000AF78607B689B6B18460C37BD466B
:102628005DF8047B704780B483B000AF78607B6846
:10263800DB6B18460C37BD465DF8047B704780B4E9
:1026480083B000AF78607B681B6C18460C37BD46BA
:102658005DF8047B704780B483B000AF78607B6816
:102668005B6943F001027B685A6100BF0C37BD46C5
:102678005DF8047B704780B483B000AF78607B68F6
:102688001B6918460C37BD465DF8047B704780B45B
:1026980083B000AF786039607B683A689A6100BFA0
:1026A8000C37BD465DF8047B704780B483B000AF3B
:1026B800786039607B683A689A6200BF0C37BD461B
:1026C8005DF8047B7047000080B584B000AF786087
:1026D80087ED000AD7ED007AF5EEC07AF1EE10FA30
:1026E80003D54FF000033B600AE0D7ED007A9FED79
:1026F800167AF4EEC77AF1EE10FA01DD134B3B605F
:102708007B681B681846FFF724FFF8607B681B7915
:10271800002B0CBF01230023DBB21A46FB681344CD
:1027280007EE903AB8EE677AD7ED007A27EE277A67
:10273800DFED056AC7EE267AFCEEE77A17EE903AE7
:1027480018461037BD4680BD0000C8420000C84288
:1027580080B582B000AF786039607B681B68184626
:10276800FFF749FF02463B68934205D07B681B6828
:1027780039681846FFF707FF00BF0837BD4680BD18
:1027880080B582B000AF786039607B681B681846F6
:10279800FFF73DFF02463B68934205D07B681B6804
:1027A80039681846FFF7FDFE00BF0837BD4680BDF3
:1027B80080B582B000AF786039607B681B681846C6
:1027C800FFF731FF02463B68934205D07B681B68E0
:1027D80039681846FFF7F3FE00BF0837BD4680BDCD
:1027E80080B582B000AF786039607B681B68184696
:1027F800FFF725FF02463B68934205D07B681B68BC
:1028080039681846FFF7E9FE00BF0837BD4680BDA6
:1028180080B584B000AF786087ED000A97ED000AB4
:102828007868FFF751FFF860F9687868FFF790FF5C
:1028380000BF1037BD4680BD80B584B000AF78605A
:1028480087ED000A97ED000A7868FFF73DFFF8600A
:10285800F9687868FFF794FF00BF1037BD4680BD60
:1028680080B584B000AF786087ED000A97ED000A64
:102878007868FFF729FFF860F9687868FFF798FF2C
:1028880000BF1037BD4680BD80B584B000AF78600A
:1028980087ED000A97ED000A7868FFF715FFF860E2
:1028A800F9687868FFF79CFF00BF1037BD4680BD08
:1028B80080B485B000AF78607B681B689A68074B66
:1028C8001340FB60FB68062B0CBF01230023DBB21F
:1028D80018461437BD465DF8047B704707000100B1
:1028E80080B584B000AF78600B46FB707B681B68CE
:1028F8001846FFF720FEF860FB78002B1ED07B6897
:102908001B68324A934213D07B681B68304A934253
:102918000ED07B681B682F4A934209D07B681B68DE
:102928002D4A934204D07B681B682C4A934205D1F8
:102938007B681B6800211846FFF717FEFB68042B0D
:1029480011D07B681B6804211846FFF7E1FD7B68FE
:102958001B681846FFF77FFE7B681B68F9681846F6
:10296800FFF7D6FD04E07B681B681846FFF773FE87
:102978007B681B681846FFF7ABFDFB78002B20D05F
:102988007B681B68114A934213D07B681B68104A06
:1029980093420ED07B681B680E4A934209D07B682D
:1029A8001B680D4A934204D07B681B680B4A93420C
:1029B80007D17B681A687B685B7919461046FFF770
:1029C800D4FD00BF1037BD4680BD00BF002C0140BC
:1029D80000340140004001400044014000480140EB
:1029E80080B582B000AF78607B681B681846FFF737
:1029F8007FFD00BF0837BD4680BD80B485B000AFFD
:102A0800786039607B68012283F8D8203B68D3E975
:102A180000237968C1E902237B6801221A60002338
:102A2800FB600CE07B68D3E902237868F96802311F
:102A3800C9000144C1E90023FB680133FB60FB685E
:102A4800182BEFDD00BF00BF1437BD465DF8047BCF
:102A5800704780B586B000AF87ED040BF860B960A9
:102A68007A60BB68D3E902017B68D3E90023FDF7EC
:102A7800ABFF0346002B05D17B68D3E90023B96877
:102A8800C1E90223F868BB681033C82219460DF063
:102A9800F7FCF968D7E90423C1E93223FB6803F19D
:102AA800D000BB681033C02219460DF0E9FCBB68A2
:102AB80003F11000FB68C833C82219460DF0E0FC8A
:102AC80000BF1837BD4680BD80B485B000AF7860C0
:102AD80039607B68012283F860203B68D3E90023D2
:102AE8007968C1E902237B6801221A600023FB6030
:102AF8000CE07B68D3E902237868F9680231C900E1
:102B08000144C1E90023FB680133FB60FB68092B22
:102B1800EFDD00BF00BF1437BD465DF8047B70478A
:102B280080B586B000AF87ED040BF860B9607A60B5
:102B3800BB68D3E902017B68D3E90023FDF744FFB2
:102B48000346002B05D17B68D3E90023B968C1E9A6
:102B58000223F868BB681033502219460DF090FC28
:102B6800F968D7E90423C1E91423FB6803F1580085
:102B7800BB681033482219460DF082FCBB6803F18C
:102B88001000FB685033502219460DF079FC00BF45
:102B98001837BD4680BD000080B584B000AF87ED12
:102BA800000B38687B6823F000414FF000022C4B83
:102BB800FDF714FF0346002B42D04FF00002294BCB
:102BC800D7E90001FDF71EFF0346002B13D04FF095
:102BD8000002244BD7E90001FDF7D8FA02460B465C
:102BE80043EC172BB0EE470AF0EE670A0DF04CFAEB
:102BF80087ED020B28E04FF000021B4BD7E90001DC
:102C0800FDF70AFF0346002B06D04FF000024FF0F5
:102C18000003C7E9022317E04FF00002114BD7E980
:102C28000001FDF7B1FA02460B4643EC172BB0EE54
:102C3800470AF0EE670A0DF09FF987ED020B03E0F3
:102C4800D7E90023C7E90223D7E9022343EC172B6E
:102C5800B0EE470AF0EE670A1037BD4680BD00BFE8
:102C6800000030430000E03F0000E0BF80B58CB0BA
:102C780002AF78607B6800221A727B6801225A6072
:102C88007B681033BB6100237B741A4BFB611A4BC2
:102C98003B620123BB74002387F82430022387F8A2
:102CA80025300923FB6009233B7407F10C00082336
:102CB8000093042301220421FFF70CFA02467B68E3
:102CC800DA607B68DB6802211846FFF777FB7B68D0
:102CD800DB681846FFF78CFA7B68DB680121184629
:102CE800FFF7CFF97B6801221A7200BF2837BD466B
:102CF80080BD00BF000104500000024080B5A6B0AE
:102D080000AF78601A4BBB6000233B7300237B73D2
:102D180007F108031846FEF789FC02467B68DA606B
:102D28007B68DB6800211846FEF73BF97B68DB68A7
:102D380002211846FEF7AAFB7B68DB6802211846C9
:102D4800FEF74CFC7B68DB681846FFF7B1FD0346CD
:102D580087F8973097F89730002B05D17B68DB68A8
:102D680000211846FFF7BCFD00BF9837BD4680BD5F
:102D78000004004080B5A6B000AF78601A4BBB6075
:102D880000233B7300237B7307F108031846FEF703
:102D98004DFC02467B68DA607B68DB6800211846D8
:102DA800FEF7FFF87B68DB6802211846FEF72EFA6B
:102DB8007B68DB6802211846FEF7C8FA7B68DB6887
:102DC8001846FFF775FD034687F8973097F8973050
:102DD800002B05D17B68DB6800211846FFF780FDD2
:102DE80000BF9837BD4680BD0004004000000000C9
:102DF800B0B5B0B000AFA54BDB68A54A04211846B2
:102E0800FFF70BFAA24BDB89A24A1382A04B1B885F
:102E1800A04AD3839E4B9B899E4A53829C4B5B88D6
:102E28009C4A93839A4B5B899A4A9382984B9B88D6
:102E3800984A5383964B1B89964AD382944BDB88D6
:102E4800944A13830023C7F88C300FE0914AD7F8CF
:102E58008C30083332F813308E49D7F88C2021F89B
:102E68001230D7F88C300133C7F88C30D7F88C3053
:102E7800072BEBDD874B1B881846FDF7C3FA044682
:102E88000D46854A8549864845EC104BFFF7E1FD1C
:102E9800804B03F5D66353E902237E49C1E9122327
:102EA8000023C7F88C301EE0D7F88C300133794AFC
:102EB800D533DB001344D3E90023C7E92423754B3A
:102EC800D3E91223D7E92401FDF7A6FD0346002B19
:102ED80004D07049D7E92423C1E91223D7F88C30EC
:102EE8000133C7F88C30D7F88C30172BDCDD694BF1
:102EF8005B881846FDF786FA04460D46694A6A4912
:102F08006A4845EC104BFFF70BFE624B03F54F6325
:102F180053E902235F49C1E914230023C7F88C3021
:102F28001FE0D7F88C3001335A4A03F29D13DB00B7
:102F38001344D3E90023C7E92423564BD3E91423C8
:102F4800D7E92401FDF768FD0346002B04D0514959
:102F5800D7E92423C1E91423D7F88C300133C7F803
:102F68008C30D7F88C30082BDBDD4A4B93ED147B83
:102F78004F4A50495048B0EE470AF0EE670AFFF74B
:102F880068FD444B03F57C6353E90223C7E9282312
:102F98000023C7F88C301DE0D7F88C3001333D4A48
:102FA80003F2F713DB001344D3E90023C7E9242312
:102FB800D7E92423D7E92801FDF72EFD0346002B86
:102FC80003D0D7E92423C7E92823D7F88C30013365
:102FD800C7F88C30D7F88C30172BDDDD2D4B9B884C
:102FE8001846FDF70FFA04460D46344A3449354869
:102FF80045EC104BFFF72DFD264B03F5046353E911
:1030080002232449C1E914230023C7F88C301FE0A8
:10301800D7F88C3001331F4A03F20713DB0013443F
:10302800D3E90023C7E924231A4BD3E91423D7E9AA
:103038002401FDF7F1FC0346002B04D01549D7E91C
:103048002423C1E91423D7F88C300133C7F88C3016
:10305800D7F88C30172BDBDD0E4BDB881846FDF7D5
:10306800D1F904460D46184A1849194845EC104B41
:10307800FFF7EFFC074B03F5A46353E90223054967
:10308800C1E916230023C7F88C3042E03015002030
:1030980094030020E803002090000020101900206D
:1030A800900A0020B0000020901C0020D0100020C2
:1030B800C8000020401E0020A01300209800002017
:1030C800F0190020200C0020880000203018002073
:1030D80000090020D7F88C3001338B4AA333DB007A
:1030E8001344D3E90023C7E92423874BD3E91623E4
:1030F800D7E92401FDF790FC0346002B04D0824950
:10310800D7E92423C1E91623D7F88C300133C7F84F
:103118008C30D7F88C30172BDCDD7B4B1B8918469D
:10312800FDF770F904460D46784A7949794845EC27
:10313800104BFFF78EFC744BD3E9E223C7E92E232B
:103148000023C7F88C301CE0D7F88C3001336E4A66
:103158007133DB001344D3E90023C7E92423D7E9FB
:103168002423D7E92E01FDF739FC0346002B03D0B1
:10317800D7E92423C7E92E23D7F88C300133C7F8C1
:103188008C30D7F88C30172BDEDD5F4B5B89184607
:10319800FDF738F904460D465F4A6049604845EC3A
:1031A800104BFFF756FC584BD3E97E23C7E92C2375
:1031B8000023C7F88C301CE0D7F88C300133524A12
:1031C8003F33DB001344D3E90023C7E92423D7E9BD
:1031D8002423D7E92C01FDF701FC0346002B03D07B
:1031E800D7E92423C7E92C23D7F88C300133C7F853
:1031F8008C30D7F88C30172BDEDD434B9B89184673
:10320800FDF700F904460D46464A4749474845EC4C
:10321800104BFFF785FC3C4B03F5596353E9022338
:10322800C7E92A230023C7F88C301DE0D7F88C3073
:103238000133354A03F2B113DB001344D3E9002309
:10324800C7E92423D7E92423D7E92A01FDF7C6FBD8
:103258000346002B03D0D7E92423C7E92A23D7F84C
:103268008C300133C7F88C30D7F88C30082BDDDD73
:103278002F4A3049304897ED2A0BFFF7EAFB224BDB
:1032880003F5636353E90223C7E926230023C7F83C
:103298008C301DE0D7F88C3001331B4A03F2C5137C
:1032A800DB001344D3E90023C7E92423D7E9242307
:1032B800D7E92601FDF7B0FB0346002B03D0D7E979
:1032C8002423C7E92623D7F88C300133C7F88C307C
:1032D800D7F88C30172BDDDD0B4BDB891846FDF753
:1032E80091F804460D46154A1549164845EC104B09
:1032F800FFF7AFFB044BD3E91A23C7E92A230023BE
:10330800C7F88C303DE000BFE803002080000020B3
:103318005017002070070020780000207016002049
:10332800E0050020B8000020F81C002070110020E3
:10333800C0000020601D0020101200207000002036
:103348009015002050040020D7F88C300133B64A7D
:103358000D33DB001344D3E90023C7E92423D7E95D
:103368002423D7E92A01FDF739FB0346002B03D0B4
:10337800D7E92423C7E92A23D7F88C300133C7F8C3
:103388008C30D7F88C30172BDEDDA74B93ED127BF2
:10339800B0EE470AF0EE670A0CF076FEB0EE407A1F
:1033A800F0EE607A9FED9E1BB0EE470AF0EE670ADA
:1033B8000CF0AAFD87ED240B4FF000024FF000033C
:1033C800D7E92401FDF70AFB0346002B10D0D7F8F4
:1033D8009030BB67D7F8943083F00043FB67D7E998
:1033E8001E01FDF739FB03469BB25B429BB205E029
:1033F800D7E92401FDF730FB03469BB28B4A1380C3
:1034080097ED280B0CF040FEB0EE407AF0EE607AB3
:103418009FED831BB0EE470AF0EE670A0CF074FDCF
:1034280087ED240B4FF000024FF00003D7E9240189
:10343800FDF7D4FA0346002B10D0D7F890303B673D
:10344800D7F8943083F000437B67D7E91C01FDF778
:1034580003FB03469BB25B429BB205E0D7E924011C
:10346800FDF7FAFA03469BB2704A53806E4B93ED10
:10347800147BB0EE470AF0EE670A0CF005FEB0EEDA
:10348800407AF0EE607A9FED661BB0EE470AF0EEE8
:10349800670A0CF039FD87ED240B4FF000024FF05E
:1034A8000003D7E92401FDF799FA0346002B10D051
:1034B800D7F89030BB66D7F8943083F00043FB66AA
:1034C800D7E91A01FDF7C8FA03469BB25B429BB2E3
:1034D80005E0D7E92401FDF7BFFA03469BB2534A3A
:1034E8009380514B93ED167BB0EE470AF0EE670AD6
:1034F8000CF0CAFDB0EE407AF0EE607A9FED481B02
:10350800B0EE470AF0EE670A0CF0FEFC87ED240BDC
:103518004FF000024FF00003D7E92401FDF75EFAEF
:103528000346002B10D0D7F890303B66D7F894307C
:1035380083F000437B66D7E91801FDF78DFA03464F
:103548009BB25B429BB205E0D7E92401FDF784FA00
:1035580003469BB2354AD38097ED2E0B0CF094FDB1
:10356800B0EE407AF0EE607A9FED2D1BB0EE470A80
:10357800F0EE670A0CF0C8FC87ED240B4FF0000250
:103588004FF00003D7E92401FDF728FA0346002B82
:1035980010D0D7F89030BB65D7F8943083F000434B
:1035A800FB65D7E91601FDF757FA03469BB25B4264
:1035B8009BB205E0D7E92401FDF74EFA03469BB21A
:1035C8001A4A138197ED2C0B0CF05EFDB0EE407A91
:1035D800F0EE607A9FED121BB0EE470AF0EE670A34
:1035E8000CF092FC87ED240B4FF000024FF0000323
:1035F800D7E92401FDF7F2F90346002B18D0D7F8D4
:1036080090303B65D7F8943083F000437B65D7E969
:103618001401FDF721FA03469BB25B429BB20DE011
:10362800000000000000F040E8030020A80300208C
:10363800D7E92401FDF710FA03469BB2A24A538149
:1036480097ED260B0CF020FDB0EE407AF0EE607A94
:103658009FED9B1BB0EE470AF0EE670A0CF054FC96
:1036680087ED240B4FF000024FF00003D7E9240147
:10367800FDF7B4F90346002B10D0D7F89030BB649F
:10368800D7F8943083F00043FB64D7E91201FDF7C3
:10369800E3F903469BB25B429BB205E0D7E92401FC
:1036A800FDF7DAF903469BB2874A938197ED2A0B17
:1036B8000CF0EAFCB0EE407AF0EE607A9FED801BE9
:1036C800B0EE470AF0EE670A0CF01EFC87ED240BFB
:1036D8004FF000024FF00003D7E92401FDF77EF90F
:1036E8000346002B10D0D7F890303B64D7F89430BD
:1036F80083F000437B64D7E91001FDF7ADF9034679
:103708009BB25B429BB205E0D7E92401FDF7A4F91F
:1037180003469BB26C4AD3816C4BB3F862306A4A59
:1037280013826B4B03F5D66353E90223C7E92823B9
:103738000023C7F88C301CE0D7F88C300133644A7A
:10374800D533DB001344D3E90023C7E92423D7E9A1
:103758002423D7E92801FDF75FF90346002B03D09E
:10376800D7E92423C7E92823D7F88C300133C7F8D1
:103778008C30D7F88C30172BDEDD554B5B8818461C
:10378800FCF740FE04460D46524A5349534845EC5F
:10379800104BFFF75EF94E4B03F5366353E90223EE
:1037A800C7E926230023C7F88C301DE0D7F88C30F2
:1037B8000133474A03F26B13DB001344D3E90023B8
:1037C800C7E92423D7E92423D7E92601FDF724F9FB
:1037D8000346002B03D0D7E92423C7E92623D7F8CB
:1037E8008C300133C7F88C30D7F88C30172BDDDDDF
:1037F800374B03F5046353E902233549C1E9142320
:103808000023C7F88C301FE0D7F88C300133304ADA
:1038180003F20713DB001344D3E90023C7E9242389
:103828002B4BD3E91423D7E92401FDF7D7F8034636
:10383800002B04D02649D7E92423C1E91423D7F85B
:103848008C300133C7F88C30D7F88C30172BDBDD80
:103858001F4B03F5A46353E902231D49C1E916234D
:103868000023C7F88C301EE0D7F88C300133184A93
:10387800A333DB001344D3E90023C7E92423144B03
:10388800D3E91623D7E92401FDF7A8F80346002B4E
:1038980004D00F49D7E92423C1E91623D7F88C307F
:1038A8000133C7F88C30D7F88C30172BDCDD084B88
:1038B800D3E9E223C7E92E230023C7F88C302CE094
:1038C800000000000000F040A803002000000020D5
:1038D800E8030020A8000020B01B0020400F0020B3
:1038E800D7F88C300133AA4A7133DB001344D3E98B
:1038F8000023C7E92423D7E92423D7E92E01FDF7BC
:103908008BF80346002B03D0D7E92423C7E92E23DD
:10391800D7F88C300133C7F88C30D7F88C30172B98
:10392800DEDD9B4BD3E97E23C7E92C230023C7F8B0
:103938008C301CE0D7F88C300133954A3F33DB00DC
:103948001344D3E90023C7E92423D7E92423D7E97B
:103958002C01FDF761F80346002B03D0D7E9242397
:10396800C7E92C23D7F88C300133C7F88C30D7F847
:103978008C30172BDEDD864B9B891846FCF742FD01
:1039880004460D46834A8449844845EC104BFFF7AA
:1039980060F87F4B03F51D6353E90223C7E92A2327
:1039A8000023C7F88C301DE0D7F88C300133784AF3
:1039B80003F23913DB001344D3E90023C7E92423B6
:1039C800D7E92423D7E92A01FDF726F80346002B77
:1039D80003D0D7E92423C7E92A23D7F88C30013349
:1039E800C7F88C30D7F88C30172BDDDD684BD3E95E
:1039F8001A236749C1E912230023C7F88C301EE057
:103A0800D7F88C300133624A0D33DB001344D3E915
:103A18000023C7E924235E4BD3E91223D7E9240105
:103A2800FCF7DCFF0346002B04D05949D7E92423CF
:103A3800C1E91223D7F88C300133C7F88C30D7F896
:103A48008C30172BDCDD97ED280B0CF01DFBB0EE4E
:103A5800407AF0EE607A9FED4C1BB0EE470AF0EE2C
:103A6800670A0CF051FA87ED240B4FF000024FF073
:103A78000003D7E92401FCF7B1FF0346002B10D05F
:103A8800D7F89030BB63D7F8943083F00043FB63DA
:103A9800D7E90E01FCF7E0FF03469BB25B429BB2FD
:103AA80005E0D7E92401FCF7D7FF03469BB23C4A5F
:103AB800138097ED260B0CF0E7FAB0EE407AF0EEA3
:103AC800607A9FED311BB0EE470AF0EE670A0CF002
:103AD8001BFA87ED240B4FF000024FF00003D7E9E3
:103AE8002401FCF77BFF0346002B10D0D7F8903059
:103AF8003B63D7F8943083F000437B63D7E90C012C
:103B0800FCF7AAFF03469BB25B429BB205E0D7E9EC
:103B18002401FCF7A1FF03469BB2214A53801C4BAA
:103B280093ED147BB0EE470AF0EE670A0CF0ACFA9E
:103B3800B0EE407AF0EE607A9FED131BB0EE470AC4
:103B4800F0EE670A0CF0E0F987ED240B4FF0000265
:103B58004FF00003D7E92401FCF740FF0346002B90
:103B680020D0D7F89030BB62D7F8943083F0004368
:103B7800FB62D7E90A01FCF76FFF03469BB25B4281
:103B88009BB215E0AFF30080000000000000F04099
:103B9800E8030020A0000020D01A0020B00D00206B
:103BA800BC030020D7E92401FCF756FF03469BB26B
:103BB800934A9380934B93ED167BB0EE470AF0EE51
:103BC800670A0CF061FAB0EE407AF0EE607A9FED89
:103BD8008A1BB0EE470AF0EE670A0CF095F987EDFC
:103BE800240B4FF000024FF00003D7E92401FCF743
:103BF800F5FE0346002B10D0D7F890303B62D7F87B
:103C0800943083F000437B62D7E90801FCF724FF76
:103C180003469BB25B429BB205E0D7E92401FCF75F
:103C28001BFF03469BB2764AD38097ED2E0B0CF010
:103C38002BFAB0EE407AF0EE607A9FED6F1BB0EE93
:103C4800470AF0EE670A0CF05FF987ED240B4FF096
:103C580000024FF00003D7E92401FCF7BFFE03463A
:103C6800002B10D0D7F89030BB61D7F8943083F090
:103C78000043FB61D7E90601FCF7EEFE03469BB261
:103C88005B429BB205E0D7E92401FCF7E5FE034659
:103C98009BB25B4A138197ED2C0B0CF0F5F9B0EE53
:103CA800407AF0EE607A9FED541BB0EE470AF0EED2
:103CB800670A0CF029F987ED240B4FF000024FF04A
:103CC8000003D7E92401FCF789FE0346002B10D036
:103CD800D7F890303B61D7F8943083F000437B618C
:103CE800D7E90401FCF7B8FE03469BB25B429BB2DE
:103CF80005E0D7E92401FCF7AFFE03469BB2404A32
:103D0800538197ED2A0B0CF0BFF9B0EE407AF0EE34
:103D1800607A9FED391BB0EE470AF0EE670A0CF0A7
:103D2800F3F887ED240B4FF000024FF00003D7E9BA
:103D38002401FCF753FE0346002B10D0D7F890302F
:103D4800BB60D7F8943083F00043FB60D7E90201E9
:103D5800FCF782FE03469BB25B429BB205E0D7E9C3
:103D68002401FCF779FE03469BB2254A9381254B33
:103D780093ED127BB0EE470AF0EE670A0CF084F977
:103D8800B0EE407AF0EE607A9FED1B1BB0EE470A6A
:103D9800F0EE670A0CF0B8F887ED240B4FF000023C
:103DA8004FF00003D7E92401FCF718FE0346002B67
:103DB80010D0D7F890303B60D7F8943083F00043A8
:103DC8007B60D7E90001FCF747FE03469BB25B42E4
:103DD8009BB205E0D7E92401FCF73EFE03469BB2FF
:103DE800074AD381084BB3F86420054B1A82002395
:103DF800C7F88C301BE000BF000000000000F04056
:103E0800BC030020E803002000000020AC4AD7F8DB
:103E18008C30134400221A70AA4AD7F88C3000213B
:103E280022F81310D7F88C300133C7F88C30D7F844
:103E38008C30072BEADDA44B00221A60A34B00222A
:103E48001A60A348FEF717FCC7F88800A148FEF7D8
:103E580012FCC7F88400D7F8843003F00403002B61
:103E68000CBF01230023DBB287F883309A4BB3F8E9
:103E780060301A46994B5B8802FB03F31846FCF73F
:103E8800C1FA4FF00002964BFCF736FB02460B4690
:103E980010461946904BD3E90023FCF757FC02461D
:103EA8000B4643EC172BB0EE470AF0EE670AFEF715
:103EB80073FE51EC100B884BD3E90023FCF71CFB75
:103EC80002460B4614461D46834BB3F860301A462B
:103ED800824B9B8902FB03F31846FCF793FA4FF0D9
:103EE80000027F4BFCF708FB02460B4610461946BA
:103EF800794BD3E90023FCF729FC02460B4643EC37
:103F0800172BB0EE470AF0EE670AFEF745FE51ECB4
:103F1800100B714BD3E90023FCF7EEFA02460B466F
:103F280020462946FCF732F902460B461046194648
:103F3800694BD3E90223FCF7DFFA02460B46C7E9CF
:103F48002823654BB3F860301A46644B1B8902FB83
:103F580003F31846FCF756FA4FF00002604BFCF7E3
:103F6800CBFA02460B46104619465B4BD3E90023B1
:103F7800FCF7ECFB02460B4643EC172BB0EE470A66
:103F8800F0EE670AFEF708FE51EC100B524BD3E92E
:103F98000023FCF7B1FA02460B46104619464E4B71
:103FA800D3E90823FCF72EFD0346002B05D04A4B26
:103FB800D3E90423C7E9262304E0474BD3E90623C2
:103FC800C7E92623444BB3F860301A46434BDB88D5
:103FD80002FB03F31846FCF715FA4FF00002404BBA
:103FE800FCF78AFA02460B46104619463A4BD3E9C3
:103FF8000023FCF7ABFB02460B4643EC172BB0EE55
:10400800470AF0EE670AFEF7C7FD51EC100B324B7A
:10401800D3E90023FCF770FA02460B46104619460E
:104028002D4BD3E90A23FCF7EDFC0346002B05D002
:10403800294BD3E90423C7E9242304E0264BD3E919
:104048000623C7E92423274B93F858301E2B07D89B
:10405800244B93F858300133DAB2224B83F85820B6
:10406800204B93F8543003F00803DBB2002B0FD138
:104078001C4A92F8543043F0080382F85430194A25
:1040880092F85430062161F3020382F854308EE22C
:10409800144B93F85430C3F30203DBB2013B042BF7
:1040A80000F25C8201A252F823F000BFF140000840
:1040B800854200080B430008E5430008A5440008B2
:1040C800E0030020D00300208C0300209003002090
:1040D800001000480004004800000020940300205D
:1040E8000000503E301500204FF00002B84BD7E9D1
:1040F8002801FCF787FC0346002B2ED04FF0000266
:104108004FF00003D7E92601FCF75EFC0346002BBD
:1041180023D04FF000024FF00003D7E92401FCF749
:1041280053FC0346002B18D1AA4B002283F86020C9
:10413800A84B002283F86220A74B002283F858205E
:10414800A54A92F85430032161F3020382F85430EF
:10415800A04B012283F861208FE04FF000029C4BB6
:10416800D7E92801FCF74EFC0346002B2ED04FF070
:1041780000024FF00003D7E92601FCF725FC0346AF
:10418800002B23D14FF000024FF00003D7E92401A0
:10419800FCF71AFC0346002B18D08E4B002283F83C
:1041A80062208C4B002283F861208B4B002283F81D
:1041B8005820894A92F85430042161F3020382F8A6
:1041C8005430844B012283F8602056E04FF00002FF
:1041D8007F4BD7E92801FCF715FC0346002B2ED0AE
:1041E8004FF000024FF00003D7E92601FCF7ECFB83
:1041F8000346002B23D14FF000024FF00003D7E90C
:104208002401FCF7E1FB0346002B18D1714B002277
:1042180083F860206F4B002283F861206E4B0022E8
:1042280083F858206C4A92F85430052161F3020350
:1042380082F85430674B012283F862201DE097F81A
:104248008330002B00F0B281634B002283F85820A2
:10425800614A92F85430022161F3020382F8543023
:104268005C4B012283F860205A4B002283F86220BD
:10427800584B012283F8612098E197E1564B93F857
:104288005830042B18D997F88330002B14D0514B91
:10429800002283F860204F4B002283F862204D4BA8
:1042A800002283F861204C4A92F85430062161F3C9
:1042B800020382F854307AE1464B93F86030002BC1
:1042C8000CBF01230023DBB21A46424B83F860205F
:1042D800404B93F86230002B0CBF01230023DBB264
:1042E8001A463C4B83F862203A4B93F86130002B16
:1042F8000CBF01230023DBB21A46364B83F861203A
:1043080055E1354B93F858300B2B22D931494FF0F2
:1043180000024FF00003C1E90A232E494FF00002C2
:104328004FF00003C1E910232B4A92F854300121C1
:1043380061F3020382F85430264B012283F860208F
:10434800244B012283F86220224B012283F861204A
:104358002DE197F88330002B26D01E494FF000023C
:104368004FF00003C1E90A231A494FF000024FF049
:104378000003C1E91023184B002283F85820164A7D
:1043880092F85430022161F3020382F85430114B41
:10439800012283F860200F4B002283F862200D4B26
:1043A800012283F8612002E10A4907A3D3E9002327
:1043B800C1E90A23074904A3D3E90023C1E910236B
:1043C800F5E000BFAFF300800000000000C05240DD
:1043D8000000F83FE803002030150020B04B93F8A8
:1043E80058300B2B22D9AF494FF000024FF0000391
:1043F800C1E90C23AB494FF000024FF00003C1E9BB
:104408000E23A74A92F85430012161F3020382F87F
:104418005430A44B012283F86020A24B012283F878
:104428006220A04B012283F86120C0E097F8833016
:10443800002B26D09B494FF000024FF00003C1E942
:104448000C2398494FF000024FF00003C1E90E23F6
:10445800934B002283F85820914A92F85430022155
:1044680061F3020382F854308E4B012283F86020F6
:104478008C4B002283F862208A4B012283F861204A
:1044880095E0884984A3D3E90023C1E90C23854931
:1044980081A3D3E90023C1E90E2388E0804B93F878
:1044A8005830182B22D97F494FF000024FF00003F3
:1044B800C1E90A237B494FF000024FF00003C1E92C
:1044C8001023774A92F85430012161F3020382F8ED
:1044D8005430744B012283F86020724B012283F818
:1044E8006220704B012283F8612060E097F88330E6
:1044F800002B26D06B494FF000024FF00003C1E9B2
:104508000A2368494FF000024FF00003C1E9102365
:10451800634B002283F85820614A92F854300221F4
:1045280061F3020382F854305E4B012283F8602065
:104538005C4B002283F862205A4B012283F86120E9
:1045480035E0584954A3D3E90023C1E90A23554962
:1045580051A3D3E90023C1E9102328E0D7F8883014
:1045680003F04003002B14D14D4A92F85430012136
:1045780061F3020382F854304A4B012283F8602029
:10458800484B012283F86220464B012283F86120C0
:104598000DE0444B93F86030002B0CBF012300233F
:1045A800DBB21A463F4B83F8602000E000BF3C4B6B
:1045B8001C6D3C4BD3E9102310461946FCF76CFAE6
:1045C800034600EE103A2046FEF74AF9344B1C6DBC
:1045D800344BD3E90E2310461946FCF75DFA03461F
:1045E80000EE103A2046FEF74FF92D4B1C6C2D4B70
:1045F800D3E90A2310461946FCF74EFA034600EEA3
:10460800103A2046FEF704F9254B1C6C254BD3E9DC
:104618000C2310461946FCF73FFA034600EE103A01
:104628002046FEF709F91F4B1F4A1A621F4BD3E9B0
:104638000C014FF000024FF00003FCF7C5F90346E8
:10464800002B03D18023C7F88C3002E00023C7F881
:104658008C30144B1B6AD7F88C2011461846FEF78D
:1046680016F8104B1A6AD7F88C30DB4303F0800336
:1046780019461046FEF719F80A4B0D4A1A62094BFB
:1046880093F86030002B15D04FF40053C7F88C30E6
:1046980013E000BFAFF300800000000000C05240EC
:1046A80030150020E8030020000C0048000000201E
:1046B800000800480023C7F88C30B44B1B6AD7F8B1
:1046C8008C2011461846FDF7E2FFB04B1A6AD7F85E
:1046D8008C30DB4303F4005319461046FDF7E5FF21
:1046E800AA4BAB4A1A62A94B93F86230002B04D04C
:1046F8004FF48043C7F88C3002E00023C7F88C30B1
:10470800A24B1B6AD7F88C2011461846FDF7BFFF4D
:104718009E4B1A6AD7F88C30DB4303F48043194662
:104728001046FDF7C2FF994B994A1A62974B93F8C6
:104738006130002B04D04FF40043C7F88C3002E0FE
:104748000023C7F88C30914B1B6AD7F88C20114690
:104758001846FDF79CFF8D4B1A6AD7F88C30DB435F
:1047680003F4004319461046FDF79FFF874B894A1B
:104778001A62894BD3E90E014FF000024FF0000393
:10478800FCF722F90346002B03D10823C7F88C3025
:1047980002E00023C7F88C307C4B1B6AD7F88C20CA
:1047A80011461846FDF773FF784B1A6AD7F88C3014
:1047B800DB4303F0080319461046FDF776FF734BF9
:1047C800764A1A62744BD3E910014FF000024FF099
:1047D8000003FCF7F9F80346002B04D14FF40073EB
:1047E800C7F88C3002E00023C7F88C30674B1B6A8F
:1047F800D7F88C2011461846FDF749FF634B1A6A13
:10480800D7F88C30DB4303F4007319461046FDF7E4
:104818004CFF5E4B614A1A625F4BD3E910014FF0BF
:1048280000024FF00003FCF7CFF80346002B04D139
:104838004FF48043C7F88C3002E00023C7F88C306F
:10484800524B1B6AD7F88C2011461846FDF71FFFFC
:104858004E4B1A6AD7F88C30DB4303F48043194671
:104868001046FDF722FF494B4C4A1A624A4BD3E9DE
:1048780012014FF000024FF00003FCF7A5F80346C1
:10488800002B04D14FF48073C7F88C3002E000236A
:10489800C7F88C303D4B1B6AD7F88C201146184658
:1048A800FDF7F5FE394B1A6AD7F88C30DB4303F471
:1048B800807319461046FDF7F8FE344B374A1A62E2
:1048C800354BD3E912014FF000024FF00003FCF71B
:1048D8007BF80346002B04D14FF40043C7F88C3013
:1048E80002E00023C7F88C30284B1B6AD7F88C20CD
:1048F80011461846FDF7CBFE244B1A6AD7F88C30C0
:10490800DB4303F4004319461046FDF7CEFE1F4B68
:10491800224A1A62204BD3E912014FF000024FF0ED
:104928000003FCF751F80346002B04D14FF48053E1
:10493800C7F88C3002E00023C7F88C30134B1B6A91
:10494800D7F88C2011461846FDF7A1FE0F4B1A6ABE
:10495800D7F88C30DB4303F4805319461046FDF733
:10496800A4FE0A4B0B4A1A620B4BD3E910014FF015
:1049780000024FF00003FCF727F80346002B0FD185
:104988004FF48053C7F88C300DE000BFE8030020D7
:1049980000080048000400480000002000100048FB
:1049A8000023C7F88C30374B1B6AD7F88C20114688
:1049B8001846FDF76CFE334B1A6AD7F88C30DB4388
:1049C80003F4805319461046FDF76FFE2D4B2E4A0F
:1049D8001A622E4BD3E910014FF000024FF000038A
:1049E800FBF7F2FF0346002B04D14FF40053C7F83E
:1049F8008C3002E00023C7F88C30224B1B6AD7F8B2
:104A08008C2011461846FDF742FE1E4B1A6AD7F84D
:104A18008C30DB4303F4005319461046FDF745FE7E
:104A2800184B194A1A62194BD3E912014FF00002C8
:104A38004FF00003FBF7C8FF0346002B04D14FF4E7
:104A48000063C7F88C3002E00023C7F88C300D4BA8
:104A58001B6AD7F88C2011461846FDF718FE094B3B
:104A68001A6AD7F88C30DB4303F400631946104602
:104A7800FDF71BFE00F0CEFA00F0E2FB00BFC037E6
:104A8800BD46B0BDE803002000100048000000202B
:104A980080B582B000AF00237B6017E05A4BB3F8B3
:104AA80066105A4A7B6822F81310574BB3F86810FF
:104AB800574A7B6822F81310534BB3F86A10554ACB
:104AC8007B6822F813107B6801337B607B68082BB6
:104AD800E4DD00237B6011E04B4B93F86E104E4AE7
:104AE8007B6813440A461A70474BB3F86C104B4A5C
:104AF8007B6822F813107B6801337B607B68072B87
:104B0800EADD414B1B6D464A13603F4B5B6D454ADE
:104B180013603D4B9B6D444A13603B4BDB6D434A2E
:104B28001360394B9B6D404A5360374BDB6D3F4AEE
:104B38005360354B9B6D3C4A9360334BDB6D3B4A6E
:104B4800936000F0FBFA3A4B00225A60384B00227F
:104B58001A703748FEF78AF836493748FDF74DFF8F
:104B680036493748FDF7B0FF36493748FDF745FF66
:104B780036493748FDF741FF36493748FDF73DFFCD
:104B880036493748FDF739FF36493748FDF735FFCD
:104B980036493748FDF798FF36493748FDF72DFF66
:104BA80036493748FDF729FF36493748FDF725FFCD
:104BB80036493748FDF721FF1D4B002283F8442072
:104BC8001B4B002283F84C20194B01229A64314870
:104BD800FEF794F8164B012283F84C20144B002260
:104BE80083F83420124B002283F83C20104B01221A
:104BF8009A632948FEF7BEF80D4B012283F83C2042
:104C080000BF0837BD4680BD000000209403002087
:104C1800A8030020BC030020E0030020D0030020EC
:104C28008C030020900300207403002080030020E0
:104C3800301500209000002010190020B00000203E
:104C4800901C0020C8000020401E00209800002072
:104C5800F019002088000020301800208000002073
:104C6800501700207800002070160020B80000209F
:104C7800F81C0020C0000020601D002070000020EB
:104C880090150020A8000020B01B0020A0000020E4
:104C9800D01A0020741500206415002080B500AFDC
:104CA800344B1B78002B11D1324B01221A70314B37
:104CB8005B68012B0AD12F4B1B7A002B06D02D4B9A
:104CC800DB68012204211846FDF700FB294B93F805
:104CD8004430002B23D1274B012283F84420254B55
:104CE8009B6C012B1BD1234B93F84C30002B16D017
:104CF800204B1B6D1846FDF773FE1E4B1B6D0021E4
:104D08001846FCF7E8F91B4B1B6D02211846FCF707
:104D180011FC184B1B6D02211846FCF773FC154B50
:104D280093F83430002B23D1124B012283F834201E
:104D3800104B9B6B012B1BD10E4B93F83C30002B77
:104D480016D00C4B1B6C1846FDF74AFE094B1B6C22
:104D580000211846FCF7BFF9064B1B6C02211846C8
:104D6800FCF7A4FA034B1B6C02211846FCF73EFB28
:104D780000BF80BD3015002080B489B000AFF86056
:104D8800B9607A60FB68BB610023FB61BB689B0864
:104D98007B611B4B1B68B3F5C87F2AD00023FB61DE
:104DA80022E0174B1B6817497A6841F82320FB69F2
:104DB8009B00BA691A44124B1B681268114903F523
:104DC800C87341F823200E4B1B680F4A12680D491F
:104DD80003F5487341F82320094B1B680133084A3F
:104DE8001360FB690133FB61FA697B699A42D8D386
:104DF80000E000BF2437BD465DF8047B704700BF64
:104E0800241F00202C1F0020281F002080B584B0FC
:104E180000AF786072B600BF00F060FC0346FB602C
:104E280007F10C037A6804211846FFF7A5FF62B65C
:104E380000BF00BF1037BD4680BD000080B500AF81
:104E4800124B1B785A1CD1B2104A1170002B09D092
:104E58000F4B01221A600D4B1B78013BDAB20B4B4A
:104E68001A7011E062B600BF02200BF031F8FDF7AE
:104E7800BFFF02200BF037F872B600BF034B1B7858
:104E8800013BDAB2014B1A7080BD00BFF03100203F
:104E9800EC31002080B584B000AF78603960374BC2
:104EA800FB60374BBB60374B00221A70364B002231
:104EB8001A7001DF06F026FB00F0E0FE00F02EFF7E
:104EC80000F08EFF01F054FF01F072FB02F09EF932
:104ED80001F0BEFF02F04AFA01F00EFD02F00EFDED
:104EE80002F066FC294B1B6800221A6001200AF0B8
:104EF800EFFFFFF7CDFD01200AF0F5FF72B600BF06
:104F080097ED030A00F08AFC204B1B681B68002BF6
:104F18000CBF01230023DBB21A461B4B1A7062B682
:104F280000BF62B600BF15E0184B1B681B68002B5A
:104F380014BF01230023DBB21A46124B1A70114B1F
:104F48001B78DBB2002B05D0114B1B68104A23F0ED
:104F5800010313600C4B1B78DBB2002BE4D1032058
:104F68000AF0B6FFFFF79AFE03200AF0BCFF72B6FC
:104F780000BF002318461037BD4680BDCDCCCC3DC0
:104F88000000A042F1310020F23100201C05010888
:104F980010E000E080B485B000AF0346FB80B7F9AD
:104FA8000630002B02DBFB88FB8101E0FB88FB81DC
:104FB800B7F90E3018461437BD465DF8047B7047C4
:104FC80080B588B004AF03460A46FB711346BB712F
:104FD800FB799BB25B009BB2013399B2BB799AB261
:104FE8004FF0FF3302930223019307F10C03009360
:104FF8000123074806F078FE3B7B1B021AB27B7B35
:105008001BB213431BB29BB218461037BD4680BD76
:105018001C32002080B500AF3B216920FFF7D0FF8C
:1050280003461846FFF7B6FF03461A4613469B0089
:1050380013445B0007EE903AB8EEE77ADFED3B6A7F
:10504800C7EE267A3A4BC3ED007A3D216920FFF777
:10505800B7FF03461846FFF79DFF03461A46134657
:105068009B0013445B0007EE903AB8EEE77ADFED59
:105078002F6AC7EE267A2E4BC3ED017A3F216920AD
:10508800FFF79EFF03461846FFF784FF03461A46BC
:1050980013469B0013445B0007EE903AB8EEE77A9C
:1050A800DFED226AC7EE267A214BC3ED027A43214F
:1050B8006920FFF785FF03461846FFF76BFF034695
:1050C80007EE903AB8EEE77ADFED1A6AC7EE267A6D
:1050D800194BC3ED007A45216920FFF771FF03469C
:1050E8001846FFF757FF034607EE903AB8EEE77AFF
:1050F800DFED106AC7EE267A0F4BC3ED017A472120
:105108006920FFF75DFF03461846FFF743FF034694
:1051180007EE903AB8EEE77ADFED066AC7EE267A30
:10512800054BC3ED027A00BF80BD00BF000080467A
:1051380074030020000003438003002080B586B07C
:1051480004AF0023FB714FF0FF3302930123019357
:10515800FB1D009301236B22D2211D4806F0B0FCF1
:105168004FF0FF3302930123019307230093012398
:105178001922D221164806F0A3FC4FF0FF33029300
:10518800012301930023009301231C22D2211048FC
:1051980006F096FC4FF0FF3302930123019300239E
:1051A800009301231B22D221094806F089FC4FF005
:1051B800FF33029301230193064B009301237522C9
:1051C800D321034806F090FD00BF0837BD4680BDD7
:1051D8001C320020F331002080B582B000AF0023DC
:1051E8007B600FE07B68432B08D07B68052B05D0DC
:1051F8007B685BB2184607F0E5FA00E000BF7B6801
:1052080001337B607B68EF2BECD900BF00BF083708
:10521800BD4680BD80B582B000AF00237B6007E04B
:105228007B685BB2184607F0BFFA7B6801337B6086
:105238007B68EF2BF4D900BF00BF0837BD4680BD9F
:1052480080B500AF4021AA4806F092FB0346002B28
:1052580014BF01230023DAB2A64B1A700421A64812
:1052680006F086FB0346002B14BF01230023DAB2A5
:10527800A04B5A704FF40051A04806F079FB034642
:10528800002B14BF01230023DAB29D4B1A704FF490
:1052980080419A4806F06CFB0346002B14BF01239B
:1052A8000023DAB2964B5A704FF40041934806F047
:1052B8005FFB0346002B14BF01230023DAB2904B97
:1052C8009A704FF480518C4806F052FB0346002B2D
:1052D80014BF01230023DAB28A4B1A704FF480718D
:1052E800834806F045FB0346002B14BF0123002327
:1052F800DAB2844B5A704FF400717D4806F038FBDF
:105308000346002B14BF01230023DAB27D4B9A70A9
:105318004FF48051764806F02BFB0346002B14BF50
:1053280001230023DAB2774BDA704FF4006170483A
:1053380006F01EFB0346002B14BF01230023DAB23C
:10534800704B1A714FF48041694806F011FB03460F
:10535800002B14BF01230023DAB26A4B5A714FF4B1
:105368000041634806F004FB0346002B14BF0123E9
:105378000023DAB2634B9A714FF400515C4806F08F
:10538800F7FA0346002B14BF01230023DAB25D4B62
:10539800DA715D4B5B6B9AB25C4B1A805A4B9B6B14
:1053A8009AB25A4B5A80584BDB6B9AB2584B1A80B8
:1053B800554B1B6C9AB2564B5A80FFF70DFF08E00D
:1053C8004FF400714FF0904006F0D2FA0346012BDB
:1053D80007D103214F4803F0C1F80346002BEFD152
:1053E8000AE000BF08E04FF400714FF0904006F06B
:1053F800BFFA0346012B07D102213E4803F0AEF85D
:105408000346002BEFD10AE000BF08E04FF400711B
:105418004FF0904006F0ACFA0346012B07D1032168
:10542800374803F09BF80346002BEFD10AE000BF92
:1054380008E04FF400714FF0904006F099FA0346E7
:10544800012B07D10C21344803F088F80346002BC0
:10545800EFD10AE000BF08E04FF400714FF0904030
:1054680006F086FA0346012B07D10C212B4803F0DE
:1054780075F80346002BEFD10AE000BF08E04FF4AF
:1054880000714FF0904006F073FA0346012B07D1E4
:105498001221234803F062F80346002BEFD10AE0FB
:1054A80000BF08E04FF400714FF0904006F060FA3A
:1054B8000346012B07D112211A4803F04FF803467F
:1054C800002BEFD10AE000BF08E04FF400714FF065
:1054D800904006F04DFA0346012B07D112211248DD
:1054E80003F03CF80346002BEFD128E000BF26E08C
:1054F80000100048F431002000040048000800486B
:10550800F8310020FC310020000400400C3200205B
:1055180008320020C0040108740300208003002022
:1055280094030020A8030020BC0300204FF400715E
:105538004FF0904006F01CFA0346012B07D10821D2
:10554800514803F00BF80346002BEFD10AE000BFE7
:1055580008E04FF400714FF0904006F009FA034656
:10556800012B07D10421494802F0F8FF0346002B1C
:10557800EFD10AE000BF08E04FF400714FF090400F
:1055880006F0F6F90346012B07D10421404802F042
:10559800E5FF0346002BEFD10AE000BF08E04FF417
:1055A80000714FF0904006F0E3F90346012B07D154
:1055B8000421384802F0D2FF0346002BEFD10AE05D
:1055C80000BF08E04FF400714FF0904006F0D0F9AA
:1055D8000346012B07D108212F4802F0BFFF0346DD
:1055E800002BEFD10AE000BF08E04FF400714FF044
:1055F800904006F0BDF90346012B07D1102127483A
:1056080002F0ACFF0346002BEFD10AE000BF08E030
:105618004FF400714FF0904006F0AAF90346012BB1
:1056280007D104211E4802F099FF0346002BEFD151
:105638000AE000BF08E04FF400714FF0904006F018
:1056480097F90346012B07D10421164802F086FF7B
:105658000346002BEFD10AE000BF08E04FF40071C9
:105668004FF0904006F084F90346012B07D104213E
:105678000D4802F073FF0346002BEFD100E000BF96
:10568800FFF7C8FD00BF80BDFC31002004320020B8
:10569800083200200C320020E0030020D003002054
:1056A800900300208C030020C404010880B584B056
:1056B80000AF786005F052FFF8607B68BB6000BF00
:1056C80005F04CFF0246FB68D31ABA689A42F7D82D
:1056D80000BF00BF1037BD4680BD000010B50E4C9E
:1056E80082B0636A019305F039FF0090626A019BFA
:1056F8009A4207D3009B01984FF47A7202FB030089
:1057080002B010BD05F02AFF636A4FF47A7202FBFB
:10571800003002B010BD00BF002C014080B483B03F
:1057280000AF03463960FB7197F90730002B0ADB9D
:105738003B68DAB20C4997F907301201D2B20B4430
:1057480083F800230AE03B68DAB20849FB7903F0E2
:105758000F03043B1201D2B20B441A7600BF0C3778
:10576800BD465DF8047B704700E100E000ED00E015
:1057780080B582B000AF78607B68013BB3F1807F71
:1057880001D301230FE00A4A7B68013B53600F21D4
:105798004FF0FF30FFF7C2FF054B00229A60044B21
:1057A80007221A60002318460837BD4680BD00BF8F
:1057B80010E000E080B500AFBFF34F8F00BFBFF32C
:1057C8006F8F00BF0B4B1A680B4B1B689A4202D3B2
:1057D800084B00221A60074B1B685A1C05490A60CF
:1057E800002B05D172B600BFFFF728FB62B600BFD9
:1057F80000BF80BD103200201432002080B400AFFA
:10580800054B5B68044A43F08053536000BFBD46B4
:105818005DF8047B704700BF00ED00E080B584B000
:1058280000AF87ED010A234B1B6807EE903AB8EEEC
:10583800677AD7ED017A67EE277AFCEEE77A17EEFA
:10584800903AFB60FB68B3F1807F18D3FB6807EEE2
:10585800903AB8EE677ADFED186AC7EE267AFCEE62
:10586800E77A17EE903A0133144A1360134B1B681A
:10587800FA68B2FBF3F31846FFF77AFF05E00F4B1F
:1058880000221A60F868FFF773FF0D4B00221A60B8
:105898000C4A0D4B1A600F216FF00400FFF73EFF12
:1058A8000F216FF00100FFF739FF00BF1037BD4629
:1058B80080BD00BF5C020020FFFF7F4B1432002038
:1058C80010320020BD57000818320020EFF3008086
:1058D80001B5EFF3118003B41EF0100F08BFB0EE4E
:1058E800400A0A48006803B488B004A006904FF044
:1058F800807007906FF006008646704703BC8047AB
:10590800BFF36F8F00DFFEE700BF000018320020F2
:105918001EF0100F08BFB0EE400A1EF0040F0CBFB7
:10592800EFF30880EFF30980816911F8020C10B1D8
:1059380001280DD00BE01EF0100F0CBF1AB008B0F4
:1059480003BC80F3118803BC80F300880847FEE796
:105958004EF61451CEF200010A6842F001020A60C4
:105968007047F4E700BF00BF80B400AF054B1B6869
:10597800044A43F40023136000BFBD465DF8047B6E
:10598800704700BF0010024080B400AF054B1B6891
:10599800044A43F48033136000BFBD465DF8047BBE
:1059A800704700BF0010024080B400AF074B1B686F
:1059B80003F40033B3F5003F01D1012300E00023D5
:1059C8001846BD465DF8047B704700BF00100240D2
:1059D80080B483B000AF7860064B9B6823F0030265
:1059E80004497B6813438B6000BF0C37BD465DF8E4
:1059F800047B70470010024080B400AF044B9B68E2
:105A080003F00C031846BD465DF8047B704700BFE1
:105A18000010024080B483B000AF7860064B9B68EA
:105A280023F0F00204497B6813438B6000BF0C37F6
:105A3800BD465DF8047B70470010024080B483B017
:105A480000AF7860064B9B6823F4E06204497B68EA
:105A580013438B6000BF0C37BD465DF8047B70476D
:105A68000010024080B483B000AF7860064B9B689A
:105A780023F4605204497B6813438B6000BF0C37E2
:105A8800BD465DF8047B70470010024080B400AF4B
:105A9800054B1B68044A43F08073136000BFBD4682
:105AA8005DF8047B704700BF0010024080B400AF6F
:105AB800074B1B6803F00073B3F1007F01D101238A
:105AC80000E000231846BD465DF8047B704700BF20
